{
  "contractName": "Factory",
  "abi": [
    {
      "inputs": [
        {
          "internalType": "uint256",
          "name": "",
          "type": "uint256"
        }
      ],
      "name": "deployedVotes",
      "outputs": [
        {
          "internalType": "address",
          "name": "",
          "type": "address"
        }
      ],
      "stateMutability": "view",
      "type": "function"
    },
    {
      "inputs": [
        {
          "internalType": "string",
          "name": "name",
          "type": "string"
        },
        {
          "internalType": "string",
          "name": "description",
          "type": "string"
        }
      ],
      "name": "createGroup",
      "outputs": [],
      "stateMutability": "nonpayable",
      "type": "function"
    },
    {
      "inputs": [
        {
          "internalType": "string",
          "name": "name",
          "type": "string"
        },
        {
          "internalType": "string",
          "name": "email",
          "type": "string"
        },
        {
          "internalType": "string",
          "name": "password",
          "type": "string"
        }
      ],
      "name": "registerUser",
      "outputs": [],
      "stateMutability": "nonpayable",
      "type": "function"
    },
    {
      "inputs": [
        {
          "internalType": "uint256",
          "name": "typeOf",
          "type": "uint256"
        }
      ],
      "name": "createVote",
      "outputs": [],
      "stateMutability": "nonpayable",
      "type": "function"
    },
    {
      "inputs": [
        {
          "internalType": "string",
          "name": "password",
          "type": "string"
        }
      ],
      "name": "loginUser",
      "outputs": [
        {
          "internalType": "string",
          "name": "",
          "type": "string"
        },
        {
          "internalType": "string",
          "name": "",
          "type": "string"
        },
        {
          "internalType": "uint256[]",
          "name": "",
          "type": "uint256[]"
        },
        {
          "internalType": "bool",
          "name": "",
          "type": "bool"
        }
      ],
      "stateMutability": "view",
      "type": "function"
    },
    {
      "inputs": [],
      "name": "getUser",
      "outputs": [
        {
          "internalType": "string",
          "name": "",
          "type": "string"
        },
        {
          "internalType": "string",
          "name": "",
          "type": "string"
        },
        {
          "internalType": "uint256[]",
          "name": "",
          "type": "uint256[]"
        },
        {
          "internalType": "bool",
          "name": "",
          "type": "bool"
        }
      ],
      "stateMutability": "view",
      "type": "function"
    },
    {
      "inputs": [],
      "name": "getUserGroups",
      "outputs": [
        {
          "internalType": "uint256[]",
          "name": "",
          "type": "uint256[]"
        }
      ],
      "stateMutability": "view",
      "type": "function"
    },
    {
      "inputs": [],
      "name": "getDeployedVotes",
      "outputs": [
        {
          "internalType": "address[]",
          "name": "",
          "type": "address[]"
        }
      ],
      "stateMutability": "view",
      "type": "function"
    },
    {
      "inputs": [
        {
          "internalType": "uint256",
          "name": "id",
          "type": "uint256"
        }
      ],
      "name": "getGroup",
      "outputs": [
        {
          "internalType": "string",
          "name": "",
          "type": "string"
        },
        {
          "internalType": "string",
          "name": "",
          "type": "string"
        },
        {
          "internalType": "address[]",
          "name": "",
          "type": "address[]"
        },
        {
          "internalType": "uint256",
          "name": "",
          "type": "uint256"
        }
      ],
      "stateMutability": "view",
      "type": "function"
    }
  ],
  "bytecode": "0x608060405234801561001057600080fd5b50613963806100206000396000f3fe608060405234801561001057600080fd5b50600436106100935760003560e01c8063ca9cdfff11610066578063ca9cdfff14610573578063ceb60654146105d2578063d637dcfa14610734578063d8314ffc1461091d578063fa954aa01461097c57610093565b80631c14ce5e146100985780631e4a97dd14610289578063832880e7146103db578063c142ab001461051b575b600080fd5b610151600480360360208110156100ae57600080fd5b81019080803590602001906401000000008111156100cb57600080fd5b8201836020820111156100dd57600080fd5b803590602001918460018302840111640100000000831117156100ff57600080fd5b91908080601f016020809104026020016040519081016040528093929190818152602001838380828437600081840152601f19601f8201169050808301925050505050505091929192905050506109aa565b604051808060200180602001806020018515158152602001848103845288818151815260200191508051906020019080838360005b838110156101a1578082015181840152602081019050610186565b50505050905090810190601f1680156101ce5780820380516001836020036101000a031916815260200191505b50848103835287818151815260200191508051906020019080838360005b838110156102075780820151818401526020810190506101ec565b50505050905090810190601f1680156102345780820380516001836020036101000a031916815260200191505b50848103825286818151815260200191508051906020019060200280838360005b83811015610270578082015181840152602081019050610255565b5050505090500197505050505050505060405180910390f35b6103d96004803603604081101561029f57600080fd5b81019080803590602001906401000000008111156102bc57600080fd5b8201836020820111156102ce57600080fd5b803590602001918460018302840111640100000000831117156102f057600080fd5b91908080601f016020809104026020016040519081016040528093929190818152602001838380828437600081840152601f19601f8201169050808301925050505050505091929192908035906020019064010000000081111561035357600080fd5b82018360208201111561036557600080fd5b8035906020019184600183028401116401000000008311171561038757600080fd5b91908080601f016020809104026020016040519081016040528093929190818152602001838380828437600081840152601f19601f820116905080830192505050505050509192919290505050610ca4565b005b6103e3610d02565b604051808060200180602001806020018515158152602001848103845288818151815260200191508051906020019080838360005b83811015610433578082015181840152602081019050610418565b50505050905090810190601f1680156104605780820380516001836020036101000a031916815260200191505b50848103835287818151815260200191508051906020019080838360005b8381101561049957808201518184015260208101905061047e565b50505050905090810190601f1680156104c65780820380516001836020036101000a031916815260200191505b50848103825286818151815260200191508051906020019060200280838360005b838110156105025780820151818401526020810190506104e7565b5050505090500197505050505050505060405180910390f35b6105476004803603602081101561053157600080fd5b8101908080359060200190929190505050610f02565b604051808273ffffffffffffffffffffffffffffffffffffffff16815260200191505060405180910390f35b61057b610f41565b6040518080602001828103825283818151815260200191508051906020019060200280838360005b838110156105be5780820151818401526020810190506105a3565b505050509050019250505060405180910390f35b6105fe600480360360208110156105e857600080fd5b8101908080359060200190929190505050610fcf565b60405180806020018060200180602001858152602001848103845288818151815260200191508051906020019080838360005b8381101561064c578082015181840152602081019050610631565b50505050905090810190601f1680156106795780820380516001836020036101000a031916815260200191505b50848103835287818151815260200191508051906020019080838360005b838110156106b2578082015181840152602081019050610697565b50505050905090810190601f1680156106df5780820380516001836020036101000a031916815260200191505b50848103825286818151815260200191508051906020019060200280838360005b8381101561071b578082015181840152602081019050610700565b5050505090500197505050505050505060405180910390f35b61091b6004803603606081101561074a57600080fd5b810190808035906020019064010000000081111561076757600080fd5b82018360208201111561077957600080fd5b8035906020019184600183028401116401000000008311171561079b57600080fd5b91908080601f016020809104026020016040519081016040528093929190818152602001838380828437600081840152601f19601f820116905080830192505050505050509192919290803590602001906401000000008111156107fe57600080fd5b82018360208201111561081057600080fd5b8035906020019184600183028401116401000000008311171561083257600080fd5b91908080601f016020809104026020016040519081016040528093929190818152602001838380828437600081840152601f19601f8201169050808301925050505050505091929192908035906020019064010000000081111561089557600080fd5b8201836020820111156108a757600080fd5b803590602001918460018302840111640100000000831117156108c957600080fd5b91908080601f016020809104026020016040519081016040528093929190818152602001838380828437600081840152601f19601f8201169050808301925050505050505091929192905050506111cd565b005b6109256112ed565b6040518080602001828103825283818151815260200191508051906020019060200280838360005b8381101561096857808201518184015260208101905061094d565b505050509050019250505060405180910390f35b6109a86004803603602081101561099257600080fd5b8101908080359060200190929190505050611385565b005b6060806060600080600160003373ffffffffffffffffffffffffffffffffffffffff1673ffffffffffffffffffffffffffffffffffffffff1681526020019081526020016000209050806003016040516020018082805460018160011615610100020316600290048015610a555780601f10610a33576101008083540402835291820191610a55565b820191906000526020600020905b815481529060010190602001808311610a41575b505091505060405160208183030381529060405280519060200120866040516020018082805190602001908083835b60208310610aa75780518252602082019150602081019050602083039250610a84565b6001836020036101000a0380198251168184511680821785525050505050509050019150506040516020818303038152906040528051906020012014610aec57600080fd5b8060010181600201826004018360050160009054906101000a900460ff16838054600181600116156101000203166002900480601f016020809104026020016040519081016040528092919081815260200182805460018160011615610100020316600290048015610b9f5780601f10610b7457610100808354040283529160200191610b9f565b820191906000526020600020905b815481529060010190602001808311610b8257829003601f168201915b50505050509350828054600181600116156101000203166002900480601f016020809104026020016040519081016040528092919081815260200182805460018160011615610100020316600290048015610c3b5780601f10610c1057610100808354040283529160200191610c3b565b820191906000526020600020905b815481529060010190602001808311610c1e57829003601f168201915b5050505050925081805480602002602001604051908101604052809291908181526020018280548015610c8d57602002820191906000526020600020905b815481526020019060010190808311610c79575b505050505091509450945094509450509193509193565b60006002600060036000815480929190600101919050558152602001908152602001600020905082816000019080519060200190610ce3929190611442565b5081816001019080519060200190610cfc929190611442565b50505050565b6060806060600080600160003373ffffffffffffffffffffffffffffffffffffffff1673ffffffffffffffffffffffffffffffffffffffff16815260200190815260200160002090508060010181600201826004018360050160009054906101000a900460ff16838054600181600116156101000203166002900480601f016020809104026020016040519081016040528092919081815260200182805460018160011615610100020316600290048015610dfe5780601f10610dd357610100808354040283529160200191610dfe565b820191906000526020600020905b815481529060010190602001808311610de157829003601f168201915b50505050509350828054600181600116156101000203166002900480601f016020809104026020016040519081016040528092919081815260200182805460018160011615610100020316600290048015610e9a5780601f10610e6f57610100808354040283529160200191610e9a565b820191906000526020600020905b815481529060010190602001808311610e7d57829003601f168201915b5050505050925081805480602002602001604051908101604052809291908181526020018280548015610eec57602002820191906000526020600020905b815481526020019060010190808311610ed8575b5050505050915094509450945094505090919293565b60008181548110610f1257600080fd5b906000526020600020016000915054906101000a900473ffffffffffffffffffffffffffffffffffffffff1681565b60606000805480602002602001604051908101604052809291908181526020018280548015610fc557602002820191906000526020600020905b8160009054906101000a900473ffffffffffffffffffffffffffffffffffffffff1673ffffffffffffffffffffffffffffffffffffffff1681526020019060010190808311610f7b575b5050505050905090565b60608060606000806002600087815260200190815260200160002090508060000181600101826002018360030154838054600181600116156101000203166002900480601f0160208091040260200160405190810160405280929190818152602001828054600181600116156101000203166002900480156110925780601f1061106757610100808354040283529160200191611092565b820191906000526020600020905b81548152906001019060200180831161107557829003601f168201915b50505050509350828054600181600116156101000203166002900480601f01602080910402602001604051908101604052809291908181526020018280546001816001161561010002031660029004801561112e5780601f106111035761010080835404028352916020019161112e565b820191906000526020600020905b81548152906001019060200180831161111157829003601f168201915b50505050509250818054806020026020016040519081016040528092919081815260200182805480156111b657602002820191906000526020600020905b8160009054906101000a900473ffffffffffffffffffffffffffffffffffffffff1673ffffffffffffffffffffffffffffffffffffffff168152602001906001019080831161116c575b505050505091509450945094509450509193509193565b6000600160003373ffffffffffffffffffffffffffffffffffffffff1673ffffffffffffffffffffffffffffffffffffffff168152602001908152602001600020905083816001019080519060200190611228929190611442565b5082816002019080519060200190611241929190611442565b508181600301908051906020019061125a929190611442565b50338160000160006101000a81548173ffffffffffffffffffffffffffffffffffffffff021916908373ffffffffffffffffffffffffffffffffffffffff160217905550806004016000908060018154018082558091505060019003906000526020600020016000909190919091505560018160050160006101000a81548160ff02191690831515021790555050505050565b6060600160003373ffffffffffffffffffffffffffffffffffffffff1673ffffffffffffffffffffffffffffffffffffffff16815260200190815260200160002060040180548060200260200160405190810160405280929190818152602001828054801561137b57602002820191906000526020600020905b815481526020019060010190808311611367575b5050505050905090565b60003382604051611395906114d0565b808373ffffffffffffffffffffffffffffffffffffffff16815260200182815260200192505050604051809103906000f0801580156113d8573d6000803e3d6000fd5b5090506000819080600181540180825580915050600190039060005260206000200160009091909190916101000a81548173ffffffffffffffffffffffffffffffffffffffff021916908373ffffffffffffffffffffffffffffffffffffffff1602179055505050565b828054600181600116156101000203166002900490600052602060002090601f01602090048101928261147857600085556114bf565b82601f1061149157805160ff19168380011785556114bf565b828001600101855582156114bf579182015b828111156114be5782518255916020019190600101906114a3565b5b5090506114cc91906114dd565b5090565b612433806114fb83390190565b5b808211156114f65760008160009055506001016114de565b509056fe608060405234801561001057600080fd5b506040516124333803806124338339818101604052604081101561003357600080fd5b810190808051906020019092919080519060200190929190505050816000806101000a81548173ffffffffffffffffffffffffffffffffffffffff021916908373ffffffffffffffffffffffffffffffffffffffff1602179055508060001461009d5760016100a0565b60005b60ff166002819055505050612379806100ba6000396000f3fe608060405234801561001057600080fd5b50600436106100f55760003560e01c80638ab66a9011610097578063da3550ee11610066578063da3550ee146109de578063dcfda00f14610a22578063e1c5fcc114610c1f578063fcae83a714610c79576100f5565b80638ab66a90146106a157806395115447146107ee578063ad0dcf9c14610887578063af47fb3f146109b0576100f5565b806367127e43116100d357806367127e4314610283578063691a675c146103e95780637432e63a146104ed578063869eae2314610545576100f5565b80632d35a8a2146100fa57806335a893a114610118578063481c6a751461024f575b600080fd5b610102610de9565b6040518082815260200191505060405180910390f35b6101446004803603602081101561012e57600080fd5b8101908080359060200190929190505050610def565b604051808573ffffffffffffffffffffffffffffffffffffffff1681526020018481526020018060200180602001838103835285818151815260200191508051906020019080838360005b838110156101aa57808201518184015260208101905061018f565b50505050905090810190601f1680156101d75780820380516001836020036101000a031916815260200191505b50838103825284818151815260200191508051906020019080838360005b838110156102105780820151818401526020810190506101f5565b50505050905090810190601f16801561023d5780820380516001836020036101000a031916815260200191505b50965050505050505060405180910390f35b610257610f7f565b604051808273ffffffffffffffffffffffffffffffffffffffff16815260200191505060405180910390f35b6103e76004803603608081101561029957600080fd5b81019080803590602001906401000000008111156102b657600080fd5b8201836020820111156102c857600080fd5b803590602001918460018302840111640100000000831117156102ea57600080fd5b91908080601f016020809104026020016040519081016040528093929190818152602001838380828437600081840152601f19601f82011690508083019250505050505050919291929080359060200190929190803590602001909291908035906020019064010000000081111561036157600080fd5b82018360208201111561037357600080fd5b8035906020019184600183028401116401000000008311171561039557600080fd5b91908080601f016020809104026020016040519081016040528093929190818152602001838380828437600081840152601f19601f820116905080830192505050505050509192919290505050610fa3565b005b6103f161105b565b604051808060200186815260200185815260200180602001848152602001838103835288818151815260200191508051906020019080838360005b8381101561044757808201518184015260208101905061042c565b50505050905090810190601f1680156104745780820380516001836020036101000a031916815260200191505b50838103825285818151815260200191508051906020019080838360005b838110156104ad578082015181840152602081019050610492565b50505050905090810190601f1680156104da5780820380516001836020036101000a031916815260200191505b5097505050505050505060405180910390f35b6105196004803603602081101561050357600080fd5b81019080803590602001909291905050506111af565b604051808273ffffffffffffffffffffffffffffffffffffffff16815260200191505060405180910390f35b61069f6004803603606081101561055b57600080fd5b810190808035906020019064010000000081111561057857600080fd5b82018360208201111561058a57600080fd5b803590602001918460018302840111640100000000831117156105ac57600080fd5b91908080601f016020809104026020016040519081016040528093929190818152602001838380828437600081840152601f19601f8201169050808301925050505050505091929192908035906020019064010000000081111561060f57600080fd5b82018360208201111561062157600080fd5b8035906020019184600183028401116401000000008311171561064357600080fd5b91908080601f016020809104026020016040519081016040528093929190818152602001838380828437600081840152601f19601f820116905080830192505050505050509192919290803590602001909291905050506111ee565b005b6106e3600480360360208110156106b757600080fd5b81019080803573ffffffffffffffffffffffffffffffffffffffff1690602001909291905050506113f4565b604051808573ffffffffffffffffffffffffffffffffffffffff1681526020018481526020018060200180602001838103835285818151815260200191508051906020019080838360005b8381101561074957808201518184015260208101905061072e565b50505050905090810190601f1680156107765780820380516001836020036101000a031916815260200191505b50838103825284818151815260200191508051906020019080838360005b838110156107af578082015181840152602081019050610794565b50505050905090810190601f1680156107dc5780820380516001836020036101000a031916815260200191505b50965050505050505060405180910390f35b6108306004803603602081101561080457600080fd5b81019080803573ffffffffffffffffffffffffffffffffffffffff169060200190929190505050611574565b6040518080602001828103825283818151815260200191508051906020019060200280838360005b83811015610873578082015181840152602081019050610858565b505050509050019250505060405180910390f35b6108c96004803603602081101561089d57600080fd5b81019080803573ffffffffffffffffffffffffffffffffffffffff169060200190929190505050611653565b604051808060200180602001838103835285818151815260200191508051906020019080838360005b8381101561090d5780820151818401526020810190506108f2565b50505050905090810190601f16801561093a5780820380516001836020036101000a031916815260200191505b50838103825284818151815260200191508051906020019080838360005b83811015610973578082015181840152602081019050610958565b50505050905090810190601f1680156109a05780820380516001836020036101000a031916815260200191505b5094505050505060405180910390f35b6109dc600480360360208110156109c657600080fd5b810190808035906020019092919050505061182a565b005b610a20600480360360208110156109f457600080fd5b81019080803573ffffffffffffffffffffffffffffffffffffffff169060200190929190505050611bb5565b005b610c1d600480360360a0811015610a3857600080fd5b8101908080359060200190640100000000811115610a5557600080fd5b820183602082011115610a6757600080fd5b80359060200191846001830284011164010000000083111715610a8957600080fd5b91908080601f016020809104026020016040519081016040528093929190818152602001838380828437600081840152601f19601f820116905080830192505050505050509192919290803590602001909291908035906020019092919080359060200190640100000000811115610b0057600080fd5b820183602082011115610b1257600080fd5b80359060200191846001830284011164010000000083111715610b3457600080fd5b91908080601f016020809104026020016040519081016040528093929190818152602001838380828437600081840152601f19601f82011690508083019250505050505050919291929080359060200190640100000000811115610b9757600080fd5b820183602082011115610ba957600080fd5b80359060200191846001830284011164010000000083111715610bcb57600080fd5b91908080601f016020809104026020016040519081016040528093929190818152602001838380828437600081840152601f19601f820116905080830192505050505050509192919290505050611e1e565b005b610c6160048036036020811015610c3557600080fd5b81019080803573ffffffffffffffffffffffffffffffffffffffff169060200190929190505050611ef0565b60405180821515815260200191505060405180910390f35b610c81611f56565b6040518080602001878152602001868152602001806020018581526020018060200184810384528a818151815260200191508051906020019080838360005b83811015610cdb578082015181840152602081019050610cc0565b50505050905090810190601f168015610d085780820380516001836020036101000a031916815260200191505b50848103835287818151815260200191508051906020019080838360005b83811015610d41578082015181840152602081019050610d26565b50505050905090810190601f168015610d6e5780820380516001836020036101000a031916815260200191505b50848103825285818151815260200191508051906020019080838360005b83811015610da7578082015181840152602081019050610d8c565b50505050905090810190601f168015610dd45780820380516001836020036101000a031916815260200191505b50995050505050505050505060405180910390f35b60015481565b60048181548110610dff57600080fd5b90600052602060002090600502016000915090508060000160009054906101000a900473ffffffffffffffffffffffffffffffffffffffff1690806001015490806003018054600181600116156101000203166002900480601f016020809104026020016040519081016040528092919081815260200182805460018160011615610100020316600290048015610ed75780601f10610eac57610100808354040283529160200191610ed7565b820191906000526020600020905b815481529060010190602001808311610eba57829003601f168201915b505050505090806004018054600181600116156101000203166002900480601f016020809104026020016040519081016040528092919081815260200182805460018160011615610100020316600290048015610f755780601f10610f4a57610100808354040283529160200191610f75565b820191906000526020600020905b815481529060010190602001808311610f5857829003601f168201915b5050505050905084565b60008054906101000a900473ffffffffffffffffffffffffffffffffffffffff1681565b60008054906101000a900473ffffffffffffffffffffffffffffffffffffffff1673ffffffffffffffffffffffffffffffffffffffff163373ffffffffffffffffffffffffffffffffffffffff1614610ffb57600080fd5b60016002541461100a57600080fd5b6000600d905084816000019080519060200190611028929190612148565b5083816001018190555082816002018190555081816003019080519060200190611053929190612148565b505050505050565b600d806000018054600181600116156101000203166002900480601f0160208091040260200160405190810160405280929190818152602001828054600181600116156101000203166002900480156110f55780601f106110ca576101008083540402835291602001916110f5565b820191906000526020600020905b8154815290600101906020018083116110d857829003601f168201915b505050505090806001015490806002015490806003018054600181600116156101000203166002900480601f01602080910402602001604051908101604052809291908181526020018280546001816001161561010002031660029004801561119f5780601f106111745761010080835404028352916020019161119f565b820191906000526020600020905b81548152906001019060200180831161118257829003601f168201915b5050505050908060040154905085565b600581815481106111bf57600080fd5b906000526020600020016000915054906101000a900473ffffffffffffffffffffffffffffffffffffffff1681565b6000600254146111fd57600080fd5b60066001015481118015611215575060066002015481105b61121e57600080fd5b6000600360003373ffffffffffffffffffffffffffffffffffffffff1673ffffffffffffffffffffffffffffffffffffffff168152602001908152602001600020905083816003019080519060200190611279929190612148565b5082816004019080519060200190611292929190612148565b50338160000160006101000a81548173ffffffffffffffffffffffffffffffffffffffff021916908373ffffffffffffffffffffffffffffffffffffffff16021790555060048190806001815401808255809150506001900390600052602060002090600502016000909190919091506000820160009054906101000a900473ffffffffffffffffffffffffffffffffffffffff168160000160006101000a81548173ffffffffffffffffffffffffffffffffffffffff021916908373ffffffffffffffffffffffffffffffffffffffff1602179055506001820154816001015560028201816002019080546113899291906121d6565b50600382018160030190805460018160011615610100020316600290046113b1929190612228565b50600482018160040190805460018160011615610100020316600290046113d9929190612228565b50505060016000815480929190600101919050555050505050565b60036020528060005260406000206000915090508060000160009054906101000a900473ffffffffffffffffffffffffffffffffffffffff1690806001015490806003018054600181600116156101000203166002900480601f0160208091040260200160405190810160405280929190818152602001828054600181600116156101000203166002900480156114cc5780601f106114a1576101008083540402835291602001916114cc565b820191906000526020600020905b8154815290600101906020018083116114af57829003601f168201915b505050505090806004018054600181600116156101000203166002900480601f01602080910402602001604051908101604052809291908181526020018280546001816001161561010002031660029004801561156a5780601f1061153f5761010080835404028352916020019161156a565b820191906000526020600020905b81548152906001019060200180831161154d57829003601f168201915b5050505050905084565b606060006002541461158557600080fd5b600360008373ffffffffffffffffffffffffffffffffffffffff1673ffffffffffffffffffffffffffffffffffffffff16815260200190815260200160002060020180548060200260200160405190810160405280929190818152602001828054801561164757602002820191906000526020600020905b8160009054906101000a900473ffffffffffffffffffffffffffffffffffffffff1673ffffffffffffffffffffffffffffffffffffffff16815260200190600101908083116115fd575b50505050509050919050565b60608060006002541461166557600080fd5b600360008473ffffffffffffffffffffffffffffffffffffffff1673ffffffffffffffffffffffffffffffffffffffff168152602001908152602001600020600301600360008573ffffffffffffffffffffffffffffffffffffffff1673ffffffffffffffffffffffffffffffffffffffff168152602001908152602001600020600401818054600181600116156101000203166002900480601f01602080910402602001604051908101604052809291908181526020018280546001816001161561010002031660029004801561177e5780601f106117535761010080835404028352916020019161177e565b820191906000526020600020905b81548152906001019060200180831161176157829003601f168201915b50505050509150808054600181600116156101000203166002900480601f01602080910402602001604051908101604052809291908181526020018280546001816001161561010002031660029004801561181a5780601f106117ef5761010080835404028352916020019161181a565b820191906000526020600020905b8154815290600101906020018083116117fd57829003601f168201915b5050505050905091509150915091565b60006002541461183957600080fd5b6000600360003373ffffffffffffffffffffffffffffffffffffffff1673ffffffffffffffffffffffffffffffffffffffff1681526020019081526020016000209050604051806020016040528060008152508160030190805190602001906118a3929190612148565b50604051806020016040528060008152508160040190805190602001906118cb929190612148565b50600360003373ffffffffffffffffffffffffffffffffffffffff1673ffffffffffffffffffffffffffffffffffffffff168152602001908152602001600020600080820160006101000a81549073ffffffffffffffffffffffffffffffffffffffff0219169055600182016000905560028201600061194b91906122bd565b60038201600061195b91906122de565b60048201600061196b91906122de565b505060005b600480549050811015611b9d576004818154811061198a57fe5b906000526020600020906005020160000160009054906101000a900473ffffffffffffffffffffffffffffffffffffffff1673ffffffffffffffffffffffffffffffffffffffff163373ffffffffffffffffffffffffffffffffffffffff161415611b9057600460016004805490500381548110611a0457fe5b906000526020600020906005020160048281548110611a1f57fe5b90600052602060002090600502016000820160009054906101000a900473ffffffffffffffffffffffffffffffffffffffff168160000160006101000a81548173ffffffffffffffffffffffffffffffffffffffff021916908373ffffffffffffffffffffffffffffffffffffffff160217905550600182015481600101556002820181600201908054611ab49291906121d6565b5060038201816003019080546001816001161561010002031660029004611adc929190612228565b5060048201816004019080546001816001161561010002031660029004611b04929190612228565b509050506004805480611b1357fe5b6001900381819060005260206000209060050201600080820160006101000a81549073ffffffffffffffffffffffffffffffffffffffff02191690556001820160009055600282016000611b6791906122bd565b600382016000611b7791906122de565b600482016000611b8791906122de565b50509055611b9d565b8080600101915050611970565b50600160008154809291906001900391905055505050565b600060025414611bc457600080fd5b600015156006800160003373ffffffffffffffffffffffffffffffffffffffff1673ffffffffffffffffffffffffffffffffffffffff16815260200190815260200160002060009054906101000a900460ff1615151415611e1b57600073ffffffffffffffffffffffffffffffffffffffff16600360008373ffffffffffffffffffffffffffffffffffffffff1673ffffffffffffffffffffffffffffffffffffffff16815260200190815260200160002060000160009054906101000a900473ffffffffffffffffffffffffffffffffffffffff1673ffffffffffffffffffffffffffffffffffffffff1614611e1a5760016006800160003373ffffffffffffffffffffffffffffffffffffffff1673ffffffffffffffffffffffffffffffffffffffff16815260200190815260200160002060006101000a81548160ff021916908315150217905550600660040160008154809291906001019190505550600360008273ffffffffffffffffffffffffffffffffffffffff1673ffffffffffffffffffffffffffffffffffffffff16815260200190815260200160002060010160008154809291906001019190505550600360008273ffffffffffffffffffffffffffffffffffffffff1673ffffffffffffffffffffffffffffffffffffffff168152602001908152602001600020600201339080600181540180825580915050600190039060005260206000200160009091909190916101000a81548173ffffffffffffffffffffffffffffffffffffffff021916908373ffffffffffffffffffffffffffffffffffffffff1602179055505b5b50565b60008054906101000a900473ffffffffffffffffffffffffffffffffffffffff1673ffffffffffffffffffffffffffffffffffffffff163373ffffffffffffffffffffffffffffffffffffffff1614611e7657600080fd5b600060025414611e8557600080fd5b60006006905085816000019080519060200190611ea3929190612148565b5084816001018190555083816002018190555082816003019080519060200190611ece929190612148565b5081816005019080519060200190611ee7929190612148565b50505050505050565b60008060025414611f0057600080fd5b6006800160008373ffffffffffffffffffffffffffffffffffffffff1673ffffffffffffffffffffffffffffffffffffffff16815260200190815260200160002060009054906101000a900460ff169050919050565b6006806000018054600181600116156101000203166002900480601f016020809104026020016040519081016040528092919081815260200182805460018160011615610100020316600290048015611ff05780601f10611fc557610100808354040283529160200191611ff0565b820191906000526020600020905b815481529060010190602001808311611fd357829003601f168201915b505050505090806001015490806002015490806003018054600181600116156101000203166002900480601f01602080910402602001604051908101604052809291908181526020018280546001816001161561010002031660029004801561209a5780601f1061206f5761010080835404028352916020019161209a565b820191906000526020600020905b81548152906001019060200180831161207d57829003601f168201915b505050505090806004015490806005018054600181600116156101000203166002900480601f01602080910402602001604051908101604052809291908181526020018280546001816001161561010002031660029004801561213e5780601f106121135761010080835404028352916020019161213e565b820191906000526020600020905b81548152906001019060200180831161212157829003601f168201915b5050505050905086565b828054600181600116156101000203166002900490600052602060002090601f01602090048101928261217e57600085556121c5565b82601f1061219757805160ff19168380011785556121c5565b828001600101855582156121c5579182015b828111156121c45782518255916020019190600101906121a9565b5b5090506121d29190612326565b5090565b8280548282559060005260206000209081019282156122175760005260206000209182015b828111156122165782548255916001019190600101906121fb565b5b5090506122249190612326565b5090565b828054600181600116156101000203166002900490600052602060002090601f01602090048101928261225e57600085556122ac565b82601f1061226f57805485556122ac565b828001600101855582156122ac57600052602060002091601f016020900482015b828111156122ab578254825591600101919060010190612290565b5b5090506122b99190612326565b5090565b50805460008255906000526020600020908101906122db9190612326565b50565b50805460018160011615610100020316600290046000825580601f106123045750612323565b601f0160209004906000526020600020908101906123229190612326565b5b50565b5b8082111561233f576000816000905550600101612327565b509056fea26469706673582212209dc101c5039a4455f87503182525aacee0a78da7b35af852e38c7c3852ddf1e364736f6c63430007040033a26469706673582212202f7103f7348653427faf0e24be6127cce4663dd408be2076b98e782ec4aec0d464736f6c63430007040033",
  "immutableReferences": {},
  "source": "pragma solidity ^0.7.4;\r\n//\"SPDX-License-Identifier: UNLICENSED\"\r\nimport \"./Vote.sol\";\r\ncontract Factory{\r\n    struct groupStruct{\r\n        string name;\r\n        string description;\r\n        address[] members;\r\n        uint membersCount; \r\n    }\r\n    struct userStruct{\r\n        address userAddress;\r\n        string name;\r\n        string email;\r\n        string password;\r\n        // address[] running;\r\n        // address[] createdElection;\r\n        // address[] createdPetition;\r\n        uint[] groups;\r\n        bool isAdmin;\r\n    }\r\n    \r\n    address[] public deployedVotes;\r\n    mapping(address=>userStruct) userInfo;\r\n    mapping(uint=>groupStruct) groupInfo;\r\n    uint groupCount;\r\n    \r\n    \r\n    function createGroup(string memory name, string memory description)\r\n    public {\r\n        groupStruct storage g = groupInfo[groupCount++]; //innitialize group\r\n        g.name = name;\r\n        g.description = description;\r\n    }\r\n    \r\n    function registerUser(string memory name, string memory email, string memory password) public {\r\n        // require (((userInfo[msg.sender]).userAddress) != address(0));\r\n            userStruct storage u = userInfo[msg.sender]; //innitialize\r\n            u.name = name;\r\n            u.email = email;\r\n            u.password = password;\r\n            u.userAddress =  msg.sender;\r\n            u.groups.push(0);// needs to increment groupCount and group members\r\n            u.isAdmin = true;\r\n    }\r\n    function createVote(uint typeOf) public{\r\n        address newVote = address(new Vote(msg.sender, typeOf));\r\n        deployedVotes.push(newVote);\r\n    }\r\n    function loginUser(string memory password) public view returns (string memory, string memory, uint[] memory, bool) {\r\n       userStruct storage u = userInfo[msg.sender];\r\n       require( (keccak256(abi.encodePacked(password))) == (keccak256(abi.encodePacked(u.password))) );\r\n       return(u.name, u.email, u.groups, u.isAdmin);\r\n    }\r\n    function getUser() public view returns (string memory, string memory, uint[] memory, bool){\r\n        userStruct storage u = userInfo[msg.sender];\r\n        return(u.name, u.email, u.groups, u.isAdmin);\r\n    }\r\n    \r\n    function getUserGroups() public view returns (uint[] memory) {\r\n        return (userInfo[msg.sender]).groups;\r\n    }\r\n    \r\n    function getDeployedVotes() public view returns (address[] memory) {\r\n        return deployedVotes;\r\n    }\r\n    function getGroup(uint id) public view returns(string memory, string memory, address[] memory, uint) {\r\n        groupStruct storage g = groupInfo[id];\r\n        return (g.name,g.description,g.members,g.membersCount);\r\n    }\r\n}\r\n\r\n",
  "sourcePath": "C:/Users/foubroker/PROJECT_VOTE/voting-at-mcgill/contracts/VoteFactory.sol",
  "compiler": {
    "name": "solc",
    "version": "0.7.4+commit.3f05b770.Emscripten.clang"
  },
  "schemaVersion": "3.3.3",
  "updatedAt": "2021-03-07T00:09:25.941Z",
  "devdoc": {
    "kind": "dev",
    "methods": {},
    "version": 1
  },
  "userdoc": {
    "kind": "user",
    "methods": {},
    "version": 1
  }
}