{
  "contractName": "VoteFactory",
  "abi": [
    {
      "inputs": [
        {
          "internalType": "uint256",
          "name": "",
          "type": "uint256"
        }
      ],
      "name": "deployedVotes",
      "outputs": [
        {
          "internalType": "address",
          "name": "",
          "type": "address"
        }
      ],
      "stateMutability": "view",
      "type": "function",
      "constant": true
    },
    {
      "inputs": [
        {
          "internalType": "uint256",
          "name": "",
          "type": "uint256"
        }
      ],
      "name": "existingGroups",
      "outputs": [
        {
          "internalType": "uint32",
          "name": "",
          "type": "uint32"
        }
      ],
      "stateMutability": "view",
      "type": "function",
      "constant": true
    },
    {
      "inputs": [
        {
          "internalType": "uint256",
          "name": "",
          "type": "uint256"
        }
      ],
      "name": "groupInfo",
      "outputs": [
        {
          "internalType": "string",
          "name": "name",
          "type": "string"
        },
        {
          "internalType": "string",
          "name": "description",
          "type": "string"
        }
      ],
      "stateMutability": "view",
      "type": "function",
      "constant": true
    },
    {
      "inputs": [
        {
          "internalType": "string",
          "name": "name",
          "type": "string"
        },
        {
          "internalType": "string",
          "name": "description",
          "type": "string"
        }
      ],
      "name": "createGroup",
      "outputs": [],
      "stateMutability": "nonpayable",
      "type": "function"
    },
    {
      "inputs": [
        {
          "internalType": "uint32",
          "name": "groupID",
          "type": "uint32"
        }
      ],
      "name": "registerGroup",
      "outputs": [],
      "stateMutability": "nonpayable",
      "type": "function"
    },
    {
      "inputs": [
        {
          "internalType": "uint32",
          "name": "indexGroup",
          "type": "uint32"
        },
        {
          "internalType": "uint32",
          "name": "indexMember",
          "type": "uint32"
        },
        {
          "internalType": "uint32",
          "name": "groupID",
          "type": "uint32"
        }
      ],
      "name": "leaveGroup",
      "outputs": [],
      "stateMutability": "nonpayable",
      "type": "function"
    },
    {
      "inputs": [
        {
          "internalType": "string",
          "name": "name",
          "type": "string"
        },
        {
          "internalType": "string",
          "name": "email",
          "type": "string"
        },
        {
          "internalType": "uint256",
          "name": "studentID",
          "type": "uint256"
        },
        {
          "internalType": "string",
          "name": "password",
          "type": "string"
        }
      ],
      "name": "registerUser",
      "outputs": [],
      "stateMutability": "nonpayable",
      "type": "function"
    },
    {
      "inputs": [
        {
          "internalType": "uint256",
          "name": "studentID",
          "type": "uint256"
        },
        {
          "internalType": "string",
          "name": "password",
          "type": "string"
        }
      ],
      "name": "loginUser",
      "outputs": [
        {
          "internalType": "string",
          "name": "",
          "type": "string"
        },
        {
          "internalType": "string",
          "name": "",
          "type": "string"
        },
        {
          "internalType": "uint32[]",
          "name": "",
          "type": "uint32[]"
        },
        {
          "internalType": "bool",
          "name": "",
          "type": "bool"
        }
      ],
      "stateMutability": "nonpayable",
      "type": "function"
    },
    {
      "inputs": [],
      "name": "logoutUser",
      "outputs": [],
      "stateMutability": "nonpayable",
      "type": "function"
    },
    {
      "inputs": [
        {
          "internalType": "uint256",
          "name": "typeOf",
          "type": "uint256"
        }
      ],
      "name": "createVote",
      "outputs": [],
      "stateMutability": "nonpayable",
      "type": "function"
    },
    {
      "inputs": [],
      "name": "isUserLoggedIn",
      "outputs": [
        {
          "internalType": "bool",
          "name": "",
          "type": "bool"
        }
      ],
      "stateMutability": "view",
      "type": "function",
      "constant": true
    },
    {
      "inputs": [
        {
          "internalType": "uint32",
          "name": "groupID",
          "type": "uint32"
        }
      ],
      "name": "isUserGroup",
      "outputs": [
        {
          "internalType": "bool",
          "name": "",
          "type": "bool"
        }
      ],
      "stateMutability": "view",
      "type": "function",
      "constant": true
    },
    {
      "inputs": [
        {
          "internalType": "uint32",
          "name": "groupID",
          "type": "uint32"
        }
      ],
      "name": "isGroup",
      "outputs": [
        {
          "internalType": "bool",
          "name": "",
          "type": "bool"
        }
      ],
      "stateMutability": "view",
      "type": "function",
      "constant": true
    },
    {
      "inputs": [
        {
          "internalType": "uint32",
          "name": "index",
          "type": "uint32"
        }
      ],
      "name": "getUserGroup",
      "outputs": [
        {
          "internalType": "uint32",
          "name": "",
          "type": "uint32"
        }
      ],
      "stateMutability": "view",
      "type": "function",
      "constant": true
    },
    {
      "inputs": [],
      "name": "getUserAllGroups",
      "outputs": [
        {
          "internalType": "uint32[]",
          "name": "",
          "type": "uint32[]"
        }
      ],
      "stateMutability": "view",
      "type": "function",
      "constant": true
    },
    {
      "inputs": [
        {
          "internalType": "uint32",
          "name": "groupID",
          "type": "uint32"
        }
      ],
      "name": "getAllMembers",
      "outputs": [
        {
          "internalType": "address[]",
          "name": "",
          "type": "address[]"
        }
      ],
      "stateMutability": "view",
      "type": "function",
      "constant": true
    },
    {
      "inputs": [
        {
          "internalType": "uint8",
          "name": "id",
          "type": "uint8"
        }
      ],
      "name": "getGroup",
      "outputs": [
        {
          "internalType": "string",
          "name": "aName",
          "type": "string"
        },
        {
          "internalType": "string",
          "name": "aDescription",
          "type": "string"
        },
        {
          "internalType": "address[]",
          "name": "aMembers",
          "type": "address[]"
        },
        {
          "internalType": "uint256",
          "name": "aMembersLength",
          "type": "uint256"
        }
      ],
      "stateMutability": "view",
      "type": "function",
      "constant": true
    },
    {
      "inputs": [],
      "name": "getExistingGroups",
      "outputs": [
        {
          "internalType": "uint32[]",
          "name": "",
          "type": "uint32[]"
        }
      ],
      "stateMutability": "view",
      "type": "function",
      "constant": true
    },
    {
      "inputs": [],
      "name": "getNumOfGroups",
      "outputs": [
        {
          "internalType": "uint256",
          "name": "",
          "type": "uint256"
        }
      ],
      "stateMutability": "view",
      "type": "function",
      "constant": true
    },
    {
      "inputs": [],
      "name": "getUser",
      "outputs": [
        {
          "internalType": "string",
          "name": "aName",
          "type": "string"
        },
        {
          "internalType": "string",
          "name": "aEmail",
          "type": "string"
        },
        {
          "internalType": "uint256",
          "name": "aStudentID",
          "type": "uint256"
        },
        {
          "internalType": "uint32[]",
          "name": "aGroups",
          "type": "uint32[]"
        },
        {
          "internalType": "bool",
          "name": "aIsAdmin",
          "type": "bool"
        }
      ],
      "stateMutability": "view",
      "type": "function",
      "constant": true
    },
    {
      "inputs": [],
      "name": "getDeployedVotes",
      "outputs": [
        {
          "internalType": "address[]",
          "name": "",
          "type": "address[]"
        }
      ],
      "stateMutability": "view",
      "type": "function",
      "constant": true
    },
    {
      "inputs": [
        {
          "internalType": "string",
          "name": "a",
          "type": "string"
        },
        {
          "internalType": "string",
          "name": "b",
          "type": "string"
        }
      ],
      "name": "compareStrings",
      "outputs": [
        {
          "internalType": "bool",
          "name": "",
          "type": "bool"
        }
      ],
      "stateMutability": "pure",
      "type": "function",
      "constant": true
    }
  ],
  "bytecode": "0x60806040526000600460006101000a81548163ffffffff021916908363ffffffff16021790555034801561003257600080fd5b50615f81806100426000396000f3fe60806040523480156200001157600080fd5b50600436106200015f5760003560e01c8063a9905aa011620000c9578063c142ab001162000087578063c142ab001462000ec1578063ca9cdfff1462000f1c578063d2f4a8021462000f7f578063d8f145d21462000fe2578063e670d8001462000fee578063fa954aa01462001039576200015f565b8063a9905aa01462000a1f578063b0f979381462000a6c578063b2cb7a591462000afa578063b5008c0f1462000d03578063bed34bba1462000d50576200015f565b806361be861b116200012357806361be861b14620004cc578063629bf58e14620004ee57806364363720146200050e57806365d66d91146200055f5780636638a0fa146200075e578063832880e714620008ce576200015f565b806273d7ae146200016457806303d480f314620001c75780631e4a97dd14620002e3578063338b4741146200043e5780633f2e1f601462000475575b600080fd5b6200016e6200106a565b6040518080602001828103825283818151815260200191508051906020019060200280838360005b83811015620001b357808201518184015260208101905062000196565b505050509050019250505060405180910390f35b620001f660048036036020811015620001df57600080fd5b8101908080359060200190929190505050620010f0565b604051808060200180602001838103835285818151815260200191508051906020019080838360005b838110156200023c5780820151818401526020810190506200021f565b50505050905090810190601f1680156200026a5780820380516001836020036101000a031916815260200191505b50838103825284818151815260200191508051906020019080838360005b83811015620002a557808201518184015260208101905062000288565b50505050905090810190601f168015620002d35780820380516001836020036101000a031916815260200191505b5094505050505060405180910390f35b6200043c60048036036040811015620002fb57600080fd5b81019080803590602001906401000000008111156200031957600080fd5b8201836020820111156200032c57600080fd5b803590602001918460018302840111640100000000831117156200034f57600080fd5b91908080601f016020809104026020016040519081016040528093929190818152602001838380828437600081840152601f19601f82011690508083019250505050505050919291929080359060200190640100000000811115620003b357600080fd5b820183602082011115620003c657600080fd5b80359060200191846001830284011164010000000083111715620003e957600080fd5b91908080601f016020809104026020016040519081016040528093929190818152602001838380828437600081840152601f19601f8201169050808301925050505050505091929192905050506200124c565b005b62000473600480360360208110156200045657600080fd5b81019080803563ffffffff16906020019092919050505062001542565b005b620004ca600480360360608110156200048d57600080fd5b81019080803563ffffffff169060200190929190803563ffffffff169060200190929190803563ffffffff16906020019092919050505062001770565b005b620004d662001a0c565b60405180821515815260200191505060405180910390f35b620004f862001a68565b6040518082815260200191505060405180910390f35b62000543600480360360208110156200052657600080fd5b81019080803563ffffffff16906020019092919050505062001a75565b604051808263ffffffff16815260200191505060405180910390f35b6200075c600480360360808110156200057757600080fd5b81019080803590602001906401000000008111156200059557600080fd5b820183602082011115620005a857600080fd5b80359060200191846001830284011164010000000083111715620005cb57600080fd5b91908080601f016020809104026020016040519081016040528093929190818152602001838380828437600081840152601f19601f820116905080830192505050505050509192919290803590602001906401000000008111156200062f57600080fd5b8201836020820111156200064257600080fd5b803590602001918460018302840111640100000000831117156200066557600080fd5b91908080601f016020809104026020016040519081016040528093929190818152602001838380828437600081840152601f19601f8201169050808301925050505050505091929192908035906020019092919080359060200190640100000000811115620006d357600080fd5b820183602082011115620006e657600080fd5b803590602001918460018302840111640100000000831117156200070957600080fd5b91908080601f016020809104026020016040519081016040528093929190818152602001838380828437600081840152601f19601f82011690508083019250505050505050919291929050505062001afd565b005b62000790600480360360208110156200077657600080fd5b81019080803560ff16906020019092919050505062001f36565b60405180806020018060200180602001858152602001848103845288818151815260200191508051906020019080838360005b83811015620007e0578082015181840152602081019050620007c3565b50505050905090810190601f1680156200080e5780820380516001836020036101000a031916815260200191505b50848103835287818151815260200191508051906020019080838360005b83811015620008495780820151818401526020810190506200082c565b50505050905090810190601f168015620008775780820380516001836020036101000a031916815260200191505b50848103825286818151815260200191508051906020019060200280838360005b83811015620008b557808201518184015260208101905062000898565b5050505090500197505050505050505060405180910390f35b620008d862002143565b604051808060200180602001868152602001806020018515158152602001848103845289818151815260200191508051906020019080838360005b838110156200093057808201518184015260208101905062000913565b50505050905090810190601f1680156200095e5780820380516001836020036101000a031916815260200191505b50848103835288818151815260200191508051906020019080838360005b83811015620009995780820151818401526020810190506200097c565b50505050905090810190601f168015620009c75780820380516001836020036101000a031916815260200191505b50848103825286818151815260200191508051906020019060200280838360005b8381101562000a05578082015181840152602081019050620009e8565b505050509050019850505050505050505060405180910390f35b62000a546004803603602081101562000a3757600080fd5b81019080803563ffffffff16906020019092919050505062002383565b60405180821515815260200191505060405180910390f35b62000aa16004803603602081101562000a8457600080fd5b81019080803563ffffffff1690602001909291905050506200244d565b6040518080602001828103825283818151815260200191508051906020019060200280838360005b8381101562000ae657808201518184015260208101905062000ac9565b505050509050019250505060405180910390f35b62000bc36004803603604081101562000b1257600080fd5b81019080803590602001909291908035906020019064010000000081111562000b3a57600080fd5b82018360208201111562000b4d57600080fd5b8035906020019184600183028401116401000000008311171562000b7057600080fd5b91908080601f016020809104026020016040519081016040528093929190818152602001838380828437600081840152601f19601f820116905080830192505050505050509192919290505050620024fe565b604051808060200180602001806020018515158152602001848103845288818151815260200191508051906020019080838360005b8381101562000c1557808201518184015260208101905062000bf8565b50505050905090810190601f16801562000c435780820380516001836020036101000a031916815260200191505b50848103835287818151815260200191508051906020019080838360005b8381101562000c7e57808201518184015260208101905062000c61565b50505050905090810190601f16801562000cac5780820380516001836020036101000a031916815260200191505b50848103825286818151815260200191508051906020019060200280838360005b8381101562000cea57808201518184015260208101905062000ccd565b5050505090500197505050505050505060405180910390f35b62000d386004803603602081101562000d1b57600080fd5b81019080803563ffffffff1690602001909291905050506200281b565b60405180821515815260200191505060405180910390f35b62000ea96004803603604081101562000d6857600080fd5b810190808035906020019064010000000081111562000d8657600080fd5b82018360208201111562000d9957600080fd5b8035906020019184600183028401116401000000008311171562000dbc57600080fd5b91908080601f016020809104026020016040519081016040528093929190818152602001838380828437600081840152601f19601f8201169050808301925050505050505091929192908035906020019064010000000081111562000e2057600080fd5b82018360208201111562000e3357600080fd5b8035906020019184600183028401116401000000008311171562000e5657600080fd5b91908080601f016020809104026020016040519081016040528093929190818152602001838380828437600081840152601f19601f82011690508083019250505050505050919291929050505062002902565b60405180821515815260200191505060405180910390f35b62000ef06004803603602081101562000ed957600080fd5b8101908080359060200190929190505050620029f5565b604051808273ffffffffffffffffffffffffffffffffffffffff16815260200191505060405180910390f35b62000f2662002a35565b6040518080602001828103825283818151815260200191508051906020019060200280838360005b8381101562000f6b57808201518184015260208101905062000f4e565b505050509050019250505060405180910390f35b62000f8962002ac5565b6040518080602001828103825283818151815260200191508051906020019060200280838360005b8381101562000fce57808201518184015260208101905062000fb1565b505050509050019250505060405180910390f35b62000fec62002b91565b005b6200101d600480360360208110156200100657600080fd5b810190808035906020019092919050505062002c10565b604051808263ffffffff16815260200191505060405180910390f35b62001068600480360360208110156200105157600080fd5b810190808035906020019092919050505062002c4b565b005b60606005805480602002602001604051908101604052809291908181526020018280548015620010e657602002820191906000526020600020906000905b82829054906101000a900463ffffffff1663ffffffff1681526020019060040190602082600301049283019260010382029150808411620010a85790505b5050505050905090565b6000602052806000526040600020600091509050806000018054600181600116156101000203166002900480601f016020809104026020016040519081016040528092919081815260200182805460018160011615610100020316600290048015620011a05780601f106200117457610100808354040283529160200191620011a0565b820191906000526020600020905b8154815290600101906020018083116200118257829003601f168201915b505050505090806001018054600181600116156101000203166002900480601f016020809104026020016040519081016040528092919081815260200182805460018160011615610100020316600290048015620012425780601f10620012165761010080835404028352916020019162001242565b820191906000526020600020905b8154815290600101906020018083116200122457829003601f168201915b5050505050905082565b6000600360003373ffffffffffffffffffffffffffffffffffffffff1673ffffffffffffffffffffffffffffffffffffffff16815260200190815260200160002090506000806000600160009054906101000a900463ffffffff1663ffffffff1681526020019081526020016000209050620013896000808081526020019081526020016000206000018054600181600116156101000203166002900480601f0160208091040260200160405190810160405280929190818152602001828054600181600116156101000203166002900480156200136e5780601f1062001342576101008083540402835291602001916200136e565b820191906000526020600020905b8154815290600101906020018083116200135057829003601f168201915b50505050506040518060200160405280600081525062002902565b156200139457600080fd5b83816000019080519060200190620013ae92919062002d0b565b5082816001019080519060200190620013c992919062002d0b565b506005600160009054906101000a900463ffffffff1690806001815401808255809150506001900390600052602060002090600891828204019190066004029091909190916101000a81548163ffffffff021916908363ffffffff160217905550816005016001600081819054906101000a900463ffffffff168092919060010191906101000a81548163ffffffff021916908363ffffffff16021790555090806001815401808255809150506001900390600052602060002090600891828204019190066004029091909190916101000a81548163ffffffff021916908363ffffffff160217905550806002018260000160009054906101000a900473ffffffffffffffffffffffffffffffffffffffff169080600181540180825580915050600190039060005260206000200160009091909190916101000a81548173ffffffffffffffffffffffffffffffffffffffff021916908373ffffffffffffffffffffffffffffffffffffffff16021790555050505050565b6000600360003373ffffffffffffffffffffffffffffffffffffffff1673ffffffffffffffffffffffffffffffffffffffff168152602001908152602001600020905060008060008463ffffffff168152602001908152602001600020905060008363ffffffff161415620015b657600080fd5b62001671816000018054600181600116156101000203166002900480601f016020809104026020016040519081016040528092919081815260200182805460018160011615610100020316600290048015620016565780601f106200162a5761010080835404028352916020019162001656565b820191906000526020600020905b8154815290600101906020018083116200163857829003601f168201915b50505050506040518060200160405280600081525062002902565b156200167c57600080fd5b620016878362002383565b156200169257600080fd5b816005018390806001815401808255809150506001900390600052602060002090600891828204019190066004029091909190916101000a81548163ffffffff021916908363ffffffff160217905550806002018260000160009054906101000a900473ffffffffffffffffffffffffffffffffffffffff169080600181540180825580915050600190039060005260206000200160009091909190916101000a81548173ffffffffffffffffffffffffffffffffffffffff021916908373ffffffffffffffffffffffffffffffffffffffff160217905550505050565b6000600360003373ffffffffffffffffffffffffffffffffffffffff1673ffffffffffffffffffffffffffffffffffffffff168152602001908152602001600020905060008060008463ffffffff168152602001908152602001600020905081600501600183600501805490500381548110620017e957fe5b90600052602060002090600891828204019190066004029054906101000a900463ffffffff16826005018663ffffffff16815481106200182557fe5b90600052602060002090600891828204019190066004026101000a81548163ffffffff021916908363ffffffff160217905550816005016001836005018054905003815481106200187257fe5b90600052602060002090600891828204019190066004026101000a81549063ffffffff021916905581600501805480620018a857fe5b60019003818190600052602060002090600891828204019190066004026101000a81549063ffffffff0219169055905580600201600182600201805490500381548110620018f257fe5b9060005260206000200160009054906101000a900473ffffffffffffffffffffffffffffffffffffffff16816002018563ffffffff16815481106200193357fe5b9060005260206000200160006101000a81548173ffffffffffffffffffffffffffffffffffffffff021916908373ffffffffffffffffffffffffffffffffffffffff160217905550806002016001826002018054905003815481106200199557fe5b9060005260206000200160006101000a81549073ffffffffffffffffffffffffffffffffffffffff021916905580600201805480620019d057fe5b6001900381819060005260206000200160006101000a81549073ffffffffffffffffffffffffffffffffffffffff021916905590555050505050565b600080600360003373ffffffffffffffffffffffffffffffffffffffff1673ffffffffffffffffffffffffffffffffffffffff16815260200190815260200160002090508060060160019054906101000a900460ff1691505090565b6000600580549050905090565b600080600360003373ffffffffffffffffffffffffffffffffffffffff1673ffffffffffffffffffffffffffffffffffffffff1681526020019081526020016000209050806005018363ffffffff168154811062001acf57fe5b90600052602060002090600891828204019190066004029054906101000a900463ffffffff16915050919050565b6000600360003373ffffffffffffffffffffffffffffffffffffffff1673ffffffffffffffffffffffffffffffffffffffff16815260200190815260200160002090506000806000600460009054906101000a900463ffffffff1663ffffffff168152602001908152602001600020905062001b7a60006200281b565b62001ca7576040518060400160405280600781526020017f53747564656e740000000000000000000000000000000000000000000000000081525081600001908051906020019062001bce92919062002d0b565b506040518060400160405280600d81526020017f44656661756c742047726f75700000000000000000000000000000000000000081525081600101908051906020019062001c1e92919062002d0b565b5060056001600081819054906101000a900463ffffffff168092919060010191906101000a81548163ffffffff021916908363ffffffff16021790555090806001815401808255809150506001900390600052602060002090600891828204019190066004029091909190916101000a81548163ffffffff021916908363ffffffff1602179055505b62001d62826001018054600181600116156101000203166002900480601f01602080910402602001604051908101604052809291908181526020018280546001816001161561010002031660029004801562001d475780601f1062001d1b5761010080835404028352916020019162001d47565b820191906000526020600020905b81548152906001019060200180831162001d2957829003601f168201915b50505050506040518060200160405280600081525062002902565b62001d6c57600080fd5b8582600101908051906020019062001d8692919062002d0b565b508482600201908051906020019062001da192919062002d0b565b508382600301819055508282600401908051906020019062001dc592919062002d0b565b50338260000160006101000a81548173ffffffffffffffffffffffffffffffffffffffff021916908373ffffffffffffffffffffffffffffffffffffffff16021790555060018260060160006101000a81548160ff02191690831515021790555060008260060160016101000a81548160ff02191690831515021790555081600501600460009054906101000a900463ffffffff1690806001815401808255809150506001900390600052602060002090600891828204019190066004029091909190916101000a81548163ffffffff021916908363ffffffff160217905550806002018260000160009054906101000a900473ffffffffffffffffffffffffffffffffffffffff169080600181540180825580915050600190039060005260206000200160009091909190916101000a81548173ffffffffffffffffffffffffffffffffffffffff021916908373ffffffffffffffffffffffffffffffffffffffff160217905550505050505050565b60608060606000806000808760ff16815260200190815260200160002090508060000181600101826002018360020180549050838054600181600116156101000203166002900480601f016020809104026020016040519081016040528092919081815260200182805460018160011615610100020316600290048015620020025780601f1062001fd65761010080835404028352916020019162002002565b820191906000526020600020905b81548152906001019060200180831162001fe457829003601f168201915b50505050509350828054600181600116156101000203166002900480601f016020809104026020016040519081016040528092919081815260200182805460018160011615610100020316600290048015620020a25780601f106200207657610100808354040283529160200191620020a2565b820191906000526020600020905b8154815290600101906020018083116200208457829003601f168201915b50505050509250818054806020026020016040519081016040528092919081815260200182805480156200212c57602002820191906000526020600020905b8160009054906101000a900473ffffffffffffffffffffffffffffffffffffffff1673ffffffffffffffffffffffffffffffffffffffff1681526020019060010190808311620020e1575b505050505091509450945094509450509193509193565b60608060006060600080600360003373ffffffffffffffffffffffffffffffffffffffff1673ffffffffffffffffffffffffffffffffffffffff168152602001908152602001600020905080600101816002018260030154836005018460060160009054906101000a900460ff16848054600181600116156101000203166002900480601f0160208091040260200160405190810160405280929190818152602001828054600181600116156101000203166002900480156200224a5780601f106200221e576101008083540402835291602001916200224a565b820191906000526020600020905b8154815290600101906020018083116200222c57829003601f168201915b50505050509450838054600181600116156101000203166002900480601f016020809104026020016040519081016040528092919081815260200182805460018160011615610100020316600290048015620022ea5780601f10620022be57610100808354040283529160200191620022ea565b820191906000526020600020905b815481529060010190602001808311620022cc57829003601f168201915b50505050509350818054806020026020016040519081016040528092919081815260200182805480156200236a57602002820191906000526020600020906000905b82829054906101000a900463ffffffff1663ffffffff16815260200190600401906020826003010492830192600103820291508084116200232c5790505b5050505050915095509550955095509550509091929394565b600080600090506000600360003373ffffffffffffffffffffffffffffffffffffffff1673ffffffffffffffffffffffffffffffffffffffff168152602001908152602001600020905060005b816005018054905081101562002442578463ffffffff16826005018281548110620023f757fe5b90600052602060002090600891828204019190066004029054906101000a900463ffffffff1663ffffffff16141562002434576001925062002442565b8080600101915050620023d0565b508192505050919050565b606060008060008463ffffffff168152602001908152602001600020905080600201805480602002602001604051908101604052809291908181526020018280548015620024f157602002820191906000526020600020905b8160009054906101000a900473ffffffffffffffffffffffffffffffffffffffff1673ffffffffffffffffffffffffffffffffffffffff1681526020019060010190808311620024a6575b5050505050915050919050565b6060806060600080600360003373ffffffffffffffffffffffffffffffffffffffff1673ffffffffffffffffffffffffffffffffffffffff1681526020019081526020016000209050806003015487146200255857600080fd5b6200260486826004018054600181600116156101000203166002900480601f016020809104026020016040519081016040528092919081815260200182805460018160011615610100020316600290048015620025f95780601f10620025cd57610100808354040283529160200191620025f9565b820191906000526020600020905b815481529060010190602001808311620025db57829003601f168201915b505050505062002902565b6200260e57600080fd5b60018160060160016101000a81548160ff0219169083151502179055508060010181600201826005018360060160009054906101000a900460ff16838054600181600116156101000203166002900480601f016020809104026020016040519081016040528092919081815260200182805460018160011615610100020316600290048015620026e25780601f10620026b657610100808354040283529160200191620026e2565b820191906000526020600020905b815481529060010190602001808311620026c457829003601f168201915b50505050509350828054600181600116156101000203166002900480601f016020809104026020016040519081016040528092919081815260200182805460018160011615610100020316600290048015620027825780601f10620027565761010080835404028352916020019162002782565b820191906000526020600020905b8154815290600101906020018083116200276457829003601f168201915b50505050509250818054806020026020016040519081016040528092919081815260200182805480156200280257602002820191906000526020600020906000905b82829054906101000a900463ffffffff1663ffffffff1681526020019060040190602082600301049283019260010382029150808411620027c45790505b5050505050915094509450945094505092959194509250565b6000806000808463ffffffff16815260200190815260200160002090506000620028f5826000018054600181600116156101000203166002900480601f016020809104026020016040519081016040528092919081815260200182805460018160011615610100020316600290048015620028da5780601f10620028ae57610100808354040283529160200191620028da565b820191906000526020600020905b815481529060010190602001808311620028bc57829003601f168201915b50505050506040518060200160405280600081525062002902565b1590508092505050919050565b6000816040516020018082805190602001908083835b602083106200293d578051825260208201915060208101905060208303925062002918565b6001836020036101000a03801982511681845116808217855250505050505090500191505060405160208183030381529060405280519060200120836040516020018082805190602001908083835b60208310620029b157805182526020820191506020810190506020830392506200298c565b6001836020036101000a0380198251168184511680821785525050505050509050019150506040516020818303038152906040528051906020012014905092915050565b6002818154811062002a0657600080fd5b906000526020600020016000915054906101000a900473ffffffffffffffffffffffffffffffffffffffff1681565b6060600280548060200260200160405190810160405280929190818152602001828054801562002abb57602002820191906000526020600020905b8160009054906101000a900473ffffffffffffffffffffffffffffffffffffffff1673ffffffffffffffffffffffffffffffffffffffff168152602001906001019080831162002a70575b5050505050905090565b60606000600360003373ffffffffffffffffffffffffffffffffffffffff1673ffffffffffffffffffffffffffffffffffffffff16815260200190815260200160002090508060050180548060200260200160405190810160405280929190818152602001828054801562002b8657602002820191906000526020600020906000905b82829054906101000a900463ffffffff1663ffffffff168152602001906004019060208260030104928301926001038202915080841162002b485790505b505050505091505090565b6000600360003373ffffffffffffffffffffffffffffffffffffffff1673ffffffffffffffffffffffffffffffffffffffff16815260200190815260200160002090508060060160019054906101000a900460ff1662002bf057600080fd5b60008160060160016101000a81548160ff02191690831515021790555050565b6005818154811062002c2157600080fd5b9060005260206000209060089182820401919006600402915054906101000a900463ffffffff1681565b6000338260405162002c5d9062002da2565b808373ffffffffffffffffffffffffffffffffffffffff16815260200182815260200192505050604051809103906000f08015801562002ca1573d6000803e3d6000fd5b5090506002819080600181540180825580915050600190039060005260206000200160009091909190916101000a81548173ffffffffffffffffffffffffffffffffffffffff021916908373ffffffffffffffffffffffffffffffffffffffff1602179055505050565b828054600181600116156101000203166002900490600052602060002090601f01602090048101928262002d43576000855562002d8f565b82601f1062002d5e57805160ff191683800117855562002d8f565b8280016001018555821562002d8f579182015b8281111562002d8e57825182559160200191906001019062002d71565b5b50905062002d9e919062002db0565b5090565b61317c8062002dd083390190565b5b8082111562002dcb57600081600090555060010162002db1565b509056fe60806040526000600855600060095534801561001a57600080fd5b506040516200317c3803806200317c8339818101604052604081101561003f57600080fd5b810190808051906020019092919080519060200190929190505050816000806101000a81548173ffffffffffffffffffffffffffffffffffffffff021916908373ffffffffffffffffffffffffffffffffffffffff1602179055508060018111156100a657fe5b600260006101000a81548160ff021916908360018111156100c357fe5b021790555050506130a280620000da6000396000f3fe608060405234801561001057600080fd5b506004361061014d5760003560e01c80637d1a3d37116100c3578063c2d93cc31161007c578063c2d93cc314610a52578063da3550ee14610c60578063e315f35f14610ca4578063eb506cca14610cae578063eceed33914610cb8578063fc422a5314610e5a5761014d565b80637d1a3d3714610586578063869eae23146105af5780638ab66a901461070b5780639511544714610858578063953ef76d146108f1578063a3dc6cb814610a215761014d565b80634aead6c1116101155780634aead6c1146103035780635aa82fbe1461030d578063646e74881461036757806366597e5a146104fb5780637432e63a146105245780637c0656fd1461057c5761014d565b80630c90eb91146101525780632d35a8a2146102485780633f8cab7f14610266578063407bba4a146102c5578063481c6a75146102cf575b600080fd5b61015a610e83565b604051808060200180602001848152602001838103835286818151815260200191508051906020019080838360005b838110156101a4578082015181840152602081019050610189565b50505050905090810190601f1680156101d15780820380516001836020036101000a031916815260200191505b50838103825285818151815260200191508051906020019080838360005b8381101561020a5780820151818401526020810190506101ef565b50505050905090810190601f1680156102375780820380516001836020036101000a031916815260200191505b509550505050505060405180910390f35b61025061100c565b6040518082815260200191505060405180910390f35b61026e611012565b6040518080602001828103825283818151815260200191508051906020019060200280838360005b838110156102b1578082015181840152602081019050610296565b505050509050019250505060405180910390f35b6102cd6110d2565b005b6102d761131d565b604051808273ffffffffffffffffffffffffffffffffffffffff16815260200191505060405180910390f35b61030b611341565b005b61034f6004803603602081101561032357600080fd5b81019080803573ffffffffffffffffffffffffffffffffffffffff169060200190929190505050611410565b60405180821515815260200191505060405180910390f35b61036f611466565b604051808b73ffffffffffffffffffffffffffffffffffffffff1681526020018a815260200189815260200180602001888152602001878152602001806020018681526020018573ffffffffffffffffffffffffffffffffffffffff1681526020018060200184810384528b818151815260200191508051906020019080838360005b8381101561040d5780820151818401526020810190506103f2565b50505050905090810190601f16801561043a5780820380516001836020036101000a031916815260200191505b50848103835288818151815260200191508051906020019080838360005b83811015610473578082015181840152602081019050610458565b50505050905090810190601f1680156104a05780820380516001836020036101000a031916815260200191505b50848103825285818151815260200191508051906020019060200280838360005b838110156104dc5780820151818401526020810190506104c1565b505050509050019d505050505050505050505050505060405180910390f35b6105036116b9565b6040518082600381111561051357fe5b815260200191505060405180910390f35b6105506004803603602081101561053a57600080fd5b81019080803590602001909291905050506116cc565b604051808273ffffffffffffffffffffffffffffffffffffffff16815260200191505060405180910390f35b61058461170b565b005b61058e61180b565b6040518082600181111561059e57fe5b815260200191505060405180910390f35b610709600480360360608110156105c557600080fd5b81019080803590602001906401000000008111156105e257600080fd5b8201836020820111156105f457600080fd5b8035906020019184600183028401116401000000008311171561061657600080fd5b91908080601f016020809104026020016040519081016040528093929190818152602001838380828437600081840152601f19601f8201169050808301925050505050505091929192908035906020019064010000000081111561067957600080fd5b82018360208201111561068b57600080fd5b803590602001918460018302840111640100000000831117156106ad57600080fd5b91908080601f016020809104026020016040519081016040528093929190818152602001838380828437600081840152601f19601f8201169050808301925050505050505091929192908035906020019092919050505061181e565b005b61074d6004803603602081101561072157600080fd5b81019080803573ffffffffffffffffffffffffffffffffffffffff169060200190929190505050611983565b604051808573ffffffffffffffffffffffffffffffffffffffff1681526020018481526020018060200180602001838103835285818151815260200191508051906020019080838360005b838110156107b3578082015181840152602081019050610798565b50505050905090810190601f1680156107e05780820380516001836020036101000a031916815260200191505b50838103825284818151815260200191508051906020019080838360005b838110156108195780820151818401526020810190506107fe565b50505050905090810190601f1680156108465780820380516001836020036101000a031916815260200191505b50965050505050505060405180910390f35b61089a6004803603602081101561086e57600080fd5b81019080803573ffffffffffffffffffffffffffffffffffffffff169060200190929190505050611b03565b6040518080602001828103825283818151815260200191508051906020019060200280838360005b838110156108dd5780820151818401526020810190506108c2565b505050509050019250505060405180910390f35b6109336004803603602081101561090757600080fd5b81019080803573ffffffffffffffffffffffffffffffffffffffff169060200190929190505050611c05565b604051808060200180602001848152602001838103835286818151815260200191508051906020019080838360005b8381101561097d578082015181840152602081019050610962565b50505050905090810190601f1680156109aa5780820380516001836020036101000a031916815260200191505b50838103825285818151815260200191508051906020019080838360005b838110156109e35780820151818401526020810190506109c8565b50505050905090810190601f168015610a105780820380516001836020036101000a031916815260200191505b509550505050505060405180910390f35b610a5060048036036020811015610a3757600080fd5b81019080803560ff169060200190929190505050611e47565b005b610c5e600480360360e0811015610a6857600080fd5b8101908080359060200190640100000000811115610a8557600080fd5b820183602082011115610a9757600080fd5b80359060200191846001830284011164010000000083111715610ab957600080fd5b91908080601f016020809104026020016040519081016040528093929190818152602001838380828437600081840152601f19601f82011690508083019250505050505050919291929080359060200190929190803590602001909291908035906020019092919080359060200190640100000000811115610b3a57600080fd5b820183602082011115610b4c57600080fd5b80359060200191846001830284011164010000000083111715610b6e57600080fd5b91908080601f016020809104026020016040519081016040528093929190818152602001838380828437600081840152601f19601f8201169050808301925050505050505091929192908035906020019092919080359060200190640100000000811115610bdb57600080fd5b820183602082011115610bed57600080fd5b80359060200191846020830284011164010000000083111715610c0f57600080fd5b919080806020026020016040519081016040528093929190818152602001838360200280828437600081840152601f19601f820116905080830192505050505050509192919290505050611f22565b005b610ca260048036036020811015610c7657600080fd5b81019080803573ffffffffffffffffffffffffffffffffffffffff16906020019092919050505061201d565b005b610cac6122ab565b005b610cb661280b565b005b610cc0612ac7565b604051808d73ffffffffffffffffffffffffffffffffffffffff1681526020018c81526020018b8152602001806020018a8152602001898152602001806020018881526020018773ffffffffffffffffffffffffffffffffffffffff1681526020018681526020018581526020018060200184810384528d818151815260200191508051906020019080838360005b83811015610d6a578082015181840152602081019050610d4f565b50505050905090810190601f168015610d975780820380516001836020036101000a031916815260200191505b5084810383528a818151815260200191508051906020019080838360005b83811015610dd0578082015181840152602081019050610db5565b50505050905090810190601f168015610dfd5780820380516001836020036101000a031916815260200191505b50848103825285818151815260200191508051906020019060200280838360005b83811015610e39578082015181840152602081019050610e1e565b505050509050019f5050505050505050505050505050505060405180910390f35b610e62612d42565b60405180826001811115610e7257fe5b815260200191505060405180910390f35b6060806000806001811115610e9457fe5b600260009054906101000a900460ff166001811115610eaf57fe5b14610eb957600080fd5b600b600301600b600401600b60010154828054600181600116156101000203166002900480601f016020809104026020016040519081016040528092919081815260200182805460018160011615610100020316600290048015610f5e5780601f10610f3357610100808354040283529160200191610f5e565b820191906000526020600020905b815481529060010190602001808311610f4157829003601f168201915b50505050509250818054600181600116156101000203166002900480601f016020809104026020016040519081016040528092919081815260200182805460018160011615610100020316600290048015610ffa5780601f10610fcf57610100808354040283529160200191610ffa565b820191906000526020600020905b815481529060010190602001808311610fdd57829003601f168201915b50505050509150925092509250909192565b60095481565b60606000600181111561102157fe5b600260009054906101000a900460ff16600181111561103c57fe5b1461104657600080fd5b60118054806020026020016040519081016040528092919081815260200182805480156110c857602002820191906000526020600020905b8160009054906101000a900473ffffffffffffffffffffffffffffffffffffffff1673ffffffffffffffffffffffffffffffffffffffff168152602001906001019080831161107e575b5050505050905090565b600060018111156110df57fe5b600260009054906101000a900460ff1660018111156110fa57fe5b1461110457600080fd5b601060003373ffffffffffffffffffffffffffffffffffffffff1673ffffffffffffffffffffffffffffffffffffffff168152602001908152602001600020600080820160006101000a81549073ffffffffffffffffffffffffffffffffffffffff021916905560018201600090556002820160006111839190612d55565b6003820160006111939190612d76565b6004820160006111a39190612d76565b505060005b60118054905081101561130757601181815481106111c257fe5b9060005260206000200160009054906101000a900473ffffffffffffffffffffffffffffffffffffffff1673ffffffffffffffffffffffffffffffffffffffff163373ffffffffffffffffffffffffffffffffffffffff1614156112fa5760116001601180549050038154811061123557fe5b9060005260206000200160009054906101000a900473ffffffffffffffffffffffffffffffffffffffff166011828154811061126d57fe5b9060005260206000200160006101000a81548173ffffffffffffffffffffffffffffffffffffffff021916908373ffffffffffffffffffffffffffffffffffffffff16021790555060118054806112c057fe5b6001900381819060005260206000200160006101000a81549073ffffffffffffffffffffffffffffffffffffffff02191690559055611307565b80806001019150506111a8565b5060096000815480929190600190039190505550565b60008054906101000a900473ffffffffffffffffffffffffffffffffffffffff1681565b6000600181111561134e57fe5b600260009054906101000a900460ff16600181111561136957fe5b1461137357600080fd5b60018081111561137f57fe5b600a60009054906101000a900460ff16600181111561139a57fe5b14156113ad576113a861280b565b61140e565b600060018111156113ba57fe5b600a60009054906101000a900460ff1660018111156113d557fe5b14156113e8576113e36122ab565b61140d565b6003600260016101000a81548160ff0219169083600381111561140757fe5b02179055505b5b565b6000600360008373ffffffffffffffffffffffffffffffffffffffff1673ffffffffffffffffffffffffffffffffffffffff16815260200190815260200160002060009054906101000a900460ff169050919050565b600080600060606000806060600080606060018081111561148357fe5b600260009054906101000a900460ff16600181111561149e57fe5b146114a857600080fd5b60008054906101000a900473ffffffffffffffffffffffffffffffffffffffff16600260009054906101000a900460ff1660018111156114e457fe5b600260019054906101000a900460ff1660038111156114ff57fe5b60046005546006546007600854306001868054600181600116156101000203166002900480601f0160208091040260200160405190810160405280929190818152602001828054600181600116156101000203166002900480156115a45780601f10611579576101008083540402835291602001916115a4565b820191906000526020600020905b81548152906001019060200180831161158757829003601f168201915b50505050509650838054600181600116156101000203166002900480601f0160208091040260200160405190810160405280929190818152602001828054600181600116156101000203166002900480156116405780601f1061161557610100808354040283529160200191611640565b820191906000526020600020905b81548152906001019060200180831161162357829003601f168201915b505050505093508080548060200260200160405190810160405280929190818152602001828054801561169257602002820191906000526020600020905b81548152602001906001019080831161167e575b50505050509050995099509950995099509950995099509950995090919293949596979899565b600260019054906101000a900460ff1681565b601181815481106116dc57600080fd5b906000526020600020016000915054906101000a900473ffffffffffffffffffffffffffffffffffffffff1681565b60018081111561171757fe5b600260009054906101000a900460ff16600181111561173257fe5b1461173c57600080fd5b60001515600360003373ffffffffffffffffffffffffffffffffffffffff1673ffffffffffffffffffffffffffffffffffffffff16815260200190815260200160002060009054906101000a900460ff1615151415611804576001600360003373ffffffffffffffffffffffffffffffffffffffff1673ffffffffffffffffffffffffffffffffffffffff16815260200190815260200160002060006101000a81548160ff021916908315150217905550600860008154809291906001019190505550611809565b600080fd5b565b600260009054906101000a900460ff1681565b6000600181111561182b57fe5b600260009054906101000a900460ff16600181111561184657fe5b1461185057600080fd5b6000601060003373ffffffffffffffffffffffffffffffffffffffff1673ffffffffffffffffffffffffffffffffffffffff1681526020019081526020016000209050838160030190805190602001906118ab929190612dbe565b50828160040190805190602001906118c4929190612dbe565b50338160000160006101000a81548173ffffffffffffffffffffffffffffffffffffffff021916908373ffffffffffffffffffffffffffffffffffffffff1602179055506009600081548092919060010191905055506011339080600181540180825580915050600190039060005260206000200160009091909190916101000a81548173ffffffffffffffffffffffffffffffffffffffff021916908373ffffffffffffffffffffffffffffffffffffffff16021790555050505050565b60106020528060005260406000206000915090508060000160009054906101000a900473ffffffffffffffffffffffffffffffffffffffff1690806001015490806003018054600181600116156101000203166002900480601f016020809104026020016040519081016040528092919081815260200182805460018160011615610100020316600290048015611a5b5780601f10611a3057610100808354040283529160200191611a5b565b820191906000526020600020905b815481529060010190602001808311611a3e57829003601f168201915b505050505090806004018054600181600116156101000203166002900480601f016020809104026020016040519081016040528092919081815260200182805460018160011615610100020316600290048015611af95780601f10611ace57610100808354040283529160200191611af9565b820191906000526020600020905b815481529060010190602001808311611adc57829003601f168201915b5050505050905084565b606060006001811115611b1257fe5b600260009054906101000a900460ff166001811115611b2d57fe5b14611b3757600080fd5b601060008373ffffffffffffffffffffffffffffffffffffffff1673ffffffffffffffffffffffffffffffffffffffff168152602001908152602001600020600201805480602002602001604051908101604052809291908181526020018280548015611bf957602002820191906000526020600020905b8160009054906101000a900473ffffffffffffffffffffffffffffffffffffffff1673ffffffffffffffffffffffffffffffffffffffff1681526020019060010190808311611baf575b50505050509050919050565b6060806000806001811115611c1657fe5b600260009054906101000a900460ff166001811115611c3157fe5b14611c3b57600080fd5b601060008573ffffffffffffffffffffffffffffffffffffffff1673ffffffffffffffffffffffffffffffffffffffff168152602001908152602001600020600301601060008673ffffffffffffffffffffffffffffffffffffffff1673ffffffffffffffffffffffffffffffffffffffff168152602001908152602001600020600401601060008773ffffffffffffffffffffffffffffffffffffffff1673ffffffffffffffffffffffffffffffffffffffff16815260200190815260200160002060010154828054600181600116156101000203166002900480601f016020809104026020016040519081016040528092919081815260200182805460018160011615610100020316600290048015611d975780601f10611d6c57610100808354040283529160200191611d97565b820191906000526020600020905b815481529060010190602001808311611d7a57829003601f168201915b50505050509250818054600181600116156101000203166002900480601f016020809104026020016040519081016040528092919081815260200182805460018160011615610100020316600290048015611e335780601f10611e0857610100808354040283529160200191611e33565b820191906000526020600020905b815481529060010190602001808311611e1657829003601f168201915b505050505091509250925092509193909250565b60008160ff161415611e7c576000600260016101000a81548160ff02191690836003811115611e7257fe5b0217905550611f1f565b60018160ff161415611eb1576001600260016101000a81548160ff02191690836003811115611ea757fe5b0217905550611f1e565b60028160ff161415611f1d5760006001811115611eca57fe5b600260009054906101000a900460ff166001811115611ee557fe5b1415611ef857611ef3611341565b611f1c565b60028060016101000a81548160ff02191690836003811115611f1657fe5b02179055505b5b5b5b50565b8660049080519060200190611f38929190612dbe565b5085600581905550836006819055508260079080519060200190611f5d929190612dbe565b50858510611f7b57838510611f73576002611f76565b60015b611f7e565b60005b600260016101000a81548160ff02191690836003811115611f9b57fe5b021790555060006001811115611fad57fe5b600260009054906101000a900460ff166001811115611fc857fe5b1415611ffd57816001811115611fda57fe5b600a60006101000a81548160ff02191690836001811115611ff757fe5b02179055505b8060019080519060200190612013929190612e4c565b5050505050505050565b6000600181111561202a57fe5b600260009054906101000a900460ff16600181111561204557fe5b1461204f57600080fd5b60001515600360003373ffffffffffffffffffffffffffffffffffffffff1673ffffffffffffffffffffffffffffffffffffffff16815260200190815260200160002060009054906101000a900460ff16151514156122a357600073ffffffffffffffffffffffffffffffffffffffff16601060008373ffffffffffffffffffffffffffffffffffffffff1673ffffffffffffffffffffffffffffffffffffffff16815260200190815260200160002060000160009054906101000a900473ffffffffffffffffffffffffffffffffffffffff1673ffffffffffffffffffffffffffffffffffffffff16146122a2576001600360003373ffffffffffffffffffffffffffffffffffffffff1673ffffffffffffffffffffffffffffffffffffffff16815260200190815260200160002060006101000a81548160ff021916908315150217905550600860008154809291906001019190505550601060008273ffffffffffffffffffffffffffffffffffffffff1673ffffffffffffffffffffffffffffffffffffffff16815260200190815260200160002060010160008154809291906001019190505550601060008273ffffffffffffffffffffffffffffffffffffffff1673ffffffffffffffffffffffffffffffffffffffff168152602001908152602001600020600201339080600181540180825580915050600190039060005260206000200160009091909190916101000a81548173ffffffffffffffffffffffffffffffffffffffff021916908373ffffffffffffffffffffffffffffffffffffffff1602179055506122a8565b5b600080fd5b50565b600060018111156122b857fe5b600260009054906101000a900460ff1660018111156122d357fe5b146122dd57600080fd5b600060018111156122ea57fe5b600a60009054906101000a900460ff16600181111561230557fe5b1461230f57600080fd5b6000612319612e99565b6000805b6011805490508110156127045783601060006011848154811061233c57fe5b9060005260206000200160009054906101000a900473ffffffffffffffffffffffffffffffffffffffff1673ffffffffffffffffffffffffffffffffffffffff1673ffffffffffffffffffffffffffffffffffffffff168152602001908152602001600020600101541115612670576000915060106000601183815481106123c057fe5b9060005260206000200160009054906101000a900473ffffffffffffffffffffffffffffffffffffffff1673ffffffffffffffffffffffffffffffffffffffff1673ffffffffffffffffffffffffffffffffffffffff1681526020019081526020016000206040518060a00160405290816000820160009054906101000a900473ffffffffffffffffffffffffffffffffffffffff1673ffffffffffffffffffffffffffffffffffffffff1673ffffffffffffffffffffffffffffffffffffffff168152602001600182015481526020016002820180548060200260200160405190810160405280929190818152602001828054801561251557602002820191906000526020600020905b8160009054906101000a900473ffffffffffffffffffffffffffffffffffffffff1673ffffffffffffffffffffffffffffffffffffffff16815260200190600101908083116124cb575b50505050508152602001600382018054600181600116156101000203166002900480601f0160208091040260200160405190810160405280929190818152602001828054600181600116156101000203166002900480156125b75780601f1061258c576101008083540402835291602001916125b7565b820191906000526020600020905b81548152906001019060200180831161259a57829003601f168201915b50505050508152602001600482018054600181600116156101000203166002900480601f0160208091040260200160405190810160405280929190818152602001828054600181600116156101000203166002900480156126595780601f1061262e57610100808354040283529160200191612659565b820191906000526020600020905b81548152906001019060200180831161263c57829003601f168201915b5050505050815250509250826020015193506126f7565b83601060006011848154811061268257fe5b9060005260206000200160009054906101000a900473ffffffffffffffffffffffffffffffffffffffff1673ffffffffffffffffffffffffffffffffffffffff1673ffffffffffffffffffffffffffffffffffffffff1681526020019081526020016000206001015414156126f657600191505b5b808060010191505061231d565b508015612734576003600260016101000a81548160ff0219169083600381111561272a57fe5b0217905550612806565b81600b60008201518160000160006101000a81548173ffffffffffffffffffffffffffffffffffffffff021916908373ffffffffffffffffffffffffffffffffffffffff1602179055506020820151816001015560408201518160020190805190602001906127a4929190612ede565b5060608201518160030190805190602001906127c1929190612dbe565b5060808201518160040190805190602001906127de929190612dbe565b5090505060028060016101000a81548160ff0219169083600381111561280057fe5b02179055505b505050565b6000600181111561281857fe5b600260009054906101000a900460ff16600181111561283357fe5b1461283d57600080fd5b60018081111561284957fe5b600a60009054906101000a900460ff16600181111561286457fe5b1461286e57600080fd5b6000600854141561287e57600080fd5b60005b601180549050811015612a9f5760085460020260106000601184815481106128a557fe5b9060005260206000200160009054906101000a900473ffffffffffffffffffffffffffffffffffffffff1673ffffffffffffffffffffffffffffffffffffffff1673ffffffffffffffffffffffffffffffffffffffff1681526020019081526020016000206001015460030210612a9257601060006011838154811061292757fe5b9060005260206000200160009054906101000a900473ffffffffffffffffffffffffffffffffffffffff1673ffffffffffffffffffffffffffffffffffffffff1673ffffffffffffffffffffffffffffffffffffffff168152602001908152602001600020600b6000820160009054906101000a900473ffffffffffffffffffffffffffffffffffffffff168160000160006101000a81548173ffffffffffffffffffffffffffffffffffffffff021916908373ffffffffffffffffffffffffffffffffffffffff160217905550600182015481600101556002820181600201908054612a15929190612f68565b5060038201816003019080546001816001161561010002031660029004612a3d929190612fba565b5060048201816004019080546001816001161561010002031660029004612a65929190612fba565b5090505060028060016101000a81548160ff02191690836003811115612a8757fe5b021790555050612ac5565b8080600101915050612881565b506003600260016101000a81548160ff02191690836003811115612abf57fe5b02179055505b565b600080600060606000806060600080600080606060006001811115612ae857fe5b600260009054906101000a900460ff166001811115612b0357fe5b14612b0d57600080fd5b60008054906101000a900473ffffffffffffffffffffffffffffffffffffffff16600260009054906101000a900460ff166001811115612b4957fe5b600260019054906101000a900460ff166003811115612b6457fe5b6004600554600654600760085430600954600a60009054906101000a900460ff166001811115612b9057fe5b6001888054600181600116156101000203166002900480601f016020809104026020016040519081016040528092919081815260200182805460018160011615610100020316600290048015612c275780601f10612bfc57610100808354040283529160200191612c27565b820191906000526020600020905b815481529060010190602001808311612c0a57829003601f168201915b50505050509850858054600181600116156101000203166002900480601f016020809104026020016040519081016040528092919081815260200182805460018160011615610100020316600290048015612cc35780601f10612c9857610100808354040283529160200191612cc3565b820191906000526020600020905b815481529060010190602001808311612ca657829003601f168201915b5050505050955080805480602002602001604051908101604052809291908181526020018280548015612d1557602002820191906000526020600020905b815481526020019060010190808311612d01575b505050505090509b509b509b509b509b509b509b509b509b509b509b509b50909192939495969798999a9b565b600a60009054906101000a900460ff1681565b5080546000825590600052602060002090810190612d73919061304f565b50565b50805460018160011615610100020316600290046000825580601f10612d9c5750612dbb565b601f016020900490600052602060002090810190612dba919061304f565b5b50565b828054600181600116156101000203166002900490600052602060002090601f016020900481019282612df45760008555612e3b565b82601f10612e0d57805160ff1916838001178555612e3b565b82800160010185558215612e3b579182015b82811115612e3a578251825591602001919060010190612e1f565b5b509050612e48919061304f565b5090565b828054828255906000526020600020908101928215612e88579160200282015b82811115612e87578251825591602001919060010190612e6c565b5b509050612e95919061304f565b5090565b6040518060a00160405280600073ffffffffffffffffffffffffffffffffffffffff168152602001600081526020016060815260200160608152602001606081525090565b828054828255906000526020600020908101928215612f57579160200282015b82811115612f565782518260006101000a81548173ffffffffffffffffffffffffffffffffffffffff021916908373ffffffffffffffffffffffffffffffffffffffff16021790555091602001919060010190612efe565b5b509050612f64919061304f565b5090565b828054828255906000526020600020908101928215612fa95760005260206000209182015b82811115612fa8578254825591600101919060010190612f8d565b5b509050612fb6919061304f565b5090565b828054600181600116156101000203166002900490600052602060002090601f016020900481019282612ff0576000855561303e565b82601f10613001578054855561303e565b8280016001018555821561303e57600052602060002091601f016020900482015b8281111561303d578254825591600101919060010190613022565b5b50905061304b919061304f565b5090565b5b80821115613068576000816000905550600101613050565b509056fea2646970667358221220dcc211650c87e96d7fb14d62936080e5e5de6e69a7646d17eed56b0b548ab91464736f6c63430007040033a26469706673582212204e65ed767e42cf3d8114832c2001157174e409bae61a0ae51f23c3e245de308464736f6c63430007040033",
  "immutableReferences": {},
  "source": "pragma solidity ^0.7.4;\n\n//\"SPDX-License-Identifier: UNLICENSED\"\nimport \"./Vote.sol\";\n\ncontract VoteFactory{\n    \n    // Representation of an instance of Group\n    struct groupStruct {\n        string name;\n        string description;\n        address[] members;\n        // uint groupID;\n    }\n    \n    // Representation of an instance of User\n    struct userStruct {\n        address userAddress;\n        string name;\n        string email;\n        uint256 studentID;\n        string password;\n        // address[] running;\n        // address[] createdElection;\n        // address[] createdPetition;\n        uint32[] groups;\n        bool isAdmin;\n        bool isLogin; // NEW Check if the user is logged in\n    }\n    \n    mapping(uint => groupStruct) public groupInfo; // KEY: groupID Value: group\n    uint32 groupCount;\n    address[] public deployedVotes;\n    mapping(address => userStruct) userInfo;\n    uint32 defaultGroupID = 0; // Use the getGroup(uint id) to access the default group\n    uint32[] public existingGroups; // Access all groups in the UI\n\n// GROUP\n    // UPDATED Creates an instance of group and Updates the groupInfo mapping\n    // The Group ID is based on the number of existing groups (generated)\n    function createGroup(string memory name, string memory description) public {\n        userStruct storage u = userInfo[msg.sender];\n        groupStruct storage g = groupInfo[groupCount];\n        require(!compareStrings(groupInfo[0].name, \"\"));\n        g.name = name;\n        g.description = description;\n        existingGroups.push(groupCount);\n        // Add Current User to the Group\n        u.groups.push(groupCount++);\n        g.members.push(u.userAddress);\n        \n    }\n\n    // UPDATED Adds the groupID to the user's array of groups and Adds the user's address to the group's array of members\n    function registerGroup(uint32 groupID) public {\n        userStruct storage u = userInfo[msg.sender];\n        groupStruct storage g = groupInfo[groupID];\n        \n        require(groupID != 0);\n        require(!compareStrings(g.name, \"\")); // Validates the group's existence\n        require(!isUserGroup(groupID));\n        \n        // Update User\n        u.groups.push(groupID);\n        \n        // Update Group\n        g.members.push(u.userAddress);\n    }\n    \n    // Removes the groupID in the user's groups array and Removes the address in the group's member array\n    // using the Swap & Delete method (swaps the last element)\n    // Resources https://stackoverflow.com/questions/49051856/is-there-a-pop-functionality-for-solidity-arrays\n    // The inputs are very specific to prevent large computations (TO CHANGE DEPENDING ON PROJECT MANAGER'S CHOICE)\n    function leaveGroup(uint32 indexGroup, uint32 indexMember, uint32 groupID) public {\n        userStruct storage u = userInfo[msg.sender];\n        groupStruct storage g = groupInfo[groupID];\n        \n        // Remove the group from user\n        u.groups[indexGroup] = u.groups[u.groups.length - 1];\n        delete u.groups[u.groups.length - 1];\n        u.groups.pop();\n        \n        // Remove user from the group\n        g.members[indexMember] = g.members[g.members.length - 1];\n        delete g.members[g.members.length - 1];\n        g.members.pop();\n    }\n\n// USER   \n    // UPDATED Registers the user and add the user to the default group\n    function registerUser(string memory name, string memory email, uint256 studentID, string memory password) public {\n        userStruct storage u = userInfo[msg.sender]; //innitialize\n        groupStruct storage studentGroup = groupInfo[defaultGroupID];\n        if (!isGroup(0)) {\n            studentGroup.name = \"Student\";\n            studentGroup.description = \"Default Group\";\n            existingGroups.push(groupCount++);\n        }\n        require(compareStrings(u.name, \"\"));\n        //require(!compareStrings(groupInfo[0].name, \"\"));\n        u.name = name;\n        u.email = email;\n        u.studentID = studentID;\n        u.password = password;\n        u.userAddress =  msg.sender;\n        u.isAdmin = true;\n        u.isLogin = false;\n        \n        // Join the default group\n        u.groups.push(defaultGroupID);\n        studentGroup.members.push(u.userAddress);\n        \n    }\n    \n    // UPDATED Logins the user\n    function loginUser(uint256 studentID, string memory password) public returns (string memory, string memory, uint32[] memory, bool) { // add username\n       userStruct storage u = userInfo[msg.sender];\n       require(studentID == u.studentID);\n       require(compareStrings(password, u.password)); // NEW implemented the helper method\n       u.isLogin = true;\n       return(u.name, u.email, u.groups, u.isAdmin);\n    }\n    \n    // NEW logout the user from the system\n    function logoutUser() public {\n        userStruct storage u = userInfo[msg.sender];\n        require(u.isLogin);\n        u.isLogin = false;\n    }\n    \n    // Creates a new Vote\n    function createVote(uint typeOf) public{\n        address newVote = address(new Vote(msg.sender, typeOf));\n        deployedVotes.push(newVote);\n    }\n    \n    /**\n     * OTHER METHODS\n     */\n    // Verify that the user is logged in \n    function isUserLoggedIn() public view returns (bool) {\n        userStruct storage u = userInfo[msg.sender];\n        return u.isLogin;\n    }\n    // Verify if the user is part of the group\n    function isUserGroup(uint32 groupID) public view returns (bool) {\n        bool isStatus = false;\n        userStruct storage u = userInfo[msg.sender];\n        for (uint i = 0; i < u.groups.length; i++) {\n            if (u.groups[i] == groupID) {\n                isStatus = true;\n                break;\n            }\n        }\n        return isStatus;\n    }\n    \n    // Verify that the group exists in the mapping\n    function isGroup(uint32 groupID) public view returns (bool) {\n        groupStruct storage g = groupInfo[groupID];\n        bool isExist = !(compareStrings(g.name, \"\"));\n        return isExist;\n    }\n    \n    // Returns a specific group of the user\n    function getUserGroup(uint32 index) public view returns (uint32) {\n        userStruct storage u = userInfo[msg.sender];\n        return u.groups[index];\n    }\n    \n    // Returns the user's array of groups\n    function getUserAllGroups() public view returns (uint32[] memory) {\n        userStruct storage u = userInfo[msg.sender];\n        return u.groups;\n    }\n    \n    // Returns all members of the group\n    function getAllMembers(uint32 groupID) public view returns (address[] memory) {\n        groupStruct storage g = groupInfo[groupID];\n        return g.members;\n    }\n    \n    // Returns a specific group of the website\n    function getGroup(uint8 id) public view returns(string memory aName, string memory aDescription, address[] memory aMembers, uint aMembersLength) {\n        groupStruct storage g = groupInfo[id];\n        return (g.name, g.description, g.members, g.members.length); // remove members length\n    }\n    \n    function getExistingGroups() public view returns(uint32[] memory) {\n        return existingGroups;\n    }\n\n    function getNumOfGroups() public view returns(uint256) {\n        return existingGroups.length;\n    }\n\n    //NEED TO BE FIX (u.groups) FOLLOW VOTE.SOL SYNTAX\n    function getUser() public view returns (string memory aName, string memory aEmail, uint256 aStudentID, uint32[] memory aGroups, bool aIsAdmin) {\n        userStruct storage u = userInfo[msg.sender];\n        return(u.name, \n               u.email, \n               u.studentID, \n               u.groups, \n               u.isAdmin);\n    }\n    \n    function getDeployedVotes() public view returns (address[] memory) {\n        return deployedVotes;\n    }\n    \n    // Returns a boolean value of the comparison (HELPER METHOD)\n    // Based on https://ethereum.stackexchange.com/questions/30912/how-to-compare-strings-in-solidity/82739\n    function compareStrings(string memory a, string memory b) public pure returns (bool) {\n        return (keccak256(abi.encodePacked((a))) == keccak256(abi.encodePacked((b))));\n    }   \n}",
  "sourcePath": "/home/wen_wong/voting-at-mcgill/contracts/VoteFactory.sol",
  "compiler": {
    "name": "solc",
    "version": "0.7.4+commit.3f05b770.Emscripten.clang"
  },
  "schemaVersion": "3.3.4",
  "updatedAt": "2021-04-22T19:58:26.140Z",
  "networkType": "ethereum",
  "devdoc": {
    "kind": "dev",
    "methods": {},
    "version": 1
  },
  "userdoc": {
    "kind": "user",
    "methods": {
      "isUserLoggedIn()": {
        "notice": "OTHER METHODS"
      }
    },
    "version": 1
  }
}