{
  "contractName": "Vote",
  "abi": [
    {
      "inputs": [],
      "stateMutability": "nonpayable",
      "type": "constructor"
    },
    {
      "inputs": [],
      "name": "getTest",
      "outputs": [
        {
          "internalType": "int256",
          "name": "",
          "type": "int256"
        }
      ],
      "stateMutability": "view",
      "type": "function",
      "constant": true
    }
  ],
  "bytecode": "0x608060405260008055348015601357600080fd5b50600160008190555060888061002a6000396000f3fe6080604052348015600f57600080fd5b506004361060285760003560e01c8063a8cd0a8014602d575b600080fd5b60336049565b6040518082815260200191505060405180910390f35b6000805490509056fea264697066735822122028ade3e15e2880211e65e64520664d81d148cca9150d95433a5649dd9d042c9a64736f6c63430007040033",
  "immutableReferences": {},
  "source": "// SPDX-License-Identifier: MIT\npragma solidity = 0.7.4;\n\ncontract Vote {\n    int test = 0;\n    constructor(){\n        test = 1;\n    }\n    function getTest() public view returns (int){\n        return test;\n    }\n}\n",
  "sourcePath": "C:/Users/foubroker/Desktop/BAM/learnReact/McGill_Votes/contracts/Vote.sol",
  "compiler": {
    "name": "solc",
    "version": "0.7.4+commit.3f05b770.Emscripten.clang"
  },
  "schemaVersion": "3.3.3",
  "updatedAt": "2021-01-13T02:16:36.309Z",
  "networkType": "ethereum",
  "devdoc": {
    "kind": "dev",
    "methods": {},
    "version": 1
  },
  "userdoc": {
    "kind": "user",
    "methods": {},
    "version": 1
  }
}