{
  "contractName": "Vote",
  "abi": [
    {
      "inputs": [
        {
          "internalType": "address",
          "name": "managerOfVote",
          "type": "address"
        },
        {
          "internalType": "uint256",
          "name": "typeOf",
          "type": "uint256"
        }
      ],
      "stateMutability": "nonpayable",
      "type": "constructor"
    },
    {
      "inputs": [
        {
          "internalType": "uint256",
          "name": "",
          "type": "uint256"
        }
      ],
      "name": "candidateArray",
      "outputs": [
        {
          "internalType": "address",
          "name": "candidateAddr",
          "type": "address"
        },
        {
          "internalType": "uint256",
          "name": "numVotes",
          "type": "uint256"
        },
        {
          "internalType": "string",
          "name": "name",
          "type": "string"
        },
        {
          "internalType": "string",
          "name": "description",
          "type": "string"
        }
      ],
      "stateMutability": "view",
      "type": "function"
    },
    {
      "inputs": [
        {
          "internalType": "address",
          "name": "",
          "type": "address"
        }
      ],
      "name": "candidates",
      "outputs": [
        {
          "internalType": "address",
          "name": "candidateAddr",
          "type": "address"
        },
        {
          "internalType": "uint256",
          "name": "numVotes",
          "type": "uint256"
        },
        {
          "internalType": "string",
          "name": "name",
          "type": "string"
        },
        {
          "internalType": "string",
          "name": "description",
          "type": "string"
        }
      ],
      "stateMutability": "view",
      "type": "function"
    },
    {
      "inputs": [
        {
          "internalType": "uint256",
          "name": "",
          "type": "uint256"
        }
      ],
      "name": "candidatesAddresses",
      "outputs": [
        {
          "internalType": "address",
          "name": "",
          "type": "address"
        }
      ],
      "stateMutability": "view",
      "type": "function"
    },
    {
      "inputs": [],
      "name": "candidatesCount",
      "outputs": [
        {
          "internalType": "uint256",
          "name": "",
          "type": "uint256"
        }
      ],
      "stateMutability": "view",
      "type": "function"
    },
    {
      "inputs": [],
      "name": "currentElection",
      "outputs": [
        {
          "internalType": "string",
          "name": "title",
          "type": "string"
        },
        {
          "internalType": "uint256",
          "name": "startDate",
          "type": "uint256"
        },
        {
          "internalType": "uint256",
          "name": "endDate",
          "type": "uint256"
        },
        {
          "internalType": "string",
          "name": "description",
          "type": "string"
        },
        {
          "internalType": "uint256",
          "name": "numVotes",
          "type": "uint256"
        },
        {
          "internalType": "string",
          "name": "typeOfElection",
          "type": "string"
        }
      ],
      "stateMutability": "view",
      "type": "function"
    },
    {
      "inputs": [],
      "name": "currentPetition",
      "outputs": [
        {
          "internalType": "string",
          "name": "title",
          "type": "string"
        },
        {
          "internalType": "uint256",
          "name": "startDate",
          "type": "uint256"
        },
        {
          "internalType": "uint256",
          "name": "endDate",
          "type": "uint256"
        },
        {
          "internalType": "string",
          "name": "description",
          "type": "string"
        },
        {
          "internalType": "uint256",
          "name": "numSigned",
          "type": "uint256"
        }
      ],
      "stateMutability": "view",
      "type": "function"
    },
    {
      "inputs": [],
      "name": "manager",
      "outputs": [
        {
          "internalType": "address",
          "name": "",
          "type": "address"
        }
      ],
      "stateMutability": "view",
      "type": "function"
    },
    {
      "inputs": [
        {
          "internalType": "string",
          "name": "title",
          "type": "string"
        },
        {
          "internalType": "uint256",
          "name": "startDate",
          "type": "uint256"
        },
        {
          "internalType": "uint256",
          "name": "endDate",
          "type": "uint256"
        },
        {
          "internalType": "string",
          "name": "description",
          "type": "string"
        },
        {
          "internalType": "string",
          "name": "typeOfElection",
          "type": "string"
        }
      ],
      "name": "editElection",
      "outputs": [],
      "stateMutability": "nonpayable",
      "type": "function"
    },
    {
      "inputs": [
        {
          "internalType": "string",
          "name": "title",
          "type": "string"
        },
        {
          "internalType": "uint256",
          "name": "startDate",
          "type": "uint256"
        },
        {
          "internalType": "uint256",
          "name": "endDate",
          "type": "uint256"
        },
        {
          "internalType": "string",
          "name": "description",
          "type": "string"
        }
      ],
      "name": "editPetition",
      "outputs": [],
      "stateMutability": "nonpayable",
      "type": "function"
    },
    {
      "inputs": [
        {
          "internalType": "address",
          "name": "candidateAddress",
          "type": "address"
        }
      ],
      "name": "voteFor",
      "outputs": [],
      "stateMutability": "nonpayable",
      "type": "function"
    },
    {
      "inputs": [
        {
          "internalType": "string",
          "name": "name",
          "type": "string"
        },
        {
          "internalType": "string",
          "name": "description",
          "type": "string"
        },
        {
          "internalType": "uint256",
          "name": "current_date",
          "type": "uint256"
        }
      ],
      "name": "enterElection",
      "outputs": [],
      "stateMutability": "nonpayable",
      "type": "function"
    },
    {
      "inputs": [],
      "name": "leaveElection",
      "outputs": [],
      "stateMutability": "nonpayable",
      "type": "function"
    },
    {
      "inputs": [
        {
          "internalType": "address",
          "name": "candaddr",
          "type": "address"
        }
      ],
      "name": "get_candidates",
      "outputs": [
        {
          "internalType": "string",
          "name": "",
          "type": "string"
        },
        {
          "internalType": "string",
          "name": "",
          "type": "string"
        }
      ],
      "stateMutability": "view",
      "type": "function"
    },
    {
      "inputs": [
        {
          "internalType": "address",
          "name": "candAddr",
          "type": "address"
        }
      ],
      "name": "getCandidateVoters",
      "outputs": [
        {
          "internalType": "address[]",
          "name": "",
          "type": "address[]"
        }
      ],
      "stateMutability": "view",
      "type": "function"
    },
    {
      "inputs": [
        {
          "internalType": "address",
          "name": "voterAddr",
          "type": "address"
        }
      ],
      "name": "getElectionVoter",
      "outputs": [
        {
          "internalType": "bool",
          "name": "",
          "type": "bool"
        }
      ],
      "stateMutability": "view",
      "type": "function"
    }
  ],
  "bytecode": "0x608060405234801561001057600080fd5b506040516123fe3803806123fe8339818101604052604081101561003357600080fd5b810190808051906020019092919080519060200190929190505050816000806101000a81548173ffffffffffffffffffffffffffffffffffffffff021916908373ffffffffffffffffffffffffffffffffffffffff1602179055508060001461009d5760016100a0565b60005b60ff166002819055505050612344806100ba6000396000f3fe608060405234801561001057600080fd5b50600436106100f55760003560e01c8063869eae2311610097578063da3550ee11610066578063da3550ee146109ba578063dcfda00f146109fe578063e1c5fcc114610bfb578063fcae83a714610c55576100f5565b8063869eae231461054f5780638ab66a90146106ab57806395115447146107f8578063ad0dcf9c14610891576100f5565b8063481c6a75116100d3578063481c6a751461025957806367127e431461028d578063691a675c146103f35780637432e63a146104f7576100f5565b80632d35a8a2146100fa57806335a893a114610118578063407bba4a1461024f575b600080fd5b610102610dc5565b6040518082815260200191505060405180910390f35b6101446004803603602081101561012e57600080fd5b8101908080359060200190929190505050610dcb565b604051808573ffffffffffffffffffffffffffffffffffffffff1681526020018481526020018060200180602001838103835285818151815260200191508051906020019080838360005b838110156101aa57808201518184015260208101905061018f565b50505050905090810190601f1680156101d75780820380516001836020036101000a031916815260200191505b50838103825284818151815260200191508051906020019080838360005b838110156102105780820151818401526020810190506101f5565b50505050905090810190601f16801561023d5780820380516001836020036101000a031916815260200191505b50965050505050505060405180910390f35b610257610f5b565b005b6102616112e5565b604051808273ffffffffffffffffffffffffffffffffffffffff16815260200191505060405180910390f35b6103f1600480360360808110156102a357600080fd5b81019080803590602001906401000000008111156102c057600080fd5b8201836020820111156102d257600080fd5b803590602001918460018302840111640100000000831117156102f457600080fd5b91908080601f016020809104026020016040519081016040528093929190818152602001838380828437600081840152601f19601f82011690508083019250505050505050919291929080359060200190929190803590602001909291908035906020019064010000000081111561036b57600080fd5b82018360208201111561037d57600080fd5b8035906020019184600183028401116401000000008311171561039f57600080fd5b91908080601f016020809104026020016040519081016040528093929190818152602001838380828437600081840152601f19601f820116905080830192505050505050509192919290505050611309565b005b6103fb6113c1565b604051808060200186815260200185815260200180602001848152602001838103835288818151815260200191508051906020019080838360005b83811015610451578082015181840152602081019050610436565b50505050905090810190601f16801561047e5780820380516001836020036101000a031916815260200191505b50838103825285818151815260200191508051906020019080838360005b838110156104b757808201518184015260208101905061049c565b50505050905090810190601f1680156104e45780820380516001836020036101000a031916815260200191505b5097505050505050505060405180910390f35b6105236004803603602081101561050d57600080fd5b8101908080359060200190929190505050611515565b604051808273ffffffffffffffffffffffffffffffffffffffff16815260200191505060405180910390f35b6106a96004803603606081101561056557600080fd5b810190808035906020019064010000000081111561058257600080fd5b82018360208201111561059457600080fd5b803590602001918460018302840111640100000000831117156105b657600080fd5b91908080601f016020809104026020016040519081016040528093929190818152602001838380828437600081840152601f19601f8201169050808301925050505050505091929192908035906020019064010000000081111561061957600080fd5b82018360208201111561062b57600080fd5b8035906020019184600183028401116401000000008311171561064d57600080fd5b91908080601f016020809104026020016040519081016040528093929190818152602001838380828437600081840152601f19601f82011690508083019250505050505050919291929080359060200190929190505050611554565b005b6106ed600480360360208110156106c157600080fd5b81019080803573ffffffffffffffffffffffffffffffffffffffff16906020019092919050505061174a565b604051808573ffffffffffffffffffffffffffffffffffffffff1681526020018481526020018060200180602001838103835285818151815260200191508051906020019080838360005b83811015610753578082015181840152602081019050610738565b50505050905090810190601f1680156107805780820380516001836020036101000a031916815260200191505b50838103825284818151815260200191508051906020019080838360005b838110156107b957808201518184015260208101905061079e565b50505050905090810190601f1680156107e65780820380516001836020036101000a031916815260200191505b50965050505050505060405180910390f35b61083a6004803603602081101561080e57600080fd5b81019080803573ffffffffffffffffffffffffffffffffffffffff1690602001909291905050506118ca565b6040518080602001828103825283818151815260200191508051906020019060200280838360005b8381101561087d578082015181840152602081019050610862565b505050509050019250505060405180910390f35b6108d3600480360360208110156108a757600080fd5b81019080803573ffffffffffffffffffffffffffffffffffffffff1690602001909291905050506119a9565b604051808060200180602001838103835285818151815260200191508051906020019080838360005b838110156109175780820151818401526020810190506108fc565b50505050905090810190601f1680156109445780820380516001836020036101000a031916815260200191505b50838103825284818151815260200191508051906020019080838360005b8381101561097d578082015181840152602081019050610962565b50505050905090810190601f1680156109aa5780820380516001836020036101000a031916815260200191505b5094505050505060405180910390f35b6109fc600480360360208110156109d057600080fd5b81019080803573ffffffffffffffffffffffffffffffffffffffff169060200190929190505050611b80565b005b610bf9600480360360a0811015610a1457600080fd5b8101908080359060200190640100000000811115610a3157600080fd5b820183602082011115610a4357600080fd5b80359060200191846001830284011164010000000083111715610a6557600080fd5b91908080601f016020809104026020016040519081016040528093929190818152602001838380828437600081840152601f19601f820116905080830192505050505050509192919290803590602001909291908035906020019092919080359060200190640100000000811115610adc57600080fd5b820183602082011115610aee57600080fd5b80359060200191846001830284011164010000000083111715610b1057600080fd5b91908080601f016020809104026020016040519081016040528093929190818152602001838380828437600081840152601f19601f82011690508083019250505050505050919291929080359060200190640100000000811115610b7357600080fd5b820183602082011115610b8557600080fd5b80359060200191846001830284011164010000000083111715610ba757600080fd5b91908080601f016020809104026020016040519081016040528093929190818152602001838380828437600081840152601f19601f820116905080830192505050505050509192919290505050611de9565b005b610c3d60048036036020811015610c1157600080fd5b81019080803573ffffffffffffffffffffffffffffffffffffffff169060200190929190505050611ebb565b60405180821515815260200191505060405180910390f35b610c5d611f21565b6040518080602001878152602001868152602001806020018581526020018060200184810384528a818151815260200191508051906020019080838360005b83811015610cb7578082015181840152602081019050610c9c565b50505050905090810190601f168015610ce45780820380516001836020036101000a031916815260200191505b50848103835287818151815260200191508051906020019080838360005b83811015610d1d578082015181840152602081019050610d02565b50505050905090810190601f168015610d4a5780820380516001836020036101000a031916815260200191505b50848103825285818151815260200191508051906020019080838360005b83811015610d83578082015181840152602081019050610d68565b50505050905090810190601f168015610db05780820380516001836020036101000a031916815260200191505b50995050505050505050505060405180910390f35b60015481565b60048181548110610ddb57600080fd5b90600052602060002090600502016000915090508060000160009054906101000a900473ffffffffffffffffffffffffffffffffffffffff1690806001015490806003018054600181600116156101000203166002900480601f016020809104026020016040519081016040528092919081815260200182805460018160011615610100020316600290048015610eb35780601f10610e8857610100808354040283529160200191610eb3565b820191906000526020600020905b815481529060010190602001808311610e9657829003601f168201915b505050505090806004018054600181600116156101000203166002900480601f016020809104026020016040519081016040528092919081815260200182805460018160011615610100020316600290048015610f515780601f10610f2657610100808354040283529160200191610f51565b820191906000526020600020905b815481529060010190602001808311610f3457829003601f168201915b5050505050905084565b600060025414610f6a57600080fd5b6000600360003373ffffffffffffffffffffffffffffffffffffffff1673ffffffffffffffffffffffffffffffffffffffff168152602001908152602001600020905060405180602001604052806000815250816003019080519060200190610fd4929190612113565b5060405180602001604052806000815250816004019080519060200190610ffc929190612113565b50600360003373ffffffffffffffffffffffffffffffffffffffff1673ffffffffffffffffffffffffffffffffffffffff168152602001908152602001600020600080820160006101000a81549073ffffffffffffffffffffffffffffffffffffffff0219169055600182016000905560028201600061107c91906121a1565b60038201600061108c91906121c2565b60048201600061109c91906121c2565b505060005b6004805490508110156112ce57600481815481106110bb57fe5b906000526020600020906005020160000160009054906101000a900473ffffffffffffffffffffffffffffffffffffffff1673ffffffffffffffffffffffffffffffffffffffff163373ffffffffffffffffffffffffffffffffffffffff1614156112c15760046001600480549050038154811061113557fe5b90600052602060002090600502016004828154811061115057fe5b90600052602060002090600502016000820160009054906101000a900473ffffffffffffffffffffffffffffffffffffffff168160000160006101000a81548173ffffffffffffffffffffffffffffffffffffffff021916908373ffffffffffffffffffffffffffffffffffffffff1602179055506001820154816001015560028201816002019080546111e592919061220a565b506003820181600301908054600181600116156101000203166002900461120d92919061225c565b506004820181600401908054600181600116156101000203166002900461123592919061225c565b50905050600480548061124457fe5b6001900381819060005260206000209060050201600080820160006101000a81549073ffffffffffffffffffffffffffffffffffffffff0219169055600182016000905560028201600061129891906121a1565b6003820160006112a891906121c2565b6004820160006112b891906121c2565b505090556112ce565b80806001019150506110a1565b506001600081548092919060019003919050555050565b60008054906101000a900473ffffffffffffffffffffffffffffffffffffffff1681565b60008054906101000a900473ffffffffffffffffffffffffffffffffffffffff1673ffffffffffffffffffffffffffffffffffffffff163373ffffffffffffffffffffffffffffffffffffffff161461136157600080fd5b60016002541461137057600080fd5b6000600d90508481600001908051906020019061138e929190612113565b50838160010181905550828160020181905550818160030190805190602001906113b9929190612113565b505050505050565b600d806000018054600181600116156101000203166002900480601f01602080910402602001604051908101604052809291908181526020018280546001816001161561010002031660029004801561145b5780601f106114305761010080835404028352916020019161145b565b820191906000526020600020905b81548152906001019060200180831161143e57829003601f168201915b505050505090806001015490806002015490806003018054600181600116156101000203166002900480601f0160208091040260200160405190810160405280929190818152602001828054600181600116156101000203166002900480156115055780601f106114da57610100808354040283529160200191611505565b820191906000526020600020905b8154815290600101906020018083116114e857829003601f168201915b5050505050908060040154905085565b6005818154811061152557600080fd5b906000526020600020016000915054906101000a900473ffffffffffffffffffffffffffffffffffffffff1681565b60006002541461156357600080fd5b600660010154811061157457600080fd5b6000600360003373ffffffffffffffffffffffffffffffffffffffff1673ffffffffffffffffffffffffffffffffffffffff1681526020019081526020016000209050838160030190805190602001906115cf929190612113565b50828160040190805190602001906115e8929190612113565b50338160000160006101000a81548173ffffffffffffffffffffffffffffffffffffffff021916908373ffffffffffffffffffffffffffffffffffffffff16021790555060048190806001815401808255809150506001900390600052602060002090600502016000909190919091506000820160009054906101000a900473ffffffffffffffffffffffffffffffffffffffff168160000160006101000a81548173ffffffffffffffffffffffffffffffffffffffff021916908373ffffffffffffffffffffffffffffffffffffffff1602179055506001820154816001015560028201816002019080546116df92919061220a565b506003820181600301908054600181600116156101000203166002900461170792919061225c565b506004820181600401908054600181600116156101000203166002900461172f92919061225c565b50505060016000815480929190600101919050555050505050565b60036020528060005260406000206000915090508060000160009054906101000a900473ffffffffffffffffffffffffffffffffffffffff1690806001015490806003018054600181600116156101000203166002900480601f0160208091040260200160405190810160405280929190818152602001828054600181600116156101000203166002900480156118225780601f106117f757610100808354040283529160200191611822565b820191906000526020600020905b81548152906001019060200180831161180557829003601f168201915b505050505090806004018054600181600116156101000203166002900480601f0160208091040260200160405190810160405280929190818152602001828054600181600116156101000203166002900480156118c05780601f10611895576101008083540402835291602001916118c0565b820191906000526020600020905b8154815290600101906020018083116118a357829003601f168201915b5050505050905084565b60606000600254146118db57600080fd5b600360008373ffffffffffffffffffffffffffffffffffffffff1673ffffffffffffffffffffffffffffffffffffffff16815260200190815260200160002060020180548060200260200160405190810160405280929190818152602001828054801561199d57602002820191906000526020600020905b8160009054906101000a900473ffffffffffffffffffffffffffffffffffffffff1673ffffffffffffffffffffffffffffffffffffffff1681526020019060010190808311611953575b50505050509050919050565b6060806000600254146119bb57600080fd5b600360008473ffffffffffffffffffffffffffffffffffffffff1673ffffffffffffffffffffffffffffffffffffffff168152602001908152602001600020600301600360008573ffffffffffffffffffffffffffffffffffffffff1673ffffffffffffffffffffffffffffffffffffffff168152602001908152602001600020600401818054600181600116156101000203166002900480601f016020809104026020016040519081016040528092919081815260200182805460018160011615610100020316600290048015611ad45780601f10611aa957610100808354040283529160200191611ad4565b820191906000526020600020905b815481529060010190602001808311611ab757829003601f168201915b50505050509150808054600181600116156101000203166002900480601f016020809104026020016040519081016040528092919081815260200182805460018160011615610100020316600290048015611b705780601f10611b4557610100808354040283529160200191611b70565b820191906000526020600020905b815481529060010190602001808311611b5357829003601f168201915b5050505050905091509150915091565b600060025414611b8f57600080fd5b600015156006800160003373ffffffffffffffffffffffffffffffffffffffff1673ffffffffffffffffffffffffffffffffffffffff16815260200190815260200160002060009054906101000a900460ff1615151415611de657600073ffffffffffffffffffffffffffffffffffffffff16600360008373ffffffffffffffffffffffffffffffffffffffff1673ffffffffffffffffffffffffffffffffffffffff16815260200190815260200160002060000160009054906101000a900473ffffffffffffffffffffffffffffffffffffffff1673ffffffffffffffffffffffffffffffffffffffff1614611de55760016006800160003373ffffffffffffffffffffffffffffffffffffffff1673ffffffffffffffffffffffffffffffffffffffff16815260200190815260200160002060006101000a81548160ff021916908315150217905550600660040160008154809291906001019190505550600360008273ffffffffffffffffffffffffffffffffffffffff1673ffffffffffffffffffffffffffffffffffffffff16815260200190815260200160002060010160008154809291906001019190505550600360008273ffffffffffffffffffffffffffffffffffffffff1673ffffffffffffffffffffffffffffffffffffffff168152602001908152602001600020600201339080600181540180825580915050600190039060005260206000200160009091909190916101000a81548173ffffffffffffffffffffffffffffffffffffffff021916908373ffffffffffffffffffffffffffffffffffffffff1602179055505b5b50565b60008054906101000a900473ffffffffffffffffffffffffffffffffffffffff1673ffffffffffffffffffffffffffffffffffffffff163373ffffffffffffffffffffffffffffffffffffffff1614611e4157600080fd5b600060025414611e5057600080fd5b60006006905085816000019080519060200190611e6e929190612113565b5084816001018190555083816002018190555082816003019080519060200190611e99929190612113565b5081816005019080519060200190611eb2929190612113565b50505050505050565b60008060025414611ecb57600080fd5b6006800160008373ffffffffffffffffffffffffffffffffffffffff1673ffffffffffffffffffffffffffffffffffffffff16815260200190815260200160002060009054906101000a900460ff169050919050565b6006806000018054600181600116156101000203166002900480601f016020809104026020016040519081016040528092919081815260200182805460018160011615610100020316600290048015611fbb5780601f10611f9057610100808354040283529160200191611fbb565b820191906000526020600020905b815481529060010190602001808311611f9e57829003601f168201915b505050505090806001015490806002015490806003018054600181600116156101000203166002900480601f0160208091040260200160405190810160405280929190818152602001828054600181600116156101000203166002900480156120655780601f1061203a57610100808354040283529160200191612065565b820191906000526020600020905b81548152906001019060200180831161204857829003601f168201915b505050505090806004015490806005018054600181600116156101000203166002900480601f0160208091040260200160405190810160405280929190818152602001828054600181600116156101000203166002900480156121095780601f106120de57610100808354040283529160200191612109565b820191906000526020600020905b8154815290600101906020018083116120ec57829003601f168201915b5050505050905086565b828054600181600116156101000203166002900490600052602060002090601f0160209004810192826121495760008555612190565b82601f1061216257805160ff1916838001178555612190565b82800160010185558215612190579182015b8281111561218f578251825591602001919060010190612174565b5b50905061219d91906122f1565b5090565b50805460008255906000526020600020908101906121bf91906122f1565b50565b50805460018160011615610100020316600290046000825580601f106121e85750612207565b601f01602090049060005260206000209081019061220691906122f1565b5b50565b82805482825590600052602060002090810192821561224b5760005260206000209182015b8281111561224a57825482559160010191906001019061222f565b5b50905061225891906122f1565b5090565b828054600181600116156101000203166002900490600052602060002090601f01602090048101928261229257600085556122e0565b82601f106122a357805485556122e0565b828001600101855582156122e057600052602060002091601f016020900482015b828111156122df5782548255916001019190600101906122c4565b5b5090506122ed91906122f1565b5090565b5b8082111561230a5760008160009055506001016122f2565b509056fea26469706673582212209c98ca0502e74b63a8e02314c1f4ac8a5af23dab70f1b62e2b0f7d4052b3d9e964736f6c63430007040033",
  "immutableReferences": {},
  "source": "pragma solidity ^0.7.4;\n//\"SPDX-License-Identifier: UNLICENSED\"\n\ncontract Vote{\n    //admin address\n    address public manager;\n    uint public candidatesCount;\n\n    struct user{\n        string name;\n        string email;\n        string password;\n        address userAddress;\n        address[] running;\n        address[] createdElection;\n        address[] createdPetition;\n        string userType;\n    }\n\n    struct candidate {\n        address candidateAddr;\n        uint numVotes;\n        address[] voters;\n        string name;\n        string description;\n    }\n\n    struct election {\n        string title;\n        uint startDate;\n        uint endDate;\n        string description;\n        //think about mapping?\n        uint numVotes;\n        string typeOfElection;\n        mapping(address => bool) voters ; //see if a voter has voted\n    }\n    struct petition{\n        string title;\n        uint startDate;\n        uint endDate;\n        string description;\n        uint numSigned;\n        mapping(address=>bool) signed; //see if a user has signed\n    }\n    uint typeOfVote; //0 for election and 1 for petition\n    // mapping(uint => election) public elections;\n    mapping(address => candidate) public candidates; //maps a candidate's address to the candidate\n    candidate[] public candidateArray;// DO ON SUNDAY\n    address[] public candidatesAddresses;//should replace candidateArray\n    election public currentElection;\n    petition public currentPetition;\n\n    constructor (address managerOfVote, uint typeOf){   //how does one become an admin?\n        // constructor\n        manager = managerOfVote;\n        typeOfVote = (0 == typeOf) ? 0 : 1;\n    }\n\n    function editElection (string memory title, uint256 startDate, uint256 endDate, string memory description, string memory typeOfElection)\n    public restricted typeElection {\n        election storage e = currentElection;\n        e.title = title;\n        e.startDate = startDate;\n        e.endDate = endDate;\n        e.description = description;\n        e.typeOfElection = typeOfElection;\n    }\n\n    function editPetition (string memory title, uint256 startDate, uint256 endDate, string memory description)\n    public restricted typePetition {\n        petition storage p = currentPetition;\n        p.title = title;\n        p.startDate = startDate;\n        p.endDate = endDate;\n        p.description = description;\n    }\n //vote for a candidate\n    function voteFor(address candidateAddress) public typeElection{\n        if(currentElection.voters[msg.sender] == false){\n            if(candidates[candidateAddress].candidateAddr != address(0)){\n                currentElection.voters[msg.sender]  = true;\n                currentElection.numVotes++;\n                (candidates[candidateAddress]).numVotes++;\n                (candidates[candidateAddress]).voters.push(msg.sender);\n            }\n        }\n    }\n    //enter as a candidate\n    function enterElection(string memory name, string memory description,uint256 current_date)\n    public typeElection {\n        //Check if the registration is before the required deadline\n        require(current_date < currentElection.startDate);\n        //enter candidate\n        candidate storage currentCandidate = candidates[msg.sender];\n        currentCandidate.name = name;\n        currentCandidate.description = description;\n        currentCandidate.candidateAddr= msg.sender;\n        currentCandidate.voters;\n        candidateArray.push(currentCandidate);\n        candidatesCount++;\n        //candidateAddrs.push(msg.sender);\n    }\n\n    // ? current_date is not being used\n    //leave the election\n    function leaveElection()//uint256 current_date)\n    public typeElection {\n        //Check if the registration is before the required deadline\n        //require(current_date < currentElection.startDate);\n        //remove candidate\n        candidate storage currentCandidate = candidates[msg.sender];\n        currentCandidate.name = \"\";\n        currentCandidate.description = \"\";\n        //currentCandidate.candidateAddr= ;\n        //remove from array\n        delete candidates[msg.sender];\n        for (uint i = 0; i<candidateArray.length; i++){\n            if(msg.sender==candidateArray[i].candidateAddr){\n                candidateArray[i]=candidateArray[candidateArray.length-1];\n                candidateArray.pop();\n                break;\n            }\n        }\n        candidatesCount--;\n    }\n\n    //GETTERS\n    function get_candidates(address candaddr) public view typeElection returns (string memory, string memory) {\n        return(candidates[candaddr].name, candidates[candaddr].description);\n    }\n    function getCandidateVoters(address candAddr) public view typeElection returns (address[] memory) {\n        return((candidates[candAddr]).voters);\n    }\n    function getElectionVoter(address voterAddr) public view typeElection returns (bool) {\n        return ((currentElection.voters)[voterAddr]);\n    }\n    modifier restricted() {\n        require(msg.sender == manager);\n        _;\n    }\n    modifier typeElection() {\n        require(typeOfVote == 0);\n        _;\n    }\n    modifier typePetition() {\n        require(typeOfVote == 1);\n        _;\n    }\n\n}\n",
  "sourcePath": "/home/wen_wong/voting-at-mcgill/contracts/Vote.sol",
  "compiler": {
    "name": "solc",
    "version": "0.7.4+commit.3f05b770.Emscripten.clang"
  },
  "schemaVersion": "3.3.4",
  "updatedAt": "2021-03-09T05:43:38.118Z",
  "devdoc": {
    "kind": "dev",
    "methods": {},
    "version": 1
  },
  "userdoc": {
    "kind": "user",
    "methods": {},
    "version": 1
  }
}