{
  "contractName": "Vote",
  "abi": [
    {
      "inputs": [
        {
          "internalType": "address",
          "name": "managerOfVote",
          "type": "address"
        },
        {
          "internalType": "uint256",
          "name": "typeOf",
          "type": "uint256"
        }
      ],
      "stateMutability": "nonpayable",
      "type": "constructor"
    },
    {
      "inputs": [
        {
          "internalType": "uint256",
          "name": "",
          "type": "uint256"
        }
      ],
      "name": "candidateArray",
      "outputs": [
        {
          "internalType": "address",
          "name": "candidateAddr",
          "type": "address"
        },
        {
          "internalType": "uint256",
          "name": "numVotes",
          "type": "uint256"
        },
        {
          "internalType": "string",
          "name": "name",
          "type": "string"
        },
        {
          "internalType": "string",
          "name": "description",
          "type": "string"
        }
      ],
      "stateMutability": "view",
      "type": "function"
    },
    {
      "inputs": [
        {
          "internalType": "address",
          "name": "",
          "type": "address"
        }
      ],
      "name": "candidates",
      "outputs": [
        {
          "internalType": "address",
          "name": "candidateAddr",
          "type": "address"
        },
        {
          "internalType": "uint256",
          "name": "numVotes",
          "type": "uint256"
        },
        {
          "internalType": "string",
          "name": "name",
          "type": "string"
        },
        {
          "internalType": "string",
          "name": "description",
          "type": "string"
        }
      ],
      "stateMutability": "view",
      "type": "function"
    },
    {
      "inputs": [
        {
          "internalType": "uint256",
          "name": "",
          "type": "uint256"
        }
      ],
      "name": "candidatesAddresses",
      "outputs": [
        {
          "internalType": "address",
          "name": "",
          "type": "address"
        }
      ],
      "stateMutability": "view",
      "type": "function"
    },
    {
      "inputs": [],
      "name": "candidatesCount",
      "outputs": [
        {
          "internalType": "uint256",
          "name": "",
          "type": "uint256"
        }
      ],
      "stateMutability": "view",
      "type": "function"
    },
    {
      "inputs": [],
      "name": "currentElection",
      "outputs": [
        {
          "internalType": "string",
          "name": "title",
          "type": "string"
        },
        {
          "internalType": "uint256",
          "name": "startDate",
          "type": "uint256"
        },
        {
          "internalType": "uint256",
          "name": "endDate",
          "type": "uint256"
        },
        {
          "internalType": "string",
          "name": "description",
          "type": "string"
        },
        {
          "internalType": "uint256",
          "name": "numVotes",
          "type": "uint256"
        },
        {
          "internalType": "string",
          "name": "typeOfElection",
          "type": "string"
        }
      ],
      "stateMutability": "view",
      "type": "function"
    },
    {
      "inputs": [],
      "name": "currentPetition",
      "outputs": [
        {
          "internalType": "string",
          "name": "title",
          "type": "string"
        },
        {
          "internalType": "uint256",
          "name": "startDate",
          "type": "uint256"
        },
        {
          "internalType": "uint256",
          "name": "endDate",
          "type": "uint256"
        },
        {
          "internalType": "string",
          "name": "description",
          "type": "string"
        },
        {
          "internalType": "uint256",
          "name": "numSigned",
          "type": "uint256"
        }
      ],
      "stateMutability": "view",
      "type": "function"
    },
    {
      "inputs": [],
      "name": "manager",
      "outputs": [
        {
          "internalType": "address",
          "name": "",
          "type": "address"
        }
      ],
      "stateMutability": "view",
      "type": "function"
    },
    {
      "inputs": [
        {
          "internalType": "string",
          "name": "title",
          "type": "string"
        },
        {
          "internalType": "uint256",
          "name": "startDate",
          "type": "uint256"
        },
        {
          "internalType": "uint256",
          "name": "endDate",
          "type": "uint256"
        },
        {
          "internalType": "string",
          "name": "description",
          "type": "string"
        },
        {
          "internalType": "string",
          "name": "typeOfElection",
          "type": "string"
        }
      ],
      "name": "editElection",
      "outputs": [],
      "stateMutability": "nonpayable",
      "type": "function"
    },
    {
      "inputs": [
        {
          "internalType": "string",
          "name": "title",
          "type": "string"
        },
        {
          "internalType": "uint256",
          "name": "startDate",
          "type": "uint256"
        },
        {
          "internalType": "uint256",
          "name": "endDate",
          "type": "uint256"
        },
        {
          "internalType": "string",
          "name": "description",
          "type": "string"
        }
      ],
      "name": "editPetition",
      "outputs": [],
      "stateMutability": "nonpayable",
      "type": "function"
    },
    {
      "inputs": [
        {
          "internalType": "address",
          "name": "candidateAddress",
          "type": "address"
        }
      ],
      "name": "voteFor",
      "outputs": [],
      "stateMutability": "nonpayable",
      "type": "function"
    },
    {
      "inputs": [
        {
          "internalType": "string",
          "name": "name",
          "type": "string"
        },
        {
          "internalType": "string",
          "name": "description",
          "type": "string"
        },
        {
          "internalType": "uint256",
          "name": "current_date",
          "type": "uint256"
        }
      ],
      "name": "enterElection",
      "outputs": [],
      "stateMutability": "nonpayable",
      "type": "function"
    },
    {
      "inputs": [
        {
          "internalType": "uint256",
          "name": "current_date",
          "type": "uint256"
        }
      ],
      "name": "leaveElection",
      "outputs": [],
      "stateMutability": "nonpayable",
      "type": "function"
    },
    {
      "inputs": [],
      "name": "get_election",
      "outputs": [
        {
          "internalType": "string",
          "name": "",
          "type": "string"
        },
        {
          "internalType": "uint256",
          "name": "",
          "type": "uint256"
        },
        {
          "internalType": "uint256",
          "name": "",
          "type": "uint256"
        },
        {
          "internalType": "string",
          "name": "",
          "type": "string"
        },
        {
          "internalType": "uint256",
          "name": "",
          "type": "uint256"
        },
        {
          "internalType": "string",
          "name": "",
          "type": "string"
        }
      ],
      "stateMutability": "view",
      "type": "function"
    },
    {
      "inputs": [],
      "name": "get_petition",
      "outputs": [
        {
          "internalType": "string",
          "name": "",
          "type": "string"
        },
        {
          "internalType": "uint256",
          "name": "",
          "type": "uint256"
        },
        {
          "internalType": "uint256",
          "name": "",
          "type": "uint256"
        },
        {
          "internalType": "string",
          "name": "",
          "type": "string"
        },
        {
          "internalType": "uint256",
          "name": "",
          "type": "uint256"
        }
      ],
      "stateMutability": "view",
      "type": "function"
    },
    {
      "inputs": [
        {
          "internalType": "address",
          "name": "candaddr",
          "type": "address"
        }
      ],
      "name": "get_candidates",
      "outputs": [
        {
          "internalType": "string",
          "name": "",
          "type": "string"
        },
        {
          "internalType": "string",
          "name": "",
          "type": "string"
        }
      ],
      "stateMutability": "view",
      "type": "function"
    },
    {
      "inputs": [
        {
          "internalType": "address",
          "name": "candAddr",
          "type": "address"
        }
      ],
      "name": "getCandidateVoters",
      "outputs": [
        {
          "internalType": "address[]",
          "name": "",
          "type": "address[]"
        }
      ],
      "stateMutability": "view",
      "type": "function"
    },
    {
      "inputs": [
        {
          "internalType": "address",
          "name": "voterAddr",
          "type": "address"
        }
      ],
      "name": "getElectionVoter",
      "outputs": [
        {
          "internalType": "bool",
          "name": "",
          "type": "bool"
        }
      ],
      "stateMutability": "view",
      "type": "function"
    }
  ],
  "bytecode": "0x608060405234801561001057600080fd5b50604051612a5d380380612a5d8339818101604052604081101561003357600080fd5b810190808051906020019092919080519060200190929190505050816000806101000a81548173ffffffffffffffffffffffffffffffffffffffff021916908373ffffffffffffffffffffffffffffffffffffffff1602179055508060001461009d5760016100a0565b60005b60ff1660028190555050506129a3806100ba6000396000f3fe608060405234801561001057600080fd5b506004361061010b5760003560e01c80638ab66a90116100a2578063af47fb3f11610071578063af47fb3f14610c3a578063da3550ee14610c68578063dcfda00f14610cac578063e1c5fcc114610ea9578063fcae83a714610f035761010b565b80638ab66a90146108275780638e440c32146109745780639511544714610a78578063ad0dcf9c14610b115761010b565b806367127e43116100de57806367127e4314610409578063691a675c1461056f5780637432e63a14610673578063869eae23146106cb5761010b565b806304facd35146101105780632d35a8a21461028057806335a893a11461029e578063481c6a75146103d5575b600080fd5b610118611073565b6040518080602001878152602001868152602001806020018581526020018060200184810384528a818151815260200191508051906020019080838360005b83811015610172578082015181840152602081019050610157565b50505050905090810190601f16801561019f5780820380516001836020036101000a031916815260200191505b50848103835287818151815260200191508051906020019080838360005b838110156101d85780820151818401526020810190506101bd565b50505050905090810190601f1680156102055780820380516001836020036101000a031916815260200191505b50848103825285818151815260200191508051906020019080838360005b8381101561023e578082015181840152602081019050610223565b50505050905090810190601f16801561026b5780820380516001836020036101000a031916815260200191505b50995050505050505050505060405180910390f35b610288611296565b6040518082815260200191505060405180910390f35b6102ca600480360360208110156102b457600080fd5b810190808035906020019092919050505061129c565b604051808573ffffffffffffffffffffffffffffffffffffffff1681526020018481526020018060200180602001838103835285818151815260200191508051906020019080838360005b83811015610330578082015181840152602081019050610315565b50505050905090810190601f16801561035d5780820380516001836020036101000a031916815260200191505b50838103825284818151815260200191508051906020019080838360005b8381101561039657808201518184015260208101905061037b565b50505050905090810190601f1680156103c35780820380516001836020036101000a031916815260200191505b50965050505050505060405180910390f35b6103dd61142c565b604051808273ffffffffffffffffffffffffffffffffffffffff16815260200191505060405180910390f35b61056d6004803603608081101561041f57600080fd5b810190808035906020019064010000000081111561043c57600080fd5b82018360208201111561044e57600080fd5b8035906020019184600183028401116401000000008311171561047057600080fd5b91908080601f016020809104026020016040519081016040528093929190818152602001838380828437600081840152601f19601f8201169050808301925050505050505091929192908035906020019092919080359060200190929190803590602001906401000000008111156104e757600080fd5b8201836020820111156104f957600080fd5b8035906020019184600183028401116401000000008311171561051b57600080fd5b91908080601f016020809104026020016040519081016040528093929190818152602001838380828437600081840152601f19601f820116905080830192505050505050509192919290505050611450565b005b610577611508565b604051808060200186815260200185815260200180602001848152602001838103835288818151815260200191508051906020019080838360005b838110156105cd5780820151818401526020810190506105b2565b50505050905090810190601f1680156105fa5780820380516001836020036101000a031916815260200191505b50838103825285818151815260200191508051906020019080838360005b83811015610633578082015181840152602081019050610618565b50505050905090810190601f1680156106605780820380516001836020036101000a031916815260200191505b5097505050505050505060405180910390f35b61069f6004803603602081101561068957600080fd5b810190808035906020019092919050505061165c565b604051808273ffffffffffffffffffffffffffffffffffffffff16815260200191505060405180910390f35b610825600480360360608110156106e157600080fd5b81019080803590602001906401000000008111156106fe57600080fd5b82018360208201111561071057600080fd5b8035906020019184600183028401116401000000008311171561073257600080fd5b91908080601f016020809104026020016040519081016040528093929190818152602001838380828437600081840152601f19601f8201169050808301925050505050505091929192908035906020019064010000000081111561079557600080fd5b8201836020820111156107a757600080fd5b803590602001918460018302840111640100000000831117156107c957600080fd5b91908080601f016020809104026020016040519081016040528093929190818152602001838380828437600081840152601f19601f8201169050808301925050505050505091929192908035906020019092919050505061169b565b005b6108696004803603602081101561083d57600080fd5b81019080803573ffffffffffffffffffffffffffffffffffffffff1690602001909291905050506118a1565b604051808573ffffffffffffffffffffffffffffffffffffffff1681526020018481526020018060200180602001838103835285818151815260200191508051906020019080838360005b838110156108cf5780820151818401526020810190506108b4565b50505050905090810190601f1680156108fc5780820380516001836020036101000a031916815260200191505b50838103825284818151815260200191508051906020019080838360005b8381101561093557808201518184015260208101905061091a565b50505050905090810190601f1680156109625780820380516001836020036101000a031916815260200191505b50965050505050505060405180910390f35b61097c611a21565b604051808060200186815260200185815260200180602001848152602001838103835288818151815260200191508051906020019080838360005b838110156109d25780820151818401526020810190506109b7565b50505050905090810190601f1680156109ff5780820380516001836020036101000a031916815260200191505b50838103825285818151815260200191508051906020019080838360005b83811015610a38578082015181840152602081019050610a1d565b50505050905090810190601f168015610a655780820380516001836020036101000a031916815260200191505b5097505050505050505060405180910390f35b610aba60048036036020811015610a8e57600080fd5b81019080803573ffffffffffffffffffffffffffffffffffffffff169060200190929190505050611b9e565b6040518080602001828103825283818151815260200191508051906020019060200280838360005b83811015610afd578082015181840152602081019050610ae2565b505050509050019250505060405180910390f35b610b5360048036036020811015610b2757600080fd5b81019080803573ffffffffffffffffffffffffffffffffffffffff169060200190929190505050611c7d565b604051808060200180602001838103835285818151815260200191508051906020019080838360005b83811015610b97578082015181840152602081019050610b7c565b50505050905090810190601f168015610bc45780820380516001836020036101000a031916815260200191505b50838103825284818151815260200191508051906020019080838360005b83811015610bfd578082015181840152602081019050610be2565b50505050905090810190601f168015610c2a5780820380516001836020036101000a031916815260200191505b5094505050505060405180910390f35b610c6660048036036020811015610c5057600080fd5b8101908080359060200190929190505050611e54565b005b610caa60048036036020811015610c7e57600080fd5b81019080803573ffffffffffffffffffffffffffffffffffffffff1690602001909291905050506121df565b005b610ea7600480360360a0811015610cc257600080fd5b8101908080359060200190640100000000811115610cdf57600080fd5b820183602082011115610cf157600080fd5b80359060200191846001830284011164010000000083111715610d1357600080fd5b91908080601f016020809104026020016040519081016040528093929190818152602001838380828437600081840152601f19601f820116905080830192505050505050509192919290803590602001909291908035906020019092919080359060200190640100000000811115610d8a57600080fd5b820183602082011115610d9c57600080fd5b80359060200191846001830284011164010000000083111715610dbe57600080fd5b91908080601f016020809104026020016040519081016040528093929190818152602001838380828437600081840152601f19601f82011690508083019250505050505050919291929080359060200190640100000000811115610e2157600080fd5b820183602082011115610e3357600080fd5b80359060200191846001830284011164010000000083111715610e5557600080fd5b91908080601f016020809104026020016040519081016040528093929190818152602001838380828437600081840152601f19601f820116905080830192505050505050509192919290505050612448565b005b610eeb60048036036020811015610ebf57600080fd5b81019080803573ffffffffffffffffffffffffffffffffffffffff16906020019092919050505061251a565b60405180821515815260200191505060405180910390f35b610f0b612580565b6040518080602001878152602001868152602001806020018581526020018060200184810384528a818151815260200191508051906020019080838360005b83811015610f65578082015181840152602081019050610f4a565b50505050905090810190601f168015610f925780820380516001836020036101000a031916815260200191505b50848103835287818151815260200191508051906020019080838360005b83811015610fcb578082015181840152602081019050610fb0565b50505050905090810190601f168015610ff85780820380516001836020036101000a031916815260200191505b50848103825285818151815260200191508051906020019080838360005b83811015611031578082015181840152602081019050611016565b50505050905090810190601f16801561105e5780820380516001836020036101000a031916815260200191505b50995050505050505050505060405180910390f35b606060008060606000606060006002541461108d57600080fd5b600660000160066001015460066002015460066003016006600401546006600501858054600181600116156101000203166002900480601f0160208091040260200160405190810160405280929190818152602001828054600181600116156101000203166002900480156111435780601f1061111857610100808354040283529160200191611143565b820191906000526020600020905b81548152906001019060200180831161112657829003601f168201915b50505050509550828054600181600116156101000203166002900480601f0160208091040260200160405190810160405280929190818152602001828054600181600116156101000203166002900480156111df5780601f106111b4576101008083540402835291602001916111df565b820191906000526020600020905b8154815290600101906020018083116111c257829003601f168201915b50505050509250808054600181600116156101000203166002900480601f01602080910402602001604051908101604052809291908181526020018280546001816001161561010002031660029004801561127b5780601f106112505761010080835404028352916020019161127b565b820191906000526020600020905b81548152906001019060200180831161125e57829003601f168201915b50505050509050955095509550955095509550909192939495565b60015481565b600481815481106112ac57600080fd5b90600052602060002090600502016000915090508060000160009054906101000a900473ffffffffffffffffffffffffffffffffffffffff1690806001015490806003018054600181600116156101000203166002900480601f0160208091040260200160405190810160405280929190818152602001828054600181600116156101000203166002900480156113845780601f1061135957610100808354040283529160200191611384565b820191906000526020600020905b81548152906001019060200180831161136757829003601f168201915b505050505090806004018054600181600116156101000203166002900480601f0160208091040260200160405190810160405280929190818152602001828054600181600116156101000203166002900480156114225780601f106113f757610100808354040283529160200191611422565b820191906000526020600020905b81548152906001019060200180831161140557829003601f168201915b5050505050905084565b60008054906101000a900473ffffffffffffffffffffffffffffffffffffffff1681565b60008054906101000a900473ffffffffffffffffffffffffffffffffffffffff1673ffffffffffffffffffffffffffffffffffffffff163373ffffffffffffffffffffffffffffffffffffffff16146114a857600080fd5b6001600254146114b757600080fd5b6000600d9050848160000190805190602001906114d5929190612772565b5083816001018190555082816002018190555081816003019080519060200190611500929190612772565b505050505050565b600d806000018054600181600116156101000203166002900480601f0160208091040260200160405190810160405280929190818152602001828054600181600116156101000203166002900480156115a25780601f10611577576101008083540402835291602001916115a2565b820191906000526020600020905b81548152906001019060200180831161158557829003601f168201915b505050505090806001015490806002015490806003018054600181600116156101000203166002900480601f01602080910402602001604051908101604052809291908181526020018280546001816001161561010002031660029004801561164c5780601f106116215761010080835404028352916020019161164c565b820191906000526020600020905b81548152906001019060200180831161162f57829003601f168201915b5050505050908060040154905085565b6005818154811061166c57600080fd5b906000526020600020016000915054906101000a900473ffffffffffffffffffffffffffffffffffffffff1681565b6000600254146116aa57600080fd5b600660010154811180156116c2575060066002015481105b6116cb57600080fd5b6000600360003373ffffffffffffffffffffffffffffffffffffffff1673ffffffffffffffffffffffffffffffffffffffff168152602001908152602001600020905083816003019080519060200190611726929190612772565b508281600401908051906020019061173f929190612772565b50338160000160006101000a81548173ffffffffffffffffffffffffffffffffffffffff021916908373ffffffffffffffffffffffffffffffffffffffff16021790555060048190806001815401808255809150506001900390600052602060002090600502016000909190919091506000820160009054906101000a900473ffffffffffffffffffffffffffffffffffffffff168160000160006101000a81548173ffffffffffffffffffffffffffffffffffffffff021916908373ffffffffffffffffffffffffffffffffffffffff160217905550600182015481600101556002820181600201908054611836929190612800565b506003820181600301908054600181600116156101000203166002900461185e929190612852565b5060048201816004019080546001816001161561010002031660029004611886929190612852565b50505060016000815480929190600101919050555050505050565b60036020528060005260406000206000915090508060000160009054906101000a900473ffffffffffffffffffffffffffffffffffffffff1690806001015490806003018054600181600116156101000203166002900480601f0160208091040260200160405190810160405280929190818152602001828054600181600116156101000203166002900480156119795780601f1061194e57610100808354040283529160200191611979565b820191906000526020600020905b81548152906001019060200180831161195c57829003601f168201915b505050505090806004018054600181600116156101000203166002900480601f016020809104026020016040519081016040528092919081815260200182805460018160011615610100020316600290048015611a175780601f106119ec57610100808354040283529160200191611a17565b820191906000526020600020905b8154815290600101906020018083116119fa57829003601f168201915b5050505050905084565b606060008060606000600160025414611a3957600080fd5b600d600001600d60010154600d60020154600d600301600d60040154848054600181600116156101000203166002900480601f016020809104026020016040519081016040528092919081815260200182805460018160011615610100020316600290048015611aea5780601f10611abf57610100808354040283529160200191611aea565b820191906000526020600020905b815481529060010190602001808311611acd57829003601f168201915b50505050509450818054600181600116156101000203166002900480601f016020809104026020016040519081016040528092919081815260200182805460018160011615610100020316600290048015611b865780601f10611b5b57610100808354040283529160200191611b86565b820191906000526020600020905b815481529060010190602001808311611b6957829003601f168201915b50505050509150945094509450945094509091929394565b6060600060025414611baf57600080fd5b600360008373ffffffffffffffffffffffffffffffffffffffff1673ffffffffffffffffffffffffffffffffffffffff168152602001908152602001600020600201805480602002602001604051908101604052809291908181526020018280548015611c7157602002820191906000526020600020905b8160009054906101000a900473ffffffffffffffffffffffffffffffffffffffff1673ffffffffffffffffffffffffffffffffffffffff1681526020019060010190808311611c27575b50505050509050919050565b606080600060025414611c8f57600080fd5b600360008473ffffffffffffffffffffffffffffffffffffffff1673ffffffffffffffffffffffffffffffffffffffff168152602001908152602001600020600301600360008573ffffffffffffffffffffffffffffffffffffffff1673ffffffffffffffffffffffffffffffffffffffff168152602001908152602001600020600401818054600181600116156101000203166002900480601f016020809104026020016040519081016040528092919081815260200182805460018160011615610100020316600290048015611da85780601f10611d7d57610100808354040283529160200191611da8565b820191906000526020600020905b815481529060010190602001808311611d8b57829003601f168201915b50505050509150808054600181600116156101000203166002900480601f016020809104026020016040519081016040528092919081815260200182805460018160011615610100020316600290048015611e445780601f10611e1957610100808354040283529160200191611e44565b820191906000526020600020905b815481529060010190602001808311611e2757829003601f168201915b5050505050905091509150915091565b600060025414611e6357600080fd5b6000600360003373ffffffffffffffffffffffffffffffffffffffff1673ffffffffffffffffffffffffffffffffffffffff168152602001908152602001600020905060405180602001604052806000815250816003019080519060200190611ecd929190612772565b5060405180602001604052806000815250816004019080519060200190611ef5929190612772565b50600360003373ffffffffffffffffffffffffffffffffffffffff1673ffffffffffffffffffffffffffffffffffffffff168152602001908152602001600020600080820160006101000a81549073ffffffffffffffffffffffffffffffffffffffff02191690556001820160009055600282016000611f7591906128e7565b600382016000611f859190612908565b600482016000611f959190612908565b505060005b6004805490508110156121c75760048181548110611fb457fe5b906000526020600020906005020160000160009054906101000a900473ffffffffffffffffffffffffffffffffffffffff1673ffffffffffffffffffffffffffffffffffffffff163373ffffffffffffffffffffffffffffffffffffffff1614156121ba5760046001600480549050038154811061202e57fe5b90600052602060002090600502016004828154811061204957fe5b90600052602060002090600502016000820160009054906101000a900473ffffffffffffffffffffffffffffffffffffffff168160000160006101000a81548173ffffffffffffffffffffffffffffffffffffffff021916908373ffffffffffffffffffffffffffffffffffffffff1602179055506001820154816001015560028201816002019080546120de929190612800565b5060038201816003019080546001816001161561010002031660029004612106929190612852565b506004820181600401908054600181600116156101000203166002900461212e929190612852565b50905050600480548061213d57fe5b6001900381819060005260206000209060050201600080820160006101000a81549073ffffffffffffffffffffffffffffffffffffffff0219169055600182016000905560028201600061219191906128e7565b6003820160006121a19190612908565b6004820160006121b19190612908565b505090556121c7565b8080600101915050611f9a565b50600160008154809291906001900391905055505050565b6000600254146121ee57600080fd5b600015156006800160003373ffffffffffffffffffffffffffffffffffffffff1673ffffffffffffffffffffffffffffffffffffffff16815260200190815260200160002060009054906101000a900460ff161515141561244557600073ffffffffffffffffffffffffffffffffffffffff16600360008373ffffffffffffffffffffffffffffffffffffffff1673ffffffffffffffffffffffffffffffffffffffff16815260200190815260200160002060000160009054906101000a900473ffffffffffffffffffffffffffffffffffffffff1673ffffffffffffffffffffffffffffffffffffffff16146124445760016006800160003373ffffffffffffffffffffffffffffffffffffffff1673ffffffffffffffffffffffffffffffffffffffff16815260200190815260200160002060006101000a81548160ff021916908315150217905550600660040160008154809291906001019190505550600360008273ffffffffffffffffffffffffffffffffffffffff1673ffffffffffffffffffffffffffffffffffffffff16815260200190815260200160002060010160008154809291906001019190505550600360008273ffffffffffffffffffffffffffffffffffffffff1673ffffffffffffffffffffffffffffffffffffffff168152602001908152602001600020600201339080600181540180825580915050600190039060005260206000200160009091909190916101000a81548173ffffffffffffffffffffffffffffffffffffffff021916908373ffffffffffffffffffffffffffffffffffffffff1602179055505b5b50565b60008054906101000a900473ffffffffffffffffffffffffffffffffffffffff1673ffffffffffffffffffffffffffffffffffffffff163373ffffffffffffffffffffffffffffffffffffffff16146124a057600080fd5b6000600254146124af57600080fd5b600060069050858160000190805190602001906124cd929190612772565b50848160010181905550838160020181905550828160030190805190602001906124f8929190612772565b5081816005019080519060200190612511929190612772565b50505050505050565b6000806002541461252a57600080fd5b6006800160008373ffffffffffffffffffffffffffffffffffffffff1673ffffffffffffffffffffffffffffffffffffffff16815260200190815260200160002060009054906101000a900460ff169050919050565b6006806000018054600181600116156101000203166002900480601f01602080910402602001604051908101604052809291908181526020018280546001816001161561010002031660029004801561261a5780601f106125ef5761010080835404028352916020019161261a565b820191906000526020600020905b8154815290600101906020018083116125fd57829003601f168201915b505050505090806001015490806002015490806003018054600181600116156101000203166002900480601f0160208091040260200160405190810160405280929190818152602001828054600181600116156101000203166002900480156126c45780601f10612699576101008083540402835291602001916126c4565b820191906000526020600020905b8154815290600101906020018083116126a757829003601f168201915b505050505090806004015490806005018054600181600116156101000203166002900480601f0160208091040260200160405190810160405280929190818152602001828054600181600116156101000203166002900480156127685780601f1061273d57610100808354040283529160200191612768565b820191906000526020600020905b81548152906001019060200180831161274b57829003601f168201915b5050505050905086565b828054600181600116156101000203166002900490600052602060002090601f0160209004810192826127a857600085556127ef565b82601f106127c157805160ff19168380011785556127ef565b828001600101855582156127ef579182015b828111156127ee5782518255916020019190600101906127d3565b5b5090506127fc9190612950565b5090565b8280548282559060005260206000209081019282156128415760005260206000209182015b82811115612840578254825591600101919060010190612825565b5b50905061284e9190612950565b5090565b828054600181600116156101000203166002900490600052602060002090601f01602090048101928261288857600085556128d6565b82601f1061289957805485556128d6565b828001600101855582156128d657600052602060002091601f016020900482015b828111156128d55782548255916001019190600101906128ba565b5b5090506128e39190612950565b5090565b50805460008255906000526020600020908101906129059190612950565b50565b50805460018160011615610100020316600290046000825580601f1061292e575061294d565b601f01602090049060005260206000209081019061294c9190612950565b5b50565b5b80821115612969576000816000905550600101612951565b509056fea264697066735822122049dd238002baed7c1b916d80833bba94b24be80d8cc1050cca5ecf309905e9a764736f6c63430007040033",
  "immutableReferences": {},
  "source": "pragma solidity ^0.7.4;\r\n//\"SPDX-License-Identifier: UNLICENSED\"\r\n\r\ncontract Vote{\r\n    //admin address\r\n    address public manager;\r\n    uint public candidatesCount;\r\n\r\n    struct user{\r\n        string name;\r\n        string email;\r\n        string password;\r\n        address userAddress;\r\n        address[] running;\r\n        address[] createdElection;\r\n        address[] createdPetition;\r\n        string userType;\r\n    }\r\n\r\n    struct candidate {\r\n        address candidateAddr;\r\n        uint numVotes;\r\n        address[] voters;\r\n        string name;\r\n        string description;\r\n    }\r\n\r\n    struct election {\r\n        string title;\r\n        uint startDate;\r\n        uint endDate;\r\n        string description;\r\n        //think about mapping?\r\n        uint numVotes;\r\n        string typeOfElection;\r\n        mapping(address => bool) voters ; //see if a voter has voted\r\n    }\r\n    struct petition{\r\n        string title;\r\n        uint startDate;\r\n        uint endDate;\r\n        string description;\r\n        uint numSigned;\r\n        mapping(address=>bool) signed; //see if a user has signed\r\n    }\r\n    uint typeOfVote; //0 for election and 1 for petition\r\n    // mapping(uint => election) public elections;\r\n    mapping(address => candidate) public candidates; //maps a candidate's address to the candidate\r\n    candidate[] public candidateArray;\r\n    address[] public candidatesAddresses;//should replace candidateArray\r\n    election public currentElection;\r\n    petition public currentPetition;\r\n\r\n    constructor (address managerOfVote, uint typeOf){   //how does one become an admin?\r\n        // constructor\r\n        manager = managerOfVote;\r\n        typeOfVote = (0 == typeOf) ? 0 : 1;\r\n    }\r\n\r\n    function editElection (string memory title, uint256 startDate, uint256 endDate, string memory description, string memory typeOfElection)\r\n    public restricted typeElection {\r\n        election storage e = currentElection;\r\n        e.title = title;\r\n        e.startDate = startDate;\r\n        e.endDate = endDate;\r\n        e.description = description;\r\n        e.typeOfElection = typeOfElection;\r\n    }\r\n\r\n    function editPetition (string memory title, uint256 startDate, uint256 endDate, string memory description)\r\n    public restricted typePetition {\r\n        petition storage p = currentPetition;\r\n        p.title = title;\r\n        p.startDate = startDate;\r\n        p.endDate = endDate;\r\n        p.description = description;\r\n    }\r\n //vote for a candidate\r\n    function voteFor(address candidateAddress) public typeElection{\r\n        if(currentElection.voters[msg.sender] == false){\r\n            if(candidates[candidateAddress].candidateAddr != address(0)){\r\n                currentElection.voters[msg.sender]  = true;\r\n                currentElection.numVotes++;\r\n                (candidates[candidateAddress]).numVotes++;\r\n                (candidates[candidateAddress]).voters.push(msg.sender);\r\n            }\r\n        }\r\n    }\r\n    //enter as a candidate\r\n    function enterElection(string memory name, string memory description, uint256 current_date)\r\n    public typeElection {\r\n        //Check if the registration is before the required deadline\r\n        require(current_date > currentElection.startDate && current_date < currentElection.endDate);\r\n        //enter candidate\r\n        candidate storage currentCandidate = candidates[msg.sender];\r\n        currentCandidate.name = name;\r\n        currentCandidate.description = description;\r\n        currentCandidate.candidateAddr= msg.sender;\r\n        currentCandidate.voters;\r\n        candidateArray.push(currentCandidate);\r\n        candidatesCount++;\r\n        //candidateAddrs.push(msg.sender);\r\n    }\r\n\r\n    //leave the election\r\n    function leaveElection(uint256 current_date)\r\n    public typeElection {\r\n        //Check if the registration is before the required deadline\r\n        //require(current_date > currentElection.startDate && current_date <= currentElection.endDate);\r\n        //remove candidate\r\n        candidate storage currentCandidate = candidates[msg.sender];\r\n        currentCandidate.name = \"\";\r\n        currentCandidate.description = \"\";\r\n        //currentCandidate.candidateAddr= ;\r\n        //remove from array\r\n        delete candidates[msg.sender];\r\n        for (uint i = 0; i<candidateArray.length; i++){\r\n            if(msg.sender==candidateArray[i].candidateAddr){\r\n                candidateArray[i]=candidateArray[candidateArray.length-1];\r\n                candidateArray.pop();\r\n                break;\r\n            }\r\n        }\r\n        candidatesCount--;\r\n    }\r\n\r\n    //GETTERS\r\n\r\n    //get election\r\n    function get_election() public view typeElection returns (string memory,uint,uint,string memory,uint, string memory) {\r\n        return (currentElection.title, currentElection.startDate, currentElection.endDate, currentElection.description, currentElection.numVotes, currentElection.typeOfElection);\r\n    }\r\n    //get petition\r\n    function get_petition() public view typePetition returns (string memory,uint,uint,string memory,uint){\r\n        return (currentPetition.title, currentPetition.startDate, currentPetition.endDate, currentPetition.description, currentPetition.numSigned);\r\n    }\r\n    function get_candidates(address candaddr) public view typeElection returns (string memory, string memory) {\r\n        return(candidates[candaddr].name, candidates[candaddr].description);\r\n    }\r\n    function getCandidateVoters(address candAddr) public view typeElection returns (address[] memory) {\r\n        return((candidates[candAddr]).voters);\r\n    }\r\n    function getElectionVoter(address voterAddr) public view typeElection returns (bool) {\r\n        return ((currentElection.voters)[voterAddr]);\r\n    }\r\n    modifier restricted() {\r\n        require(msg.sender == manager);\r\n        _;\r\n    }\r\n    modifier typeElection() {\r\n        require(typeOfVote == 0);\r\n        _;\r\n    }\r\n    modifier typePetition() {\r\n        require(typeOfVote == 1);\r\n        _;\r\n    }\r\n\r\n}\r\n",
  "sourcePath": "C:\\Users\\foubroker\\PROJECT_VOTE\\voting-at-mcgill\\contracts\\Vote.sol",
  "compiler": {
    "name": "solc",
    "version": "0.7.4+commit.3f05b770.Emscripten.clang"
  },
  "schemaVersion": "3.3.3",
  "updatedAt": "2021-02-28T22:50:50.377Z",
  "devdoc": {
    "kind": "dev",
    "methods": {},
    "version": 1
  },
  "userdoc": {
    "kind": "user",
    "methods": {},
    "version": 1
  }
}