{
  "contractName": "VoteFactory",
  "abi": [
    {
      "inputs": [
        {
          "internalType": "uint256",
          "name": "",
          "type": "uint256"
        }
      ],
      "name": "deployedVotes",
      "outputs": [
        {
          "internalType": "address",
          "name": "",
          "type": "address"
        }
      ],
      "stateMutability": "view",
      "type": "function"
    },
    {
      "inputs": [
        {
          "internalType": "string",
          "name": "name",
          "type": "string"
        },
        {
          "internalType": "string",
          "name": "description",
          "type": "string"
        },
        {
          "internalType": "uint256",
          "name": "groupID",
          "type": "uint256"
        }
      ],
      "name": "createGroup",
      "outputs": [],
      "stateMutability": "nonpayable",
      "type": "function"
    },
    {
      "inputs": [
        {
          "internalType": "uint256",
          "name": "groupID",
          "type": "uint256"
        }
      ],
      "name": "registerGroup",
      "outputs": [],
      "stateMutability": "nonpayable",
      "type": "function"
    },
    {
      "inputs": [
        {
          "internalType": "uint256",
          "name": "indexGroup",
          "type": "uint256"
        },
        {
          "internalType": "uint256",
          "name": "indexMember",
          "type": "uint256"
        },
        {
          "internalType": "uint256",
          "name": "groupID",
          "type": "uint256"
        }
      ],
      "name": "leaveGroup",
      "outputs": [],
      "stateMutability": "nonpayable",
      "type": "function"
    },
    {
      "inputs": [
        {
          "internalType": "uint256",
          "name": "groupID",
          "type": "uint256"
        }
      ],
      "name": "isUserGroup",
      "outputs": [
        {
          "internalType": "bool",
          "name": "",
          "type": "bool"
        }
      ],
      "stateMutability": "view",
      "type": "function"
    },
    {
      "inputs": [
        {
          "internalType": "uint256",
          "name": "groupID",
          "type": "uint256"
        }
      ],
      "name": "isGroup",
      "outputs": [
        {
          "internalType": "bool",
          "name": "",
          "type": "bool"
        }
      ],
      "stateMutability": "view",
      "type": "function"
    },
    {
      "inputs": [
        {
          "internalType": "uint256",
          "name": "index",
          "type": "uint256"
        }
      ],
      "name": "getUserGroup",
      "outputs": [
        {
          "internalType": "uint256",
          "name": "",
          "type": "uint256"
        }
      ],
      "stateMutability": "view",
      "type": "function"
    },
    {
      "inputs": [],
      "name": "getUserAllGroups",
      "outputs": [
        {
          "internalType": "uint256[]",
          "name": "",
          "type": "uint256[]"
        }
      ],
      "stateMutability": "view",
      "type": "function"
    },
    {
      "inputs": [
        {
          "internalType": "uint256",
          "name": "groupID",
          "type": "uint256"
        }
      ],
      "name": "getAllMembers",
      "outputs": [
        {
          "internalType": "address[]",
          "name": "",
          "type": "address[]"
        }
      ],
      "stateMutability": "view",
      "type": "function"
    },
    {
      "inputs": [
        {
          "internalType": "uint256",
          "name": "id",
          "type": "uint256"
        }
      ],
      "name": "getGroup",
      "outputs": [
        {
          "internalType": "string",
          "name": "",
          "type": "string"
        },
        {
          "internalType": "string",
          "name": "",
          "type": "string"
        },
        {
          "internalType": "address[]",
          "name": "",
          "type": "address[]"
        },
        {
          "internalType": "uint256",
          "name": "",
          "type": "uint256"
        }
      ],
      "stateMutability": "view",
      "type": "function"
    },
    {
      "inputs": [],
      "name": "getExistingGroups",
      "outputs": [
        {
          "internalType": "uint256[]",
          "name": "",
          "type": "uint256[]"
        }
      ],
      "stateMutability": "view",
      "type": "function"
    },
    {
      "inputs": [
        {
          "internalType": "string",
          "name": "name",
          "type": "string"
        },
        {
          "internalType": "string",
          "name": "email",
          "type": "string"
        },
        {
          "internalType": "string",
          "name": "password",
          "type": "string"
        }
      ],
      "name": "registerUser",
      "outputs": [],
      "stateMutability": "nonpayable",
      "type": "function"
    },
    {
      "inputs": [
        {
          "internalType": "uint256",
          "name": "typeOf",
          "type": "uint256"
        }
      ],
      "name": "createVote",
      "outputs": [],
      "stateMutability": "nonpayable",
      "type": "function"
    },
    {
      "inputs": [
        {
          "internalType": "string",
          "name": "password",
          "type": "string"
        }
      ],
      "name": "loginUser",
      "outputs": [
        {
          "internalType": "string",
          "name": "",
          "type": "string"
        },
        {
          "internalType": "string",
          "name": "",
          "type": "string"
        },
        {
          "internalType": "uint256[]",
          "name": "",
          "type": "uint256[]"
        },
        {
          "internalType": "bool",
          "name": "",
          "type": "bool"
        }
      ],
      "stateMutability": "view",
      "type": "function"
    },
    {
      "inputs": [],
      "name": "getUser",
      "outputs": [
        {
          "internalType": "string",
          "name": "",
          "type": "string"
        },
        {
          "internalType": "string",
          "name": "",
          "type": "string"
        },
        {
          "internalType": "uint256[]",
          "name": "",
          "type": "uint256[]"
        },
        {
          "internalType": "bool",
          "name": "",
          "type": "bool"
        }
      ],
      "stateMutability": "view",
      "type": "function"
    },
    {
      "inputs": [],
      "name": "getDeployedVotes",
      "outputs": [
        {
          "internalType": "address[]",
          "name": "",
          "type": "address[]"
        }
      ],
      "stateMutability": "view",
      "type": "function"
    },
    {
      "inputs": [
        {
          "internalType": "string",
          "name": "a",
          "type": "string"
        },
        {
          "internalType": "string",
          "name": "b",
          "type": "string"
        }
      ],
      "name": "compareStrings",
      "outputs": [
        {
          "internalType": "bool",
          "name": "",
          "type": "bool"
        }
      ],
      "stateMutability": "pure",
      "type": "function"
    }
  ],
  "bytecode": "0x6080604052600160045534801561001557600080fd5b50614108806100256000396000f3fe608060405234801561001057600080fd5b506004361061010a5760003560e01c8063bed34bba116100a2578063ceb6065411610071578063ceb6065414610993578063d2f4a80214610af5578063d637dcfa14610b54578063edaa9e0314610d3d578063fa954aa014610d815761010a565b8063bed34bba146106f1578063c111c8bb14610859578063c142ab00146108dc578063ca9cdfff146109345761010a565b8063802777f4116100de578063802777f4146103cf578063832880e71461052b578063a49e00bc1461066b578063ad36a1a2146106af5761010a565b806273d7ae1461010f5780631c14ce5e1461016e578063352704b71461035f578063365fbd1a146103a1575b600080fd5b610117610daf565b6040518080602001828103825283818151815260200191508051906020019060200280838360005b8381101561015a57808201518184015260208101905061013f565b505050509050019250505060405180910390f35b6102276004803603602081101561018457600080fd5b81019080803590602001906401000000008111156101a157600080fd5b8201836020820111156101b357600080fd5b803590602001918460018302840111640100000000831117156101d557600080fd5b91908080601f016020809104026020016040519081016040528093929190818152602001838380828437600081840152601f19601f820116905080830192505050505050509192919290505050610e07565b604051808060200180602001806020018515158152602001848103845288818151815260200191508051906020019080838360005b8381101561027757808201518184015260208101905061025c565b50505050905090810190601f1680156102a45780820380516001836020036101000a031916815260200191505b50848103835287818151815260200191508051906020019080838360005b838110156102dd5780820151818401526020810190506102c2565b50505050905090810190601f16801561030a5780820380516001836020036101000a031916815260200191505b50848103825286818151815260200191508051906020019060200280838360005b8381101561034657808201518184015260208101905061032b565b5050505090500197505050505050505060405180910390f35b61038b6004803603602081101561037557600080fd5b81019080803590602001909291905050506110b7565b6040518082815260200191505060405180910390f35b6103cd600480360360208110156103b757600080fd5b810190808035906020019092919050505061111d565b005b610529600480360360608110156103e557600080fd5b810190808035906020019064010000000081111561040257600080fd5b82018360208201111561041457600080fd5b8035906020019184600183028401116401000000008311171561043657600080fd5b91908080601f016020809104026020016040519081016040528093929190818152602001838380828437600081840152601f19601f8201169050808301925050505050505091929192908035906020019064010000000081111561049957600080fd5b8201836020820111156104ab57600080fd5b803590602001918460018302840111640100000000831117156104cd57600080fd5b91908080601f016020809104026020016040519081016040528093929190818152602001838380828437600081840152601f19601f8201169050808301925050505050505091929192908035906020019092919050505061130f565b005b610533611498565b604051808060200180602001806020018515158152602001848103845288818151815260200191508051906020019080838360005b83811015610583578082015181840152602081019050610568565b50505050905090810190601f1680156105b05780820380516001836020036101000a031916815260200191505b50848103835287818151815260200191508051906020019080838360005b838110156105e95780820151818401526020810190506105ce565b50505050905090810190601f1680156106165780820380516001836020036101000a031916815260200191505b50848103825286818151815260200191508051906020019060200280838360005b83811015610652578082015181840152602081019050610637565b5050505090500197505050505050505060405180910390f35b6106976004803603602081101561068157600080fd5b8101908080359060200190929190505050611698565b60405180821515815260200191505060405180910390f35b6106ef600480360360608110156106c557600080fd5b81019080803590602001909291908035906020019092919080359060200190929190505050611773565b005b6108416004803603604081101561070757600080fd5b810190808035906020019064010000000081111561072457600080fd5b82018360208201111561073657600080fd5b8035906020019184600183028401116401000000008311171561075857600080fd5b91908080601f016020809104026020016040519081016040528093929190818152602001838380828437600081840152601f19601f820116905080830192505050505050509192919290803590602001906401000000008111156107bb57600080fd5b8201836020820111156107cd57600080fd5b803590602001918460018302840111640100000000831117156107ef57600080fd5b91908080601f016020809104026020016040519081016040528093929190818152602001838380828437600081840152601f19601f820116905080830192505050505050509192919290505050611981565b60405180821515815260200191505060405180910390f35b6108856004803603602081101561086f57600080fd5b8101908080359060200190929190505050611a70565b6040518080602001828103825283818151815260200191508051906020019060200280838360005b838110156108c85780820151818401526020810190506108ad565b505050509050019250505060405180910390f35b610908600480360360208110156108f257600080fd5b8101908080359060200190929190505050611b19565b604051808273ffffffffffffffffffffffffffffffffffffffff16815260200191505060405180910390f35b61093c611b58565b6040518080602001828103825283818151815260200191508051906020019060200280838360005b8381101561097f578082015181840152602081019050610964565b505050509050019250505060405180910390f35b6109bf600480360360208110156109a957600080fd5b8101908080359060200190929190505050611be6565b60405180806020018060200180602001858152602001848103845288818151815260200191508051906020019080838360005b83811015610a0d5780820151818401526020810190506109f2565b50505050905090810190601f168015610a3a5780820380516001836020036101000a031916815260200191505b50848103835287818151815260200191508051906020019080838360005b83811015610a73578082015181840152602081019050610a58565b50505050905090810190601f168015610aa05780820380516001836020036101000a031916815260200191505b50848103825286818151815260200191508051906020019060200280838360005b83811015610adc578082015181840152602081019050610ac1565b5050505090500197505050505050505060405180910390f35b610afd611de6565b6040518080602001828103825283818151815260200191508051906020019060200280838360005b83811015610b40578082015181840152602081019050610b25565b505050509050019250505060405180910390f35b610d3b60048036036060811015610b6a57600080fd5b8101908080359060200190640100000000811115610b8757600080fd5b820183602082011115610b9957600080fd5b80359060200191846001830284011164010000000083111715610bbb57600080fd5b91908080601f016020809104026020016040519081016040528093929190818152602001838380828437600081840152601f19601f82011690508083019250505050505050919291929080359060200190640100000000811115610c1e57600080fd5b820183602082011115610c3057600080fd5b80359060200191846001830284011164010000000083111715610c5257600080fd5b91908080601f016020809104026020016040519081016040528093929190818152602001838380828437600081840152601f19601f82011690508083019250505050505050919291929080359060200190640100000000811115610cb557600080fd5b820183602082011115610cc757600080fd5b80359060200191846001830284011164010000000083111715610ce957600080fd5b91908080601f016020809104026020016040519081016040528093929190818152602001838380828437600081840152601f19601f820116905080830192505050505050509192919290505050611e84565b005b610d6960048036036020811015610d5357600080fd5b8101908080359060200190929190505050611f92565b60405180821515815260200191505060405180910390f35b610dad60048036036020811015610d9757600080fd5b8101908080359060200190929190505050612024565b005b60606005805480602002602001604051908101604052809291908181526020018280548015610dfd57602002820191906000526020600020905b815481526020019060010190808311610de9575b5050505050905090565b6060806060600080600360003373ffffffffffffffffffffffffffffffffffffffff1673ffffffffffffffffffffffffffffffffffffffff1681526020019081526020016000209050610ef686826003018054600181600116156101000203166002900480601f016020809104026020016040519081016040528092919081815260200182805460018160011615610100020316600290048015610eec5780601f10610ec157610100808354040283529160200191610eec565b820191906000526020600020905b815481529060010190602001808311610ecf57829003601f168201915b5050505050611981565b610eff57600080fd5b8060010181600201826004018360050160009054906101000a900460ff16838054600181600116156101000203166002900480601f016020809104026020016040519081016040528092919081815260200182805460018160011615610100020316600290048015610fb25780601f10610f8757610100808354040283529160200191610fb2565b820191906000526020600020905b815481529060010190602001808311610f9557829003601f168201915b50505050509350828054600181600116156101000203166002900480601f01602080910402602001604051908101604052809291908181526020018280546001816001161561010002031660029004801561104e5780601f106110235761010080835404028352916020019161104e565b820191906000526020600020905b81548152906001019060200180831161103157829003601f168201915b50505050509250818054806020026020016040519081016040528092919081815260200182805480156110a057602002820191906000526020600020905b81548152602001906001019080831161108c575b505050505091509450945094509450509193509193565b600080600360003373ffffffffffffffffffffffffffffffffffffffff1673ffffffffffffffffffffffffffffffffffffffff168152602001908152602001600020905080600401838154811061110a57fe5b9060005260206000200154915050919050565b6000600360003373ffffffffffffffffffffffffffffffffffffffff1673ffffffffffffffffffffffffffffffffffffffff168152602001908152602001600020905060008060008481526020019081526020016000209050600083141561118457600080fd5b611239816000018054600181600116156101000203166002900480601f01602080910402602001604051908101604052809291908181526020018280546001816001161561010002031660029004801561121f5780601f106111f45761010080835404028352916020019161121f565b820191906000526020600020905b81548152906001019060200180831161120257829003601f168201915b505050505060405180602001604052806000815250611981565b1561124357600080fd5b61124c83611f92565b1561125657600080fd5b81600401839080600181540180825580915050600190039060005260206000200160009091909190915055806002018260000160009054906101000a900473ffffffffffffffffffffffffffffffffffffffff169080600181540180825580915050600190039060005260206000200160009091909190916101000a81548173ffffffffffffffffffffffffffffffffffffffff021916908373ffffffffffffffffffffffffffffffffffffffff160217905550505050565b6113196001611698565b61140f5760008060006001815260200190815260200160002090506040518060400160405280600781526020017f53747564656e74000000000000000000000000000000000000000000000000008152508160000190805190602001906113819291906120e1565b506040518060400160405280600d81526020017f44656661756c742047726f7570000000000000000000000000000000000000008152508160010190805190602001906113cf9291906120e1565b5060016000815480929190600101919050555060056004549080600181540180825580915050600190039060005260206000200160009091909190915055505b600080600083815260200190815260200160002090508381600001908051906020019061143d9291906120e1565b50828160010190805190602001906114569291906120e1565b50600160008154809291906001019190505550600582908060018154018082558091505060019003906000526020600020016000909190919091505550505050565b6060806060600080600360003373ffffffffffffffffffffffffffffffffffffffff1673ffffffffffffffffffffffffffffffffffffffff16815260200190815260200160002090508060010181600201826004018360050160009054906101000a900460ff16838054600181600116156101000203166002900480601f0160208091040260200160405190810160405280929190818152602001828054600181600116156101000203166002900480156115945780601f1061156957610100808354040283529160200191611594565b820191906000526020600020905b81548152906001019060200180831161157757829003601f168201915b50505050509350828054600181600116156101000203166002900480601f0160208091040260200160405190810160405280929190818152602001828054600181600116156101000203166002900480156116305780601f1061160557610100808354040283529160200191611630565b820191906000526020600020905b81548152906001019060200180831161161357829003601f168201915b505050505092508180548060200260200160405190810160405280929190818152602001828054801561168257602002820191906000526020600020905b81548152602001906001019080831161166e575b5050505050915094509450945094505090919293565b60008060008084815260200190815260200160002090506000611766826000018054600181600116156101000203166002900480601f01602080910402602001604051908101604052809291908181526020018280546001816001161561010002031660029004801561174c5780601f106117215761010080835404028352916020019161174c565b820191906000526020600020905b81548152906001019060200180831161172f57829003601f168201915b505050505060405180602001604052806000815250611981565b1590508092505050919050565b6000600360003373ffffffffffffffffffffffffffffffffffffffff1673ffffffffffffffffffffffffffffffffffffffff168152602001908152602001600020905060008060008481526020019081526020016000209050816004016001836004018054905003815481106117e557fe5b90600052602060002001548260040186815481106117ff57fe5b90600052602060002001819055508160040160018360040180549050038154811061182657fe5b90600052602060002001600090558160040180548061184157fe5b600190038181906000526020600020016000905590558060020160018260020180549050038154811061187057fe5b9060005260206000200160009054906101000a900473ffffffffffffffffffffffffffffffffffffffff168160020185815481106118aa57fe5b9060005260206000200160006101000a81548173ffffffffffffffffffffffffffffffffffffffff021916908373ffffffffffffffffffffffffffffffffffffffff1602179055508060020160018260020180549050038154811061190b57fe5b9060005260206000200160006101000a81549073ffffffffffffffffffffffffffffffffffffffff02191690558060020180548061194557fe5b6001900381819060005260206000200160006101000a81549073ffffffffffffffffffffffffffffffffffffffff021916905590555050505050565b6000816040516020018082805190602001908083835b602083106119ba5780518252602082019150602081019050602083039250611997565b6001836020036101000a03801982511681845116808217855250505050505090500191505060405160208183030381529060405280519060200120836040516020018082805190602001908083835b60208310611a2c5780518252602082019150602081019050602083039250611a09565b6001836020036101000a0380198251168184511680821785525050505050509050019150506040516020818303038152906040528051906020012014905092915050565b60606000806000848152602001908152602001600020905080600201805480602002602001604051908101604052809291908181526020018280548015611b0c57602002820191906000526020600020905b8160009054906101000a900473ffffffffffffffffffffffffffffffffffffffff1673ffffffffffffffffffffffffffffffffffffffff1681526020019060010190808311611ac2575b5050505050915050919050565b60028181548110611b2957600080fd5b906000526020600020016000915054906101000a900473ffffffffffffffffffffffffffffffffffffffff1681565b60606002805480602002602001604051908101604052809291908181526020018280548015611bdc57602002820191906000526020600020905b8160009054906101000a900473ffffffffffffffffffffffffffffffffffffffff1673ffffffffffffffffffffffffffffffffffffffff1681526020019060010190808311611b92575b5050505050905090565b606080606060008060008087815260200190815260200160002090508060000181600101826002018360020180549050838054600181600116156101000203166002900480601f016020809104026020016040519081016040528092919081815260200182805460018160011615610100020316600290048015611cab5780601f10611c8057610100808354040283529160200191611cab565b820191906000526020600020905b815481529060010190602001808311611c8e57829003601f168201915b50505050509350828054600181600116156101000203166002900480601f016020809104026020016040519081016040528092919081815260200182805460018160011615610100020316600290048015611d475780601f10611d1c57610100808354040283529160200191611d47565b820191906000526020600020905b815481529060010190602001808311611d2a57829003601f168201915b5050505050925081805480602002602001604051908101604052809291908181526020018280548015611dcf57602002820191906000526020600020905b8160009054906101000a900473ffffffffffffffffffffffffffffffffffffffff1673ffffffffffffffffffffffffffffffffffffffff1681526020019060010190808311611d85575b505050505091509450945094509450509193509193565b60606000600360003373ffffffffffffffffffffffffffffffffffffffff1673ffffffffffffffffffffffffffffffffffffffff168152602001908152602001600020905080600401805480602002602001604051908101604052809291908181526020018280548015611e7957602002820191906000526020600020905b815481526020019060010190808311611e65575b505050505091505090565b6000600360003373ffffffffffffffffffffffffffffffffffffffff1673ffffffffffffffffffffffffffffffffffffffff168152602001908152602001600020905083816001019080519060200190611edf9291906120e1565b5082816002019080519060200190611ef89291906120e1565b5081816003019080519060200190611f119291906120e1565b50338160000160006101000a81548173ffffffffffffffffffffffffffffffffffffffff021916908373ffffffffffffffffffffffffffffffffffffffff16021790555060018160050160006101000a81548160ff021916908315150217905550611f7c6001611698565b15611f8c57611f8b600161111d565b5b50505050565b600080600090506000600360003373ffffffffffffffffffffffffffffffffffffffff1673ffffffffffffffffffffffffffffffffffffffff168152602001908152602001600020905060005b81600401805490508110156120195784826004018281548110611ffe57fe5b90600052602060002001541492508080600101915050611fdf565b508192505050919050565b600033826040516120349061216f565b808373ffffffffffffffffffffffffffffffffffffffff16815260200182815260200192505050604051809103906000f080158015612077573d6000803e3d6000fd5b5090506002819080600181540180825580915050600190039060005260206000200160009091909190916101000a81548173ffffffffffffffffffffffffffffffffffffffff021916908373ffffffffffffffffffffffffffffffffffffffff1602179055505050565b828054600181600116156101000203166002900490600052602060002090601f016020900481019282612117576000855561215e565b82601f1061213057805160ff191683800117855561215e565b8280016001018555821561215e579182015b8281111561215d578251825591602001919060010190612142565b5b50905061216b919061217c565b5090565b611f398061219a83390190565b5b8082111561219557600081600090555060010161217d565b509056fe608060405234801561001057600080fd5b50604051611f39380380611f398339818101604052604081101561003357600080fd5b810190808051906020019092919080519060200190929190505050816000806101000a81548173ffffffffffffffffffffffffffffffffffffffff021916908373ffffffffffffffffffffffffffffffffffffffff1602179055508060001461009d5760016100a0565b60005b60ff166002819055505050611e7f806100ba6000396000f3fe608060405234801561001057600080fd5b50600436106100f55760003560e01c8063869eae2311610097578063da3550ee11610066578063da3550ee146108e2578063dcfda00f14610926578063e1c5fcc114610b23578063fcae83a714610b7d576100f5565b8063869eae23146104775780638ab66a90146105d35780639511544714610720578063953ef76d146107b9576100f5565b8063481c6a75116100d3578063481c6a751461018157806367127e43146101b5578063691a675c1461031b5780637432e63a1461041f576100f5565b80632d35a8a2146100fa5780633f8cab7f14610118578063407bba4a14610177575b600080fd5b610102610ced565b6040518082815260200191505060405180910390f35b610120610cf3565b6040518080602001828103825283818151815260200191508051906020019060200280838360005b83811015610163578082015181840152602081019050610148565b505050509050019250505060405180910390f35b61017f610d90565b005b610189610fb8565b604051808273ffffffffffffffffffffffffffffffffffffffff16815260200191505060405180910390f35b610319600480360360808110156101cb57600080fd5b81019080803590602001906401000000008111156101e857600080fd5b8201836020820111156101fa57600080fd5b8035906020019184600183028401116401000000008311171561021c57600080fd5b91908080601f016020809104026020016040519081016040528093929190818152602001838380828437600081840152601f19601f82011690508083019250505050505050919291929080359060200190929190803590602001909291908035906020019064010000000081111561029357600080fd5b8201836020820111156102a557600080fd5b803590602001918460018302840111640100000000831117156102c757600080fd5b91908080601f016020809104026020016040519081016040528093929190818152602001838380828437600081840152601f19601f820116905080830192505050505050509192919290505050610fdc565b005b610323611094565b604051808060200186815260200185815260200180602001848152602001838103835288818151815260200191508051906020019080838360005b8381101561037957808201518184015260208101905061035e565b50505050905090810190601f1680156103a65780820380516001836020036101000a031916815260200191505b50838103825285818151815260200191508051906020019080838360005b838110156103df5780820151818401526020810190506103c4565b50505050905090810190601f16801561040c5780820380516001836020036101000a031916815260200191505b5097505050505050505060405180910390f35b61044b6004803603602081101561043557600080fd5b81019080803590602001909291905050506111e8565b604051808273ffffffffffffffffffffffffffffffffffffffff16815260200191505060405180910390f35b6105d16004803603606081101561048d57600080fd5b81019080803590602001906401000000008111156104aa57600080fd5b8201836020820111156104bc57600080fd5b803590602001918460018302840111640100000000831117156104de57600080fd5b91908080601f016020809104026020016040519081016040528093929190818152602001838380828437600081840152601f19601f8201169050808301925050505050505091929192908035906020019064010000000081111561054157600080fd5b82018360208201111561055357600080fd5b8035906020019184600183028401116401000000008311171561057557600080fd5b91908080601f016020809104026020016040519081016040528093929190818152602001838380828437600081840152601f19601f82011690508083019250505050505050919291929080359060200190929190505050611227565b005b610615600480360360208110156105e957600080fd5b81019080803573ffffffffffffffffffffffffffffffffffffffff169060200190929190505050611369565b604051808573ffffffffffffffffffffffffffffffffffffffff1681526020018481526020018060200180602001838103835285818151815260200191508051906020019080838360005b8381101561067b578082015181840152602081019050610660565b50505050905090810190601f1680156106a85780820380516001836020036101000a031916815260200191505b50838103825284818151815260200191508051906020019080838360005b838110156106e15780820151818401526020810190506106c6565b50505050905090810190601f16801561070e5780820380516001836020036101000a031916815260200191505b50965050505050505060405180910390f35b6107626004803603602081101561073657600080fd5b81019080803573ffffffffffffffffffffffffffffffffffffffff1690602001909291905050506114e9565b6040518080602001828103825283818151815260200191508051906020019060200280838360005b838110156107a557808201518184015260208101905061078a565b505050509050019250505060405180910390f35b6107fb600480360360208110156107cf57600080fd5b81019080803573ffffffffffffffffffffffffffffffffffffffff1690602001909291905050506115c8565b604051808060200180602001838103835285818151815260200191508051906020019080838360005b8381101561083f578082015181840152602081019050610824565b50505050905090810190601f16801561086c5780820380516001836020036101000a031916815260200191505b50838103825284818151815260200191508051906020019080838360005b838110156108a557808201518184015260208101905061088a565b50505050905090810190601f1680156108d25780820380516001836020036101000a031916815260200191505b5094505050505060405180910390f35b610924600480360360208110156108f857600080fd5b81019080803573ffffffffffffffffffffffffffffffffffffffff16906020019092919050505061179f565b005b610b21600480360360a081101561093c57600080fd5b810190808035906020019064010000000081111561095957600080fd5b82018360208201111561096b57600080fd5b8035906020019184600183028401116401000000008311171561098d57600080fd5b91908080601f016020809104026020016040519081016040528093929190818152602001838380828437600081840152601f19601f820116905080830192505050505050509192919290803590602001909291908035906020019092919080359060200190640100000000811115610a0457600080fd5b820183602082011115610a1657600080fd5b80359060200191846001830284011164010000000083111715610a3857600080fd5b91908080601f016020809104026020016040519081016040528093929190818152602001838380828437600081840152601f19601f82011690508083019250505050505050919291929080359060200190640100000000811115610a9b57600080fd5b820183602082011115610aad57600080fd5b80359060200191846001830284011164010000000083111715610acf57600080fd5b91908080601f016020809104026020016040519081016040528093929190818152602001838380828437600081840152601f19601f820116905080830192505050505050509192919290505050611a0a565b005b610b6560048036036020811015610b3957600080fd5b81019080803573ffffffffffffffffffffffffffffffffffffffff169060200190929190505050611adc565b60405180821515815260200191505060405180910390f35b610b85611b43565b6040518080602001878152602001868152602001806020018581526020018060200184810384528a818151815260200191508051906020019080838360005b83811015610bdf578082015181840152602081019050610bc4565b50505050905090810190601f168015610c0c5780820380516001836020036101000a031916815260200191505b50848103835287818151815260200191508051906020019080838360005b83811015610c45578082015181840152602081019050610c2a565b50505050905090810190601f168015610c725780820380516001836020036101000a031916815260200191505b50848103825285818151815260200191508051906020019080838360005b83811015610cab578082015181840152602081019050610c90565b50505050905090810190601f168015610cd85780820380516001836020036101000a031916815260200191505b50995050505050505050505060405180910390f35b60015481565b6060600060025414610d0457600080fd5b6004805480602002602001604051908101604052809291908181526020018280548015610d8657602002820191906000526020600020905b8160009054906101000a900473ffffffffffffffffffffffffffffffffffffffff1673ffffffffffffffffffffffffffffffffffffffff1681526020019060010190808311610d3c575b5050505050905090565b600060025414610d9f57600080fd5b600360003373ffffffffffffffffffffffffffffffffffffffff1673ffffffffffffffffffffffffffffffffffffffff168152602001908152602001600020600080820160006101000a81549073ffffffffffffffffffffffffffffffffffffffff02191690556001820160009055600282016000610e1e9190611d35565b600382016000610e2e9190611d56565b600482016000610e3e9190611d56565b505060005b600480549050811015610fa25760048181548110610e5d57fe5b9060005260206000200160009054906101000a900473ffffffffffffffffffffffffffffffffffffffff1673ffffffffffffffffffffffffffffffffffffffff163373ffffffffffffffffffffffffffffffffffffffff161415610f9557600460016004805490500381548110610ed057fe5b9060005260206000200160009054906101000a900473ffffffffffffffffffffffffffffffffffffffff1660048281548110610f0857fe5b9060005260206000200160006101000a81548173ffffffffffffffffffffffffffffffffffffffff021916908373ffffffffffffffffffffffffffffffffffffffff1602179055506004805480610f5b57fe5b6001900381819060005260206000200160006101000a81549073ffffffffffffffffffffffffffffffffffffffff02191690559055610fa2565b8080600101915050610e43565b5060016000815480929190600190039190505550565b60008054906101000a900473ffffffffffffffffffffffffffffffffffffffff1681565b60008054906101000a900473ffffffffffffffffffffffffffffffffffffffff1673ffffffffffffffffffffffffffffffffffffffff163373ffffffffffffffffffffffffffffffffffffffff161461103457600080fd5b60016002541461104357600080fd5b6000600c905084816000019080519060200190611061929190611d9e565b508381600101819055508281600201819055508181600301908051906020019061108c929190611d9e565b505050505050565b600c806000018054600181600116156101000203166002900480601f01602080910402602001604051908101604052809291908181526020018280546001816001161561010002031660029004801561112e5780601f106111035761010080835404028352916020019161112e565b820191906000526020600020905b81548152906001019060200180831161111157829003601f168201915b505050505090806001015490806002015490806003018054600181600116156101000203166002900480601f0160208091040260200160405190810160405280929190818152602001828054600181600116156101000203166002900480156111d85780601f106111ad576101008083540402835291602001916111d8565b820191906000526020600020905b8154815290600101906020018083116111bb57829003601f168201915b5050505050908060040154905085565b600481815481106111f857600080fd5b906000526020600020016000915054906101000a900473ffffffffffffffffffffffffffffffffffffffff1681565b60006002541461123657600080fd5b6000600360003373ffffffffffffffffffffffffffffffffffffffff1673ffffffffffffffffffffffffffffffffffffffff168152602001908152602001600020905083816003019080519060200190611291929190611d9e565b50828160040190805190602001906112aa929190611d9e565b50338160000160006101000a81548173ffffffffffffffffffffffffffffffffffffffff021916908373ffffffffffffffffffffffffffffffffffffffff1602179055506001600081548092919060010191905055506004339080600181540180825580915050600190039060005260206000200160009091909190916101000a81548173ffffffffffffffffffffffffffffffffffffffff021916908373ffffffffffffffffffffffffffffffffffffffff16021790555050505050565b60036020528060005260406000206000915090508060000160009054906101000a900473ffffffffffffffffffffffffffffffffffffffff1690806001015490806003018054600181600116156101000203166002900480601f0160208091040260200160405190810160405280929190818152602001828054600181600116156101000203166002900480156114415780601f1061141657610100808354040283529160200191611441565b820191906000526020600020905b81548152906001019060200180831161142457829003601f168201915b505050505090806004018054600181600116156101000203166002900480601f0160208091040260200160405190810160405280929190818152602001828054600181600116156101000203166002900480156114df5780601f106114b4576101008083540402835291602001916114df565b820191906000526020600020905b8154815290600101906020018083116114c257829003601f168201915b5050505050905084565b60606000600254146114fa57600080fd5b600360008373ffffffffffffffffffffffffffffffffffffffff1673ffffffffffffffffffffffffffffffffffffffff1681526020019081526020016000206002018054806020026020016040519081016040528092919081815260200182805480156115bc57602002820191906000526020600020905b8160009054906101000a900473ffffffffffffffffffffffffffffffffffffffff1673ffffffffffffffffffffffffffffffffffffffff1681526020019060010190808311611572575b50505050509050919050565b6060806000600254146115da57600080fd5b600360008473ffffffffffffffffffffffffffffffffffffffff1673ffffffffffffffffffffffffffffffffffffffff168152602001908152602001600020600301600360008573ffffffffffffffffffffffffffffffffffffffff1673ffffffffffffffffffffffffffffffffffffffff168152602001908152602001600020600401818054600181600116156101000203166002900480601f0160208091040260200160405190810160405280929190818152602001828054600181600116156101000203166002900480156116f35780601f106116c8576101008083540402835291602001916116f3565b820191906000526020600020905b8154815290600101906020018083116116d657829003601f168201915b50505050509150808054600181600116156101000203166002900480601f01602080910402602001604051908101604052809291908181526020018280546001816001161561010002031660029004801561178f5780601f106117645761010080835404028352916020019161178f565b820191906000526020600020905b81548152906001019060200180831161177257829003601f168201915b5050505050905091509150915091565b6000600254146117ae57600080fd5b60001515600560060160003373ffffffffffffffffffffffffffffffffffffffff1673ffffffffffffffffffffffffffffffffffffffff16815260200190815260200160002060009054906101000a900460ff1615151415611a0757600073ffffffffffffffffffffffffffffffffffffffff16600360008373ffffffffffffffffffffffffffffffffffffffff1673ffffffffffffffffffffffffffffffffffffffff16815260200190815260200160002060000160009054906101000a900473ffffffffffffffffffffffffffffffffffffffff1673ffffffffffffffffffffffffffffffffffffffff1614611a06576001600560060160003373ffffffffffffffffffffffffffffffffffffffff1673ffffffffffffffffffffffffffffffffffffffff16815260200190815260200160002060006101000a81548160ff021916908315150217905550600560040160008154809291906001019190505550600360008273ffffffffffffffffffffffffffffffffffffffff1673ffffffffffffffffffffffffffffffffffffffff16815260200190815260200160002060010160008154809291906001019190505550600360008273ffffffffffffffffffffffffffffffffffffffff1673ffffffffffffffffffffffffffffffffffffffff168152602001908152602001600020600201339080600181540180825580915050600190039060005260206000200160009091909190916101000a81548173ffffffffffffffffffffffffffffffffffffffff021916908373ffffffffffffffffffffffffffffffffffffffff1602179055505b5b50565b60008054906101000a900473ffffffffffffffffffffffffffffffffffffffff1673ffffffffffffffffffffffffffffffffffffffff163373ffffffffffffffffffffffffffffffffffffffff1614611a6257600080fd5b600060025414611a7157600080fd5b60006005905085816000019080519060200190611a8f929190611d9e565b5084816001018190555083816002018190555082816003019080519060200190611aba929190611d9e565b5081816005019080519060200190611ad3929190611d9e565b50505050505050565b60008060025414611aec57600080fd5b600560060160008373ffffffffffffffffffffffffffffffffffffffff1673ffffffffffffffffffffffffffffffffffffffff16815260200190815260200160002060009054906101000a900460ff169050919050565b6005806000018054600181600116156101000203166002900480601f016020809104026020016040519081016040528092919081815260200182805460018160011615610100020316600290048015611bdd5780601f10611bb257610100808354040283529160200191611bdd565b820191906000526020600020905b815481529060010190602001808311611bc057829003601f168201915b505050505090806001015490806002015490806003018054600181600116156101000203166002900480601f016020809104026020016040519081016040528092919081815260200182805460018160011615610100020316600290048015611c875780601f10611c5c57610100808354040283529160200191611c87565b820191906000526020600020905b815481529060010190602001808311611c6a57829003601f168201915b505050505090806004015490806005018054600181600116156101000203166002900480601f016020809104026020016040519081016040528092919081815260200182805460018160011615610100020316600290048015611d2b5780601f10611d0057610100808354040283529160200191611d2b565b820191906000526020600020905b815481529060010190602001808311611d0e57829003601f168201915b5050505050905086565b5080546000825590600052602060002090810190611d539190611e2c565b50565b50805460018160011615610100020316600290046000825580601f10611d7c5750611d9b565b601f016020900490600052602060002090810190611d9a9190611e2c565b5b50565b828054600181600116156101000203166002900490600052602060002090601f016020900481019282611dd45760008555611e1b565b82601f10611ded57805160ff1916838001178555611e1b565b82800160010185558215611e1b579182015b82811115611e1a578251825591602001919060010190611dff565b5b509050611e289190611e2c565b5090565b5b80821115611e45576000816000905550600101611e2d565b509056fea26469706673582212201ec5221fb6d7355adde14f5958cfed9a893057ba9de06319e09bdb6f3f55588f64736f6c63430007040033a2646970667358221220df5d9bc333fd3c2e6abaf43c1295ef3e6add050d1508db871c3b475c63a91e6e64736f6c63430007040033",
  "immutableReferences": {},
  "source": "pragma solidity ^0.7.4;\n\n//\"SPDX-License-Identifier: UNLICENSED\"\nimport \"./Vote.sol\";\n\ncontract VoteFactory{\n    \n    // Representation of an instance of Group\n    struct groupStruct {\n        string name;\n        string description;\n        address[] members; // NEW Assumption that members rarely quit      \n    }\n    \n    // Representation of an instance of User\n    struct userStruct {\n        address userAddress;\n        string name;\n        string email;\n        string password;\n        // address[] running;\n        // address[] createdElection;\n        // address[] createdPetition;\n        uint[] groups; // NEW Assumption that users rarely quit\n        bool isAdmin;\n    }\n    \n    mapping(uint => groupStruct) groupInfo; // KEY: groupID Value: group\n    uint groupCount;\n    address[] public deployedVotes;\n    mapping(address => userStruct) userInfo;\n    uint defaultGroupID = 1; // Use the getGroup(uint id) to access the default group\n    uint[] existingGroups; // NEW: Access all groups in the UI\n    \n    // Creates an instance of group and Updates the groupInfo mapping\n    // It also takes groupID as an input since the groupStruct(VALUE) is identified with a groupId(KEY)\n    function createGroup(string memory name, string memory description, uint groupID) public {\n        // IF statement to create a default group\n        if (!isGroup(1)) {\n            groupStruct storage studentGroup = groupInfo[1];\n            studentGroup.name = \"Student\";\n            studentGroup.description = \"Default Group\";\n            groupCount++;\n            existingGroups.push(defaultGroupID);\n        }\n        groupStruct storage g = groupInfo[groupID];\n        g.name = name;\n        g.description = description;\n        groupCount++;\n        existingGroups.push(groupID);\n    }\n\n    // Adds the groupID to the user's array of groups and Adds the user's address to the group's array of members\n    function registerGroup(uint groupID) public {\n        userStruct storage u = userInfo[msg.sender];\n        groupStruct storage g = groupInfo[groupID];\n        \n        require(groupID != 0);\n        require(!compareStrings(g.name, \"\")); // Validates the group's existence\n        require(!isUserGroup(groupID));\n        \n        //Update User\n        u.groups.push(groupID);\n        \n        // Update Group\n        g.members.push(u.userAddress);\n    }\n    \n    // Removes the groupID in the user's groups array and Removes the address in the group's member array\n    // using the Swap & Delete method (swaps the last element)\n    // Resources https://stackoverflow.com/questions/49051856/is-there-a-pop-functionality-for-solidity-arrays\n    // The inputs are very specific to prevent large computations (TO CHANGE DEPENDING ON PROJECT MANAGER'S CHOICE)\n    function leaveGroup(uint indexGroup, uint indexMember, uint groupID) public {\n        userStruct storage u = userInfo[msg.sender];\n        groupStruct storage g = groupInfo[groupID];\n        \n        // Remove the group from user\n        u.groups[indexGroup] = u.groups[u.groups.length - 1];\n        delete u.groups[u.groups.length - 1];\n        u.groups.pop();\n        \n        // Remove user from the group\n        g.members[indexMember] = g.members[g.members.length - 1];\n        delete g.members[g.members.length - 1];\n        g.members.pop();\n    }\n\n    // Verify if the user is part of the group\n    function isUserGroup(uint groupID) public view returns (bool) {\n        bool isStatus = false;\n        userStruct storage u = userInfo[msg.sender];\n        for (uint i = 0; i < u.groups.length; i++) {\n            isStatus = (u.groups[i] == groupID);\n        }\n        return isStatus;\n    }\n    \n    // Verify that the group exists in the mapping\n    function isGroup(uint groupID) public view returns (bool) {\n        groupStruct storage g = groupInfo[groupID];\n        bool isExist = !(compareStrings(g.name, \"\"));\n        return isExist;\n    }\n    \n    // Returns a specific group of the user\n    function getUserGroup(uint index) public view returns (uint) {\n        userStruct storage u = userInfo[msg.sender];\n        return u.groups[index];\n    }\n    \n    // Returns the user's array of groups\n    function getUserAllGroups() public view returns (uint[] memory) {\n        userStruct storage u = userInfo[msg.sender];\n        return u.groups;\n    }\n    \n    // Returns all members of the group\n    function getAllMembers(uint groupID) public view returns (address[] memory) {\n        groupStruct storage g = groupInfo[groupID];\n        return g.members;\n    }\n    \n    // Returns a specific group of the website\n    function getGroup(uint id) public view returns(string memory, string memory, address[] memory, uint) {\n        groupStruct storage g = groupInfo[id];\n        return (g.name, g.description, g.members, g.members.length);\n    }\n    \n    function getExistingGroups() public view returns(uint[] memory) {\n        return existingGroups;\n    }\n    \n    function registerUser(string memory name, string memory email, string memory password) public {\n        userStruct storage u = userInfo[msg.sender]; //innitialize\n        u.name = name;\n        u.email = email;\n        u.password = password;\n        u.userAddress =  msg.sender;\n        u.isAdmin = true;\n        if (isGroup(1)) {\n            registerGroup(1);\n        }\n    }\n\n    function createVote(uint typeOf) public{\n        address newVote = address(new Vote(msg.sender, typeOf));\n        deployedVotes.push(newVote);\n    }\n    function loginUser(string memory password) public view returns (string memory, string memory, uint[] memory, bool) {\n       userStruct storage u = userInfo[msg.sender];\n       require(compareStrings(password, u.password)); // NEW implemented the helper method\n       return(u.name, u.email, u.groups, u.isAdmin);\n    }\n\n    //NEED TO BE FIX (u.groups)\n    function getUser() public view returns (string memory, string memory, uint[] memory, bool){\n        userStruct storage u = userInfo[msg.sender];\n        return(u.name, u.email, u.groups, u.isAdmin);\n    }\n    \n    function getDeployedVotes() public view returns (address[] memory) {\n        return deployedVotes;\n    }\n    \n    // Returns a boolean value of the comparison (HELPER METHOD)\n    // Based on https://ethereum.stackexchange.com/questions/30912/how-to-compare-strings-in-solidity/82739\n    function compareStrings(string memory a, string memory b) public pure returns (bool) {\n        return (keccak256(abi.encodePacked((a))) == keccak256(abi.encodePacked((b))));\n    }   \n}",
  "sourcePath": "/home/wen_wong/voting-at-mcgill/contracts/VoteFactory.sol",
  "compiler": {
    "name": "solc",
    "version": "0.7.4+commit.3f05b770.Emscripten.clang"
  },
  "schemaVersion": "3.3.4",
  "updatedAt": "2021-03-22T03:56:55.155Z",
  "devdoc": {
    "kind": "dev",
    "methods": {},
    "version": 1
  },
  "userdoc": {
    "kind": "user",
    "methods": {},
    "version": 1
  }
}