{
  "contractName": "VoteFactory",
  "abi": [
    {
      "inputs": [
        {
          "internalType": "uint256",
          "name": "",
          "type": "uint256"
        }
      ],
      "name": "deployedVotes",
      "outputs": [
        {
          "internalType": "address",
          "name": "",
          "type": "address"
        }
      ],
      "stateMutability": "view",
      "type": "function",
      "constant": true
    },
    {
      "inputs": [
        {
          "internalType": "string",
          "name": "name",
          "type": "string"
        },
        {
          "internalType": "string",
          "name": "description",
          "type": "string"
        },
        {
          "internalType": "uint256",
          "name": "groupID",
          "type": "uint256"
        }
      ],
      "name": "createGroup",
      "outputs": [],
      "stateMutability": "nonpayable",
      "type": "function"
    },
    {
      "inputs": [
        {
          "internalType": "uint256",
          "name": "groupID",
          "type": "uint256"
        }
      ],
      "name": "registerGroup",
      "outputs": [],
      "stateMutability": "nonpayable",
      "type": "function"
    },
    {
      "inputs": [
        {
          "internalType": "uint256",
          "name": "indexGroup",
          "type": "uint256"
        },
        {
          "internalType": "uint256",
          "name": "indexMember",
          "type": "uint256"
        },
        {
          "internalType": "uint256",
          "name": "groupID",
          "type": "uint256"
        }
      ],
      "name": "leaveGroup",
      "outputs": [],
      "stateMutability": "nonpayable",
      "type": "function"
    },
    {
      "inputs": [
        {
          "internalType": "uint256",
          "name": "groupID",
          "type": "uint256"
        }
      ],
      "name": "isUserGroup",
      "outputs": [
        {
          "internalType": "bool",
          "name": "",
          "type": "bool"
        }
      ],
      "stateMutability": "view",
      "type": "function",
      "constant": true
    },
    {
      "inputs": [
        {
          "internalType": "uint256",
          "name": "groupID",
          "type": "uint256"
        }
      ],
      "name": "isGroup",
      "outputs": [
        {
          "internalType": "bool",
          "name": "",
          "type": "bool"
        }
      ],
      "stateMutability": "view",
      "type": "function",
      "constant": true
    },
    {
      "inputs": [
        {
          "internalType": "uint256",
          "name": "index",
          "type": "uint256"
        }
      ],
      "name": "getUserGroup",
      "outputs": [
        {
          "internalType": "uint256",
          "name": "",
          "type": "uint256"
        }
      ],
      "stateMutability": "view",
      "type": "function",
      "constant": true
    },
    {
      "inputs": [],
      "name": "getUserAllGroups",
      "outputs": [
        {
          "internalType": "uint256[]",
          "name": "",
          "type": "uint256[]"
        }
      ],
      "stateMutability": "view",
      "type": "function",
      "constant": true
    },
    {
      "inputs": [
        {
          "internalType": "uint256",
          "name": "groupID",
          "type": "uint256"
        }
      ],
      "name": "getAllMembers",
      "outputs": [
        {
          "internalType": "address[]",
          "name": "",
          "type": "address[]"
        }
      ],
      "stateMutability": "view",
      "type": "function",
      "constant": true
    },
    {
      "inputs": [
        {
          "internalType": "uint256",
          "name": "id",
          "type": "uint256"
        }
      ],
      "name": "getGroup",
      "outputs": [
        {
          "internalType": "string",
          "name": "",
          "type": "string"
        },
        {
          "internalType": "string",
          "name": "",
          "type": "string"
        },
        {
          "internalType": "address[]",
          "name": "",
          "type": "address[]"
        },
        {
          "internalType": "uint256",
          "name": "",
          "type": "uint256"
        }
      ],
      "stateMutability": "view",
      "type": "function",
      "constant": true
    },
    {
      "inputs": [
        {
          "internalType": "string",
          "name": "name",
          "type": "string"
        },
        {
          "internalType": "string",
          "name": "email",
          "type": "string"
        },
        {
          "internalType": "string",
          "name": "password",
          "type": "string"
        }
      ],
      "name": "registerUser",
      "outputs": [],
      "stateMutability": "nonpayable",
      "type": "function"
    },
    {
      "inputs": [
        {
          "internalType": "uint256",
          "name": "typeOf",
          "type": "uint256"
        }
      ],
      "name": "createVote",
      "outputs": [],
      "stateMutability": "nonpayable",
      "type": "function"
    },
    {
      "inputs": [
        {
          "internalType": "string",
          "name": "password",
          "type": "string"
        }
      ],
      "name": "loginUser",
      "outputs": [
        {
          "internalType": "string",
          "name": "",
          "type": "string"
        },
        {
          "internalType": "string",
          "name": "",
          "type": "string"
        },
        {
          "internalType": "uint256[]",
          "name": "",
          "type": "uint256[]"
        },
        {
          "internalType": "bool",
          "name": "",
          "type": "bool"
        }
      ],
      "stateMutability": "view",
      "type": "function",
      "constant": true
    },
    {
      "inputs": [],
      "name": "getUser",
      "outputs": [
        {
          "internalType": "string",
          "name": "",
          "type": "string"
        },
        {
          "internalType": "string",
          "name": "",
          "type": "string"
        },
        {
          "internalType": "uint256[]",
          "name": "",
          "type": "uint256[]"
        },
        {
          "internalType": "bool",
          "name": "",
          "type": "bool"
        }
      ],
      "stateMutability": "view",
      "type": "function",
      "constant": true
    },
    {
      "inputs": [],
      "name": "getDeployedVotes",
      "outputs": [
        {
          "internalType": "address[]",
          "name": "",
          "type": "address[]"
        }
      ],
      "stateMutability": "view",
      "type": "function",
      "constant": true
    },
    {
      "inputs": [
        {
          "internalType": "string",
          "name": "a",
          "type": "string"
        },
        {
          "internalType": "string",
          "name": "b",
          "type": "string"
        }
      ],
      "name": "compareStrings",
      "outputs": [
        {
          "internalType": "bool",
          "name": "",
          "type": "bool"
        }
      ],
      "stateMutability": "pure",
      "type": "function",
      "constant": true
    }
  ],
  "bytecode": "0x6080604052600160045534801561001557600080fd5b50613ff3806100256000396000f3fe608060405234801561001057600080fd5b50600436106101005760003560e01c8063c111c8bb11610097578063d2f4a80211610066578063d2f4a80214610a8c578063d637dcfa14610aeb578063edaa9e0314610cd4578063fa954aa014610d1857610100565b8063c111c8bb146107f0578063c142ab0014610873578063ca9cdfff146108cb578063ceb606541461092a57610100565b8063832880e7116100d3578063832880e7146104c2578063a49e00bc14610602578063ad36a1a214610646578063bed34bba1461068857610100565b80631c14ce5e14610105578063352704b7146102f6578063365fbd1a14610338578063802777f414610366575b600080fd5b6101be6004803603602081101561011b57600080fd5b810190808035906020019064010000000081111561013857600080fd5b82018360208201111561014a57600080fd5b8035906020019184600183028401116401000000008311171561016c57600080fd5b91908080601f016020809104026020016040519081016040528093929190818152602001838380828437600081840152601f19601f820116905080830192505050505050509192919290505050610d46565b604051808060200180602001806020018515158152602001848103845288818151815260200191508051906020019080838360005b8381101561020e5780820151818401526020810190506101f3565b50505050905090810190601f16801561023b5780820380516001836020036101000a031916815260200191505b50848103835287818151815260200191508051906020019080838360005b83811015610274578082015181840152602081019050610259565b50505050905090810190601f1680156102a15780820380516001836020036101000a031916815260200191505b50848103825286818151815260200191508051906020019060200280838360005b838110156102dd5780820151818401526020810190506102c2565b5050505090500197505050505050505060405180910390f35b6103226004803603602081101561030c57600080fd5b8101908080359060200190929190505050610ff6565b6040518082815260200191505060405180910390f35b6103646004803603602081101561034e57600080fd5b810190808035906020019092919050505061105c565b005b6104c06004803603606081101561037c57600080fd5b810190808035906020019064010000000081111561039957600080fd5b8201836020820111156103ab57600080fd5b803590602001918460018302840111640100000000831117156103cd57600080fd5b91908080601f016020809104026020016040519081016040528093929190818152602001838380828437600081840152601f19601f8201169050808301925050505050505091929192908035906020019064010000000081111561043057600080fd5b82018360208201111561044257600080fd5b8035906020019184600183028401116401000000008311171561046457600080fd5b91908080601f016020809104026020016040519081016040528093929190818152602001838380828437600081840152601f19601f8201169050808301925050505050505091929192908035906020019092919050505061124e565b005b6104ca611383565b604051808060200180602001806020018515158152602001848103845288818151815260200191508051906020019080838360005b8381101561051a5780820151818401526020810190506104ff565b50505050905090810190601f1680156105475780820380516001836020036101000a031916815260200191505b50848103835287818151815260200191508051906020019080838360005b83811015610580578082015181840152602081019050610565565b50505050905090810190601f1680156105ad5780820380516001836020036101000a031916815260200191505b50848103825286818151815260200191508051906020019060200280838360005b838110156105e95780820151818401526020810190506105ce565b5050505090500197505050505050505060405180910390f35b61062e6004803603602081101561061857600080fd5b8101908080359060200190929190505050611583565b60405180821515815260200191505060405180910390f35b6106866004803603606081101561065c57600080fd5b8101908080359060200190929190803590602001909291908035906020019092919050505061165e565b005b6107d86004803603604081101561069e57600080fd5b81019080803590602001906401000000008111156106bb57600080fd5b8201836020820111156106cd57600080fd5b803590602001918460018302840111640100000000831117156106ef57600080fd5b91908080601f016020809104026020016040519081016040528093929190818152602001838380828437600081840152601f19601f8201169050808301925050505050505091929192908035906020019064010000000081111561075257600080fd5b82018360208201111561076457600080fd5b8035906020019184600183028401116401000000008311171561078657600080fd5b91908080601f016020809104026020016040519081016040528093929190818152602001838380828437600081840152601f19601f82011690508083019250505050505050919291929050505061186c565b60405180821515815260200191505060405180910390f35b61081c6004803603602081101561080657600080fd5b810190808035906020019092919050505061195b565b6040518080602001828103825283818151815260200191508051906020019060200280838360005b8381101561085f578082015181840152602081019050610844565b505050509050019250505060405180910390f35b61089f6004803603602081101561088957600080fd5b8101908080359060200190929190505050611a04565b604051808273ffffffffffffffffffffffffffffffffffffffff16815260200191505060405180910390f35b6108d3611a43565b6040518080602001828103825283818151815260200191508051906020019060200280838360005b838110156109165780820151818401526020810190506108fb565b505050509050019250505060405180910390f35b6109566004803603602081101561094057600080fd5b8101908080359060200190929190505050611ad1565b60405180806020018060200180602001858152602001848103845288818151815260200191508051906020019080838360005b838110156109a4578082015181840152602081019050610989565b50505050905090810190601f1680156109d15780820380516001836020036101000a031916815260200191505b50848103835287818151815260200191508051906020019080838360005b83811015610a0a5780820151818401526020810190506109ef565b50505050905090810190601f168015610a375780820380516001836020036101000a031916815260200191505b50848103825286818151815260200191508051906020019060200280838360005b83811015610a73578082015181840152602081019050610a58565b5050505090500197505050505050505060405180910390f35b610a94611cd1565b6040518080602001828103825283818151815260200191508051906020019060200280838360005b83811015610ad7578082015181840152602081019050610abc565b505050509050019250505060405180910390f35b610cd260048036036060811015610b0157600080fd5b8101908080359060200190640100000000811115610b1e57600080fd5b820183602082011115610b3057600080fd5b80359060200191846001830284011164010000000083111715610b5257600080fd5b91908080601f016020809104026020016040519081016040528093929190818152602001838380828437600081840152601f19601f82011690508083019250505050505050919291929080359060200190640100000000811115610bb557600080fd5b820183602082011115610bc757600080fd5b80359060200191846001830284011164010000000083111715610be957600080fd5b91908080601f016020809104026020016040519081016040528093929190818152602001838380828437600081840152601f19601f82011690508083019250505050505050919291929080359060200190640100000000811115610c4c57600080fd5b820183602082011115610c5e57600080fd5b80359060200191846001830284011164010000000083111715610c8057600080fd5b91908080601f016020809104026020016040519081016040528093929190818152602001838380828437600081840152601f19601f820116905080830192505050505050509192919290505050611d6f565b005b610d0060048036036020811015610cea57600080fd5b8101908080359060200190929190505050611e7d565b60405180821515815260200191505060405180910390f35b610d4460048036036020811015610d2e57600080fd5b8101908080359060200190929190505050611f0f565b005b6060806060600080600360003373ffffffffffffffffffffffffffffffffffffffff1673ffffffffffffffffffffffffffffffffffffffff1681526020019081526020016000209050610e3586826003018054600181600116156101000203166002900480601f016020809104026020016040519081016040528092919081815260200182805460018160011615610100020316600290048015610e2b5780601f10610e0057610100808354040283529160200191610e2b565b820191906000526020600020905b815481529060010190602001808311610e0e57829003601f168201915b505050505061186c565b610e3e57600080fd5b8060010181600201826004018360050160009054906101000a900460ff16838054600181600116156101000203166002900480601f016020809104026020016040519081016040528092919081815260200182805460018160011615610100020316600290048015610ef15780601f10610ec657610100808354040283529160200191610ef1565b820191906000526020600020905b815481529060010190602001808311610ed457829003601f168201915b50505050509350828054600181600116156101000203166002900480601f016020809104026020016040519081016040528092919081815260200182805460018160011615610100020316600290048015610f8d5780601f10610f6257610100808354040283529160200191610f8d565b820191906000526020600020905b815481529060010190602001808311610f7057829003601f168201915b5050505050925081805480602002602001604051908101604052809291908181526020018280548015610fdf57602002820191906000526020600020905b815481526020019060010190808311610fcb575b505050505091509450945094509450509193509193565b600080600360003373ffffffffffffffffffffffffffffffffffffffff1673ffffffffffffffffffffffffffffffffffffffff168152602001908152602001600020905080600401838154811061104957fe5b9060005260206000200154915050919050565b6000600360003373ffffffffffffffffffffffffffffffffffffffff1673ffffffffffffffffffffffffffffffffffffffff16815260200190815260200160002090506000806000848152602001908152602001600020905060008314156110c357600080fd5b611178816000018054600181600116156101000203166002900480601f01602080910402602001604051908101604052809291908181526020018280546001816001161561010002031660029004801561115e5780601f106111335761010080835404028352916020019161115e565b820191906000526020600020905b81548152906001019060200180831161114157829003601f168201915b50505050506040518060200160405280600081525061186c565b1561118257600080fd5b61118b83611e7d565b1561119557600080fd5b81600401839080600181540180825580915050600190039060005260206000200160009091909190915055806002018260000160009054906101000a900473ffffffffffffffffffffffffffffffffffffffff169080600181540180825580915050600190039060005260206000200160009091909190916101000a81548173ffffffffffffffffffffffffffffffffffffffff021916908373ffffffffffffffffffffffffffffffffffffffff160217905550505050565b6112586001611583565b6113235760008060006001815260200190815260200160002090506040518060400160405280600781526020017f53747564656e74000000000000000000000000000000000000000000000000008152508160000190805190602001906112c0929190611fcc565b506040518060400160405280600d81526020017f44656661756c742047726f75700000000000000000000000000000000000000081525081600101908051906020019061130e929190611fcc565b50600160008154809291906001019190505550505b6000806000838152602001908152602001600020905083816000019080519060200190611351929190611fcc565b508281600101908051906020019061136a929190611fcc565b5060016000815480929190600101919050555050505050565b6060806060600080600360003373ffffffffffffffffffffffffffffffffffffffff1673ffffffffffffffffffffffffffffffffffffffff16815260200190815260200160002090508060010181600201826004018360050160009054906101000a900460ff16838054600181600116156101000203166002900480601f01602080910402602001604051908101604052809291908181526020018280546001816001161561010002031660029004801561147f5780601f106114545761010080835404028352916020019161147f565b820191906000526020600020905b81548152906001019060200180831161146257829003601f168201915b50505050509350828054600181600116156101000203166002900480601f01602080910402602001604051908101604052809291908181526020018280546001816001161561010002031660029004801561151b5780601f106114f05761010080835404028352916020019161151b565b820191906000526020600020905b8154815290600101906020018083116114fe57829003601f168201915b505050505092508180548060200260200160405190810160405280929190818152602001828054801561156d57602002820191906000526020600020905b815481526020019060010190808311611559575b5050505050915094509450945094505090919293565b60008060008084815260200190815260200160002090506000611651826000018054600181600116156101000203166002900480601f0160208091040260200160405190810160405280929190818152602001828054600181600116156101000203166002900480156116375780601f1061160c57610100808354040283529160200191611637565b820191906000526020600020905b81548152906001019060200180831161161a57829003601f168201915b50505050506040518060200160405280600081525061186c565b1590508092505050919050565b6000600360003373ffffffffffffffffffffffffffffffffffffffff1673ffffffffffffffffffffffffffffffffffffffff168152602001908152602001600020905060008060008481526020019081526020016000209050816004016001836004018054905003815481106116d057fe5b90600052602060002001548260040186815481106116ea57fe5b90600052602060002001819055508160040160018360040180549050038154811061171157fe5b90600052602060002001600090558160040180548061172c57fe5b600190038181906000526020600020016000905590558060020160018260020180549050038154811061175b57fe5b9060005260206000200160009054906101000a900473ffffffffffffffffffffffffffffffffffffffff1681600201858154811061179557fe5b9060005260206000200160006101000a81548173ffffffffffffffffffffffffffffffffffffffff021916908373ffffffffffffffffffffffffffffffffffffffff160217905550806002016001826002018054905003815481106117f657fe5b9060005260206000200160006101000a81549073ffffffffffffffffffffffffffffffffffffffff02191690558060020180548061183057fe5b6001900381819060005260206000200160006101000a81549073ffffffffffffffffffffffffffffffffffffffff021916905590555050505050565b6000816040516020018082805190602001908083835b602083106118a55780518252602082019150602081019050602083039250611882565b6001836020036101000a03801982511681845116808217855250505050505090500191505060405160208183030381529060405280519060200120836040516020018082805190602001908083835b6020831061191757805182526020820191506020810190506020830392506118f4565b6001836020036101000a0380198251168184511680821785525050505050509050019150506040516020818303038152906040528051906020012014905092915050565b606060008060008481526020019081526020016000209050806002018054806020026020016040519081016040528092919081815260200182805480156119f757602002820191906000526020600020905b8160009054906101000a900473ffffffffffffffffffffffffffffffffffffffff1673ffffffffffffffffffffffffffffffffffffffff16815260200190600101908083116119ad575b5050505050915050919050565b60028181548110611a1457600080fd5b906000526020600020016000915054906101000a900473ffffffffffffffffffffffffffffffffffffffff1681565b60606002805480602002602001604051908101604052809291908181526020018280548015611ac757602002820191906000526020600020905b8160009054906101000a900473ffffffffffffffffffffffffffffffffffffffff1673ffffffffffffffffffffffffffffffffffffffff1681526020019060010190808311611a7d575b5050505050905090565b606080606060008060008087815260200190815260200160002090508060000181600101826002018360020180549050838054600181600116156101000203166002900480601f016020809104026020016040519081016040528092919081815260200182805460018160011615610100020316600290048015611b965780601f10611b6b57610100808354040283529160200191611b96565b820191906000526020600020905b815481529060010190602001808311611b7957829003601f168201915b50505050509350828054600181600116156101000203166002900480601f016020809104026020016040519081016040528092919081815260200182805460018160011615610100020316600290048015611c325780601f10611c0757610100808354040283529160200191611c32565b820191906000526020600020905b815481529060010190602001808311611c1557829003601f168201915b5050505050925081805480602002602001604051908101604052809291908181526020018280548015611cba57602002820191906000526020600020905b8160009054906101000a900473ffffffffffffffffffffffffffffffffffffffff1673ffffffffffffffffffffffffffffffffffffffff1681526020019060010190808311611c70575b505050505091509450945094509450509193509193565b60606000600360003373ffffffffffffffffffffffffffffffffffffffff1673ffffffffffffffffffffffffffffffffffffffff168152602001908152602001600020905080600401805480602002602001604051908101604052809291908181526020018280548015611d6457602002820191906000526020600020905b815481526020019060010190808311611d50575b505050505091505090565b6000600360003373ffffffffffffffffffffffffffffffffffffffff1673ffffffffffffffffffffffffffffffffffffffff168152602001908152602001600020905083816001019080519060200190611dca929190611fcc565b5082816002019080519060200190611de3929190611fcc565b5081816003019080519060200190611dfc929190611fcc565b50338160000160006101000a81548173ffffffffffffffffffffffffffffffffffffffff021916908373ffffffffffffffffffffffffffffffffffffffff16021790555060018160050160006101000a81548160ff021916908315150217905550611e676001611583565b15611e7757611e76600161105c565b5b50505050565b600080600090506000600360003373ffffffffffffffffffffffffffffffffffffffff1673ffffffffffffffffffffffffffffffffffffffff168152602001908152602001600020905060005b8160040180549050811015611f045784826004018281548110611ee957fe5b90600052602060002001541492508080600101915050611eca565b508192505050919050565b60003382604051611f1f9061205a565b808373ffffffffffffffffffffffffffffffffffffffff16815260200182815260200192505050604051809103906000f080158015611f62573d6000803e3d6000fd5b5090506002819080600181540180825580915050600190039060005260206000200160009091909190916101000a81548173ffffffffffffffffffffffffffffffffffffffff021916908373ffffffffffffffffffffffffffffffffffffffff1602179055505050565b828054600181600116156101000203166002900490600052602060002090601f0160209004810192826120025760008555612049565b82601f1061201b57805160ff1916838001178555612049565b82800160010185558215612049579182015b8281111561204857825182559160200191906001019061202d565b5b5090506120569190612067565b5090565b611f398061208583390190565b5b80821115612080576000816000905550600101612068565b509056fe608060405234801561001057600080fd5b50604051611f39380380611f398339818101604052604081101561003357600080fd5b810190808051906020019092919080519060200190929190505050816000806101000a81548173ffffffffffffffffffffffffffffffffffffffff021916908373ffffffffffffffffffffffffffffffffffffffff1602179055508060001461009d5760016100a0565b60005b60ff166002819055505050611e7f806100ba6000396000f3fe608060405234801561001057600080fd5b50600436106100f55760003560e01c8063869eae2311610097578063da3550ee11610066578063da3550ee146108e2578063dcfda00f14610926578063e1c5fcc114610b23578063fcae83a714610b7d576100f5565b8063869eae23146104775780638ab66a90146105d35780639511544714610720578063953ef76d146107b9576100f5565b8063481c6a75116100d3578063481c6a751461018157806367127e43146101b5578063691a675c1461031b5780637432e63a1461041f576100f5565b80632d35a8a2146100fa5780633f8cab7f14610118578063407bba4a14610177575b600080fd5b610102610ced565b6040518082815260200191505060405180910390f35b610120610cf3565b6040518080602001828103825283818151815260200191508051906020019060200280838360005b83811015610163578082015181840152602081019050610148565b505050509050019250505060405180910390f35b61017f610d90565b005b610189610fb8565b604051808273ffffffffffffffffffffffffffffffffffffffff16815260200191505060405180910390f35b610319600480360360808110156101cb57600080fd5b81019080803590602001906401000000008111156101e857600080fd5b8201836020820111156101fa57600080fd5b8035906020019184600183028401116401000000008311171561021c57600080fd5b91908080601f016020809104026020016040519081016040528093929190818152602001838380828437600081840152601f19601f82011690508083019250505050505050919291929080359060200190929190803590602001909291908035906020019064010000000081111561029357600080fd5b8201836020820111156102a557600080fd5b803590602001918460018302840111640100000000831117156102c757600080fd5b91908080601f016020809104026020016040519081016040528093929190818152602001838380828437600081840152601f19601f820116905080830192505050505050509192919290505050610fdc565b005b610323611094565b604051808060200186815260200185815260200180602001848152602001838103835288818151815260200191508051906020019080838360005b8381101561037957808201518184015260208101905061035e565b50505050905090810190601f1680156103a65780820380516001836020036101000a031916815260200191505b50838103825285818151815260200191508051906020019080838360005b838110156103df5780820151818401526020810190506103c4565b50505050905090810190601f16801561040c5780820380516001836020036101000a031916815260200191505b5097505050505050505060405180910390f35b61044b6004803603602081101561043557600080fd5b81019080803590602001909291905050506111e8565b604051808273ffffffffffffffffffffffffffffffffffffffff16815260200191505060405180910390f35b6105d16004803603606081101561048d57600080fd5b81019080803590602001906401000000008111156104aa57600080fd5b8201836020820111156104bc57600080fd5b803590602001918460018302840111640100000000831117156104de57600080fd5b91908080601f016020809104026020016040519081016040528093929190818152602001838380828437600081840152601f19601f8201169050808301925050505050505091929192908035906020019064010000000081111561054157600080fd5b82018360208201111561055357600080fd5b8035906020019184600183028401116401000000008311171561057557600080fd5b91908080601f016020809104026020016040519081016040528093929190818152602001838380828437600081840152601f19601f82011690508083019250505050505050919291929080359060200190929190505050611227565b005b610615600480360360208110156105e957600080fd5b81019080803573ffffffffffffffffffffffffffffffffffffffff169060200190929190505050611369565b604051808573ffffffffffffffffffffffffffffffffffffffff1681526020018481526020018060200180602001838103835285818151815260200191508051906020019080838360005b8381101561067b578082015181840152602081019050610660565b50505050905090810190601f1680156106a85780820380516001836020036101000a031916815260200191505b50838103825284818151815260200191508051906020019080838360005b838110156106e15780820151818401526020810190506106c6565b50505050905090810190601f16801561070e5780820380516001836020036101000a031916815260200191505b50965050505050505060405180910390f35b6107626004803603602081101561073657600080fd5b81019080803573ffffffffffffffffffffffffffffffffffffffff1690602001909291905050506114e9565b6040518080602001828103825283818151815260200191508051906020019060200280838360005b838110156107a557808201518184015260208101905061078a565b505050509050019250505060405180910390f35b6107fb600480360360208110156107cf57600080fd5b81019080803573ffffffffffffffffffffffffffffffffffffffff1690602001909291905050506115c8565b604051808060200180602001838103835285818151815260200191508051906020019080838360005b8381101561083f578082015181840152602081019050610824565b50505050905090810190601f16801561086c5780820380516001836020036101000a031916815260200191505b50838103825284818151815260200191508051906020019080838360005b838110156108a557808201518184015260208101905061088a565b50505050905090810190601f1680156108d25780820380516001836020036101000a031916815260200191505b5094505050505060405180910390f35b610924600480360360208110156108f857600080fd5b81019080803573ffffffffffffffffffffffffffffffffffffffff16906020019092919050505061179f565b005b610b21600480360360a081101561093c57600080fd5b810190808035906020019064010000000081111561095957600080fd5b82018360208201111561096b57600080fd5b8035906020019184600183028401116401000000008311171561098d57600080fd5b91908080601f016020809104026020016040519081016040528093929190818152602001838380828437600081840152601f19601f820116905080830192505050505050509192919290803590602001909291908035906020019092919080359060200190640100000000811115610a0457600080fd5b820183602082011115610a1657600080fd5b80359060200191846001830284011164010000000083111715610a3857600080fd5b91908080601f016020809104026020016040519081016040528093929190818152602001838380828437600081840152601f19601f82011690508083019250505050505050919291929080359060200190640100000000811115610a9b57600080fd5b820183602082011115610aad57600080fd5b80359060200191846001830284011164010000000083111715610acf57600080fd5b91908080601f016020809104026020016040519081016040528093929190818152602001838380828437600081840152601f19601f820116905080830192505050505050509192919290505050611a0a565b005b610b6560048036036020811015610b3957600080fd5b81019080803573ffffffffffffffffffffffffffffffffffffffff169060200190929190505050611adc565b60405180821515815260200191505060405180910390f35b610b85611b43565b6040518080602001878152602001868152602001806020018581526020018060200184810384528a818151815260200191508051906020019080838360005b83811015610bdf578082015181840152602081019050610bc4565b50505050905090810190601f168015610c0c5780820380516001836020036101000a031916815260200191505b50848103835287818151815260200191508051906020019080838360005b83811015610c45578082015181840152602081019050610c2a565b50505050905090810190601f168015610c725780820380516001836020036101000a031916815260200191505b50848103825285818151815260200191508051906020019080838360005b83811015610cab578082015181840152602081019050610c90565b50505050905090810190601f168015610cd85780820380516001836020036101000a031916815260200191505b50995050505050505050505060405180910390f35b60015481565b6060600060025414610d0457600080fd5b6004805480602002602001604051908101604052809291908181526020018280548015610d8657602002820191906000526020600020905b8160009054906101000a900473ffffffffffffffffffffffffffffffffffffffff1673ffffffffffffffffffffffffffffffffffffffff1681526020019060010190808311610d3c575b5050505050905090565b600060025414610d9f57600080fd5b600360003373ffffffffffffffffffffffffffffffffffffffff1673ffffffffffffffffffffffffffffffffffffffff168152602001908152602001600020600080820160006101000a81549073ffffffffffffffffffffffffffffffffffffffff02191690556001820160009055600282016000610e1e9190611d35565b600382016000610e2e9190611d56565b600482016000610e3e9190611d56565b505060005b600480549050811015610fa25760048181548110610e5d57fe5b9060005260206000200160009054906101000a900473ffffffffffffffffffffffffffffffffffffffff1673ffffffffffffffffffffffffffffffffffffffff163373ffffffffffffffffffffffffffffffffffffffff161415610f9557600460016004805490500381548110610ed057fe5b9060005260206000200160009054906101000a900473ffffffffffffffffffffffffffffffffffffffff1660048281548110610f0857fe5b9060005260206000200160006101000a81548173ffffffffffffffffffffffffffffffffffffffff021916908373ffffffffffffffffffffffffffffffffffffffff1602179055506004805480610f5b57fe5b6001900381819060005260206000200160006101000a81549073ffffffffffffffffffffffffffffffffffffffff02191690559055610fa2565b8080600101915050610e43565b5060016000815480929190600190039190505550565b60008054906101000a900473ffffffffffffffffffffffffffffffffffffffff1681565b60008054906101000a900473ffffffffffffffffffffffffffffffffffffffff1673ffffffffffffffffffffffffffffffffffffffff163373ffffffffffffffffffffffffffffffffffffffff161461103457600080fd5b60016002541461104357600080fd5b6000600c905084816000019080519060200190611061929190611d9e565b508381600101819055508281600201819055508181600301908051906020019061108c929190611d9e565b505050505050565b600c806000018054600181600116156101000203166002900480601f01602080910402602001604051908101604052809291908181526020018280546001816001161561010002031660029004801561112e5780601f106111035761010080835404028352916020019161112e565b820191906000526020600020905b81548152906001019060200180831161111157829003601f168201915b505050505090806001015490806002015490806003018054600181600116156101000203166002900480601f0160208091040260200160405190810160405280929190818152602001828054600181600116156101000203166002900480156111d85780601f106111ad576101008083540402835291602001916111d8565b820191906000526020600020905b8154815290600101906020018083116111bb57829003601f168201915b5050505050908060040154905085565b600481815481106111f857600080fd5b906000526020600020016000915054906101000a900473ffffffffffffffffffffffffffffffffffffffff1681565b60006002541461123657600080fd5b6000600360003373ffffffffffffffffffffffffffffffffffffffff1673ffffffffffffffffffffffffffffffffffffffff168152602001908152602001600020905083816003019080519060200190611291929190611d9e565b50828160040190805190602001906112aa929190611d9e565b50338160000160006101000a81548173ffffffffffffffffffffffffffffffffffffffff021916908373ffffffffffffffffffffffffffffffffffffffff1602179055506001600081548092919060010191905055506004339080600181540180825580915050600190039060005260206000200160009091909190916101000a81548173ffffffffffffffffffffffffffffffffffffffff021916908373ffffffffffffffffffffffffffffffffffffffff16021790555050505050565b60036020528060005260406000206000915090508060000160009054906101000a900473ffffffffffffffffffffffffffffffffffffffff1690806001015490806003018054600181600116156101000203166002900480601f0160208091040260200160405190810160405280929190818152602001828054600181600116156101000203166002900480156114415780601f1061141657610100808354040283529160200191611441565b820191906000526020600020905b81548152906001019060200180831161142457829003601f168201915b505050505090806004018054600181600116156101000203166002900480601f0160208091040260200160405190810160405280929190818152602001828054600181600116156101000203166002900480156114df5780601f106114b4576101008083540402835291602001916114df565b820191906000526020600020905b8154815290600101906020018083116114c257829003601f168201915b5050505050905084565b60606000600254146114fa57600080fd5b600360008373ffffffffffffffffffffffffffffffffffffffff1673ffffffffffffffffffffffffffffffffffffffff1681526020019081526020016000206002018054806020026020016040519081016040528092919081815260200182805480156115bc57602002820191906000526020600020905b8160009054906101000a900473ffffffffffffffffffffffffffffffffffffffff1673ffffffffffffffffffffffffffffffffffffffff1681526020019060010190808311611572575b50505050509050919050565b6060806000600254146115da57600080fd5b600360008473ffffffffffffffffffffffffffffffffffffffff1673ffffffffffffffffffffffffffffffffffffffff168152602001908152602001600020600301600360008573ffffffffffffffffffffffffffffffffffffffff1673ffffffffffffffffffffffffffffffffffffffff168152602001908152602001600020600401818054600181600116156101000203166002900480601f0160208091040260200160405190810160405280929190818152602001828054600181600116156101000203166002900480156116f35780601f106116c8576101008083540402835291602001916116f3565b820191906000526020600020905b8154815290600101906020018083116116d657829003601f168201915b50505050509150808054600181600116156101000203166002900480601f01602080910402602001604051908101604052809291908181526020018280546001816001161561010002031660029004801561178f5780601f106117645761010080835404028352916020019161178f565b820191906000526020600020905b81548152906001019060200180831161177257829003601f168201915b5050505050905091509150915091565b6000600254146117ae57600080fd5b60001515600560060160003373ffffffffffffffffffffffffffffffffffffffff1673ffffffffffffffffffffffffffffffffffffffff16815260200190815260200160002060009054906101000a900460ff1615151415611a0757600073ffffffffffffffffffffffffffffffffffffffff16600360008373ffffffffffffffffffffffffffffffffffffffff1673ffffffffffffffffffffffffffffffffffffffff16815260200190815260200160002060000160009054906101000a900473ffffffffffffffffffffffffffffffffffffffff1673ffffffffffffffffffffffffffffffffffffffff1614611a06576001600560060160003373ffffffffffffffffffffffffffffffffffffffff1673ffffffffffffffffffffffffffffffffffffffff16815260200190815260200160002060006101000a81548160ff021916908315150217905550600560040160008154809291906001019190505550600360008273ffffffffffffffffffffffffffffffffffffffff1673ffffffffffffffffffffffffffffffffffffffff16815260200190815260200160002060010160008154809291906001019190505550600360008273ffffffffffffffffffffffffffffffffffffffff1673ffffffffffffffffffffffffffffffffffffffff168152602001908152602001600020600201339080600181540180825580915050600190039060005260206000200160009091909190916101000a81548173ffffffffffffffffffffffffffffffffffffffff021916908373ffffffffffffffffffffffffffffffffffffffff1602179055505b5b50565b60008054906101000a900473ffffffffffffffffffffffffffffffffffffffff1673ffffffffffffffffffffffffffffffffffffffff163373ffffffffffffffffffffffffffffffffffffffff1614611a6257600080fd5b600060025414611a7157600080fd5b60006005905085816000019080519060200190611a8f929190611d9e565b5084816001018190555083816002018190555082816003019080519060200190611aba929190611d9e565b5081816005019080519060200190611ad3929190611d9e565b50505050505050565b60008060025414611aec57600080fd5b600560060160008373ffffffffffffffffffffffffffffffffffffffff1673ffffffffffffffffffffffffffffffffffffffff16815260200190815260200160002060009054906101000a900460ff169050919050565b6005806000018054600181600116156101000203166002900480601f016020809104026020016040519081016040528092919081815260200182805460018160011615610100020316600290048015611bdd5780601f10611bb257610100808354040283529160200191611bdd565b820191906000526020600020905b815481529060010190602001808311611bc057829003601f168201915b505050505090806001015490806002015490806003018054600181600116156101000203166002900480601f016020809104026020016040519081016040528092919081815260200182805460018160011615610100020316600290048015611c875780601f10611c5c57610100808354040283529160200191611c87565b820191906000526020600020905b815481529060010190602001808311611c6a57829003601f168201915b505050505090806004015490806005018054600181600116156101000203166002900480601f016020809104026020016040519081016040528092919081815260200182805460018160011615610100020316600290048015611d2b5780601f10611d0057610100808354040283529160200191611d2b565b820191906000526020600020905b815481529060010190602001808311611d0e57829003601f168201915b5050505050905086565b5080546000825590600052602060002090810190611d539190611e2c565b50565b50805460018160011615610100020316600290046000825580601f10611d7c5750611d9b565b601f016020900490600052602060002090810190611d9a9190611e2c565b5b50565b828054600181600116156101000203166002900490600052602060002090601f016020900481019282611dd45760008555611e1b565b82601f10611ded57805160ff1916838001178555611e1b565b82800160010185558215611e1b579182015b82811115611e1a578251825591602001919060010190611dff565b5b509050611e289190611e2c565b5090565b5b80821115611e45576000816000905550600101611e2d565b509056fea264697066735822122010099a7f049435a44e84a518d6581b53ecf8bfce54da71f07ed0bf2d49db1e1064736f6c63430007040033a2646970667358221220f4ec2974eee4b16164471cc9c9e56d7272157b4576165cec78efdde7da12048a64736f6c63430007040033",
  "immutableReferences": {},
  "source": "pragma solidity ^0.7.4;\r\n\r\n//\"SPDX-License-Identifier: UNLICENSED\"\r\nimport \"./Vote.sol\";\r\n\r\ncontract VoteFactory{\r\n    \r\n    // Representation of an instance of Group\r\n    struct groupStruct {\r\n        string name;\r\n        string description;\r\n        address[] members; // NEW Assumption that members rarely quit      \r\n    }\r\n    \r\n    // Representation of an instance of User\r\n    struct userStruct {\r\n        address userAddress;\r\n        string name;\r\n        string email;\r\n        string password;\r\n        // address[] running;\r\n        // address[] createdElection;\r\n        // address[] createdPetition;\r\n        uint[] groups; // NEW Assumption that users rarely quit\r\n        bool isAdmin;\r\n    }\r\n    \r\n    mapping(uint => groupStruct) groupInfo; // KEY: groupID Value: group\r\n    uint groupCount;\r\n    address[] public deployedVotes;\r\n    mapping(address => userStruct) userInfo;\r\n    uint defaultGroupID = 1; // Use the getGroup(uint id) to access the default group\r\n    \r\n    // Creates an instance of group and Updates the groupInfo mapping\r\n    // It also takes groupID as an input since the groupStruct(VALUE) is identified with a groupId(KEY)\r\n    function createGroup(string memory name, string memory description, uint groupID) public {\r\n        // IF statement to create a default group\r\n        if (!isGroup(1)) {\r\n            groupStruct storage studentGroup = groupInfo[1];\r\n            studentGroup.name = \"Student\";\r\n            studentGroup.description = \"Default Group\";\r\n            groupCount++;\r\n        }\r\n        groupStruct storage g = groupInfo[groupID];\r\n        g.name = name;\r\n        g.description = description;\r\n        groupCount++;\r\n    }\r\n\r\n    // Adds the groupID to the user's array of groups and Adds the user's address to the group's array of members\r\n    function registerGroup(uint groupID) public {\r\n        userStruct storage u = userInfo[msg.sender];\r\n        groupStruct storage g = groupInfo[groupID];\r\n        \r\n        require(groupID != 0);\r\n        require(!compareStrings(g.name, \"\")); // Validates the group's existence\r\n        require(!isUserGroup(groupID));\r\n        \r\n        //Update User\r\n        u.groups.push(groupID);\r\n        \r\n        // Update Group\r\n        g.members.push(u.userAddress);\r\n    }\r\n    \r\n    // Removes the groupID in the user's groups array and Removes the address in the group's member array\r\n    // using the Swap & Delete method (swaps the last element)\r\n    // Resources https://stackoverflow.com/questions/49051856/is-there-a-pop-functionality-for-solidity-arrays\r\n    // The inputs are very specific to prevent large computations (TO CHANGE DEPENDING ON PROJECT MANAGER'S CHOICE)\r\n    function leaveGroup(uint indexGroup, uint indexMember, uint groupID) public {\r\n        userStruct storage u = userInfo[msg.sender];\r\n        groupStruct storage g = groupInfo[groupID];\r\n        \r\n        // Remove the group from user\r\n        u.groups[indexGroup] = u.groups[u.groups.length - 1];\r\n        delete u.groups[u.groups.length - 1];\r\n        u.groups.pop();\r\n        \r\n        // Remove user from the group\r\n        g.members[indexMember] = g.members[g.members.length - 1];\r\n        delete g.members[g.members.length - 1];\r\n        g.members.pop();\r\n    }\r\n\r\n    // Verify if the user is part of the group\r\n    function isUserGroup(uint groupID) public view returns (bool) {\r\n        bool isStatus = false;\r\n        userStruct storage u = userInfo[msg.sender];\r\n        for (uint i = 0; i < u.groups.length; i++) {\r\n            isStatus = (u.groups[i] == groupID);\r\n        }\r\n        return isStatus;\r\n    }\r\n    \r\n    // Verify that the group exists in the mapping\r\n    function isGroup(uint groupID) public view returns (bool) {\r\n        groupStruct storage g = groupInfo[groupID];\r\n        bool isExist = !(compareStrings(g.name, \"\"));\r\n        return isExist;\r\n    }\r\n    \r\n    // Returns a specific group of the user\r\n    function getUserGroup(uint index) public view returns (uint) {\r\n        userStruct storage u = userInfo[msg.sender];\r\n        return u.groups[index];\r\n    }\r\n    \r\n    // Returns the user's array of groups\r\n    function getUserAllGroups() public view returns (uint[] memory) {\r\n        userStruct storage u = userInfo[msg.sender];\r\n        return u.groups;\r\n    }\r\n    \r\n    // Returns all members of the group\r\n    function getAllMembers(uint groupID) public view returns (address[] memory) {\r\n        groupStruct storage g = groupInfo[groupID];\r\n        return g.members;\r\n    }\r\n    \r\n    // Returns a specific group of the website\r\n    function getGroup(uint id) public view returns(string memory, string memory, address[] memory, uint) {\r\n        groupStruct storage g = groupInfo[id];\r\n        return (g.name, g.description, g.members, g.members.length);\r\n    }\r\n    \r\n    function registerUser(string memory name, string memory email, string memory password) public {\r\n        userStruct storage u = userInfo[msg.sender]; //innitialize\r\n        u.name = name;\r\n        u.email = email;\r\n        u.password = password;\r\n        u.userAddress =  msg.sender;\r\n        u.isAdmin = true;\r\n        if (isGroup(1)) {\r\n            registerGroup(1);\r\n        }\r\n    }\r\n\r\n    function createVote(uint typeOf) public{\r\n        address newVote = address(new Vote(msg.sender, typeOf));\r\n        deployedVotes.push(newVote);\r\n    }\r\n    function loginUser(string memory password) public view returns (string memory, string memory, uint[] memory, bool) {\r\n       userStruct storage u = userInfo[msg.sender];\r\n       require(compareStrings(password, u.password)); // NEW implemented the helper method\r\n       return(u.name, u.email, u.groups, u.isAdmin);\r\n    }\r\n\r\n    //NEED TO BE FIX (u.groups)\r\n    function getUser() public view returns (string memory, string memory, uint[] memory, bool){\r\n        userStruct storage u = userInfo[msg.sender];\r\n        return(u.name, u.email, u.groups, u.isAdmin);\r\n    }\r\n    \r\n    function getDeployedVotes() public view returns (address[] memory) {\r\n        return deployedVotes;\r\n    }\r\n    \r\n    // Returns a boolean value of the comparison (HELPER METHOD)\r\n    // Based on https://ethereum.stackexchange.com/questions/30912/how-to-compare-strings-in-solidity/82739\r\n    function compareStrings(string memory a, string memory b) public pure returns (bool) {\r\n        return (keccak256(abi.encodePacked((a))) == keccak256(abi.encodePacked((b))));\r\n    }\r\n    \r\n    \r\n}\r\n\r\n",
  "sourcePath": "C:/Users/foubroker/Desktop/BAM/voting-at-mcgill-2/contracts/VoteFactory.sol",
  "compiler": {
    "name": "solc",
    "version": "0.7.4+commit.3f05b770.Emscripten.clang"
  },
  "schemaVersion": "3.3.3",
  "updatedAt": "2021-03-22T02:01:51.995Z",
  "networkType": "ethereum",
  "devdoc": {
    "kind": "dev",
    "methods": {},
    "version": 1
  },
  "userdoc": {
    "kind": "user",
    "methods": {},
    "version": 1
  }
}