{
  "contractName": "Vote",
  "abi": [
    {
      "inputs": [
        {
          "internalType": "address",
          "name": "managerOfVote",
          "type": "address"
        },
        {
          "internalType": "uint256",
          "name": "typeOf",
          "type": "uint256"
        }
      ],
      "stateMutability": "nonpayable",
      "type": "constructor"
    },
    {
      "inputs": [
        {
          "internalType": "uint256",
          "name": "",
          "type": "uint256"
        }
      ],
      "name": "candidateArray",
      "outputs": [
        {
          "internalType": "address",
          "name": "candidateAddr",
          "type": "address"
        },
        {
          "internalType": "uint256",
          "name": "numVotes",
          "type": "uint256"
        },
        {
          "internalType": "string",
          "name": "name",
          "type": "string"
        },
        {
          "internalType": "string",
          "name": "description",
          "type": "string"
        }
      ],
      "stateMutability": "view",
      "type": "function"
    },
    {
      "inputs": [
        {
          "internalType": "address",
          "name": "",
          "type": "address"
        }
      ],
      "name": "candidates",
      "outputs": [
        {
          "internalType": "address",
          "name": "candidateAddr",
          "type": "address"
        },
        {
          "internalType": "uint256",
          "name": "numVotes",
          "type": "uint256"
        },
        {
          "internalType": "string",
          "name": "name",
          "type": "string"
        },
        {
          "internalType": "string",
          "name": "description",
          "type": "string"
        }
      ],
      "stateMutability": "view",
      "type": "function"
    },
    {
      "inputs": [
        {
          "internalType": "uint256",
          "name": "",
          "type": "uint256"
        }
      ],
      "name": "candidatesAddresses",
      "outputs": [
        {
          "internalType": "address",
          "name": "",
          "type": "address"
        }
      ],
      "stateMutability": "view",
      "type": "function"
    },
    {
      "inputs": [],
      "name": "candidatesCount",
      "outputs": [
        {
          "internalType": "uint256",
          "name": "",
          "type": "uint256"
        }
      ],
      "stateMutability": "view",
      "type": "function"
    },
    {
      "inputs": [],
      "name": "currentElection",
      "outputs": [
        {
          "internalType": "string",
          "name": "title",
          "type": "string"
        },
        {
          "internalType": "uint256",
          "name": "startDate",
          "type": "uint256"
        },
        {
          "internalType": "uint256",
          "name": "endDate",
          "type": "uint256"
        },
        {
          "internalType": "string",
          "name": "description",
          "type": "string"
        },
        {
          "internalType": "uint256",
          "name": "numVotes",
          "type": "uint256"
        },
        {
          "internalType": "string",
          "name": "typeOfElection",
          "type": "string"
        }
      ],
      "stateMutability": "view",
      "type": "function"
    },
    {
      "inputs": [],
      "name": "currentPetition",
      "outputs": [
        {
          "internalType": "string",
          "name": "title",
          "type": "string"
        },
        {
          "internalType": "uint256",
          "name": "startDate",
          "type": "uint256"
        },
        {
          "internalType": "uint256",
          "name": "endDate",
          "type": "uint256"
        },
        {
          "internalType": "string",
          "name": "description",
          "type": "string"
        },
        {
          "internalType": "uint256",
          "name": "numSigned",
          "type": "uint256"
        }
      ],
      "stateMutability": "view",
      "type": "function"
    },
    {
      "inputs": [],
      "name": "manager",
      "outputs": [
        {
          "internalType": "address",
          "name": "",
          "type": "address"
        }
      ],
      "stateMutability": "view",
      "type": "function"
    },
    {
      "inputs": [
        {
          "internalType": "string",
          "name": "title",
          "type": "string"
        },
        {
          "internalType": "uint256",
          "name": "startDate",
          "type": "uint256"
        },
        {
          "internalType": "uint256",
          "name": "endDate",
          "type": "uint256"
        },
        {
          "internalType": "string",
          "name": "description",
          "type": "string"
        },
        {
          "internalType": "string",
          "name": "typeOfElection",
          "type": "string"
        }
      ],
      "name": "editElection",
      "outputs": [],
      "stateMutability": "nonpayable",
      "type": "function"
    },
    {
      "inputs": [
        {
          "internalType": "string",
          "name": "title",
          "type": "string"
        },
        {
          "internalType": "uint256",
          "name": "startDate",
          "type": "uint256"
        },
        {
          "internalType": "uint256",
          "name": "endDate",
          "type": "uint256"
        },
        {
          "internalType": "string",
          "name": "description",
          "type": "string"
        }
      ],
      "name": "editPetition",
      "outputs": [],
      "stateMutability": "nonpayable",
      "type": "function"
    },
    {
      "inputs": [
        {
          "internalType": "address",
          "name": "candidateAddress",
          "type": "address"
        }
      ],
      "name": "voteFor",
      "outputs": [],
      "stateMutability": "nonpayable",
      "type": "function"
    },
    {
      "inputs": [
        {
          "internalType": "string",
          "name": "name",
          "type": "string"
        },
        {
          "internalType": "string",
          "name": "description",
          "type": "string"
        },
        {
          "internalType": "uint256",
          "name": "current_date",
          "type": "uint256"
        }
      ],
      "name": "enterElection",
      "outputs": [],
      "stateMutability": "nonpayable",
      "type": "function"
    },
    {
      "inputs": [
        {
          "internalType": "uint256",
          "name": "current_date",
          "type": "uint256"
        }
      ],
      "name": "leaveElection",
      "outputs": [],
      "stateMutability": "nonpayable",
      "type": "function"
    },
    {
      "inputs": [
        {
          "internalType": "address",
          "name": "candaddr",
          "type": "address"
        }
      ],
      "name": "get_candidates",
      "outputs": [
        {
          "internalType": "string",
          "name": "",
          "type": "string"
        },
        {
          "internalType": "string",
          "name": "",
          "type": "string"
        }
      ],
      "stateMutability": "view",
      "type": "function"
    },
    {
      "inputs": [
        {
          "internalType": "address",
          "name": "candAddr",
          "type": "address"
        }
      ],
      "name": "getCandidateVoters",
      "outputs": [
        {
          "internalType": "address[]",
          "name": "",
          "type": "address[]"
        }
      ],
      "stateMutability": "view",
      "type": "function"
    },
    {
      "inputs": [
        {
          "internalType": "address",
          "name": "voterAddr",
          "type": "address"
        }
      ],
      "name": "getElectionVoter",
      "outputs": [
        {
          "internalType": "bool",
          "name": "",
          "type": "bool"
        }
      ],
      "stateMutability": "view",
      "type": "function"
    }
  ],
  "bytecode": "0x608060405234801561001057600080fd5b506040516124333803806124338339818101604052604081101561003357600080fd5b810190808051906020019092919080519060200190929190505050816000806101000a81548173ffffffffffffffffffffffffffffffffffffffff021916908373ffffffffffffffffffffffffffffffffffffffff1602179055508060001461009d5760016100a0565b60005b60ff166002819055505050612379806100ba6000396000f3fe608060405234801561001057600080fd5b50600436106100f55760003560e01c80638ab66a9011610097578063da3550ee11610066578063da3550ee146109de578063dcfda00f14610a22578063e1c5fcc114610c1f578063fcae83a714610c79576100f5565b80638ab66a90146106a157806395115447146107ee578063ad0dcf9c14610887578063af47fb3f146109b0576100f5565b806367127e43116100d357806367127e4314610283578063691a675c146103e95780637432e63a146104ed578063869eae2314610545576100f5565b80632d35a8a2146100fa57806335a893a114610118578063481c6a751461024f575b600080fd5b610102610de9565b6040518082815260200191505060405180910390f35b6101446004803603602081101561012e57600080fd5b8101908080359060200190929190505050610def565b604051808573ffffffffffffffffffffffffffffffffffffffff1681526020018481526020018060200180602001838103835285818151815260200191508051906020019080838360005b838110156101aa57808201518184015260208101905061018f565b50505050905090810190601f1680156101d75780820380516001836020036101000a031916815260200191505b50838103825284818151815260200191508051906020019080838360005b838110156102105780820151818401526020810190506101f5565b50505050905090810190601f16801561023d5780820380516001836020036101000a031916815260200191505b50965050505050505060405180910390f35b610257610f7f565b604051808273ffffffffffffffffffffffffffffffffffffffff16815260200191505060405180910390f35b6103e76004803603608081101561029957600080fd5b81019080803590602001906401000000008111156102b657600080fd5b8201836020820111156102c857600080fd5b803590602001918460018302840111640100000000831117156102ea57600080fd5b91908080601f016020809104026020016040519081016040528093929190818152602001838380828437600081840152601f19601f82011690508083019250505050505050919291929080359060200190929190803590602001909291908035906020019064010000000081111561036157600080fd5b82018360208201111561037357600080fd5b8035906020019184600183028401116401000000008311171561039557600080fd5b91908080601f016020809104026020016040519081016040528093929190818152602001838380828437600081840152601f19601f820116905080830192505050505050509192919290505050610fa3565b005b6103f161105b565b604051808060200186815260200185815260200180602001848152602001838103835288818151815260200191508051906020019080838360005b8381101561044757808201518184015260208101905061042c565b50505050905090810190601f1680156104745780820380516001836020036101000a031916815260200191505b50838103825285818151815260200191508051906020019080838360005b838110156104ad578082015181840152602081019050610492565b50505050905090810190601f1680156104da5780820380516001836020036101000a031916815260200191505b5097505050505050505060405180910390f35b6105196004803603602081101561050357600080fd5b81019080803590602001909291905050506111af565b604051808273ffffffffffffffffffffffffffffffffffffffff16815260200191505060405180910390f35b61069f6004803603606081101561055b57600080fd5b810190808035906020019064010000000081111561057857600080fd5b82018360208201111561058a57600080fd5b803590602001918460018302840111640100000000831117156105ac57600080fd5b91908080601f016020809104026020016040519081016040528093929190818152602001838380828437600081840152601f19601f8201169050808301925050505050505091929192908035906020019064010000000081111561060f57600080fd5b82018360208201111561062157600080fd5b8035906020019184600183028401116401000000008311171561064357600080fd5b91908080601f016020809104026020016040519081016040528093929190818152602001838380828437600081840152601f19601f820116905080830192505050505050509192919290803590602001909291905050506111ee565b005b6106e3600480360360208110156106b757600080fd5b81019080803573ffffffffffffffffffffffffffffffffffffffff1690602001909291905050506113f4565b604051808573ffffffffffffffffffffffffffffffffffffffff1681526020018481526020018060200180602001838103835285818151815260200191508051906020019080838360005b8381101561074957808201518184015260208101905061072e565b50505050905090810190601f1680156107765780820380516001836020036101000a031916815260200191505b50838103825284818151815260200191508051906020019080838360005b838110156107af578082015181840152602081019050610794565b50505050905090810190601f1680156107dc5780820380516001836020036101000a031916815260200191505b50965050505050505060405180910390f35b6108306004803603602081101561080457600080fd5b81019080803573ffffffffffffffffffffffffffffffffffffffff169060200190929190505050611574565b6040518080602001828103825283818151815260200191508051906020019060200280838360005b83811015610873578082015181840152602081019050610858565b505050509050019250505060405180910390f35b6108c96004803603602081101561089d57600080fd5b81019080803573ffffffffffffffffffffffffffffffffffffffff169060200190929190505050611653565b604051808060200180602001838103835285818151815260200191508051906020019080838360005b8381101561090d5780820151818401526020810190506108f2565b50505050905090810190601f16801561093a5780820380516001836020036101000a031916815260200191505b50838103825284818151815260200191508051906020019080838360005b83811015610973578082015181840152602081019050610958565b50505050905090810190601f1680156109a05780820380516001836020036101000a031916815260200191505b5094505050505060405180910390f35b6109dc600480360360208110156109c657600080fd5b810190808035906020019092919050505061182a565b005b610a20600480360360208110156109f457600080fd5b81019080803573ffffffffffffffffffffffffffffffffffffffff169060200190929190505050611bb5565b005b610c1d600480360360a0811015610a3857600080fd5b8101908080359060200190640100000000811115610a5557600080fd5b820183602082011115610a6757600080fd5b80359060200191846001830284011164010000000083111715610a8957600080fd5b91908080601f016020809104026020016040519081016040528093929190818152602001838380828437600081840152601f19601f820116905080830192505050505050509192919290803590602001909291908035906020019092919080359060200190640100000000811115610b0057600080fd5b820183602082011115610b1257600080fd5b80359060200191846001830284011164010000000083111715610b3457600080fd5b91908080601f016020809104026020016040519081016040528093929190818152602001838380828437600081840152601f19601f82011690508083019250505050505050919291929080359060200190640100000000811115610b9757600080fd5b820183602082011115610ba957600080fd5b80359060200191846001830284011164010000000083111715610bcb57600080fd5b91908080601f016020809104026020016040519081016040528093929190818152602001838380828437600081840152601f19601f820116905080830192505050505050509192919290505050611e1e565b005b610c6160048036036020811015610c3557600080fd5b81019080803573ffffffffffffffffffffffffffffffffffffffff169060200190929190505050611ef0565b60405180821515815260200191505060405180910390f35b610c81611f56565b6040518080602001878152602001868152602001806020018581526020018060200184810384528a818151815260200191508051906020019080838360005b83811015610cdb578082015181840152602081019050610cc0565b50505050905090810190601f168015610d085780820380516001836020036101000a031916815260200191505b50848103835287818151815260200191508051906020019080838360005b83811015610d41578082015181840152602081019050610d26565b50505050905090810190601f168015610d6e5780820380516001836020036101000a031916815260200191505b50848103825285818151815260200191508051906020019080838360005b83811015610da7578082015181840152602081019050610d8c565b50505050905090810190601f168015610dd45780820380516001836020036101000a031916815260200191505b50995050505050505050505060405180910390f35b60015481565b60048181548110610dff57600080fd5b90600052602060002090600502016000915090508060000160009054906101000a900473ffffffffffffffffffffffffffffffffffffffff1690806001015490806003018054600181600116156101000203166002900480601f016020809104026020016040519081016040528092919081815260200182805460018160011615610100020316600290048015610ed75780601f10610eac57610100808354040283529160200191610ed7565b820191906000526020600020905b815481529060010190602001808311610eba57829003601f168201915b505050505090806004018054600181600116156101000203166002900480601f016020809104026020016040519081016040528092919081815260200182805460018160011615610100020316600290048015610f755780601f10610f4a57610100808354040283529160200191610f75565b820191906000526020600020905b815481529060010190602001808311610f5857829003601f168201915b5050505050905084565b60008054906101000a900473ffffffffffffffffffffffffffffffffffffffff1681565b60008054906101000a900473ffffffffffffffffffffffffffffffffffffffff1673ffffffffffffffffffffffffffffffffffffffff163373ffffffffffffffffffffffffffffffffffffffff1614610ffb57600080fd5b60016002541461100a57600080fd5b6000600d905084816000019080519060200190611028929190612148565b5083816001018190555082816002018190555081816003019080519060200190611053929190612148565b505050505050565b600d806000018054600181600116156101000203166002900480601f0160208091040260200160405190810160405280929190818152602001828054600181600116156101000203166002900480156110f55780601f106110ca576101008083540402835291602001916110f5565b820191906000526020600020905b8154815290600101906020018083116110d857829003601f168201915b505050505090806001015490806002015490806003018054600181600116156101000203166002900480601f01602080910402602001604051908101604052809291908181526020018280546001816001161561010002031660029004801561119f5780601f106111745761010080835404028352916020019161119f565b820191906000526020600020905b81548152906001019060200180831161118257829003601f168201915b5050505050908060040154905085565b600581815481106111bf57600080fd5b906000526020600020016000915054906101000a900473ffffffffffffffffffffffffffffffffffffffff1681565b6000600254146111fd57600080fd5b60066001015481118015611215575060066002015481105b61121e57600080fd5b6000600360003373ffffffffffffffffffffffffffffffffffffffff1673ffffffffffffffffffffffffffffffffffffffff168152602001908152602001600020905083816003019080519060200190611279929190612148565b5082816004019080519060200190611292929190612148565b50338160000160006101000a81548173ffffffffffffffffffffffffffffffffffffffff021916908373ffffffffffffffffffffffffffffffffffffffff16021790555060048190806001815401808255809150506001900390600052602060002090600502016000909190919091506000820160009054906101000a900473ffffffffffffffffffffffffffffffffffffffff168160000160006101000a81548173ffffffffffffffffffffffffffffffffffffffff021916908373ffffffffffffffffffffffffffffffffffffffff1602179055506001820154816001015560028201816002019080546113899291906121d6565b50600382018160030190805460018160011615610100020316600290046113b1929190612228565b50600482018160040190805460018160011615610100020316600290046113d9929190612228565b50505060016000815480929190600101919050555050505050565b60036020528060005260406000206000915090508060000160009054906101000a900473ffffffffffffffffffffffffffffffffffffffff1690806001015490806003018054600181600116156101000203166002900480601f0160208091040260200160405190810160405280929190818152602001828054600181600116156101000203166002900480156114cc5780601f106114a1576101008083540402835291602001916114cc565b820191906000526020600020905b8154815290600101906020018083116114af57829003601f168201915b505050505090806004018054600181600116156101000203166002900480601f01602080910402602001604051908101604052809291908181526020018280546001816001161561010002031660029004801561156a5780601f1061153f5761010080835404028352916020019161156a565b820191906000526020600020905b81548152906001019060200180831161154d57829003601f168201915b5050505050905084565b606060006002541461158557600080fd5b600360008373ffffffffffffffffffffffffffffffffffffffff1673ffffffffffffffffffffffffffffffffffffffff16815260200190815260200160002060020180548060200260200160405190810160405280929190818152602001828054801561164757602002820191906000526020600020905b8160009054906101000a900473ffffffffffffffffffffffffffffffffffffffff1673ffffffffffffffffffffffffffffffffffffffff16815260200190600101908083116115fd575b50505050509050919050565b60608060006002541461166557600080fd5b600360008473ffffffffffffffffffffffffffffffffffffffff1673ffffffffffffffffffffffffffffffffffffffff168152602001908152602001600020600301600360008573ffffffffffffffffffffffffffffffffffffffff1673ffffffffffffffffffffffffffffffffffffffff168152602001908152602001600020600401818054600181600116156101000203166002900480601f01602080910402602001604051908101604052809291908181526020018280546001816001161561010002031660029004801561177e5780601f106117535761010080835404028352916020019161177e565b820191906000526020600020905b81548152906001019060200180831161176157829003601f168201915b50505050509150808054600181600116156101000203166002900480601f01602080910402602001604051908101604052809291908181526020018280546001816001161561010002031660029004801561181a5780601f106117ef5761010080835404028352916020019161181a565b820191906000526020600020905b8154815290600101906020018083116117fd57829003601f168201915b5050505050905091509150915091565b60006002541461183957600080fd5b6000600360003373ffffffffffffffffffffffffffffffffffffffff1673ffffffffffffffffffffffffffffffffffffffff1681526020019081526020016000209050604051806020016040528060008152508160030190805190602001906118a3929190612148565b50604051806020016040528060008152508160040190805190602001906118cb929190612148565b50600360003373ffffffffffffffffffffffffffffffffffffffff1673ffffffffffffffffffffffffffffffffffffffff168152602001908152602001600020600080820160006101000a81549073ffffffffffffffffffffffffffffffffffffffff0219169055600182016000905560028201600061194b91906122bd565b60038201600061195b91906122de565b60048201600061196b91906122de565b505060005b600480549050811015611b9d576004818154811061198a57fe5b906000526020600020906005020160000160009054906101000a900473ffffffffffffffffffffffffffffffffffffffff1673ffffffffffffffffffffffffffffffffffffffff163373ffffffffffffffffffffffffffffffffffffffff161415611b9057600460016004805490500381548110611a0457fe5b906000526020600020906005020160048281548110611a1f57fe5b90600052602060002090600502016000820160009054906101000a900473ffffffffffffffffffffffffffffffffffffffff168160000160006101000a81548173ffffffffffffffffffffffffffffffffffffffff021916908373ffffffffffffffffffffffffffffffffffffffff160217905550600182015481600101556002820181600201908054611ab49291906121d6565b5060038201816003019080546001816001161561010002031660029004611adc929190612228565b5060048201816004019080546001816001161561010002031660029004611b04929190612228565b509050506004805480611b1357fe5b6001900381819060005260206000209060050201600080820160006101000a81549073ffffffffffffffffffffffffffffffffffffffff02191690556001820160009055600282016000611b6791906122bd565b600382016000611b7791906122de565b600482016000611b8791906122de565b50509055611b9d565b8080600101915050611970565b50600160008154809291906001900391905055505050565b600060025414611bc457600080fd5b600015156006800160003373ffffffffffffffffffffffffffffffffffffffff1673ffffffffffffffffffffffffffffffffffffffff16815260200190815260200160002060009054906101000a900460ff1615151415611e1b57600073ffffffffffffffffffffffffffffffffffffffff16600360008373ffffffffffffffffffffffffffffffffffffffff1673ffffffffffffffffffffffffffffffffffffffff16815260200190815260200160002060000160009054906101000a900473ffffffffffffffffffffffffffffffffffffffff1673ffffffffffffffffffffffffffffffffffffffff1614611e1a5760016006800160003373ffffffffffffffffffffffffffffffffffffffff1673ffffffffffffffffffffffffffffffffffffffff16815260200190815260200160002060006101000a81548160ff021916908315150217905550600660040160008154809291906001019190505550600360008273ffffffffffffffffffffffffffffffffffffffff1673ffffffffffffffffffffffffffffffffffffffff16815260200190815260200160002060010160008154809291906001019190505550600360008273ffffffffffffffffffffffffffffffffffffffff1673ffffffffffffffffffffffffffffffffffffffff168152602001908152602001600020600201339080600181540180825580915050600190039060005260206000200160009091909190916101000a81548173ffffffffffffffffffffffffffffffffffffffff021916908373ffffffffffffffffffffffffffffffffffffffff1602179055505b5b50565b60008054906101000a900473ffffffffffffffffffffffffffffffffffffffff1673ffffffffffffffffffffffffffffffffffffffff163373ffffffffffffffffffffffffffffffffffffffff1614611e7657600080fd5b600060025414611e8557600080fd5b60006006905085816000019080519060200190611ea3929190612148565b5084816001018190555083816002018190555082816003019080519060200190611ece929190612148565b5081816005019080519060200190611ee7929190612148565b50505050505050565b60008060025414611f0057600080fd5b6006800160008373ffffffffffffffffffffffffffffffffffffffff1673ffffffffffffffffffffffffffffffffffffffff16815260200190815260200160002060009054906101000a900460ff169050919050565b6006806000018054600181600116156101000203166002900480601f016020809104026020016040519081016040528092919081815260200182805460018160011615610100020316600290048015611ff05780601f10611fc557610100808354040283529160200191611ff0565b820191906000526020600020905b815481529060010190602001808311611fd357829003601f168201915b505050505090806001015490806002015490806003018054600181600116156101000203166002900480601f01602080910402602001604051908101604052809291908181526020018280546001816001161561010002031660029004801561209a5780601f1061206f5761010080835404028352916020019161209a565b820191906000526020600020905b81548152906001019060200180831161207d57829003601f168201915b505050505090806004015490806005018054600181600116156101000203166002900480601f01602080910402602001604051908101604052809291908181526020018280546001816001161561010002031660029004801561213e5780601f106121135761010080835404028352916020019161213e565b820191906000526020600020905b81548152906001019060200180831161212157829003601f168201915b5050505050905086565b828054600181600116156101000203166002900490600052602060002090601f01602090048101928261217e57600085556121c5565b82601f1061219757805160ff19168380011785556121c5565b828001600101855582156121c5579182015b828111156121c45782518255916020019190600101906121a9565b5b5090506121d29190612326565b5090565b8280548282559060005260206000209081019282156122175760005260206000209182015b828111156122165782548255916001019190600101906121fb565b5b5090506122249190612326565b5090565b828054600181600116156101000203166002900490600052602060002090601f01602090048101928261225e57600085556122ac565b82601f1061226f57805485556122ac565b828001600101855582156122ac57600052602060002091601f016020900482015b828111156122ab578254825591600101919060010190612290565b5b5090506122b99190612326565b5090565b50805460008255906000526020600020908101906122db9190612326565b50565b50805460018160011615610100020316600290046000825580601f106123045750612323565b601f0160209004906000526020600020908101906123229190612326565b5b50565b5b8082111561233f576000816000905550600101612327565b509056fea2646970667358221220cf5f0a1ce002e31c3d5efd94d167acad47f9b264d9930df9c1ddbdf42817fbd564736f6c63430007040033",
  "immutableReferences": {},
  "source": "pragma solidity ^0.7.4;\n//\"SPDX-License-Identifier: UNLICENSED\"\n\ncontract Vote{\n    //admin address\n    address public manager;\n    uint public candidatesCount;\n\n    struct user{\n        string name;\n        string email;\n        string password;\n        address userAddress;\n        address[] running;\n        address[] createdElection;\n        address[] createdPetition;\n        string userType;\n    }\n\n    struct candidate {\n        address candidateAddr;\n        uint numVotes;\n        address[] voters;\n        string name;\n        string description;\n    }\n\n    struct election {\n        string title;\n        uint startDate;\n        uint endDate;\n        string description;\n        //think about mapping?\n        uint numVotes;\n        string typeOfElection;\n        mapping(address => bool) voters ; //see if a voter has voted\n    }\n    struct petition{\n        string title;\n        uint startDate;\n        uint endDate;\n        string description;\n        uint numSigned;\n        mapping(address=>bool) signed; //see if a user has signed\n    }\n    uint typeOfVote; //0 for election and 1 for petition\n    // mapping(uint => election) public elections;\n    mapping(address => candidate) public candidates; //maps a candidate's address to the candidate\n    candidate[] public candidateArray;\n    address[] public candidatesAddresses;//should replace candidateArray\n    election public currentElection;\n    petition public currentPetition;\n\n    constructor (address managerOfVote, uint typeOf){   //how does one become an admin?\n        // constructor\n        manager = managerOfVote;\n        typeOfVote = (0 == typeOf) ? 0 : 1;\n    }\n\n    function editElection (string memory title, uint256 startDate, uint256 endDate, string memory description, string memory typeOfElection)\n    public restricted typeElection {\n        election storage e = currentElection;\n        e.title = title;\n        e.startDate = startDate;\n        e.endDate = endDate;\n        e.description = description;\n        e.typeOfElection = typeOfElection;\n    }\n\n    function editPetition (string memory title, uint256 startDate, uint256 endDate, string memory description)\n    public restricted typePetition {\n        petition storage p = currentPetition;\n        p.title = title;\n        p.startDate = startDate;\n        p.endDate = endDate;\n        p.description = description;\n    }\n //vote for a candidate\n    function voteFor(address candidateAddress) public typeElection{\n        if(currentElection.voters[msg.sender] == false){\n            if(candidates[candidateAddress].candidateAddr != address(0)){\n                currentElection.voters[msg.sender]  = true;\n                currentElection.numVotes++;\n                (candidates[candidateAddress]).numVotes++;\n                (candidates[candidateAddress]).voters.push(msg.sender);\n            }\n        }\n    }\n    //enter as a candidate\n    function enterElection(string memory name, string memory description, uint256 current_date)\n    public typeElection {\n        //Check if the registration is before the required deadline\n        require(current_date > currentElection.startDate && current_date < currentElection.endDate);\n        //enter candidate\n        candidate storage currentCandidate = candidates[msg.sender];\n        currentCandidate.name = name;\n        currentCandidate.description = description;\n        currentCandidate.candidateAddr= msg.sender;\n        currentCandidate.voters;\n        candidateArray.push(currentCandidate);\n        candidatesCount++;\n        //candidateAddrs.push(msg.sender);\n    }\n    \n    // ? current_date is not being used\n    //leave the election\n    function leaveElection(uint256 current_date)\n    public typeElection {\n        //Check if the registration is before the required deadline\n        //require(current_date > currentElection.startDate && current_date <= currentElection.endDate);\n        //remove candidate\n        candidate storage currentCandidate = candidates[msg.sender];\n        currentCandidate.name = \"\";\n        currentCandidate.description = \"\";\n        //currentCandidate.candidateAddr= ;\n        //remove from array\n        delete candidates[msg.sender];\n        for (uint i = 0; i<candidateArray.length; i++){\n            if(msg.sender==candidateArray[i].candidateAddr){\n                candidateArray[i]=candidateArray[candidateArray.length-1];\n                candidateArray.pop();\n                break;\n            }\n        }\n        candidatesCount--;\n    }\n\n    //GETTERS\n    function get_candidates(address candaddr) public view typeElection returns (string memory, string memory) {\n        return(candidates[candaddr].name, candidates[candaddr].description);\n    }\n    function getCandidateVoters(address candAddr) public view typeElection returns (address[] memory) {\n        return((candidates[candAddr]).voters);\n    }\n    function getElectionVoter(address voterAddr) public view typeElection returns (bool) {\n        return ((currentElection.voters)[voterAddr]);\n    }\n    modifier restricted() {\n        require(msg.sender == manager);\n        _;\n    }\n    modifier typeElection() {\n        require(typeOfVote == 0);\n        _;\n    }\n    modifier typePetition() {\n        require(typeOfVote == 1);\n        _;\n    }\n\n}\n",
  "sourcePath": "/home/wen_wong/voting-at-mcgill/contracts/Vote.sol",
  "compiler": {
    "name": "solc",
    "version": "0.7.4+commit.3f05b770.Emscripten.clang"
  },
  "schemaVersion": "3.3.4",
  "updatedAt": "2021-03-07T03:36:36.309Z",
  "devdoc": {
    "kind": "dev",
    "methods": {},
    "version": 1
  },
  "userdoc": {
    "kind": "user",
    "methods": {},
    "version": 1
  }
}