{
  "contractName": "Vote",
  "abi": [
    {
      "inputs": [
        {
          "internalType": "address",
          "name": "managerOfVote",
          "type": "address"
        },
        {
          "internalType": "uint256",
          "name": "typeOf",
          "type": "uint256"
        }
      ],
      "stateMutability": "nonpayable",
      "type": "constructor"
    },
    {
      "inputs": [
        {
          "internalType": "uint256",
          "name": "",
          "type": "uint256"
        }
      ],
      "name": "candidateArray",
      "outputs": [
        {
          "internalType": "address",
          "name": "candidateAddr",
          "type": "address"
        },
        {
          "internalType": "string",
          "name": "name",
          "type": "string"
        },
        {
          "internalType": "string",
          "name": "description",
          "type": "string"
        }
      ],
      "stateMutability": "view",
      "type": "function"
    },
    {
      "inputs": [
        {
          "internalType": "address",
          "name": "",
          "type": "address"
        }
      ],
      "name": "candidates",
      "outputs": [
        {
          "internalType": "address",
          "name": "candidateAddr",
          "type": "address"
        },
        {
          "internalType": "string",
          "name": "name",
          "type": "string"
        },
        {
          "internalType": "string",
          "name": "description",
          "type": "string"
        }
      ],
      "stateMutability": "view",
      "type": "function"
    },
    {
      "inputs": [],
      "name": "candidatesCount",
      "outputs": [
        {
          "internalType": "uint256",
          "name": "",
          "type": "uint256"
        }
      ],
      "stateMutability": "view",
      "type": "function"
    },
    {
      "inputs": [],
      "name": "currentElection",
      "outputs": [
        {
          "internalType": "string",
          "name": "title",
          "type": "string"
        },
        {
          "internalType": "uint256",
          "name": "startDate",
          "type": "uint256"
        },
        {
          "internalType": "uint256",
          "name": "endDate",
          "type": "uint256"
        },
        {
          "internalType": "string",
          "name": "description",
          "type": "string"
        },
        {
          "internalType": "uint256",
          "name": "numVotes",
          "type": "uint256"
        },
        {
          "internalType": "string",
          "name": "typeOfElection",
          "type": "string"
        }
      ],
      "stateMutability": "view",
      "type": "function"
    },
    {
      "inputs": [],
      "name": "currentPetition",
      "outputs": [
        {
          "internalType": "string",
          "name": "title",
          "type": "string"
        },
        {
          "internalType": "uint256",
          "name": "startDate",
          "type": "uint256"
        },
        {
          "internalType": "uint256",
          "name": "endDate",
          "type": "uint256"
        },
        {
          "internalType": "string",
          "name": "description",
          "type": "string"
        },
        {
          "internalType": "uint256",
          "name": "numSigned",
          "type": "uint256"
        }
      ],
      "stateMutability": "view",
      "type": "function"
    },
    {
      "inputs": [],
      "name": "manager",
      "outputs": [
        {
          "internalType": "address",
          "name": "",
          "type": "address"
        }
      ],
      "stateMutability": "view",
      "type": "function"
    },
    {
      "inputs": [
        {
          "internalType": "string",
          "name": "title",
          "type": "string"
        },
        {
          "internalType": "uint256",
          "name": "startDate",
          "type": "uint256"
        },
        {
          "internalType": "uint256",
          "name": "endDate",
          "type": "uint256"
        },
        {
          "internalType": "string",
          "name": "description",
          "type": "string"
        },
        {
          "internalType": "string",
          "name": "typeOfElection",
          "type": "string"
        }
      ],
      "name": "editElection",
      "outputs": [],
      "stateMutability": "nonpayable",
      "type": "function"
    },
    {
      "inputs": [
        {
          "internalType": "string",
          "name": "title",
          "type": "string"
        },
        {
          "internalType": "uint256",
          "name": "startDate",
          "type": "uint256"
        },
        {
          "internalType": "uint256",
          "name": "endDate",
          "type": "uint256"
        },
        {
          "internalType": "string",
          "name": "description",
          "type": "string"
        }
      ],
      "name": "editPetition",
      "outputs": [],
      "stateMutability": "nonpayable",
      "type": "function"
    },
    {
      "inputs": [
        {
          "internalType": "string",
          "name": "name",
          "type": "string"
        },
        {
          "internalType": "string",
          "name": "description",
          "type": "string"
        },
        {
          "internalType": "uint256",
          "name": "current_date",
          "type": "uint256"
        }
      ],
      "name": "enterElection",
      "outputs": [],
      "stateMutability": "nonpayable",
      "type": "function"
    },
    {
      "inputs": [
        {
          "internalType": "uint256",
          "name": "current_date",
          "type": "uint256"
        }
      ],
      "name": "leaveElection",
      "outputs": [],
      "stateMutability": "nonpayable",
      "type": "function"
    },
    {
      "inputs": [],
      "name": "get_election",
      "outputs": [
        {
          "internalType": "string",
          "name": "",
          "type": "string"
        },
        {
          "internalType": "uint256",
          "name": "",
          "type": "uint256"
        },
        {
          "internalType": "uint256",
          "name": "",
          "type": "uint256"
        },
        {
          "internalType": "string",
          "name": "",
          "type": "string"
        },
        {
          "internalType": "uint256",
          "name": "",
          "type": "uint256"
        },
        {
          "internalType": "string",
          "name": "",
          "type": "string"
        }
      ],
      "stateMutability": "view",
      "type": "function"
    },
    {
      "inputs": [],
      "name": "get_petition",
      "outputs": [
        {
          "internalType": "string",
          "name": "",
          "type": "string"
        },
        {
          "internalType": "uint256",
          "name": "",
          "type": "uint256"
        },
        {
          "internalType": "uint256",
          "name": "",
          "type": "uint256"
        },
        {
          "internalType": "string",
          "name": "",
          "type": "string"
        },
        {
          "internalType": "uint256",
          "name": "",
          "type": "uint256"
        }
      ],
      "stateMutability": "view",
      "type": "function"
    },
    {
      "inputs": [
        {
          "internalType": "address",
          "name": "candaddr",
          "type": "address"
        }
      ],
      "name": "get_candidates",
      "outputs": [
        {
          "internalType": "string",
          "name": "",
          "type": "string"
        },
        {
          "internalType": "string",
          "name": "",
          "type": "string"
        }
      ],
      "stateMutability": "view",
      "type": "function"
    }
  ],
  "bytecode": "0x608060405234801561001057600080fd5b506040516123c73803806123c78339818101604052604081101561003357600080fd5b810190808051906020019092919080519060200190929190505050816000806101000a81548173ffffffffffffffffffffffffffffffffffffffff021916908373ffffffffffffffffffffffffffffffffffffffff1602179055508060001461009d5760016100a0565b60005b60ff16600281905550505061230d806100ba6000396000f3fe608060405234801561001057600080fd5b50600436106100cf5760003560e01c8063869eae231161008c578063ad0dcf9c11610066578063ad0dcf9c146109d6578063af47fb3f14610aff578063dcfda00f14610b2d578063fcae83a714610d2a576100cf565b8063869eae23146106305780638ab66a901461078c5780638e440c32146108d2576100cf565b806304facd35146100d45780632d35a8a21461024457806335a893a114610262578063481c6a751461039257806367127e43146103c6578063691a675c1461052c575b600080fd5b6100dc610e9a565b6040518080602001878152602001868152602001806020018581526020018060200184810384528a818151815260200191508051906020019080838360005b8381101561013657808201518184015260208101905061011b565b50505050905090810190601f1680156101635780820380516001836020036101000a031916815260200191505b50848103835287818151815260200191508051906020019080838360005b8381101561019c578082015181840152602081019050610181565b50505050905090810190601f1680156101c95780820380516001836020036101000a031916815260200191505b50848103825285818151815260200191508051906020019080838360005b838110156102025780820151818401526020810190506101e7565b50505050905090810190601f16801561022f5780820380516001836020036101000a031916815260200191505b50995050505050505050505060405180910390f35b61024c6110bc565b6040518082815260200191505060405180910390f35b61028e6004803603602081101561027857600080fd5b81019080803590602001909291905050506110c2565b604051808473ffffffffffffffffffffffffffffffffffffffff1681526020018060200180602001838103835285818151815260200191508051906020019080838360005b838110156102ee5780820151818401526020810190506102d3565b50505050905090810190601f16801561031b5780820380516001836020036101000a031916815260200191505b50838103825284818151815260200191508051906020019080838360005b83811015610354578082015181840152602081019050610339565b50505050905090810190601f1680156103815780820380516001836020036101000a031916815260200191505b509550505050505060405180910390f35b61039a61124c565b604051808273ffffffffffffffffffffffffffffffffffffffff16815260200191505060405180910390f35b61052a600480360360808110156103dc57600080fd5b81019080803590602001906401000000008111156103f957600080fd5b82018360208201111561040b57600080fd5b8035906020019184600183028401116401000000008311171561042d57600080fd5b91908080601f016020809104026020016040519081016040528093929190818152602001838380828437600081840152601f19601f8201169050808301925050505050505091929192908035906020019092919080359060200190929190803590602001906401000000008111156104a457600080fd5b8201836020820111156104b657600080fd5b803590602001918460018302840111640100000000831117156104d857600080fd5b91908080601f016020809104026020016040519081016040528093929190818152602001838380828437600081840152601f19601f820116905080830192505050505050509192919290505050611270565b005b610534611328565b604051808060200186815260200185815260200180602001848152602001838103835288818151815260200191508051906020019080838360005b8381101561058a57808201518184015260208101905061056f565b50505050905090810190601f1680156105b75780820380516001836020036101000a031916815260200191505b50838103825285818151815260200191508051906020019080838360005b838110156105f05780820151818401526020810190506105d5565b50505050905090810190601f16801561061d5780820380516001836020036101000a031916815260200191505b5097505050505050505060405180910390f35b61078a6004803603606081101561064657600080fd5b810190808035906020019064010000000081111561066357600080fd5b82018360208201111561067557600080fd5b8035906020019184600183028401116401000000008311171561069757600080fd5b91908080601f016020809104026020016040519081016040528093929190818152602001838380828437600081840152601f19601f820116905080830192505050505050509192919290803590602001906401000000008111156106fa57600080fd5b82018360208201111561070c57600080fd5b8035906020019184600183028401116401000000008311171561072e57600080fd5b91908080601f016020809104026020016040519081016040528093929190818152602001838380828437600081840152601f19601f8201169050808301925050505050505091929192908035906020019092919050505061147c565b005b6107ce600480360360208110156107a257600080fd5b81019080803573ffffffffffffffffffffffffffffffffffffffff169060200190929190505050611661565b604051808473ffffffffffffffffffffffffffffffffffffffff1681526020018060200180602001838103835285818151815260200191508051906020019080838360005b8381101561082e578082015181840152602081019050610813565b50505050905090810190601f16801561085b5780820380516001836020036101000a031916815260200191505b50838103825284818151815260200191508051906020019080838360005b83811015610894578082015181840152602081019050610879565b50505050905090810190601f1680156108c15780820380516001836020036101000a031916815260200191505b509550505050505060405180910390f35b6108da6117db565b604051808060200186815260200185815260200180602001848152602001838103835288818151815260200191508051906020019080838360005b83811015610930578082015181840152602081019050610915565b50505050905090810190601f16801561095d5780820380516001836020036101000a031916815260200191505b50838103825285818151815260200191508051906020019080838360005b8381101561099657808201518184015260208101905061097b565b50505050905090810190601f1680156109c35780820380516001836020036101000a031916815260200191505b5097505050505050505060405180910390f35b610a18600480360360208110156109ec57600080fd5b81019080803573ffffffffffffffffffffffffffffffffffffffff169060200190929190505050611958565b604051808060200180602001838103835285818151815260200191508051906020019080838360005b83811015610a5c578082015181840152602081019050610a41565b50505050905090810190601f168015610a895780820380516001836020036101000a031916815260200191505b50838103825284818151815260200191508051906020019080838360005b83811015610ac2578082015181840152602081019050610aa7565b50505050905090810190601f168015610aef5780820380516001836020036101000a031916815260200191505b5094505050505060405180910390f35b610b2b60048036036020811015610b1557600080fd5b8101908080359060200190929190505050611b2f565b005b610d28600480360360a0811015610b4357600080fd5b8101908080359060200190640100000000811115610b6057600080fd5b820183602082011115610b7257600080fd5b80359060200191846001830284011164010000000083111715610b9457600080fd5b91908080601f016020809104026020016040519081016040528093929190818152602001838380828437600081840152601f19601f820116905080830192505050505050509192919290803590602001909291908035906020019092919080359060200190640100000000811115610c0b57600080fd5b820183602082011115610c1d57600080fd5b80359060200191846001830284011164010000000083111715610c3f57600080fd5b91908080601f016020809104026020016040519081016040528093929190818152602001838380828437600081840152601f19601f82011690508083019250505050505050919291929080359060200190640100000000811115610ca257600080fd5b820183602082011115610cb457600080fd5b80359060200191846001830284011164010000000083111715610cd657600080fd5b91908080601f016020809104026020016040519081016040528093929190818152602001838380828437600081840152601f19601f820116905080830192505050505050509192919290505050611e8b565b005b610d32611f5d565b6040518080602001878152602001868152602001806020018581526020018060200184810384528a818151815260200191508051906020019080838360005b83811015610d8c578082015181840152602081019050610d71565b50505050905090810190601f168015610db95780820380516001836020036101000a031916815260200191505b50848103835287818151815260200191508051906020019080838360005b83811015610df2578082015181840152602081019050610dd7565b50505050905090810190601f168015610e1f5780820380516001836020036101000a031916815260200191505b50848103825285818151815260200191508051906020019080838360005b83811015610e58578082015181840152602081019050610e3d565b50505050905090810190601f168015610e855780820380516001836020036101000a031916815260200191505b50995050505050505050505060405180910390f35b6060600080606060006060600060025414610eb457600080fd5b6005600001600560010154600560020154600560030160056004015460058001858054600181600116156101000203166002900480601f016020809104026020016040519081016040528092919081815260200182805460018160011615610100020316600290048015610f695780601f10610f3e57610100808354040283529160200191610f69565b820191906000526020600020905b815481529060010190602001808311610f4c57829003601f168201915b50505050509550828054600181600116156101000203166002900480601f0160208091040260200160405190810160405280929190818152602001828054600181600116156101000203166002900480156110055780601f10610fda57610100808354040283529160200191611005565b820191906000526020600020905b815481529060010190602001808311610fe857829003601f168201915b50505050509250808054600181600116156101000203166002900480601f0160208091040260200160405190810160405280929190818152602001828054600181600116156101000203166002900480156110a15780601f10611076576101008083540402835291602001916110a1565b820191906000526020600020905b81548152906001019060200180831161108457829003601f168201915b50505050509050955095509550955095509550909192939495565b60015481565b600481815481106110d257600080fd5b90600052602060002090600302016000915090508060000160009054906101000a900473ffffffffffffffffffffffffffffffffffffffff1690806001018054600181600116156101000203166002900480601f0160208091040260200160405190810160405280929190818152602001828054600181600116156101000203166002900480156111a45780601f10611179576101008083540402835291602001916111a4565b820191906000526020600020905b81548152906001019060200180831161118757829003601f168201915b505050505090806002018054600181600116156101000203166002900480601f0160208091040260200160405190810160405280929190818152602001828054600181600116156101000203166002900480156112425780601f1061121757610100808354040283529160200191611242565b820191906000526020600020905b81548152906001019060200180831161122557829003601f168201915b5050505050905083565b60008054906101000a900473ffffffffffffffffffffffffffffffffffffffff1681565b60008054906101000a900473ffffffffffffffffffffffffffffffffffffffff1673ffffffffffffffffffffffffffffffffffffffff163373ffffffffffffffffffffffffffffffffffffffff16146112c857600080fd5b6001600254146112d757600080fd5b6000600c9050848160000190805190602001906112f592919061214f565b508381600101819055508281600201819055508181600301908051906020019061132092919061214f565b505050505050565b600c806000018054600181600116156101000203166002900480601f0160208091040260200160405190810160405280929190818152602001828054600181600116156101000203166002900480156113c25780601f10611397576101008083540402835291602001916113c2565b820191906000526020600020905b8154815290600101906020018083116113a557829003601f168201915b505050505090806001015490806002015490806003018054600181600116156101000203166002900480601f01602080910402602001604051908101604052809291908181526020018280546001816001161561010002031660029004801561146c5780601f106114415761010080835404028352916020019161146c565b820191906000526020600020905b81548152906001019060200180831161144f57829003601f168201915b5050505050908060040154905085565b60006002541461148b57600080fd5b600560010154811180156114a3575060056002015481105b6114ac57600080fd5b6000600360003373ffffffffffffffffffffffffffffffffffffffff1673ffffffffffffffffffffffffffffffffffffffff16815260200190815260200160002090508381600101908051906020019061150792919061214f565b508281600201908051906020019061152092919061214f565b50338160000160006101000a81548173ffffffffffffffffffffffffffffffffffffffff021916908373ffffffffffffffffffffffffffffffffffffffff16021790555060048190806001815401808255809150506001900390600052602060002090600302016000909190919091506000820160009054906101000a900473ffffffffffffffffffffffffffffffffffffffff168160000160006101000a81548173ffffffffffffffffffffffffffffffffffffffff021916908373ffffffffffffffffffffffffffffffffffffffff1602179055506001820181600101908054600181600116156101000203166002900461161e9291906121dd565b50600282018160020190805460018160011615610100020316600290046116469291906121dd565b50505060016000815480929190600101919050555050505050565b60036020528060005260406000206000915090508060000160009054906101000a900473ffffffffffffffffffffffffffffffffffffffff1690806001018054600181600116156101000203166002900480601f0160208091040260200160405190810160405280929190818152602001828054600181600116156101000203166002900480156117335780601f1061170857610100808354040283529160200191611733565b820191906000526020600020905b81548152906001019060200180831161171657829003601f168201915b505050505090806002018054600181600116156101000203166002900480601f0160208091040260200160405190810160405280929190818152602001828054600181600116156101000203166002900480156117d15780601f106117a6576101008083540402835291602001916117d1565b820191906000526020600020905b8154815290600101906020018083116117b457829003601f168201915b5050505050905083565b6060600080606060006001600254146117f357600080fd5b600c600001600c60010154600c60020154600c600301600c60040154848054600181600116156101000203166002900480601f0160208091040260200160405190810160405280929190818152602001828054600181600116156101000203166002900480156118a45780601f10611879576101008083540402835291602001916118a4565b820191906000526020600020905b81548152906001019060200180831161188757829003601f168201915b50505050509450818054600181600116156101000203166002900480601f0160208091040260200160405190810160405280929190818152602001828054600181600116156101000203166002900480156119405780601f1061191557610100808354040283529160200191611940565b820191906000526020600020905b81548152906001019060200180831161192357829003601f168201915b50505050509150945094509450945094509091929394565b60608060006002541461196a57600080fd5b600360008473ffffffffffffffffffffffffffffffffffffffff1673ffffffffffffffffffffffffffffffffffffffff168152602001908152602001600020600101600360008573ffffffffffffffffffffffffffffffffffffffff1673ffffffffffffffffffffffffffffffffffffffff168152602001908152602001600020600201818054600181600116156101000203166002900480601f016020809104026020016040519081016040528092919081815260200182805460018160011615610100020316600290048015611a835780601f10611a5857610100808354040283529160200191611a83565b820191906000526020600020905b815481529060010190602001808311611a6657829003601f168201915b50505050509150808054600181600116156101000203166002900480601f016020809104026020016040519081016040528092919081815260200182805460018160011615610100020316600290048015611b1f5780601f10611af457610100808354040283529160200191611b1f565b820191906000526020600020905b815481529060010190602001808311611b0257829003601f168201915b5050505050905091509150915091565b600060025414611b3e57600080fd5b60056001015481118015611b5757506005600201548111155b611b6057600080fd5b6000600360003373ffffffffffffffffffffffffffffffffffffffff1673ffffffffffffffffffffffffffffffffffffffff168152602001908152602001600020905060405180602001604052806000815250816001019080519060200190611bca92919061214f565b5060405180602001604052806000815250816002019080519060200190611bf292919061214f565b50600360003373ffffffffffffffffffffffffffffffffffffffff1673ffffffffffffffffffffffffffffffffffffffff168152602001908152602001600020600080820160006101000a81549073ffffffffffffffffffffffffffffffffffffffff0219169055600182016000611c6a9190612272565b600282016000611c7a9190612272565b505060005b600480549050811015611e735760048181548110611c9957fe5b906000526020600020906003020160000160009054906101000a900473ffffffffffffffffffffffffffffffffffffffff1673ffffffffffffffffffffffffffffffffffffffff163373ffffffffffffffffffffffffffffffffffffffff161415611e6657600460016004805490500381548110611d1357fe5b906000526020600020906003020160048281548110611d2e57fe5b90600052602060002090600302016000820160009054906101000a900473ffffffffffffffffffffffffffffffffffffffff168160000160006101000a81548173ffffffffffffffffffffffffffffffffffffffff021916908373ffffffffffffffffffffffffffffffffffffffff16021790555060018201816001019080546001816001161561010002031660029004611dca9291906121dd565b5060028201816002019080546001816001161561010002031660029004611df29291906121dd565b509050506004805480611e0157fe5b6001900381819060005260206000209060030201600080820160006101000a81549073ffffffffffffffffffffffffffffffffffffffff0219169055600182016000611e4d9190612272565b600282016000611e5d9190612272565b50509055611e73565b8080600101915050611c7f565b50600160008154809291906001900391905055505050565b60008054906101000a900473ffffffffffffffffffffffffffffffffffffffff1673ffffffffffffffffffffffffffffffffffffffff163373ffffffffffffffffffffffffffffffffffffffff1614611ee357600080fd5b600060025414611ef257600080fd5b60006005905085816000019080519060200190611f1092919061214f565b5084816001018190555083816002018190555082816003019080519060200190611f3b92919061214f565b5081816005019080519060200190611f5492919061214f565b50505050505050565b6005806000018054600181600116156101000203166002900480601f016020809104026020016040519081016040528092919081815260200182805460018160011615610100020316600290048015611ff75780601f10611fcc57610100808354040283529160200191611ff7565b820191906000526020600020905b815481529060010190602001808311611fda57829003601f168201915b505050505090806001015490806002015490806003018054600181600116156101000203166002900480601f0160208091040260200160405190810160405280929190818152602001828054600181600116156101000203166002900480156120a15780601f10612076576101008083540402835291602001916120a1565b820191906000526020600020905b81548152906001019060200180831161208457829003601f168201915b505050505090806004015490806005018054600181600116156101000203166002900480601f0160208091040260200160405190810160405280929190818152602001828054600181600116156101000203166002900480156121455780601f1061211a57610100808354040283529160200191612145565b820191906000526020600020905b81548152906001019060200180831161212857829003601f168201915b5050505050905086565b828054600181600116156101000203166002900490600052602060002090601f01602090048101928261218557600085556121cc565b82601f1061219e57805160ff19168380011785556121cc565b828001600101855582156121cc579182015b828111156121cb5782518255916020019190600101906121b0565b5b5090506121d991906122ba565b5090565b828054600181600116156101000203166002900490600052602060002090601f0160209004810192826122135760008555612261565b82601f106122245780548555612261565b8280016001018555821561226157600052602060002091601f016020900482015b82811115612260578254825591600101919060010190612245565b5b50905061226e91906122ba565b5090565b50805460018160011615610100020316600290046000825580601f1061229857506122b7565b601f0160209004906000526020600020908101906122b691906122ba565b5b50565b5b808211156122d35760008160009055506001016122bb565b509056fea2646970667358221220ac7fdfec1dc8f72eebac3f0ccd4b4107b73f00ff1abd56f0b45fbb57226c4fc064736f6c63430007040033",
  "immutableReferences": {},
  "source": "pragma solidity ^0.7.4;\r\n//\"SPDX-License-Identifier: UNLICENSED\"\r\n\r\ncontract Vote{\r\n    //admin address\r\n    address public manager;\r\n    uint public candidatesCount;\r\n\r\n    struct user{\r\n        string name;\r\n        string email;\r\n        string password;\r\n        address userAddress;\r\n        address[] running;\r\n        address[] createdElection;\r\n        address[] createdPetition;\r\n        string userType;\r\n    }\r\n\r\n    struct candidate {\r\n        address candidateAddr;\r\n        string name;\r\n        string description;\r\n    }\r\n\r\n    struct election {\r\n        string title;\r\n        uint startDate;\r\n        uint endDate;\r\n        string description;\r\n        //think about mapping?\r\n        uint numVotes;\r\n        string typeOfElection;\r\n        mapping(address => bool) voters; //see if a voter has voted\r\n    }\r\n    struct petition{\r\n        string title;\r\n        uint startDate;\r\n        uint endDate;\r\n        string description;\r\n        uint numSigned;\r\n        mapping(address=>bool) signed; //see if a user has signed\r\n    }\r\n    uint typeOfVote; //0 for election and 1 for petition\r\n    // mapping(uint => election) public elections;\r\n    mapping(address => candidate) public candidates; //number of current votes for each candidate\r\n    candidate[] public candidateArray;\r\n    election public currentElection;\r\n    petition public currentPetition;\r\n\r\n    constructor (address managerOfVote, uint typeOf){   //how does one become an admin?\r\n        // constructor\r\n        manager = managerOfVote;\r\n        typeOfVote = (0 == typeOf) ? 0 : 1;\r\n    }\r\n\r\n    function editElection (string memory title, uint256 startDate, uint256 endDate, string memory description, string memory typeOfElection)\r\n    public restricted typeElection {\r\n        election storage e = currentElection;\r\n        e.title = title;\r\n        e.startDate = startDate;\r\n        e.endDate = endDate;\r\n        e.description = description;\r\n        e.typeOfElection = typeOfElection;\r\n    }\r\n\r\n    function editPetition (string memory title, uint256 startDate, uint256 endDate, string memory description)\r\n    public restricted typePetition {\r\n        petition storage p = currentPetition;\r\n        p.title = title;\r\n        p.startDate = startDate;\r\n        p.endDate = endDate;\r\n        p.description = description;\r\n    }\r\n\r\n    //enter as a candidate\r\n    function enterElection(string memory name, string memory description, uint256 current_date)\r\n    public typeElection {\r\n        //Check if the registration is before the required deadline\r\n        require(current_date > currentElection.startDate && current_date < currentElection.endDate);\r\n        //enter candidate\r\n        candidate storage currentCandidate = candidates[msg.sender];\r\n        currentCandidate.name = name;\r\n        currentCandidate.description = description;\r\n        currentCandidate.candidateAddr= msg.sender;\r\n        candidateArray.push(currentCandidate);\r\n        candidatesCount++;\r\n        //candidateAddrs.push(msg.sender);\r\n    }\r\n\r\n    //leave the election\r\n    function leaveElection(uint256 current_date)\r\n    public typeElection {\r\n        //Check if the registration is before the required deadline\r\n        require(current_date > currentElection.startDate && current_date <= currentElection.endDate);\r\n        //remove candidate\r\n        candidate storage currentCandidate = candidates[msg.sender];\r\n        currentCandidate.name = \"\";\r\n        currentCandidate.description = \"\";\r\n        //currentCandidate.candidateAddr= ;\r\n        //remove from array\r\n        delete candidates[msg.sender];\r\n        for (uint i = 0; i<candidateArray.length; i++){\r\n            if(msg.sender==candidateArray[i].candidateAddr){\r\n                candidateArray[i]=candidateArray[candidateArray.length-1];\r\n                candidateArray.pop();\r\n                break;\r\n            }\r\n        }\r\n        candidatesCount--;\r\n    }\r\n\r\n    //GETTERS\r\n\r\n    //get election\r\n    function get_election() public view typeElection returns (string memory,uint,uint,string memory,uint, string memory) {\r\n        return (currentElection.title, currentElection.startDate, currentElection.endDate, currentElection.description, currentElection.numVotes, currentElection.typeOfElection);\r\n    }\r\n    //get petition\r\n    function get_petition() public view typePetition returns (string memory,uint,uint,string memory,uint){\r\n        return (currentPetition.title, currentPetition.startDate, currentPetition.endDate, currentPetition.description, currentPetition.numSigned);\r\n    }\r\n    function get_candidates(address candaddr) public view typeElection returns (string memory, string memory) {\r\n        return(candidates[candaddr].name, candidates[candaddr].description);\r\n    }\r\n    modifier restricted() {\r\n        require(msg.sender == manager);\r\n        _;\r\n    }\r\n    modifier typeElection() {\r\n        require(typeOfVote == 0);\r\n        _;\r\n    }\r\n    modifier typePetition() {\r\n        require(typeOfVote == 1);\r\n        _;\r\n    }\r\n\r\n}\r\n",
  "sourcePath": "C:\\Users\\foubroker\\PROJECT_VOTE\\voting-at-mcgill\\contracts\\Vote.sol",
  "compiler": {
    "name": "solc",
    "version": "0.7.4+commit.3f05b770.Emscripten.clang"
  },
  "schemaVersion": "3.3.3",
  "updatedAt": "2021-02-26T21:16:18.079Z",
  "devdoc": {
    "kind": "dev",
    "methods": {},
    "version": 1
  },
  "userdoc": {
    "kind": "user",
    "methods": {},
    "version": 1
  }
}