{
  "contractName": "Vote",
  "abi": [
    {
      "inputs": [
        {
          "internalType": "address",
          "name": "managerOfVote",
          "type": "address"
        },
        {
          "internalType": "uint256",
          "name": "typeOf",
          "type": "uint256"
        }
      ],
      "stateMutability": "nonpayable",
      "type": "constructor"
    },
    {
      "inputs": [
        {
          "internalType": "address",
          "name": "",
          "type": "address"
        }
      ],
      "name": "candidates",
      "outputs": [
        {
          "internalType": "address",
          "name": "candidateAddr",
          "type": "address"
        },
        {
          "internalType": "uint256",
          "name": "numVotes",
          "type": "uint256"
        },
        {
          "internalType": "string",
          "name": "name",
          "type": "string"
        },
        {
          "internalType": "string",
          "name": "description",
          "type": "string"
        }
      ],
      "stateMutability": "view",
      "type": "function"
    },
    {
      "inputs": [
        {
          "internalType": "uint256",
          "name": "",
          "type": "uint256"
        }
      ],
      "name": "candidatesAddresses",
      "outputs": [
        {
          "internalType": "address",
          "name": "",
          "type": "address"
        }
      ],
      "stateMutability": "view",
      "type": "function"
    },
    {
      "inputs": [],
      "name": "candidatesCount",
      "outputs": [
        {
          "internalType": "uint256",
          "name": "",
          "type": "uint256"
        }
      ],
      "stateMutability": "view",
      "type": "function"
    },
    {
      "inputs": [],
      "name": "manager",
      "outputs": [
        {
          "internalType": "address",
          "name": "",
          "type": "address"
        }
      ],
      "stateMutability": "view",
      "type": "function"
    },
    {
      "inputs": [],
      "name": "typeOfElection",
      "outputs": [
        {
          "internalType": "enum Vote.electionType",
          "name": "",
          "type": "uint8"
        }
      ],
      "stateMutability": "view",
      "type": "function"
    },
    {
      "inputs": [],
      "name": "voteState",
      "outputs": [
        {
          "internalType": "enum Vote.voteStatus",
          "name": "",
          "type": "uint8"
        }
      ],
      "stateMutability": "view",
      "type": "function"
    },
    {
      "inputs": [],
      "name": "voteType",
      "outputs": [
        {
          "internalType": "enum Vote.typeOfVote",
          "name": "",
          "type": "uint8"
        }
      ],
      "stateMutability": "view",
      "type": "function"
    },
    {
      "inputs": [
        {
          "internalType": "string",
          "name": "aTitle",
          "type": "string"
        },
        {
          "internalType": "uint256",
          "name": "aStartDate",
          "type": "uint256"
        },
        {
          "internalType": "uint256",
          "name": "aCurrentDate",
          "type": "uint256"
        },
        {
          "internalType": "uint256",
          "name": "aEndDate",
          "type": "uint256"
        },
        {
          "internalType": "string",
          "name": "aDescription",
          "type": "string"
        },
        {
          "internalType": "uint256",
          "name": "aTypeOfElection",
          "type": "uint256"
        },
        {
          "internalType": "uint256[]",
          "name": "aGroupIDs",
          "type": "uint256[]"
        }
      ],
      "name": "editVote",
      "outputs": [],
      "stateMutability": "nonpayable",
      "type": "function"
    },
    {
      "inputs": [
        {
          "internalType": "address",
          "name": "aCandidateAddress",
          "type": "address"
        }
      ],
      "name": "voteFor",
      "outputs": [],
      "stateMutability": "nonpayable",
      "type": "function"
    },
    {
      "inputs": [],
      "name": "signThis",
      "outputs": [],
      "stateMutability": "nonpayable",
      "type": "function"
    },
    {
      "inputs": [
        {
          "internalType": "string",
          "name": "aName",
          "type": "string"
        },
        {
          "internalType": "string",
          "name": "aDescription",
          "type": "string"
        },
        {
          "internalType": "uint256",
          "name": "aCurrentDate",
          "type": "uint256"
        }
      ],
      "name": "enterElection",
      "outputs": [],
      "stateMutability": "nonpayable",
      "type": "function"
    },
    {
      "inputs": [],
      "name": "leaveElection",
      "outputs": [],
      "stateMutability": "nonpayable",
      "type": "function"
    },
    {
      "inputs": [],
      "name": "getElection",
      "outputs": [
        {
          "internalType": "address",
          "name": "aManager",
          "type": "address"
        },
        {
          "internalType": "uint256",
          "name": "aVoteType",
          "type": "uint256"
        },
        {
          "internalType": "uint256",
          "name": "aVoteStatus",
          "type": "uint256"
        },
        {
          "internalType": "string",
          "name": "aTitle",
          "type": "string"
        },
        {
          "internalType": "uint256",
          "name": "aStartDate",
          "type": "uint256"
        },
        {
          "internalType": "uint256",
          "name": "aEndDate",
          "type": "uint256"
        },
        {
          "internalType": "string",
          "name": "aDescription",
          "type": "string"
        },
        {
          "internalType": "uint256",
          "name": "aNumVotes",
          "type": "uint256"
        },
        {
          "internalType": "address",
          "name": "aVoteAddress",
          "type": "address"
        },
        {
          "internalType": "uint256",
          "name": "aCandidateCount",
          "type": "uint256"
        },
        {
          "internalType": "uint256",
          "name": "aTypeOfElection",
          "type": "uint256"
        },
        {
          "internalType": "uint256[]",
          "name": "aGroupIDs",
          "type": "uint256[]"
        }
      ],
      "stateMutability": "view",
      "type": "function"
    },
    {
      "inputs": [],
      "name": "getPetition",
      "outputs": [
        {
          "internalType": "address",
          "name": "aManager",
          "type": "address"
        },
        {
          "internalType": "uint256",
          "name": "aVoteType",
          "type": "uint256"
        },
        {
          "internalType": "uint256",
          "name": "aVoteStatus",
          "type": "uint256"
        },
        {
          "internalType": "string",
          "name": "aTitle",
          "type": "string"
        },
        {
          "internalType": "uint256",
          "name": "aStartDate",
          "type": "uint256"
        },
        {
          "internalType": "uint256",
          "name": "aEndDate",
          "type": "uint256"
        },
        {
          "internalType": "string",
          "name": "aDescription",
          "type": "string"
        },
        {
          "internalType": "uint256",
          "name": "aNumVotes",
          "type": "uint256"
        },
        {
          "internalType": "address",
          "name": "aVoteAddress",
          "type": "address"
        },
        {
          "internalType": "uint256[]",
          "name": "aGroupIDs",
          "type": "uint256[]"
        }
      ],
      "stateMutability": "view",
      "type": "function"
    },
    {
      "inputs": [],
      "name": "getCandidatesAddresses",
      "outputs": [
        {
          "internalType": "address[]",
          "name": "",
          "type": "address[]"
        }
      ],
      "stateMutability": "view",
      "type": "function"
    },
    {
      "inputs": [
        {
          "internalType": "address",
          "name": "candaddr",
          "type": "address"
        }
      ],
      "name": "get_candidate",
      "outputs": [
        {
          "internalType": "string",
          "name": "aName",
          "type": "string"
        },
        {
          "internalType": "string",
          "name": "aDescription",
          "type": "string"
        },
        {
          "internalType": "uint256",
          "name": "aNumVotes",
          "type": "uint256"
        }
      ],
      "stateMutability": "view",
      "type": "function"
    },
    {
      "inputs": [],
      "name": "get_Winner",
      "outputs": [
        {
          "internalType": "string",
          "name": "aName",
          "type": "string"
        },
        {
          "internalType": "string",
          "name": "aDescription",
          "type": "string"
        },
        {
          "internalType": "uint256",
          "name": "aNumVotes",
          "type": "uint256"
        }
      ],
      "stateMutability": "view",
      "type": "function"
    },
    {
      "inputs": [
        {
          "internalType": "address",
          "name": "candAddr",
          "type": "address"
        }
      ],
      "name": "getCandidateVoters",
      "outputs": [
        {
          "internalType": "address[]",
          "name": "",
          "type": "address[]"
        }
      ],
      "stateMutability": "view",
      "type": "function"
    },
    {
      "inputs": [
        {
          "internalType": "address",
          "name": "voterAddr",
          "type": "address"
        }
      ],
      "name": "getVoted",
      "outputs": [
        {
          "internalType": "bool",
          "name": "",
          "type": "bool"
        }
      ],
      "stateMutability": "view",
      "type": "function"
    },
    {
      "inputs": [],
      "name": "setElectionWinner",
      "outputs": [],
      "stateMutability": "nonpayable",
      "type": "function"
    },
    {
      "inputs": [],
      "name": "setTwoThirdsWinner",
      "outputs": [],
      "stateMutability": "nonpayable",
      "type": "function"
    },
    {
      "inputs": [],
      "name": "setMajorityWinner",
      "outputs": [],
      "stateMutability": "nonpayable",
      "type": "function"
    },
    {
      "inputs": [
        {
          "internalType": "uint8",
          "name": "state",
          "type": "uint8"
        }
      ],
      "name": "updateVoteStatus",
      "outputs": [],
      "stateMutability": "nonpayable",
      "type": "function"
    }
  ],
  "bytecode": "0x60806040526000600855600060095534801561001a57600080fd5b506040516200318a3803806200318a8339818101604052604081101561003f57600080fd5b810190808051906020019092919080519060200190929190505050816000806101000a81548173ffffffffffffffffffffffffffffffffffffffff021916908373ffffffffffffffffffffffffffffffffffffffff1602179055508060018111156100a657fe5b600260006101000a81548160ff021916908360018111156100c357fe5b021790555050506130b080620000da6000396000f3fe608060405234801561001057600080fd5b506004361061014d5760003560e01c80637d1a3d37116100c3578063c2d93cc31161007c578063c2d93cc314610a52578063da3550ee14610c60578063e315f35f14610ca4578063eb506cca14610cae578063eceed33914610cb8578063fc422a5314610e5a5761014d565b80637d1a3d3714610586578063869eae23146105af5780638ab66a901461070b5780639511544714610858578063953ef76d146108f1578063a3dc6cb814610a215761014d565b80634aead6c1116101155780634aead6c1146103035780635aa82fbe1461030d578063646e74881461036757806366597e5a146104fb5780637432e63a146105245780637c0656fd1461057c5761014d565b80630c90eb91146101525780632d35a8a2146102485780633f8cab7f14610266578063407bba4a146102c5578063481c6a75146102cf575b600080fd5b61015a610e83565b604051808060200180602001848152602001838103835286818151815260200191508051906020019080838360005b838110156101a4578082015181840152602081019050610189565b50505050905090810190601f1680156101d15780820380516001836020036101000a031916815260200191505b50838103825285818151815260200191508051906020019080838360005b8381101561020a5780820151818401526020810190506101ef565b50505050905090810190601f1680156102375780820380516001836020036101000a031916815260200191505b509550505050505060405180910390f35b61025061100c565b6040518082815260200191505060405180910390f35b61026e611012565b6040518080602001828103825283818151815260200191508051906020019060200280838360005b838110156102b1578082015181840152602081019050610296565b505050509050019250505060405180910390f35b6102cd6110d2565b005b6102d761131d565b604051808273ffffffffffffffffffffffffffffffffffffffff16815260200191505060405180910390f35b61030b611341565b005b61034f6004803603602081101561032357600080fd5b81019080803573ffffffffffffffffffffffffffffffffffffffff169060200190929190505050611410565b60405180821515815260200191505060405180910390f35b61036f611466565b604051808b73ffffffffffffffffffffffffffffffffffffffff1681526020018a815260200189815260200180602001888152602001878152602001806020018681526020018573ffffffffffffffffffffffffffffffffffffffff1681526020018060200184810384528b818151815260200191508051906020019080838360005b8381101561040d5780820151818401526020810190506103f2565b50505050905090810190601f16801561043a5780820380516001836020036101000a031916815260200191505b50848103835288818151815260200191508051906020019080838360005b83811015610473578082015181840152602081019050610458565b50505050905090810190601f1680156104a05780820380516001836020036101000a031916815260200191505b50848103825285818151815260200191508051906020019060200280838360005b838110156104dc5780820151818401526020810190506104c1565b505050509050019d505050505050505050505050505060405180910390f35b6105036116b9565b6040518082600381111561051357fe5b815260200191505060405180910390f35b6105506004803603602081101561053a57600080fd5b81019080803590602001909291905050506116cc565b604051808273ffffffffffffffffffffffffffffffffffffffff16815260200191505060405180910390f35b61058461170b565b005b61058e61180b565b6040518082600181111561059e57fe5b815260200191505060405180910390f35b610709600480360360608110156105c557600080fd5b81019080803590602001906401000000008111156105e257600080fd5b8201836020820111156105f457600080fd5b8035906020019184600183028401116401000000008311171561061657600080fd5b91908080601f016020809104026020016040519081016040528093929190818152602001838380828437600081840152601f19601f8201169050808301925050505050505091929192908035906020019064010000000081111561067957600080fd5b82018360208201111561068b57600080fd5b803590602001918460018302840111640100000000831117156106ad57600080fd5b91908080601f016020809104026020016040519081016040528093929190818152602001838380828437600081840152601f19601f8201169050808301925050505050505091929192908035906020019092919050505061181e565b005b61074d6004803603602081101561072157600080fd5b81019080803573ffffffffffffffffffffffffffffffffffffffff169060200190929190505050611991565b604051808573ffffffffffffffffffffffffffffffffffffffff1681526020018481526020018060200180602001838103835285818151815260200191508051906020019080838360005b838110156107b3578082015181840152602081019050610798565b50505050905090810190601f1680156107e05780820380516001836020036101000a031916815260200191505b50838103825284818151815260200191508051906020019080838360005b838110156108195780820151818401526020810190506107fe565b50505050905090810190601f1680156108465780820380516001836020036101000a031916815260200191505b50965050505050505060405180910390f35b61089a6004803603602081101561086e57600080fd5b81019080803573ffffffffffffffffffffffffffffffffffffffff169060200190929190505050611b11565b6040518080602001828103825283818151815260200191508051906020019060200280838360005b838110156108dd5780820151818401526020810190506108c2565b505050509050019250505060405180910390f35b6109336004803603602081101561090757600080fd5b81019080803573ffffffffffffffffffffffffffffffffffffffff169060200190929190505050611c13565b604051808060200180602001848152602001838103835286818151815260200191508051906020019080838360005b8381101561097d578082015181840152602081019050610962565b50505050905090810190601f1680156109aa5780820380516001836020036101000a031916815260200191505b50838103825285818151815260200191508051906020019080838360005b838110156109e35780820151818401526020810190506109c8565b50505050905090810190601f168015610a105780820380516001836020036101000a031916815260200191505b509550505050505060405180910390f35b610a5060048036036020811015610a3757600080fd5b81019080803560ff169060200190929190505050611e55565b005b610c5e600480360360e0811015610a6857600080fd5b8101908080359060200190640100000000811115610a8557600080fd5b820183602082011115610a9757600080fd5b80359060200191846001830284011164010000000083111715610ab957600080fd5b91908080601f016020809104026020016040519081016040528093929190818152602001838380828437600081840152601f19601f82011690508083019250505050505050919291929080359060200190929190803590602001909291908035906020019092919080359060200190640100000000811115610b3a57600080fd5b820183602082011115610b4c57600080fd5b80359060200191846001830284011164010000000083111715610b6e57600080fd5b91908080601f016020809104026020016040519081016040528093929190818152602001838380828437600081840152601f19601f8201169050808301925050505050505091929192908035906020019092919080359060200190640100000000811115610bdb57600080fd5b820183602082011115610bed57600080fd5b80359060200191846020830284011164010000000083111715610c0f57600080fd5b919080806020026020016040519081016040528093929190818152602001838360200280828437600081840152601f19601f820116905080830192505050505050509192919290505050611f30565b005b610ca260048036036020811015610c7657600080fd5b81019080803573ffffffffffffffffffffffffffffffffffffffff16906020019092919050505061202b565b005b610cac6122b9565b005b610cb6612819565b005b610cc0612ad5565b604051808d73ffffffffffffffffffffffffffffffffffffffff1681526020018c81526020018b8152602001806020018a8152602001898152602001806020018881526020018773ffffffffffffffffffffffffffffffffffffffff1681526020018681526020018581526020018060200184810384528d818151815260200191508051906020019080838360005b83811015610d6a578082015181840152602081019050610d4f565b50505050905090810190601f168015610d975780820380516001836020036101000a031916815260200191505b5084810383528a818151815260200191508051906020019080838360005b83811015610dd0578082015181840152602081019050610db5565b50505050905090810190601f168015610dfd5780820380516001836020036101000a031916815260200191505b50848103825285818151815260200191508051906020019060200280838360005b83811015610e39578082015181840152602081019050610e1e565b505050509050019f5050505050505050505050505050505060405180910390f35b610e62612d50565b60405180826001811115610e7257fe5b815260200191505060405180910390f35b6060806000806001811115610e9457fe5b600260009054906101000a900460ff166001811115610eaf57fe5b14610eb957600080fd5b600b600301600b600401600b60010154828054600181600116156101000203166002900480601f016020809104026020016040519081016040528092919081815260200182805460018160011615610100020316600290048015610f5e5780601f10610f3357610100808354040283529160200191610f5e565b820191906000526020600020905b815481529060010190602001808311610f4157829003601f168201915b50505050509250818054600181600116156101000203166002900480601f016020809104026020016040519081016040528092919081815260200182805460018160011615610100020316600290048015610ffa5780601f10610fcf57610100808354040283529160200191610ffa565b820191906000526020600020905b815481529060010190602001808311610fdd57829003601f168201915b50505050509150925092509250909192565b60095481565b60606000600181111561102157fe5b600260009054906101000a900460ff16600181111561103c57fe5b1461104657600080fd5b60118054806020026020016040519081016040528092919081815260200182805480156110c857602002820191906000526020600020905b8160009054906101000a900473ffffffffffffffffffffffffffffffffffffffff1673ffffffffffffffffffffffffffffffffffffffff168152602001906001019080831161107e575b5050505050905090565b600060018111156110df57fe5b600260009054906101000a900460ff1660018111156110fa57fe5b1461110457600080fd5b601060003373ffffffffffffffffffffffffffffffffffffffff1673ffffffffffffffffffffffffffffffffffffffff168152602001908152602001600020600080820160006101000a81549073ffffffffffffffffffffffffffffffffffffffff021916905560018201600090556002820160006111839190612d63565b6003820160006111939190612d84565b6004820160006111a39190612d84565b505060005b60118054905081101561130757601181815481106111c257fe5b9060005260206000200160009054906101000a900473ffffffffffffffffffffffffffffffffffffffff1673ffffffffffffffffffffffffffffffffffffffff163373ffffffffffffffffffffffffffffffffffffffff1614156112fa5760116001601180549050038154811061123557fe5b9060005260206000200160009054906101000a900473ffffffffffffffffffffffffffffffffffffffff166011828154811061126d57fe5b9060005260206000200160006101000a81548173ffffffffffffffffffffffffffffffffffffffff021916908373ffffffffffffffffffffffffffffffffffffffff16021790555060118054806112c057fe5b6001900381819060005260206000200160006101000a81549073ffffffffffffffffffffffffffffffffffffffff02191690559055611307565b80806001019150506111a8565b5060096000815480929190600190039190505550565b60008054906101000a900473ffffffffffffffffffffffffffffffffffffffff1681565b6000600181111561134e57fe5b600260009054906101000a900460ff16600181111561136957fe5b1461137357600080fd5b60018081111561137f57fe5b600a60009054906101000a900460ff16600181111561139a57fe5b14156113ad576113a8612819565b61140e565b600060018111156113ba57fe5b600a60009054906101000a900460ff1660018111156113d557fe5b14156113e8576113e36122b9565b61140d565b6003600260016101000a81548160ff0219169083600381111561140757fe5b02179055505b5b565b6000600360008373ffffffffffffffffffffffffffffffffffffffff1673ffffffffffffffffffffffffffffffffffffffff16815260200190815260200160002060009054906101000a900460ff169050919050565b600080600060606000806060600080606060018081111561148357fe5b600260009054906101000a900460ff16600181111561149e57fe5b146114a857600080fd5b60008054906101000a900473ffffffffffffffffffffffffffffffffffffffff16600260009054906101000a900460ff1660018111156114e457fe5b600260019054906101000a900460ff1660038111156114ff57fe5b60046005546006546007600854306001868054600181600116156101000203166002900480601f0160208091040260200160405190810160405280929190818152602001828054600181600116156101000203166002900480156115a45780601f10611579576101008083540402835291602001916115a4565b820191906000526020600020905b81548152906001019060200180831161158757829003601f168201915b50505050509650838054600181600116156101000203166002900480601f0160208091040260200160405190810160405280929190818152602001828054600181600116156101000203166002900480156116405780601f1061161557610100808354040283529160200191611640565b820191906000526020600020905b81548152906001019060200180831161162357829003601f168201915b505050505093508080548060200260200160405190810160405280929190818152602001828054801561169257602002820191906000526020600020905b81548152602001906001019080831161167e575b50505050509050995099509950995099509950995099509950995090919293949596979899565b600260019054906101000a900460ff1681565b601181815481106116dc57600080fd5b906000526020600020016000915054906101000a900473ffffffffffffffffffffffffffffffffffffffff1681565b60018081111561171757fe5b600260009054906101000a900460ff16600181111561173257fe5b1461173c57600080fd5b60001515600360003373ffffffffffffffffffffffffffffffffffffffff1673ffffffffffffffffffffffffffffffffffffffff16815260200190815260200160002060009054906101000a900460ff1615151415611804576001600360003373ffffffffffffffffffffffffffffffffffffffff1673ffffffffffffffffffffffffffffffffffffffff16815260200190815260200160002060006101000a81548160ff021916908315150217905550600860008154809291906001019190505550611809565b600080fd5b565b600260009054906101000a900460ff1681565b6000600181111561182b57fe5b600260009054906101000a900460ff16600181111561184657fe5b1461185057600080fd5b600554811061185e57600080fd5b6000601060003373ffffffffffffffffffffffffffffffffffffffff1673ffffffffffffffffffffffffffffffffffffffff1681526020019081526020016000209050838160030190805190602001906118b9929190612dcc565b50828160040190805190602001906118d2929190612dcc565b50338160000160006101000a81548173ffffffffffffffffffffffffffffffffffffffff021916908373ffffffffffffffffffffffffffffffffffffffff1602179055506009600081548092919060010191905055506011339080600181540180825580915050600190039060005260206000200160009091909190916101000a81548173ffffffffffffffffffffffffffffffffffffffff021916908373ffffffffffffffffffffffffffffffffffffffff16021790555050505050565b60106020528060005260406000206000915090508060000160009054906101000a900473ffffffffffffffffffffffffffffffffffffffff1690806001015490806003018054600181600116156101000203166002900480601f016020809104026020016040519081016040528092919081815260200182805460018160011615610100020316600290048015611a695780601f10611a3e57610100808354040283529160200191611a69565b820191906000526020600020905b815481529060010190602001808311611a4c57829003601f168201915b505050505090806004018054600181600116156101000203166002900480601f016020809104026020016040519081016040528092919081815260200182805460018160011615610100020316600290048015611b075780601f10611adc57610100808354040283529160200191611b07565b820191906000526020600020905b815481529060010190602001808311611aea57829003601f168201915b5050505050905084565b606060006001811115611b2057fe5b600260009054906101000a900460ff166001811115611b3b57fe5b14611b4557600080fd5b601060008373ffffffffffffffffffffffffffffffffffffffff1673ffffffffffffffffffffffffffffffffffffffff168152602001908152602001600020600201805480602002602001604051908101604052809291908181526020018280548015611c0757602002820191906000526020600020905b8160009054906101000a900473ffffffffffffffffffffffffffffffffffffffff1673ffffffffffffffffffffffffffffffffffffffff1681526020019060010190808311611bbd575b50505050509050919050565b6060806000806001811115611c2457fe5b600260009054906101000a900460ff166001811115611c3f57fe5b14611c4957600080fd5b601060008573ffffffffffffffffffffffffffffffffffffffff1673ffffffffffffffffffffffffffffffffffffffff168152602001908152602001600020600301601060008673ffffffffffffffffffffffffffffffffffffffff1673ffffffffffffffffffffffffffffffffffffffff168152602001908152602001600020600401601060008773ffffffffffffffffffffffffffffffffffffffff1673ffffffffffffffffffffffffffffffffffffffff16815260200190815260200160002060010154828054600181600116156101000203166002900480601f016020809104026020016040519081016040528092919081815260200182805460018160011615610100020316600290048015611da55780601f10611d7a57610100808354040283529160200191611da5565b820191906000526020600020905b815481529060010190602001808311611d8857829003601f168201915b50505050509250818054600181600116156101000203166002900480601f016020809104026020016040519081016040528092919081815260200182805460018160011615610100020316600290048015611e415780601f10611e1657610100808354040283529160200191611e41565b820191906000526020600020905b815481529060010190602001808311611e2457829003601f168201915b505050505091509250925092509193909250565b60008160ff161415611e8a576000600260016101000a81548160ff02191690836003811115611e8057fe5b0217905550611f2d565b60018160ff161415611ebf576001600260016101000a81548160ff02191690836003811115611eb557fe5b0217905550611f2c565b60028160ff161415611f2b5760006001811115611ed857fe5b600260009054906101000a900460ff166001811115611ef357fe5b1415611f0657611f01611341565b611f2a565b60028060016101000a81548160ff02191690836003811115611f2457fe5b02179055505b5b5b5b50565b8660049080519060200190611f46929190612dcc565b5085600581905550836006819055508260079080519060200190611f6b929190612dcc565b50858510611f8957838510611f81576002611f84565b60015b611f8c565b60005b600260016101000a81548160ff02191690836003811115611fa957fe5b021790555060006001811115611fbb57fe5b600260009054906101000a900460ff166001811115611fd657fe5b141561200b57816001811115611fe857fe5b600a60006101000a81548160ff0219169083600181111561200557fe5b02179055505b8060019080519060200190612021929190612e5a565b5050505050505050565b6000600181111561203857fe5b600260009054906101000a900460ff16600181111561205357fe5b1461205d57600080fd5b60001515600360003373ffffffffffffffffffffffffffffffffffffffff1673ffffffffffffffffffffffffffffffffffffffff16815260200190815260200160002060009054906101000a900460ff16151514156122b157600073ffffffffffffffffffffffffffffffffffffffff16601060008373ffffffffffffffffffffffffffffffffffffffff1673ffffffffffffffffffffffffffffffffffffffff16815260200190815260200160002060000160009054906101000a900473ffffffffffffffffffffffffffffffffffffffff1673ffffffffffffffffffffffffffffffffffffffff16146122b0576001600360003373ffffffffffffffffffffffffffffffffffffffff1673ffffffffffffffffffffffffffffffffffffffff16815260200190815260200160002060006101000a81548160ff021916908315150217905550600860008154809291906001019190505550601060008273ffffffffffffffffffffffffffffffffffffffff1673ffffffffffffffffffffffffffffffffffffffff16815260200190815260200160002060010160008154809291906001019190505550601060008273ffffffffffffffffffffffffffffffffffffffff1673ffffffffffffffffffffffffffffffffffffffff168152602001908152602001600020600201339080600181540180825580915050600190039060005260206000200160009091909190916101000a81548173ffffffffffffffffffffffffffffffffffffffff021916908373ffffffffffffffffffffffffffffffffffffffff1602179055506122b6565b5b600080fd5b50565b600060018111156122c657fe5b600260009054906101000a900460ff1660018111156122e157fe5b146122eb57600080fd5b600060018111156122f857fe5b600a60009054906101000a900460ff16600181111561231357fe5b1461231d57600080fd5b6000612327612ea7565b6000805b6011805490508110156127125783601060006011848154811061234a57fe5b9060005260206000200160009054906101000a900473ffffffffffffffffffffffffffffffffffffffff1673ffffffffffffffffffffffffffffffffffffffff1673ffffffffffffffffffffffffffffffffffffffff16815260200190815260200160002060010154111561267e576000915060106000601183815481106123ce57fe5b9060005260206000200160009054906101000a900473ffffffffffffffffffffffffffffffffffffffff1673ffffffffffffffffffffffffffffffffffffffff1673ffffffffffffffffffffffffffffffffffffffff1681526020019081526020016000206040518060a00160405290816000820160009054906101000a900473ffffffffffffffffffffffffffffffffffffffff1673ffffffffffffffffffffffffffffffffffffffff1673ffffffffffffffffffffffffffffffffffffffff168152602001600182015481526020016002820180548060200260200160405190810160405280929190818152602001828054801561252357602002820191906000526020600020905b8160009054906101000a900473ffffffffffffffffffffffffffffffffffffffff1673ffffffffffffffffffffffffffffffffffffffff16815260200190600101908083116124d9575b50505050508152602001600382018054600181600116156101000203166002900480601f0160208091040260200160405190810160405280929190818152602001828054600181600116156101000203166002900480156125c55780601f1061259a576101008083540402835291602001916125c5565b820191906000526020600020905b8154815290600101906020018083116125a857829003601f168201915b50505050508152602001600482018054600181600116156101000203166002900480601f0160208091040260200160405190810160405280929190818152602001828054600181600116156101000203166002900480156126675780601f1061263c57610100808354040283529160200191612667565b820191906000526020600020905b81548152906001019060200180831161264a57829003601f168201915b505050505081525050925082602001519350612705565b83601060006011848154811061269057fe5b9060005260206000200160009054906101000a900473ffffffffffffffffffffffffffffffffffffffff1673ffffffffffffffffffffffffffffffffffffffff1673ffffffffffffffffffffffffffffffffffffffff16815260200190815260200160002060010154141561270457600191505b5b808060010191505061232b565b508015612742576003600260016101000a81548160ff0219169083600381111561273857fe5b0217905550612814565b81600b60008201518160000160006101000a81548173ffffffffffffffffffffffffffffffffffffffff021916908373ffffffffffffffffffffffffffffffffffffffff1602179055506020820151816001015560408201518160020190805190602001906127b2929190612eec565b5060608201518160030190805190602001906127cf929190612dcc565b5060808201518160040190805190602001906127ec929190612dcc565b5090505060028060016101000a81548160ff0219169083600381111561280e57fe5b02179055505b505050565b6000600181111561282657fe5b600260009054906101000a900460ff16600181111561284157fe5b1461284b57600080fd5b60018081111561285757fe5b600a60009054906101000a900460ff16600181111561287257fe5b1461287c57600080fd5b6000600854141561288c57600080fd5b60005b601180549050811015612aad5760085460020260106000601184815481106128b357fe5b9060005260206000200160009054906101000a900473ffffffffffffffffffffffffffffffffffffffff1673ffffffffffffffffffffffffffffffffffffffff1673ffffffffffffffffffffffffffffffffffffffff1681526020019081526020016000206001015460030210612aa057601060006011838154811061293557fe5b9060005260206000200160009054906101000a900473ffffffffffffffffffffffffffffffffffffffff1673ffffffffffffffffffffffffffffffffffffffff1673ffffffffffffffffffffffffffffffffffffffff168152602001908152602001600020600b6000820160009054906101000a900473ffffffffffffffffffffffffffffffffffffffff168160000160006101000a81548173ffffffffffffffffffffffffffffffffffffffff021916908373ffffffffffffffffffffffffffffffffffffffff160217905550600182015481600101556002820181600201908054612a23929190612f76565b5060038201816003019080546001816001161561010002031660029004612a4b929190612fc8565b5060048201816004019080546001816001161561010002031660029004612a73929190612fc8565b5090505060028060016101000a81548160ff02191690836003811115612a9557fe5b021790555050612ad3565b808060010191505061288f565b506003600260016101000a81548160ff02191690836003811115612acd57fe5b02179055505b565b600080600060606000806060600080600080606060006001811115612af657fe5b600260009054906101000a900460ff166001811115612b1157fe5b14612b1b57600080fd5b60008054906101000a900473ffffffffffffffffffffffffffffffffffffffff16600260009054906101000a900460ff166001811115612b5757fe5b600260019054906101000a900460ff166003811115612b7257fe5b6004600554600654600760085430600954600a60009054906101000a900460ff166001811115612b9e57fe5b6001888054600181600116156101000203166002900480601f016020809104026020016040519081016040528092919081815260200182805460018160011615610100020316600290048015612c355780601f10612c0a57610100808354040283529160200191612c35565b820191906000526020600020905b815481529060010190602001808311612c1857829003601f168201915b50505050509850858054600181600116156101000203166002900480601f016020809104026020016040519081016040528092919081815260200182805460018160011615610100020316600290048015612cd15780601f10612ca657610100808354040283529160200191612cd1565b820191906000526020600020905b815481529060010190602001808311612cb457829003601f168201915b5050505050955080805480602002602001604051908101604052809291908181526020018280548015612d2357602002820191906000526020600020905b815481526020019060010190808311612d0f575b505050505090509b509b509b509b509b509b509b509b509b509b509b509b50909192939495969798999a9b565b600a60009054906101000a900460ff1681565b5080546000825590600052602060002090810190612d81919061305d565b50565b50805460018160011615610100020316600290046000825580601f10612daa5750612dc9565b601f016020900490600052602060002090810190612dc8919061305d565b5b50565b828054600181600116156101000203166002900490600052602060002090601f016020900481019282612e025760008555612e49565b82601f10612e1b57805160ff1916838001178555612e49565b82800160010185558215612e49579182015b82811115612e48578251825591602001919060010190612e2d565b5b509050612e56919061305d565b5090565b828054828255906000526020600020908101928215612e96579160200282015b82811115612e95578251825591602001919060010190612e7a565b5b509050612ea3919061305d565b5090565b6040518060a00160405280600073ffffffffffffffffffffffffffffffffffffffff168152602001600081526020016060815260200160608152602001606081525090565b828054828255906000526020600020908101928215612f65579160200282015b82811115612f645782518260006101000a81548173ffffffffffffffffffffffffffffffffffffffff021916908373ffffffffffffffffffffffffffffffffffffffff16021790555091602001919060010190612f0c565b5b509050612f72919061305d565b5090565b828054828255906000526020600020908101928215612fb75760005260206000209182015b82811115612fb6578254825591600101919060010190612f9b565b5b509050612fc4919061305d565b5090565b828054600181600116156101000203166002900490600052602060002090601f016020900481019282612ffe576000855561304c565b82601f1061300f578054855561304c565b8280016001018555821561304c57600052602060002091601f016020900482015b8281111561304b578254825591600101919060010190613030565b5b509050613059919061305d565b5090565b5b8082111561307657600081600090555060010161305e565b509056fea264697066735822122080da42f5dadf67b423ed788495705b3d81dd22a6cdd1e3380b100110051e751664736f6c63430007040033",
  "immutableReferences": {},
  "source": "pragma solidity ^0.7.4;\r\n//\"SPDX-License-Identifier: UNLICENSED\"\r\n\r\ncontract Vote{\r\n    //admin address\r\n\r\n    address public manager;\r\n\r\n    uint[] groupIDs;\r\n    \r\n    enum typeOfVote {\r\n        election,\r\n        petition\r\n    }\r\n\r\n    typeOfVote public voteType;  //0 for election and 1 for petition\r\n\r\n    enum voteStatus {\r\n        before,\r\n        onGoing,\r\n        archived,\r\n        inconclusive\r\n    }\r\n    voteStatus public voteState;\r\n\r\n    mapping(address=>bool) voted; //see if a user has signed\r\n    string title;\r\n    uint startDate;\r\n    uint endDate;\r\n    string description;\r\n    uint numVotes = 0;\r\n\r\n    //election only\r\n    uint public candidatesCount = 0;\r\n    enum electionType {\r\n        majority,\r\n        twoThirds\r\n    }\r\n    electionType public typeOfElection;\r\n    candidate winner;\r\n    struct candidate {\r\n        address candidateAddr;\r\n        uint numVotes;\r\n        address[] voters;\r\n        string name;\r\n        string description;\r\n    }\r\n\r\n\r\n    mapping(address => candidate) public candidates; //maps a candidate's address to the candidate\r\n    address[] public candidatesAddresses;//should replace candidateArray\r\n\r\n\r\n    constructor (address managerOfVote, uint typeOf){   //how does one become an admin?\r\n        manager = managerOfVote;\r\n        voteType = typeOfVote(typeOf);\r\n    }\r\n\r\n    //Setters\r\n    function editVote (string memory aTitle, uint256 aStartDate, uint256 aCurrentDate, uint256 aEndDate, string memory aDescription, uint aTypeOfElection, uint[] memory aGroupIDs)\r\n    public {\r\n        title = aTitle;\r\n        startDate = aStartDate;\r\n        endDate = aEndDate;\r\n        description = aDescription;\r\n        voteState  = aCurrentDate < aStartDate ? voteStatus.before :  (aCurrentDate < aEndDate ? voteStatus.onGoing : voteStatus.archived);\r\n        if(voteType == typeOfVote.election) {\r\n            typeOfElection = electionType(aTypeOfElection);\r\n        }\r\n        groupIDs = aGroupIDs;\r\n    }\r\n\r\n    //vote for a candidate\r\n    function voteFor(address aCandidateAddress) public typeElection {\r\n        //needs to be between start end end\r\n        if(voted[msg.sender] == false){\r\n            if(candidates[aCandidateAddress].candidateAddr != address(0)){\r\n                voted[msg.sender]  = true;\r\n                numVotes++;\r\n                (candidates[aCandidateAddress]).numVotes++;\r\n                (candidates[aCandidateAddress]).voters.push(msg.sender);\r\n                return;\r\n            }\r\n        }\r\n        revert();\r\n    }\r\n\r\n    function signThis() public typePetition{\r\n        //needs to be between start end end\r\n        if(voted[msg.sender] == false){\r\n                voted[msg.sender]  = true;\r\n                numVotes++;\r\n                return;}\r\n        revert();}\r\n    \r\n\r\n    //enter as a candidate\r\n    function enterElection(string memory aName, string memory aDescription,uint256 aCurrentDate)// should check if user with current address already exists\r\n    public typeElection {\r\n        //Check if the registration is before the required deadline\r\n        require(aCurrentDate < startDate);\r\n        //enter candidate\r\n        candidate storage currentCandidate = candidates[msg.sender];\r\n        currentCandidate.name = aName;\r\n        currentCandidate.description = aDescription;\r\n        currentCandidate.candidateAddr= msg.sender;\r\n        currentCandidate.voters;\r\n        candidatesCount++;\r\n        candidatesAddresses.push(msg.sender);\r\n    }\r\n\r\n    //leave the election\r\n    function leaveElection()//uint256 current_date)\r\n    public typeElection {\r\n        //Check if the registration is before the required deadline\r\n        //require(current_date < currentElection.startDate);\r\n        //remove candidate\r\n        //remove from array\r\n        delete candidates[msg.sender];\r\n        for (uint i = 0; i<candidatesAddresses.length; i++){\r\n            if(msg.sender==candidatesAddresses[i]){\r\n                candidatesAddresses[i]=candidatesAddresses[candidatesAddresses.length-1];\r\n                candidatesAddresses.pop();\r\n                break;\r\n            }\r\n        }\r\n        candidatesCount--;\r\n    }\r\n\r\n\r\n    //GETTERS\r\n\r\n    function getElection() public view typeElection returns(address aManager, uint aVoteType, uint aVoteStatus, string memory aTitle, uint aStartDate, uint aEndDate, string memory aDescription, uint aNumVotes, address aVoteAddress, uint aCandidateCount, uint256 aTypeOfElection, uint[] memory aGroupIDs) {\r\n        return(\r\n            manager,\r\n            uint(voteType),\r\n            uint(voteState),\r\n            title,\r\n            startDate,\r\n            endDate,\r\n            description,\r\n            numVotes,\r\n            address(this),\r\n            candidatesCount,\r\n            uint(typeOfElection),\r\n            groupIDs\r\n        );\r\n    }\r\n    function getPetition() public view typePetition returns(address aManager, uint aVoteType, uint aVoteStatus, string memory aTitle, uint aStartDate, uint aEndDate, string memory aDescription, uint aNumVotes, address aVoteAddress, uint[] memory aGroupIDs) {\r\n        return(\r\n            manager,\r\n            uint(voteType),\r\n            uint(voteState),\r\n            title,\r\n            startDate,\r\n            endDate,\r\n            description,\r\n            numVotes,\r\n            address(this),\r\n            groupIDs\r\n        );\r\n    }\r\n\r\n    function getCandidatesAddresses() public view typeElection returns (address[] memory) {\r\n        return candidatesAddresses;\r\n    }\r\n    function get_candidate(address candaddr) public view typeElection returns (string memory aName, string memory aDescription, uint aNumVotes) {\r\n        return(candidates[candaddr].name, candidates[candaddr].description, candidates[candaddr].numVotes);\r\n    }\r\n    function get_Winner() public view typeElection returns (string memory aName, string memory aDescription, uint aNumVotes) { //should be afterElection\r\n        return(winner.name, winner.description, winner.numVotes);\r\n    }\r\n    function getCandidateVoters(address candAddr) public view typeElection returns (address[] memory) {\r\n        return((candidates[candAddr]).voters);\r\n    }\r\n    function getVoted(address voterAddr) public view returns (bool) {\r\n        return voted[voterAddr];\r\n    }\r\n\r\n    //ElectionWinner\r\n    function setElectionWinner() typeElection public {\r\n        if(typeOfElection == electionType.twoThirds) {\r\n            setTwoThirdsWinner();\r\n        }\r\n        else if (typeOfElection == electionType.majority) {\r\n            setMajorityWinner();\r\n        }\r\n        else{\r\n            voteState = voteStatus.inconclusive;\r\n        }\r\n    }\r\n\r\n    function setTwoThirdsWinner() public typeElection twoThirds {//see if a user has more than 2/3 of total votes\r\n        require(numVotes != 0);\r\n        for( uint i = 0; i < candidatesAddresses.length; i++) {\r\n            if((uint(3) * (candidates[candidatesAddresses[i]]).numVotes) >= uint(2) * numVotes) {// user/totalvotes <= 2/3\r\n                winner = candidates[candidatesAddresses[i]];\r\n                voteState = voteStatus.archived;\r\n                return;\r\n            }\r\n        }\r\n        voteState = voteStatus.inconclusive;\r\n    }\r\n\r\n    function setMajorityWinner() public typeElection majority {//find user with most votes\r\n        uint maxVoters = 0;\r\n        candidate memory currentWinner;\r\n        bool tie = false;\r\n        for( uint i = 0; i < candidatesAddresses.length; i++) {\r\n            if(candidates[candidatesAddresses[i]].numVotes > maxVoters) { // maxNumber of moves\r\n                tie = false;\r\n                currentWinner = candidates[candidatesAddresses[i]];\r\n                maxVoters = currentWinner.numVotes;\r\n            }\r\n            else if (candidates[candidatesAddresses[i]].numVotes == maxVoters) {\r\n                tie = true;\r\n            }\r\n        }\r\n        if(tie) {\r\n            voteState = voteStatus.inconclusive;\r\n        }\r\n        else {\r\n            winner = currentWinner;\r\n            voteState = voteStatus.archived;\r\n        }\r\n    }\r\n\r\n\r\n\r\n    //MISC.\r\n    function updateVoteStatus(uint8 state) public {\r\n        if (state == 0) {\r\n            voteState = voteStatus.before;\r\n        }\r\n        else if (state == 1) {\r\n            voteState = voteStatus.onGoing;\r\n        }\r\n        else if (state == 2) {\r\n            if(voteType == typeOfVote.election) {\r\n                setElectionWinner();\r\n            }\r\n            else {\r\n                voteState = voteStatus.archived; // if it is an archived petition\r\n            }\r\n        }\r\n    }\r\n    //modifiers\r\n    modifier restricted() {\r\n        require(msg.sender == manager);\r\n        _;\r\n    }\r\n    modifier typeElection() {\r\n        require(voteType == typeOfVote.election);\r\n        _;\r\n    }\r\n    modifier typePetition() {\r\n        require(voteType == typeOfVote.petition);\r\n        _;\r\n    }\r\n    modifier beforeElection() {\r\n        require(voteState == voteStatus.before);\r\n        _;\r\n    }\r\n    modifier duringElection() {\r\n        require(voteState == voteStatus.onGoing);\r\n        _;\r\n    }\r\n    modifier afterElection() {\r\n        require(voteState == voteStatus.archived);\r\n        _;\r\n    }\r\n    modifier twoThirds() {\r\n        require(typeOfElection == electionType.twoThirds);\r\n        _;\r\n    }\r\n    modifier majority() {\r\n        require(typeOfElection == electionType.majority);\r\n        _;\r\n    }\r\n}\r\n",
  "sourcePath": "C:\\Users\\foubroker\\Desktop\\voting-at-mcgill\\contracts\\Vote.sol",
  "compiler": {
    "name": "solc",
    "version": "0.7.4+commit.3f05b770.Emscripten.clang"
  },
  "schemaVersion": "3.3.3",
  "updatedAt": "2021-06-18T20:56:35.782Z",
  "devdoc": {
    "kind": "dev",
    "methods": {},
    "version": 1
  },
  "userdoc": {
    "kind": "user",
    "methods": {},
    "version": 1
  }
}