{
  "contractName": "VoteFactory",
  "abi": [
    {
      "inputs": [
        {
          "internalType": "uint256",
          "name": "",
          "type": "uint256"
        }
      ],
      "name": "deployedVotes",
      "outputs": [
        {
          "internalType": "address",
          "name": "",
          "type": "address"
        }
      ],
      "stateMutability": "view",
      "type": "function",
      "constant": true
    },
    {
      "inputs": [
        {
          "internalType": "string",
          "name": "name",
          "type": "string"
        },
        {
          "internalType": "string",
          "name": "description",
          "type": "string"
        },
        {
          "internalType": "uint256",
          "name": "groupID",
          "type": "uint256"
        }
      ],
      "name": "createGroup",
      "outputs": [],
      "stateMutability": "nonpayable",
      "type": "function"
    },
    {
      "inputs": [
        {
          "internalType": "uint256",
          "name": "groupID",
          "type": "uint256"
        }
      ],
      "name": "registerGroup",
      "outputs": [],
      "stateMutability": "nonpayable",
      "type": "function"
    },
    {
      "inputs": [
        {
          "internalType": "uint256",
          "name": "indexGroup",
          "type": "uint256"
        },
        {
          "internalType": "uint256",
          "name": "indexMember",
          "type": "uint256"
        },
        {
          "internalType": "uint256",
          "name": "groupID",
          "type": "uint256"
        }
      ],
      "name": "leaveGroup",
      "outputs": [],
      "stateMutability": "nonpayable",
      "type": "function"
    },
    {
      "inputs": [
        {
          "internalType": "uint256",
          "name": "index",
          "type": "uint256"
        }
      ],
      "name": "getUserGroup",
      "outputs": [
        {
          "internalType": "uint256",
          "name": "",
          "type": "uint256"
        }
      ],
      "stateMutability": "view",
      "type": "function",
      "constant": true
    },
    {
      "inputs": [],
      "name": "getUserAllGroups",
      "outputs": [
        {
          "internalType": "uint256[]",
          "name": "",
          "type": "uint256[]"
        }
      ],
      "stateMutability": "view",
      "type": "function",
      "constant": true
    },
    {
      "inputs": [
        {
          "internalType": "uint256",
          "name": "groupID",
          "type": "uint256"
        }
      ],
      "name": "getAllMembers",
      "outputs": [
        {
          "internalType": "address[]",
          "name": "",
          "type": "address[]"
        }
      ],
      "stateMutability": "view",
      "type": "function",
      "constant": true
    },
    {
      "inputs": [
        {
          "internalType": "uint256",
          "name": "id",
          "type": "uint256"
        }
      ],
      "name": "getGroup",
      "outputs": [
        {
          "internalType": "string",
          "name": "",
          "type": "string"
        },
        {
          "internalType": "string",
          "name": "",
          "type": "string"
        },
        {
          "internalType": "address[]",
          "name": "",
          "type": "address[]"
        },
        {
          "internalType": "uint256",
          "name": "",
          "type": "uint256"
        }
      ],
      "stateMutability": "view",
      "type": "function",
      "constant": true
    },
    {
      "inputs": [
        {
          "internalType": "string",
          "name": "name",
          "type": "string"
        },
        {
          "internalType": "string",
          "name": "email",
          "type": "string"
        },
        {
          "internalType": "string",
          "name": "password",
          "type": "string"
        }
      ],
      "name": "registerUser",
      "outputs": [],
      "stateMutability": "nonpayable",
      "type": "function"
    },
    {
      "inputs": [
        {
          "internalType": "uint256",
          "name": "typeOf",
          "type": "uint256"
        }
      ],
      "name": "createVote",
      "outputs": [],
      "stateMutability": "nonpayable",
      "type": "function"
    },
    {
      "inputs": [
        {
          "internalType": "string",
          "name": "password",
          "type": "string"
        }
      ],
      "name": "loginUser",
      "outputs": [
        {
          "internalType": "string",
          "name": "",
          "type": "string"
        },
        {
          "internalType": "string",
          "name": "",
          "type": "string"
        },
        {
          "internalType": "uint256[]",
          "name": "",
          "type": "uint256[]"
        },
        {
          "internalType": "bool",
          "name": "",
          "type": "bool"
        }
      ],
      "stateMutability": "view",
      "type": "function",
      "constant": true
    },
    {
      "inputs": [],
      "name": "getUser",
      "outputs": [
        {
          "internalType": "string",
          "name": "",
          "type": "string"
        },
        {
          "internalType": "string",
          "name": "",
          "type": "string"
        },
        {
          "internalType": "uint256[]",
          "name": "",
          "type": "uint256[]"
        },
        {
          "internalType": "bool",
          "name": "",
          "type": "bool"
        }
      ],
      "stateMutability": "view",
      "type": "function",
      "constant": true
    },
    {
      "inputs": [],
      "name": "getDeployedVotes",
      "outputs": [
        {
          "internalType": "address[]",
          "name": "",
          "type": "address[]"
        }
      ],
      "stateMutability": "view",
      "type": "function",
      "constant": true
    },
    {
      "inputs": [
        {
          "internalType": "string",
          "name": "a",
          "type": "string"
        },
        {
          "internalType": "string",
          "name": "b",
          "type": "string"
        }
      ],
      "name": "compareStrings",
      "outputs": [
        {
          "internalType": "bool",
          "name": "",
          "type": "bool"
        }
      ],
      "stateMutability": "pure",
      "type": "function",
      "constant": true
    }
  ],
  "bytecode": "0x608060405234801561001057600080fd5b506141d7806100206000396000f3fe608060405234801561001057600080fd5b50600436106100ea5760003560e01c8063c111c8bb1161008c578063ceb6065411610066578063ceb60654146108d0578063d2f4a80214610a32578063d637dcfa14610a91578063fa954aa014610c7a576100ea565b8063c111c8bb14610796578063c142ab0014610819578063ca9cdfff14610871576100ea565b8063802777f4116100c8578063802777f414610350578063832880e7146104ac578063ad36a1a2146105ec578063bed34bba1461062e576100ea565b80631c14ce5e146100ef578063352704b7146102e0578063365fbd1a14610322575b600080fd5b6101a86004803603602081101561010557600080fd5b810190808035906020019064010000000081111561012257600080fd5b82018360208201111561013457600080fd5b8035906020019184600183028401116401000000008311171561015657600080fd5b91908080601f016020809104026020016040519081016040528093929190818152602001838380828437600081840152601f19601f820116905080830192505050505050509192919290505050610ca8565b604051808060200180602001806020018515158152602001848103845288818151815260200191508051906020019080838360005b838110156101f85780820151818401526020810190506101dd565b50505050905090810190601f1680156102255780820380516001836020036101000a031916815260200191505b50848103835287818151815260200191508051906020019080838360005b8381101561025e578082015181840152602081019050610243565b50505050905090810190601f16801561028b5780820380516001836020036101000a031916815260200191505b50848103825286818151815260200191508051906020019060200280838360005b838110156102c75780820151818401526020810190506102ac565b5050505090500197505050505050505060405180910390f35b61030c600480360360208110156102f657600080fd5b8101908080359060200190929190505050610f58565b6040518082815260200191505060405180910390f35b61034e6004803603602081101561033857600080fd5b8101908080359060200190929190505050610fbe565b005b6104aa6004803603606081101561036657600080fd5b810190808035906020019064010000000081111561038357600080fd5b82018360208201111561039557600080fd5b803590602001918460018302840111640100000000831117156103b757600080fd5b91908080601f016020809104026020016040519081016040528093929190818152602001838380828437600081840152601f19601f8201169050808301925050505050505091929192908035906020019064010000000081111561041a57600080fd5b82018360208201111561042c57600080fd5b8035906020019184600183028401116401000000008311171561044e57600080fd5b91908080601f016020809104026020016040519081016040528093929190818152602001838380828437600081840152601f19601f8201169050808301925050505050505091929192908035906020019092919050505061119d565b005b6104b46111fd565b604051808060200180602001806020018515158152602001848103845288818151815260200191508051906020019080838360005b838110156105045780820151818401526020810190506104e9565b50505050905090810190601f1680156105315780820380516001836020036101000a031916815260200191505b50848103835287818151815260200191508051906020019080838360005b8381101561056a57808201518184015260208101905061054f565b50505050905090810190601f1680156105975780820380516001836020036101000a031916815260200191505b50848103825286818151815260200191508051906020019060200280838360005b838110156105d35780820151818401526020810190506105b8565b5050505090500197505050505050505060405180910390f35b61062c6004803603606081101561060257600080fd5b810190808035906020019092919080359060200190929190803590602001909291905050506113fd565b005b61077e6004803603604081101561064457600080fd5b810190808035906020019064010000000081111561066157600080fd5b82018360208201111561067357600080fd5b8035906020019184600183028401116401000000008311171561069557600080fd5b91908080601f016020809104026020016040519081016040528093929190818152602001838380828437600081840152601f19601f820116905080830192505050505050509192919290803590602001906401000000008111156106f857600080fd5b82018360208201111561070a57600080fd5b8035906020019184600183028401116401000000008311171561072c57600080fd5b91908080601f016020809104026020016040519081016040528093929190818152602001838380828437600081840152601f19601f82011690508083019250505050505050919291929050505061160b565b60405180821515815260200191505060405180910390f35b6107c2600480360360208110156107ac57600080fd5b81019080803590602001909291905050506116fa565b6040518080602001828103825283818151815260200191508051906020019060200280838360005b838110156108055780820151818401526020810190506107ea565b505050509050019250505060405180910390f35b6108456004803603602081101561082f57600080fd5b81019080803590602001909291905050506117a3565b604051808273ffffffffffffffffffffffffffffffffffffffff16815260200191505060405180910390f35b6108796117e2565b6040518080602001828103825283818151815260200191508051906020019060200280838360005b838110156108bc5780820151818401526020810190506108a1565b505050509050019250505060405180910390f35b6108fc600480360360208110156108e657600080fd5b8101908080359060200190929190505050611870565b60405180806020018060200180602001858152602001848103845288818151815260200191508051906020019080838360005b8381101561094a57808201518184015260208101905061092f565b50505050905090810190601f1680156109775780820380516001836020036101000a031916815260200191505b50848103835287818151815260200191508051906020019080838360005b838110156109b0578082015181840152602081019050610995565b50505050905090810190601f1680156109dd5780820380516001836020036101000a031916815260200191505b50848103825286818151815260200191508051906020019060200280838360005b83811015610a195780820151818401526020810190506109fe565b5050505090500197505050505050505060405180910390f35b610a3a611a70565b6040518080602001828103825283818151815260200191508051906020019060200280838360005b83811015610a7d578082015181840152602081019050610a62565b505050509050019250505060405180910390f35b610c7860048036036060811015610aa757600080fd5b8101908080359060200190640100000000811115610ac457600080fd5b820183602082011115610ad657600080fd5b80359060200191846001830284011164010000000083111715610af857600080fd5b91908080601f016020809104026020016040519081016040528093929190818152602001838380828437600081840152601f19601f82011690508083019250505050505050919291929080359060200190640100000000811115610b5b57600080fd5b820183602082011115610b6d57600080fd5b80359060200191846001830284011164010000000083111715610b8f57600080fd5b91908080601f016020809104026020016040519081016040528093929190818152602001838380828437600081840152601f19601f82011690508083019250505050505050919291929080359060200190640100000000811115610bf257600080fd5b820183602082011115610c0457600080fd5b80359060200191846001830284011164010000000083111715610c2657600080fd5b91908080601f016020809104026020016040519081016040528093929190818152602001838380828437600081840152601f19601f820116905080830192505050505050509192919290505050611b0e565b005b610ca660048036036020811015610c9057600080fd5b8101908080359060200190929190505050611c2e565b005b6060806060600080600360003373ffffffffffffffffffffffffffffffffffffffff1673ffffffffffffffffffffffffffffffffffffffff1681526020019081526020016000209050610d9786826003018054600181600116156101000203166002900480601f016020809104026020016040519081016040528092919081815260200182805460018160011615610100020316600290048015610d8d5780601f10610d6257610100808354040283529160200191610d8d565b820191906000526020600020905b815481529060010190602001808311610d7057829003601f168201915b505050505061160b565b610da057600080fd5b8060010181600201826004018360050160009054906101000a900460ff16838054600181600116156101000203166002900480601f016020809104026020016040519081016040528092919081815260200182805460018160011615610100020316600290048015610e535780601f10610e2857610100808354040283529160200191610e53565b820191906000526020600020905b815481529060010190602001808311610e3657829003601f168201915b50505050509350828054600181600116156101000203166002900480601f016020809104026020016040519081016040528092919081815260200182805460018160011615610100020316600290048015610eef5780601f10610ec457610100808354040283529160200191610eef565b820191906000526020600020905b815481529060010190602001808311610ed257829003601f168201915b5050505050925081805480602002602001604051908101604052809291908181526020018280548015610f4157602002820191906000526020600020905b815481526020019060010190808311610f2d575b505050505091509450945094509450509193509193565b600080600360003373ffffffffffffffffffffffffffffffffffffffff1673ffffffffffffffffffffffffffffffffffffffff1681526020019081526020016000209050806004018381548110610fab57fe5b9060005260206000200154915050919050565b6000600360003373ffffffffffffffffffffffffffffffffffffffff1673ffffffffffffffffffffffffffffffffffffffff168152602001908152602001600020905060008060008481526020019081526020016000209050600083141561102557600080fd5b6110da816000018054600181600116156101000203166002900480601f0160208091040260200160405190810160405280929190818152602001828054600181600116156101000203166002900480156110c05780601f10611095576101008083540402835291602001916110c0565b820191906000526020600020905b8154815290600101906020018083116110a357829003601f168201915b50505050506040518060200160405280600081525061160b565b156110e457600080fd5b81600401839080600181540180825580915050600190039060005260206000200160009091909190915055806002018260000160009054906101000a900473ffffffffffffffffffffffffffffffffffffffff169080600181540180825580915050600190039060005260206000200160009091909190916101000a81548173ffffffffffffffffffffffffffffffffffffffff021916908373ffffffffffffffffffffffffffffffffffffffff160217905550505050565b60008060008381526020019081526020016000209050838160000190805190602001906111cb929190611ceb565b50828160010190805190602001906111e4929190611ceb565b5060016000815480929190600101919050555050505050565b6060806060600080600360003373ffffffffffffffffffffffffffffffffffffffff1673ffffffffffffffffffffffffffffffffffffffff16815260200190815260200160002090508060010181600201826004018360050160009054906101000a900460ff16838054600181600116156101000203166002900480601f0160208091040260200160405190810160405280929190818152602001828054600181600116156101000203166002900480156112f95780601f106112ce576101008083540402835291602001916112f9565b820191906000526020600020905b8154815290600101906020018083116112dc57829003601f168201915b50505050509350828054600181600116156101000203166002900480601f0160208091040260200160405190810160405280929190818152602001828054600181600116156101000203166002900480156113955780601f1061136a57610100808354040283529160200191611395565b820191906000526020600020905b81548152906001019060200180831161137857829003601f168201915b50505050509250818054806020026020016040519081016040528092919081815260200182805480156113e757602002820191906000526020600020905b8154815260200190600101908083116113d3575b5050505050915094509450945094505090919293565b6000600360003373ffffffffffffffffffffffffffffffffffffffff1673ffffffffffffffffffffffffffffffffffffffff1681526020019081526020016000209050600080600084815260200190815260200160002090508160040160018360040180549050038154811061146f57fe5b906000526020600020015482600401868154811061148957fe5b9060005260206000200181905550816004016001836004018054905003815481106114b057fe5b9060005260206000200160009055816004018054806114cb57fe5b60019003818190600052602060002001600090559055806002016001826002018054905003815481106114fa57fe5b9060005260206000200160009054906101000a900473ffffffffffffffffffffffffffffffffffffffff1681600201858154811061153457fe5b9060005260206000200160006101000a81548173ffffffffffffffffffffffffffffffffffffffff021916908373ffffffffffffffffffffffffffffffffffffffff1602179055508060020160018260020180549050038154811061159557fe5b9060005260206000200160006101000a81549073ffffffffffffffffffffffffffffffffffffffff0219169055806002018054806115cf57fe5b6001900381819060005260206000200160006101000a81549073ffffffffffffffffffffffffffffffffffffffff021916905590555050505050565b6000816040516020018082805190602001908083835b602083106116445780518252602082019150602081019050602083039250611621565b6001836020036101000a03801982511681845116808217855250505050505090500191505060405160208183030381529060405280519060200120836040516020018082805190602001908083835b602083106116b65780518252602082019150602081019050602083039250611693565b6001836020036101000a0380198251168184511680821785525050505050509050019150506040516020818303038152906040528051906020012014905092915050565b6060600080600084815260200190815260200160002090508060020180548060200260200160405190810160405280929190818152602001828054801561179657602002820191906000526020600020905b8160009054906101000a900473ffffffffffffffffffffffffffffffffffffffff1673ffffffffffffffffffffffffffffffffffffffff168152602001906001019080831161174c575b5050505050915050919050565b600281815481106117b357600080fd5b906000526020600020016000915054906101000a900473ffffffffffffffffffffffffffffffffffffffff1681565b6060600280548060200260200160405190810160405280929190818152602001828054801561186657602002820191906000526020600020905b8160009054906101000a900473ffffffffffffffffffffffffffffffffffffffff1673ffffffffffffffffffffffffffffffffffffffff168152602001906001019080831161181c575b5050505050905090565b606080606060008060008087815260200190815260200160002090508060000181600101826002018360020180549050838054600181600116156101000203166002900480601f0160208091040260200160405190810160405280929190818152602001828054600181600116156101000203166002900480156119355780601f1061190a57610100808354040283529160200191611935565b820191906000526020600020905b81548152906001019060200180831161191857829003601f168201915b50505050509350828054600181600116156101000203166002900480601f0160208091040260200160405190810160405280929190818152602001828054600181600116156101000203166002900480156119d15780601f106119a6576101008083540402835291602001916119d1565b820191906000526020600020905b8154815290600101906020018083116119b457829003601f168201915b5050505050925081805480602002602001604051908101604052809291908181526020018280548015611a5957602002820191906000526020600020905b8160009054906101000a900473ffffffffffffffffffffffffffffffffffffffff1673ffffffffffffffffffffffffffffffffffffffff1681526020019060010190808311611a0f575b505050505091509450945094509450509193509193565b60606000600360003373ffffffffffffffffffffffffffffffffffffffff1673ffffffffffffffffffffffffffffffffffffffff168152602001908152602001600020905080600401805480602002602001604051908101604052809291908181526020018280548015611b0357602002820191906000526020600020905b815481526020019060010190808311611aef575b505050505091505090565b6000600360003373ffffffffffffffffffffffffffffffffffffffff1673ffffffffffffffffffffffffffffffffffffffff168152602001908152602001600020905083816001019080519060200190611b69929190611ceb565b5082816002019080519060200190611b82929190611ceb565b5081816003019080519060200190611b9b929190611ceb565b50338160000160006101000a81548173ffffffffffffffffffffffffffffffffffffffff021916908373ffffffffffffffffffffffffffffffffffffffff16021790555060018160050160006101000a81548160ff021916908315150217905550806004016001908060018154018082558091505060019003906000526020600020016000909190919091505550505050565b60003382604051611c3e90611d79565b808373ffffffffffffffffffffffffffffffffffffffff16815260200182815260200192505050604051809103906000f080158015611c81573d6000803e3d6000fd5b5090506002819080600181540180825580915050600190039060005260206000200160009091909190916101000a81548173ffffffffffffffffffffffffffffffffffffffff021916908373ffffffffffffffffffffffffffffffffffffffff1602179055505050565b828054600181600116156101000203166002900490600052602060002090601f016020900481019282611d215760008555611d68565b82601f10611d3a57805160ff1916838001178555611d68565b82800160010185558215611d68579182015b82811115611d67578251825591602001919060010190611d4c565b5b509050611d759190611d86565b5090565b6123fe80611da483390190565b5b80821115611d9f576000816000905550600101611d87565b509056fe608060405234801561001057600080fd5b506040516123fe3803806123fe8339818101604052604081101561003357600080fd5b810190808051906020019092919080519060200190929190505050816000806101000a81548173ffffffffffffffffffffffffffffffffffffffff021916908373ffffffffffffffffffffffffffffffffffffffff1602179055508060001461009d5760016100a0565b60005b60ff166002819055505050612344806100ba6000396000f3fe608060405234801561001057600080fd5b50600436106100f55760003560e01c8063869eae2311610097578063da3550ee11610066578063da3550ee146109ba578063dcfda00f146109fe578063e1c5fcc114610bfb578063fcae83a714610c55576100f5565b8063869eae231461054f5780638ab66a90146106ab57806395115447146107f8578063ad0dcf9c14610891576100f5565b8063481c6a75116100d3578063481c6a751461025957806367127e431461028d578063691a675c146103f35780637432e63a146104f7576100f5565b80632d35a8a2146100fa57806335a893a114610118578063407bba4a1461024f575b600080fd5b610102610dc5565b6040518082815260200191505060405180910390f35b6101446004803603602081101561012e57600080fd5b8101908080359060200190929190505050610dcb565b604051808573ffffffffffffffffffffffffffffffffffffffff1681526020018481526020018060200180602001838103835285818151815260200191508051906020019080838360005b838110156101aa57808201518184015260208101905061018f565b50505050905090810190601f1680156101d75780820380516001836020036101000a031916815260200191505b50838103825284818151815260200191508051906020019080838360005b838110156102105780820151818401526020810190506101f5565b50505050905090810190601f16801561023d5780820380516001836020036101000a031916815260200191505b50965050505050505060405180910390f35b610257610f5b565b005b6102616112e5565b604051808273ffffffffffffffffffffffffffffffffffffffff16815260200191505060405180910390f35b6103f1600480360360808110156102a357600080fd5b81019080803590602001906401000000008111156102c057600080fd5b8201836020820111156102d257600080fd5b803590602001918460018302840111640100000000831117156102f457600080fd5b91908080601f016020809104026020016040519081016040528093929190818152602001838380828437600081840152601f19601f82011690508083019250505050505050919291929080359060200190929190803590602001909291908035906020019064010000000081111561036b57600080fd5b82018360208201111561037d57600080fd5b8035906020019184600183028401116401000000008311171561039f57600080fd5b91908080601f016020809104026020016040519081016040528093929190818152602001838380828437600081840152601f19601f820116905080830192505050505050509192919290505050611309565b005b6103fb6113c1565b604051808060200186815260200185815260200180602001848152602001838103835288818151815260200191508051906020019080838360005b83811015610451578082015181840152602081019050610436565b50505050905090810190601f16801561047e5780820380516001836020036101000a031916815260200191505b50838103825285818151815260200191508051906020019080838360005b838110156104b757808201518184015260208101905061049c565b50505050905090810190601f1680156104e45780820380516001836020036101000a031916815260200191505b5097505050505050505060405180910390f35b6105236004803603602081101561050d57600080fd5b8101908080359060200190929190505050611515565b604051808273ffffffffffffffffffffffffffffffffffffffff16815260200191505060405180910390f35b6106a96004803603606081101561056557600080fd5b810190808035906020019064010000000081111561058257600080fd5b82018360208201111561059457600080fd5b803590602001918460018302840111640100000000831117156105b657600080fd5b91908080601f016020809104026020016040519081016040528093929190818152602001838380828437600081840152601f19601f8201169050808301925050505050505091929192908035906020019064010000000081111561061957600080fd5b82018360208201111561062b57600080fd5b8035906020019184600183028401116401000000008311171561064d57600080fd5b91908080601f016020809104026020016040519081016040528093929190818152602001838380828437600081840152601f19601f82011690508083019250505050505050919291929080359060200190929190505050611554565b005b6106ed600480360360208110156106c157600080fd5b81019080803573ffffffffffffffffffffffffffffffffffffffff16906020019092919050505061174a565b604051808573ffffffffffffffffffffffffffffffffffffffff1681526020018481526020018060200180602001838103835285818151815260200191508051906020019080838360005b83811015610753578082015181840152602081019050610738565b50505050905090810190601f1680156107805780820380516001836020036101000a031916815260200191505b50838103825284818151815260200191508051906020019080838360005b838110156107b957808201518184015260208101905061079e565b50505050905090810190601f1680156107e65780820380516001836020036101000a031916815260200191505b50965050505050505060405180910390f35b61083a6004803603602081101561080e57600080fd5b81019080803573ffffffffffffffffffffffffffffffffffffffff1690602001909291905050506118ca565b6040518080602001828103825283818151815260200191508051906020019060200280838360005b8381101561087d578082015181840152602081019050610862565b505050509050019250505060405180910390f35b6108d3600480360360208110156108a757600080fd5b81019080803573ffffffffffffffffffffffffffffffffffffffff1690602001909291905050506119a9565b604051808060200180602001838103835285818151815260200191508051906020019080838360005b838110156109175780820151818401526020810190506108fc565b50505050905090810190601f1680156109445780820380516001836020036101000a031916815260200191505b50838103825284818151815260200191508051906020019080838360005b8381101561097d578082015181840152602081019050610962565b50505050905090810190601f1680156109aa5780820380516001836020036101000a031916815260200191505b5094505050505060405180910390f35b6109fc600480360360208110156109d057600080fd5b81019080803573ffffffffffffffffffffffffffffffffffffffff169060200190929190505050611b80565b005b610bf9600480360360a0811015610a1457600080fd5b8101908080359060200190640100000000811115610a3157600080fd5b820183602082011115610a4357600080fd5b80359060200191846001830284011164010000000083111715610a6557600080fd5b91908080601f016020809104026020016040519081016040528093929190818152602001838380828437600081840152601f19601f820116905080830192505050505050509192919290803590602001909291908035906020019092919080359060200190640100000000811115610adc57600080fd5b820183602082011115610aee57600080fd5b80359060200191846001830284011164010000000083111715610b1057600080fd5b91908080601f016020809104026020016040519081016040528093929190818152602001838380828437600081840152601f19601f82011690508083019250505050505050919291929080359060200190640100000000811115610b7357600080fd5b820183602082011115610b8557600080fd5b80359060200191846001830284011164010000000083111715610ba757600080fd5b91908080601f016020809104026020016040519081016040528093929190818152602001838380828437600081840152601f19601f820116905080830192505050505050509192919290505050611de9565b005b610c3d60048036036020811015610c1157600080fd5b81019080803573ffffffffffffffffffffffffffffffffffffffff169060200190929190505050611ebb565b60405180821515815260200191505060405180910390f35b610c5d611f21565b6040518080602001878152602001868152602001806020018581526020018060200184810384528a818151815260200191508051906020019080838360005b83811015610cb7578082015181840152602081019050610c9c565b50505050905090810190601f168015610ce45780820380516001836020036101000a031916815260200191505b50848103835287818151815260200191508051906020019080838360005b83811015610d1d578082015181840152602081019050610d02565b50505050905090810190601f168015610d4a5780820380516001836020036101000a031916815260200191505b50848103825285818151815260200191508051906020019080838360005b83811015610d83578082015181840152602081019050610d68565b50505050905090810190601f168015610db05780820380516001836020036101000a031916815260200191505b50995050505050505050505060405180910390f35b60015481565b60048181548110610ddb57600080fd5b90600052602060002090600502016000915090508060000160009054906101000a900473ffffffffffffffffffffffffffffffffffffffff1690806001015490806003018054600181600116156101000203166002900480601f016020809104026020016040519081016040528092919081815260200182805460018160011615610100020316600290048015610eb35780601f10610e8857610100808354040283529160200191610eb3565b820191906000526020600020905b815481529060010190602001808311610e9657829003601f168201915b505050505090806004018054600181600116156101000203166002900480601f016020809104026020016040519081016040528092919081815260200182805460018160011615610100020316600290048015610f515780601f10610f2657610100808354040283529160200191610f51565b820191906000526020600020905b815481529060010190602001808311610f3457829003601f168201915b5050505050905084565b600060025414610f6a57600080fd5b6000600360003373ffffffffffffffffffffffffffffffffffffffff1673ffffffffffffffffffffffffffffffffffffffff168152602001908152602001600020905060405180602001604052806000815250816003019080519060200190610fd4929190612113565b5060405180602001604052806000815250816004019080519060200190610ffc929190612113565b50600360003373ffffffffffffffffffffffffffffffffffffffff1673ffffffffffffffffffffffffffffffffffffffff168152602001908152602001600020600080820160006101000a81549073ffffffffffffffffffffffffffffffffffffffff0219169055600182016000905560028201600061107c91906121a1565b60038201600061108c91906121c2565b60048201600061109c91906121c2565b505060005b6004805490508110156112ce57600481815481106110bb57fe5b906000526020600020906005020160000160009054906101000a900473ffffffffffffffffffffffffffffffffffffffff1673ffffffffffffffffffffffffffffffffffffffff163373ffffffffffffffffffffffffffffffffffffffff1614156112c15760046001600480549050038154811061113557fe5b90600052602060002090600502016004828154811061115057fe5b90600052602060002090600502016000820160009054906101000a900473ffffffffffffffffffffffffffffffffffffffff168160000160006101000a81548173ffffffffffffffffffffffffffffffffffffffff021916908373ffffffffffffffffffffffffffffffffffffffff1602179055506001820154816001015560028201816002019080546111e592919061220a565b506003820181600301908054600181600116156101000203166002900461120d92919061225c565b506004820181600401908054600181600116156101000203166002900461123592919061225c565b50905050600480548061124457fe5b6001900381819060005260206000209060050201600080820160006101000a81549073ffffffffffffffffffffffffffffffffffffffff0219169055600182016000905560028201600061129891906121a1565b6003820160006112a891906121c2565b6004820160006112b891906121c2565b505090556112ce565b80806001019150506110a1565b506001600081548092919060019003919050555050565b60008054906101000a900473ffffffffffffffffffffffffffffffffffffffff1681565b60008054906101000a900473ffffffffffffffffffffffffffffffffffffffff1673ffffffffffffffffffffffffffffffffffffffff163373ffffffffffffffffffffffffffffffffffffffff161461136157600080fd5b60016002541461137057600080fd5b6000600d90508481600001908051906020019061138e929190612113565b50838160010181905550828160020181905550818160030190805190602001906113b9929190612113565b505050505050565b600d806000018054600181600116156101000203166002900480601f01602080910402602001604051908101604052809291908181526020018280546001816001161561010002031660029004801561145b5780601f106114305761010080835404028352916020019161145b565b820191906000526020600020905b81548152906001019060200180831161143e57829003601f168201915b505050505090806001015490806002015490806003018054600181600116156101000203166002900480601f0160208091040260200160405190810160405280929190818152602001828054600181600116156101000203166002900480156115055780601f106114da57610100808354040283529160200191611505565b820191906000526020600020905b8154815290600101906020018083116114e857829003601f168201915b5050505050908060040154905085565b6005818154811061152557600080fd5b906000526020600020016000915054906101000a900473ffffffffffffffffffffffffffffffffffffffff1681565b60006002541461156357600080fd5b600660010154811061157457600080fd5b6000600360003373ffffffffffffffffffffffffffffffffffffffff1673ffffffffffffffffffffffffffffffffffffffff1681526020019081526020016000209050838160030190805190602001906115cf929190612113565b50828160040190805190602001906115e8929190612113565b50338160000160006101000a81548173ffffffffffffffffffffffffffffffffffffffff021916908373ffffffffffffffffffffffffffffffffffffffff16021790555060048190806001815401808255809150506001900390600052602060002090600502016000909190919091506000820160009054906101000a900473ffffffffffffffffffffffffffffffffffffffff168160000160006101000a81548173ffffffffffffffffffffffffffffffffffffffff021916908373ffffffffffffffffffffffffffffffffffffffff1602179055506001820154816001015560028201816002019080546116df92919061220a565b506003820181600301908054600181600116156101000203166002900461170792919061225c565b506004820181600401908054600181600116156101000203166002900461172f92919061225c565b50505060016000815480929190600101919050555050505050565b60036020528060005260406000206000915090508060000160009054906101000a900473ffffffffffffffffffffffffffffffffffffffff1690806001015490806003018054600181600116156101000203166002900480601f0160208091040260200160405190810160405280929190818152602001828054600181600116156101000203166002900480156118225780601f106117f757610100808354040283529160200191611822565b820191906000526020600020905b81548152906001019060200180831161180557829003601f168201915b505050505090806004018054600181600116156101000203166002900480601f0160208091040260200160405190810160405280929190818152602001828054600181600116156101000203166002900480156118c05780601f10611895576101008083540402835291602001916118c0565b820191906000526020600020905b8154815290600101906020018083116118a357829003601f168201915b5050505050905084565b60606000600254146118db57600080fd5b600360008373ffffffffffffffffffffffffffffffffffffffff1673ffffffffffffffffffffffffffffffffffffffff16815260200190815260200160002060020180548060200260200160405190810160405280929190818152602001828054801561199d57602002820191906000526020600020905b8160009054906101000a900473ffffffffffffffffffffffffffffffffffffffff1673ffffffffffffffffffffffffffffffffffffffff1681526020019060010190808311611953575b50505050509050919050565b6060806000600254146119bb57600080fd5b600360008473ffffffffffffffffffffffffffffffffffffffff1673ffffffffffffffffffffffffffffffffffffffff168152602001908152602001600020600301600360008573ffffffffffffffffffffffffffffffffffffffff1673ffffffffffffffffffffffffffffffffffffffff168152602001908152602001600020600401818054600181600116156101000203166002900480601f016020809104026020016040519081016040528092919081815260200182805460018160011615610100020316600290048015611ad45780601f10611aa957610100808354040283529160200191611ad4565b820191906000526020600020905b815481529060010190602001808311611ab757829003601f168201915b50505050509150808054600181600116156101000203166002900480601f016020809104026020016040519081016040528092919081815260200182805460018160011615610100020316600290048015611b705780601f10611b4557610100808354040283529160200191611b70565b820191906000526020600020905b815481529060010190602001808311611b5357829003601f168201915b5050505050905091509150915091565b600060025414611b8f57600080fd5b600015156006800160003373ffffffffffffffffffffffffffffffffffffffff1673ffffffffffffffffffffffffffffffffffffffff16815260200190815260200160002060009054906101000a900460ff1615151415611de657600073ffffffffffffffffffffffffffffffffffffffff16600360008373ffffffffffffffffffffffffffffffffffffffff1673ffffffffffffffffffffffffffffffffffffffff16815260200190815260200160002060000160009054906101000a900473ffffffffffffffffffffffffffffffffffffffff1673ffffffffffffffffffffffffffffffffffffffff1614611de55760016006800160003373ffffffffffffffffffffffffffffffffffffffff1673ffffffffffffffffffffffffffffffffffffffff16815260200190815260200160002060006101000a81548160ff021916908315150217905550600660040160008154809291906001019190505550600360008273ffffffffffffffffffffffffffffffffffffffff1673ffffffffffffffffffffffffffffffffffffffff16815260200190815260200160002060010160008154809291906001019190505550600360008273ffffffffffffffffffffffffffffffffffffffff1673ffffffffffffffffffffffffffffffffffffffff168152602001908152602001600020600201339080600181540180825580915050600190039060005260206000200160009091909190916101000a81548173ffffffffffffffffffffffffffffffffffffffff021916908373ffffffffffffffffffffffffffffffffffffffff1602179055505b5b50565b60008054906101000a900473ffffffffffffffffffffffffffffffffffffffff1673ffffffffffffffffffffffffffffffffffffffff163373ffffffffffffffffffffffffffffffffffffffff1614611e4157600080fd5b600060025414611e5057600080fd5b60006006905085816000019080519060200190611e6e929190612113565b5084816001018190555083816002018190555082816003019080519060200190611e99929190612113565b5081816005019080519060200190611eb2929190612113565b50505050505050565b60008060025414611ecb57600080fd5b6006800160008373ffffffffffffffffffffffffffffffffffffffff1673ffffffffffffffffffffffffffffffffffffffff16815260200190815260200160002060009054906101000a900460ff169050919050565b6006806000018054600181600116156101000203166002900480601f016020809104026020016040519081016040528092919081815260200182805460018160011615610100020316600290048015611fbb5780601f10611f9057610100808354040283529160200191611fbb565b820191906000526020600020905b815481529060010190602001808311611f9e57829003601f168201915b505050505090806001015490806002015490806003018054600181600116156101000203166002900480601f0160208091040260200160405190810160405280929190818152602001828054600181600116156101000203166002900480156120655780601f1061203a57610100808354040283529160200191612065565b820191906000526020600020905b81548152906001019060200180831161204857829003601f168201915b505050505090806004015490806005018054600181600116156101000203166002900480601f0160208091040260200160405190810160405280929190818152602001828054600181600116156101000203166002900480156121095780601f106120de57610100808354040283529160200191612109565b820191906000526020600020905b8154815290600101906020018083116120ec57829003601f168201915b5050505050905086565b828054600181600116156101000203166002900490600052602060002090601f0160209004810192826121495760008555612190565b82601f1061216257805160ff1916838001178555612190565b82800160010185558215612190579182015b8281111561218f578251825591602001919060010190612174565b5b50905061219d91906122f1565b5090565b50805460008255906000526020600020908101906121bf91906122f1565b50565b50805460018160011615610100020316600290046000825580601f106121e85750612207565b601f01602090049060005260206000209081019061220691906122f1565b5b50565b82805482825590600052602060002090810192821561224b5760005260206000209182015b8281111561224a57825482559160010191906001019061222f565b5b50905061225891906122f1565b5090565b828054600181600116156101000203166002900490600052602060002090601f01602090048101928261229257600085556122e0565b82601f106122a357805485556122e0565b828001600101855582156122e057600052602060002091601f016020900482015b828111156122df5782548255916001019190600101906122c4565b5b5090506122ed91906122f1565b5090565b5b8082111561230a5760008160009055506001016122f2565b509056fea264697066735822122002a69d459a3db9fb0eb570c8f1d868ab5f3498e87b8b5f72b15eb17cd0df991a64736f6c63430007040033a2646970667358221220fee4445569934e94358f79cfbb3433fc87b99c8a7c5a8960a3b4bdac3e6dc0ed64736f6c63430007040033",
  "immutableReferences": {},
  "source": "pragma solidity ^0.7.4;\r\n\r\n//\"SPDX-License-Identifier: UNLICENSED\"\r\nimport \"./Vote.sol\";\r\n\r\ncontract VoteFactory{\r\n    \r\n    // Representation of an instance of Group\r\n    struct groupStruct {\r\n        string name;\r\n        string description;\r\n        address[] members; // NEW Assumption that members rarely quit      \r\n    }\r\n    \r\n    // Representation of an instance of User\r\n    struct userStruct {\r\n        address userAddress;\r\n        string name;\r\n        string email;\r\n        string password;\r\n        // address[] running;\r\n        // address[] createdElection;\r\n        // address[] createdPetition;\r\n        uint[] groups; // NEW Assumption that users rarely quit\r\n        bool isAdmin;\r\n    }\r\n    \r\n    mapping(uint => groupStruct) groupInfo; // KEY: groupID Value: group\r\n    uint groupCount;\r\n    address[] public deployedVotes;\r\n    mapping(address => userStruct) userInfo;\r\n    \r\n    // Creates an instance of group and Updates the groupInfo mapping\r\n    // It also takes groupID as an input since the groupStruct(VALUE) is identified with a groupId(KEY)\r\n    function createGroup(string memory name, string memory description, uint groupID) public {\r\n        groupStruct storage g = groupInfo[groupID];\r\n        g.name = name;\r\n        g.description = description;\r\n        groupCount++;\r\n    }\r\n\r\n    // Adds the groupID to the user's array of groups and Adds the user's address to the group's array of members\r\n    function registerGroup(uint groupID) public {\r\n        userStruct storage u = userInfo[msg.sender];\r\n        groupStruct storage g = groupInfo[groupID];\r\n        \r\n        require(groupID != 0);\r\n        require(!compareStrings(g.name, \"\")); // Validates the group's existence\r\n        // TODO add requirement to prevent the user to enter twice\r\n        \r\n        //Update User\r\n        u.groups.push(groupID);\r\n        \r\n        // Update Group\r\n        g.members.push(u.userAddress);\r\n    }\r\n    \r\n    // Removes the groupID in the user's groups array and Removes the address in the group's member array\r\n    // using the Swap & Delete method (swaps the last element)\r\n    // Resources https://stackoverflow.com/questions/49051856/is-there-a-pop-functionality-for-solidity-arrays\r\n    // The inputs are very specific to prevent large computations (TO CHANGE DEPENDING ON PROJECT MANAGER'S CHOICE)\r\n    function leaveGroup(uint indexGroup, uint indexMember, uint groupID) public {\r\n        userStruct storage u = userInfo[msg.sender];\r\n        groupStruct storage g = groupInfo[groupID];\r\n        \r\n        // Remove the group from user\r\n        u.groups[indexGroup] = u.groups[u.groups.length - 1];\r\n        delete u.groups[u.groups.length - 1];\r\n        u.groups.pop();\r\n        \r\n        // Remove user from the group\r\n        g.members[indexMember] = g.members[g.members.length - 1];\r\n        delete g.members[g.members.length - 1];\r\n        g.members.pop();\r\n    }\r\n    \r\n    // Returns a specific group of the user\r\n    function getUserGroup(uint index) public view returns (uint) {\r\n        userStruct storage u = userInfo[msg.sender];\r\n        return u.groups[index];\r\n    }\r\n    \r\n    // Returns the user's array of groups\r\n    function getUserAllGroups() public view returns (uint[] memory) {\r\n        userStruct storage u = userInfo[msg.sender];\r\n        return u.groups;\r\n    }\r\n    \r\n    // Returns all members of the group\r\n    function getAllMembers(uint groupID) public view returns (address[] memory) {\r\n        groupStruct storage g = groupInfo[groupID];\r\n        return g.members;\r\n    }\r\n    \r\n    // Returns a specific group of the website\r\n    function getGroup(uint id) public view returns(string memory, string memory, address[] memory, uint) {\r\n        groupStruct storage g = groupInfo[id];\r\n        return (g.name, g.description, g.members, g.members.length);\r\n    }\r\n    \r\n    function registerUser(string memory name, string memory email, string memory password) public {\r\n        userStruct storage u = userInfo[msg.sender]; //innitialize\r\n        u.name = name;\r\n        u.email = email;\r\n        u.password = password;\r\n        u.userAddress =  msg.sender;\r\n        u.isAdmin = true;\r\n        u.groups.push(1); // TODO  Adds a default group (INSTANTIATE THE GROUP IN LATER COMMIT)\r\n    }\r\n\r\n    function createVote(uint typeOf) public{\r\n        address newVote = address(new Vote(msg.sender, typeOf));\r\n        deployedVotes.push(newVote);\r\n    }\r\n    function loginUser(string memory password) public view returns (string memory, string memory, uint[] memory, bool) {\r\n       userStruct storage u = userInfo[msg.sender];\r\n       require(compareStrings(password, u.password)); // NEW implemented the helper method\r\n       return(u.name, u.email, u.groups, u.isAdmin);\r\n    }\r\n\r\n    //NEED TO BE FIX (u.groups)\r\n    function getUser() public view returns (string memory, string memory, uint[] memory, bool){\r\n        userStruct storage u = userInfo[msg.sender];\r\n        return(u.name, u.email, u.groups, u.isAdmin);\r\n    }\r\n    \r\n    function getDeployedVotes() public view returns (address[] memory) {\r\n        return deployedVotes;\r\n    }\r\n    \r\n    // Returns a boolean value of the comparison (HELPER METHOD)\r\n    // Based on https://ethereum.stackexchange.com/questions/30912/how-to-compare-strings-in-solidity/82739\r\n    function compareStrings(string memory a, string memory b) public pure returns (bool) {\r\n        return (keccak256(abi.encodePacked((a))) == keccak256(abi.encodePacked((b))));\r\n    }\r\n    \r\n    \r\n}\r\n\r\n",
  "sourcePath": "C:/Users/foubroker/PROJECT_VOTE/voting-at-mcgill/contracts/VoteFactory.sol",
  "compiler": {
    "name": "solc",
    "version": "0.7.4+commit.3f05b770.Emscripten.clang"
  },
  "schemaVersion": "3.3.3",
  "updatedAt": "2021-03-11T04:39:51.694Z",
  "networkType": "ethereum",
  "devdoc": {
    "kind": "dev",
    "methods": {},
    "version": 1
  },
  "userdoc": {
    "kind": "user",
    "methods": {},
    "version": 1
  }
}