{
  "contractName": "VoteFactory",
  "abi": [
    {
      "inputs": [
        {
          "internalType": "uint256",
          "name": "",
          "type": "uint256"
        }
      ],
      "name": "deployedVotes",
      "outputs": [
        {
          "internalType": "address",
          "name": "",
          "type": "address"
        }
      ],
      "stateMutability": "view",
      "type": "function",
      "constant": true
    },
    {
      "inputs": [
        {
          "internalType": "uint256",
          "name": "",
          "type": "uint256"
        }
      ],
      "name": "existingGroups",
      "outputs": [
        {
          "internalType": "uint32",
          "name": "",
          "type": "uint32"
        }
      ],
      "stateMutability": "view",
      "type": "function",
      "constant": true
    },
    {
      "inputs": [
        {
          "internalType": "uint256",
          "name": "",
          "type": "uint256"
        }
      ],
      "name": "groupInfo",
      "outputs": [
        {
          "internalType": "string",
          "name": "name",
          "type": "string"
        },
        {
          "internalType": "string",
          "name": "description",
          "type": "string"
        }
      ],
      "stateMutability": "view",
      "type": "function",
      "constant": true
    },
    {
      "inputs": [
        {
          "internalType": "string",
          "name": "name",
          "type": "string"
        },
        {
          "internalType": "string",
          "name": "description",
          "type": "string"
        },
        {
          "internalType": "uint32",
          "name": "groupID",
          "type": "uint32"
        }
      ],
      "name": "createGroup",
      "outputs": [],
      "stateMutability": "nonpayable",
      "type": "function"
    },
    {
      "inputs": [
        {
          "internalType": "uint32",
          "name": "groupID",
          "type": "uint32"
        }
      ],
      "name": "registerGroup",
      "outputs": [],
      "stateMutability": "nonpayable",
      "type": "function"
    },
    {
      "inputs": [
        {
          "internalType": "uint32",
          "name": "indexGroup",
          "type": "uint32"
        },
        {
          "internalType": "uint32",
          "name": "indexMember",
          "type": "uint32"
        },
        {
          "internalType": "uint32",
          "name": "groupID",
          "type": "uint32"
        }
      ],
      "name": "leaveGroup",
      "outputs": [],
      "stateMutability": "nonpayable",
      "type": "function"
    },
    {
      "inputs": [
        {
          "internalType": "uint32",
          "name": "groupID",
          "type": "uint32"
        }
      ],
      "name": "isUserGroup",
      "outputs": [
        {
          "internalType": "bool",
          "name": "",
          "type": "bool"
        }
      ],
      "stateMutability": "view",
      "type": "function",
      "constant": true
    },
    {
      "inputs": [
        {
          "internalType": "uint32",
          "name": "groupID",
          "type": "uint32"
        }
      ],
      "name": "isGroup",
      "outputs": [
        {
          "internalType": "bool",
          "name": "",
          "type": "bool"
        }
      ],
      "stateMutability": "view",
      "type": "function",
      "constant": true
    },
    {
      "inputs": [
        {
          "internalType": "uint32",
          "name": "index",
          "type": "uint32"
        }
      ],
      "name": "getUserGroup",
      "outputs": [
        {
          "internalType": "uint32",
          "name": "",
          "type": "uint32"
        }
      ],
      "stateMutability": "view",
      "type": "function",
      "constant": true
    },
    {
      "inputs": [],
      "name": "getUserAllGroups",
      "outputs": [
        {
          "internalType": "uint32[]",
          "name": "",
          "type": "uint32[]"
        }
      ],
      "stateMutability": "view",
      "type": "function",
      "constant": true
    },
    {
      "inputs": [
        {
          "internalType": "uint32",
          "name": "groupID",
          "type": "uint32"
        }
      ],
      "name": "getAllMembers",
      "outputs": [
        {
          "internalType": "address[]",
          "name": "",
          "type": "address[]"
        }
      ],
      "stateMutability": "view",
      "type": "function",
      "constant": true
    },
    {
      "inputs": [
        {
          "internalType": "uint8",
          "name": "id",
          "type": "uint8"
        }
      ],
      "name": "getGroup",
      "outputs": [
        {
          "internalType": "string",
          "name": "",
          "type": "string"
        },
        {
          "internalType": "string",
          "name": "",
          "type": "string"
        },
        {
          "internalType": "address[]",
          "name": "",
          "type": "address[]"
        },
        {
          "internalType": "uint256",
          "name": "",
          "type": "uint256"
        }
      ],
      "stateMutability": "view",
      "type": "function",
      "constant": true
    },
    {
      "inputs": [],
      "name": "getExistingGroups",
      "outputs": [
        {
          "internalType": "uint32[]",
          "name": "",
          "type": "uint32[]"
        }
      ],
      "stateMutability": "view",
      "type": "function",
      "constant": true
    },
    {
      "inputs": [
        {
          "internalType": "string",
          "name": "name",
          "type": "string"
        },
        {
          "internalType": "string",
          "name": "email",
          "type": "string"
        },
        {
          "internalType": "string",
          "name": "password",
          "type": "string"
        }
      ],
      "name": "registerUser",
      "outputs": [],
      "stateMutability": "nonpayable",
      "type": "function"
    },
    {
      "inputs": [
        {
          "internalType": "uint256",
          "name": "typeOf",
          "type": "uint256"
        }
      ],
      "name": "createVote",
      "outputs": [],
      "stateMutability": "nonpayable",
      "type": "function"
    },
    {
      "inputs": [
        {
          "internalType": "string",
          "name": "password",
          "type": "string"
        }
      ],
      "name": "loginUser",
      "outputs": [
        {
          "internalType": "string",
          "name": "",
          "type": "string"
        },
        {
          "internalType": "string",
          "name": "",
          "type": "string"
        },
        {
          "internalType": "uint32[]",
          "name": "",
          "type": "uint32[]"
        },
        {
          "internalType": "bool",
          "name": "",
          "type": "bool"
        }
      ],
      "stateMutability": "view",
      "type": "function",
      "constant": true
    },
    {
      "inputs": [],
      "name": "getUser",
      "outputs": [
        {
          "internalType": "string",
          "name": "",
          "type": "string"
        },
        {
          "internalType": "string",
          "name": "",
          "type": "string"
        },
        {
          "internalType": "uint32[]",
          "name": "",
          "type": "uint32[]"
        },
        {
          "internalType": "bool",
          "name": "",
          "type": "bool"
        }
      ],
      "stateMutability": "view",
      "type": "function",
      "constant": true
    },
    {
      "inputs": [],
      "name": "getDeployedVotes",
      "outputs": [
        {
          "internalType": "address[]",
          "name": "",
          "type": "address[]"
        }
      ],
      "stateMutability": "view",
      "type": "function",
      "constant": true
    },
    {
      "inputs": [
        {
          "internalType": "string",
          "name": "a",
          "type": "string"
        },
        {
          "internalType": "string",
          "name": "b",
          "type": "string"
        }
      ],
      "name": "compareStrings",
      "outputs": [
        {
          "internalType": "bool",
          "name": "",
          "type": "bool"
        }
      ],
      "stateMutability": "pure",
      "type": "function",
      "constant": true
    }
  ],
  "bytecode": "0x60806040526001600460006101000a81548163ffffffff021916908363ffffffff16021790555034801561003257600080fd5b50614709806100426000396000f3fe608060405234801561001057600080fd5b50600436106101205760003560e01c8063b0f97938116100ad578063ca9cdfff11610071578063ca9cdfff14610c42578063d2f4a80214610ca1578063d637dcfa14610d00578063e670d80014610ee9578063fa954aa014610f3157610120565b8063b0f979381461084d578063b5008c0f146108d6578063bcab1fe314610920578063bed34bba14610a82578063c142ab0014610bea57610120565b80633f2e1f60116100f45780633f2e1f60146104bc57806364363720146105105780636638a0fa1461055e578063832880e7146106c3578063a9905aa01461080357610120565b806273d7ae1461012557806303d480f3146101845780631c14ce5e14610297578063338b474114610488575b600080fd5b61012d610f5f565b6040518080602001828103825283818151815260200191508051906020019060200280838360005b83811015610170578082015181840152602081019050610155565b505050509050019250505060405180910390f35b6101b06004803603602081101561019a57600080fd5b8101908080359060200190929190505050610fe3565b604051808060200180602001838103835285818151815260200191508051906020019080838360005b838110156101f45780820151818401526020810190506101d9565b50505050905090810190601f1680156102215780820380516001836020036101000a031916815260200191505b50838103825284818151815260200191508051906020019080838360005b8381101561025a57808201518184015260208101905061023f565b50505050905090810190601f1680156102875780820380516001836020036101000a031916815260200191505b5094505050505060405180910390f35b610350600480360360208110156102ad57600080fd5b81019080803590602001906401000000008111156102ca57600080fd5b8201836020820111156102dc57600080fd5b803590602001918460018302840111640100000000831117156102fe57600080fd5b91908080601f016020809104026020016040519081016040528093929190818152602001838380828437600081840152601f19601f820116905080830192505050505050509192919290505050611137565b604051808060200180602001806020018515158152602001848103845288818151815260200191508051906020019080838360005b838110156103a0578082015181840152602081019050610385565b50505050905090810190601f1680156103cd5780820380516001836020036101000a031916815260200191505b50848103835287818151815260200191508051906020019080838360005b838110156104065780820151818401526020810190506103eb565b50505050905090810190601f1680156104335780820380516001836020036101000a031916815260200191505b50848103825286818151815260200191508051906020019060200280838360005b8381101561046f578082015181840152602081019050610454565b5050505090500197505050505050505060405180910390f35b6104ba6004803603602081101561049e57600080fd5b81019080803563ffffffff169060200190929190505050611413565b005b61050e600480360360608110156104d257600080fd5b81019080803563ffffffff169060200190929190803563ffffffff169060200190929190803563ffffffff169060200190929190505050611636565b005b6105426004803603602081101561052657600080fd5b81019080803563ffffffff1690602001909291905050506118ca565b604051808263ffffffff16815260200191505060405180910390f35b61058d6004803603602081101561057457600080fd5b81019080803560ff169060200190929190505050611951565b60405180806020018060200180602001858152602001848103845288818151815260200191508051906020019080838360005b838110156105db5780820151818401526020810190506105c0565b50505050905090810190601f1680156106085780820380516001836020036101000a031916815260200191505b50848103835287818151815260200191508051906020019080838360005b83811015610641578082015181840152602081019050610626565b50505050905090810190601f16801561066e5780820380516001836020036101000a031916815260200191505b50848103825286818151815260200191508051906020019060200280838360005b838110156106aa57808201518184015260208101905061068f565b5050505090500197505050505050505060405180910390f35b6106cb611b54565b604051808060200180602001806020018515158152602001848103845288818151815260200191508051906020019080838360005b8381101561071b578082015181840152602081019050610700565b50505050905090810190601f1680156107485780820380516001836020036101000a031916815260200191505b50848103835287818151815260200191508051906020019080838360005b83811015610781578082015181840152602081019050610766565b50505050905090810190601f1680156107ae5780820380516001836020036101000a031916815260200191505b50848103825286818151815260200191508051906020019060200280838360005b838110156107ea5780820151818401526020810190506107cf565b5050505090500197505050505050505060405180910390f35b6108356004803603602081101561081957600080fd5b81019080803563ffffffff169060200190929190505050611d80565b60405180821515815260200191505060405180910390f35b61087f6004803603602081101561086357600080fd5b81019080803563ffffffff169060200190929190505050611e39565b6040518080602001828103825283818151815260200191508051906020019060200280838360005b838110156108c25780820151818401526020810190506108a7565b505050509050019250505060405180910390f35b610908600480360360208110156108ec57600080fd5b81019080803563ffffffff169060200190929190505050611ee8565b60405180821515815260200191505060405180910390f35b610a806004803603606081101561093657600080fd5b810190808035906020019064010000000081111561095357600080fd5b82018360208201111561096557600080fd5b8035906020019184600183028401116401000000008311171561098757600080fd5b91908080601f016020809104026020016040519081016040528093929190818152602001838380828437600081840152601f19601f820116905080830192505050505050509192919290803590602001906401000000008111156109ea57600080fd5b8201836020820111156109fc57600080fd5b80359060200191846001830284011164010000000083111715610a1e57600080fd5b91908080601f016020809104026020016040519081016040528093929190818152602001838380828437600081840152601f19601f820116905080830192505050505050509192919290803563ffffffff169060200190929190505050611fc9565b005b610bd260048036036040811015610a9857600080fd5b8101908080359060200190640100000000811115610ab557600080fd5b820183602082011115610ac757600080fd5b80359060200191846001830284011164010000000083111715610ae957600080fd5b91908080601f016020809104026020016040519081016040528093929190818152602001838380828437600081840152601f19601f82011690508083019250505050505050919291929080359060200190640100000000811115610b4c57600080fd5b820183602082011115610b5e57600080fd5b80359060200191846001830284011164010000000083111715610b8057600080fd5b91908080601f016020809104026020016040519081016040528093929190818152602001838380828437600081840152601f19601f820116905080830192505050505050509192919290505050612204565b60405180821515815260200191505060405180910390f35b610c1660048036036020811015610c0057600080fd5b81019080803590602001909291905050506122f3565b604051808273ffffffffffffffffffffffffffffffffffffffff16815260200191505060405180910390f35b610c4a612332565b6040518080602001828103825283818151815260200191508051906020019060200280838360005b83811015610c8d578082015181840152602081019050610c72565b505050509050019250505060405180910390f35b610ca96123c0565b6040518080602001828103825283818151815260200191508051906020019060200280838360005b83811015610cec578082015181840152602081019050610cd1565b505050509050019250505060405180910390f35b610ee760048036036060811015610d1657600080fd5b8101908080359060200190640100000000811115610d3357600080fd5b820183602082011115610d4557600080fd5b80359060200191846001830284011164010000000083111715610d6757600080fd5b91908080601f016020809104026020016040519081016040528093929190818152602001838380828437600081840152601f19601f82011690508083019250505050505050919291929080359060200190640100000000811115610dca57600080fd5b820183602082011115610ddc57600080fd5b80359060200191846001830284011164010000000083111715610dfe57600080fd5b91908080601f016020809104026020016040519081016040528093929190818152602001838380828437600081840152601f19601f82011690508083019250505050505050919291929080359060200190640100000000811115610e6157600080fd5b820183602082011115610e7357600080fd5b80359060200191846001830284011164010000000083111715610e9557600080fd5b91908080601f016020809104026020016040519081016040528093929190818152602001838380828437600081840152601f19601f82011690508083019250505050505050919291929050505061248a565b005b610f1560048036036020811015610eff57600080fd5b8101908080359060200190929190505050612598565b604051808263ffffffff16815260200191505060405180910390f35b610f5d60048036036020811015610f4757600080fd5b81019080803590602001909291905050506125d2565b005b60606005805480602002602001604051908101604052809291908181526020018280548015610fd957602002820191906000526020600020906000905b82829054906101000a900463ffffffff1663ffffffff1681526020019060040190602082600301049283019260010382029150808411610f9c5790505b5050505050905090565b6000602052806000526040600020600091509050806000018054600181600116156101000203166002900480601f01602080910402602001604051908101604052809291908181526020018280546001816001161561010002031660029004801561108f5780601f106110645761010080835404028352916020019161108f565b820191906000526020600020905b81548152906001019060200180831161107257829003601f168201915b505050505090806001018054600181600116156101000203166002900480601f01602080910402602001604051908101604052809291908181526020018280546001816001161561010002031660029004801561112d5780601f106111025761010080835404028352916020019161112d565b820191906000526020600020905b81548152906001019060200180831161111057829003601f168201915b5050505050905082565b6060806060600080600360003373ffffffffffffffffffffffffffffffffffffffff1673ffffffffffffffffffffffffffffffffffffffff168152602001908152602001600020905061122686826003018054600181600116156101000203166002900480601f01602080910402602001604051908101604052809291908181526020018280546001816001161561010002031660029004801561121c5780601f106111f15761010080835404028352916020019161121c565b820191906000526020600020905b8154815290600101906020018083116111ff57829003601f168201915b5050505050612204565b61122f57600080fd5b8060010181600201826004018360050160009054906101000a900460ff16838054600181600116156101000203166002900480601f0160208091040260200160405190810160405280929190818152602001828054600181600116156101000203166002900480156112e25780601f106112b7576101008083540402835291602001916112e2565b820191906000526020600020905b8154815290600101906020018083116112c557829003601f168201915b50505050509350828054600181600116156101000203166002900480601f01602080910402602001604051908101604052809291908181526020018280546001816001161561010002031660029004801561137e5780601f106113535761010080835404028352916020019161137e565b820191906000526020600020905b81548152906001019060200180831161136157829003601f168201915b50505050509250818054806020026020016040519081016040528092919081815260200182805480156113fc57602002820191906000526020600020906000905b82829054906101000a900463ffffffff1663ffffffff16815260200190600401906020826003010492830192600103820291508084116113bf5790505b505050505091509450945094509450509193509193565b6000600360003373ffffffffffffffffffffffffffffffffffffffff1673ffffffffffffffffffffffffffffffffffffffff168152602001908152602001600020905060008060008463ffffffff168152602001908152602001600020905060008363ffffffff16141561148657600080fd5b61153b816000018054600181600116156101000203166002900480601f0160208091040260200160405190810160405280929190818152602001828054600181600116156101000203166002900480156115215780601f106114f657610100808354040283529160200191611521565b820191906000526020600020905b81548152906001019060200180831161150457829003601f168201915b505050505060405180602001604052806000815250612204565b1561154557600080fd5b61154e83611d80565b1561155857600080fd5b816004018390806001815401808255809150506001900390600052602060002090600891828204019190066004029091909190916101000a81548163ffffffff021916908363ffffffff160217905550806002018260000160009054906101000a900473ffffffffffffffffffffffffffffffffffffffff169080600181540180825580915050600190039060005260206000200160009091909190916101000a81548173ffffffffffffffffffffffffffffffffffffffff021916908373ffffffffffffffffffffffffffffffffffffffff160217905550505050565b6000600360003373ffffffffffffffffffffffffffffffffffffffff1673ffffffffffffffffffffffffffffffffffffffff168152602001908152602001600020905060008060008463ffffffff1681526020019081526020016000209050816004016001836004018054905003815481106116ae57fe5b90600052602060002090600891828204019190066004029054906101000a900463ffffffff16826004018663ffffffff16815481106116e957fe5b90600052602060002090600891828204019190066004026101000a81548163ffffffff021916908363ffffffff1602179055508160040160018360040180549050038154811061173557fe5b90600052602060002090600891828204019190066004026101000a81549063ffffffff02191690558160040180548061176a57fe5b60019003818190600052602060002090600891828204019190066004026101000a81549063ffffffff02191690559055806002016001826002018054905003815481106117b357fe5b9060005260206000200160009054906101000a900473ffffffffffffffffffffffffffffffffffffffff16816002018563ffffffff16815481106117f357fe5b9060005260206000200160006101000a81548173ffffffffffffffffffffffffffffffffffffffff021916908373ffffffffffffffffffffffffffffffffffffffff1602179055508060020160018260020180549050038154811061185457fe5b9060005260206000200160006101000a81549073ffffffffffffffffffffffffffffffffffffffff02191690558060020180548061188e57fe5b6001900381819060005260206000200160006101000a81549073ffffffffffffffffffffffffffffffffffffffff021916905590555050505050565b600080600360003373ffffffffffffffffffffffffffffffffffffffff1673ffffffffffffffffffffffffffffffffffffffff1681526020019081526020016000209050806004018363ffffffff168154811061192357fe5b90600052602060002090600891828204019190066004029054906101000a900463ffffffff16915050919050565b60608060606000806000808760ff16815260200190815260200160002090508060000181600101826002018360020180549050838054600181600116156101000203166002900480601f016020809104026020016040519081016040528092919081815260200182805460018160011615610100020316600290048015611a195780601f106119ee57610100808354040283529160200191611a19565b820191906000526020600020905b8154815290600101906020018083116119fc57829003601f168201915b50505050509350828054600181600116156101000203166002900480601f016020809104026020016040519081016040528092919081815260200182805460018160011615610100020316600290048015611ab55780601f10611a8a57610100808354040283529160200191611ab5565b820191906000526020600020905b815481529060010190602001808311611a9857829003601f168201915b5050505050925081805480602002602001604051908101604052809291908181526020018280548015611b3d57602002820191906000526020600020905b8160009054906101000a900473ffffffffffffffffffffffffffffffffffffffff1673ffffffffffffffffffffffffffffffffffffffff1681526020019060010190808311611af3575b505050505091509450945094509450509193509193565b6060806060600080600360003373ffffffffffffffffffffffffffffffffffffffff1673ffffffffffffffffffffffffffffffffffffffff16815260200190815260200160002090508060010181600201826004018360050160009054906101000a900460ff16838054600181600116156101000203166002900480601f016020809104026020016040519081016040528092919081815260200182805460018160011615610100020316600290048015611c505780601f10611c2557610100808354040283529160200191611c50565b820191906000526020600020905b815481529060010190602001808311611c3357829003601f168201915b50505050509350828054600181600116156101000203166002900480601f016020809104026020016040519081016040528092919081815260200182805460018160011615610100020316600290048015611cec5780601f10611cc157610100808354040283529160200191611cec565b820191906000526020600020905b815481529060010190602001808311611ccf57829003601f168201915b5050505050925081805480602002602001604051908101604052809291908181526020018280548015611d6a57602002820191906000526020600020906000905b82829054906101000a900463ffffffff1663ffffffff1681526020019060040190602082600301049283019260010382029150808411611d2d5790505b5050505050915094509450945094505090919293565b600080600090506000600360003373ffffffffffffffffffffffffffffffffffffffff1673ffffffffffffffffffffffffffffffffffffffff168152602001908152602001600020905060005b8160040180549050811015611e2e578463ffffffff16826004018281548110611df257fe5b90600052602060002090600891828204019190066004029054906101000a900463ffffffff1663ffffffff161492508080600101915050611dcd565b508192505050919050565b606060008060008463ffffffff168152602001908152602001600020905080600201805480602002602001604051908101604052809291908181526020018280548015611edb57602002820191906000526020600020905b8160009054906101000a900473ffffffffffffffffffffffffffffffffffffffff1673ffffffffffffffffffffffffffffffffffffffff1681526020019060010190808311611e91575b5050505050915050919050565b6000806000808463ffffffff16815260200190815260200160002090506000611fbc826000018054600181600116156101000203166002900480601f016020809104026020016040519081016040528092919081815260200182805460018160011615610100020316600290048015611fa25780601f10611f7757610100808354040283529160200191611fa2565b820191906000526020600020905b815481529060010190602001808311611f8557829003601f168201915b505050505060405180602001604052806000815250612204565b1590508092505050919050565b611fd36001611ee8565b6121275760008060006001815260200190815260200160002090506040518060400160405280600781526020017f53747564656e740000000000000000000000000000000000000000000000000081525081600001908051906020019061203b92919061268f565b506040518060400160405280600d81526020017f44656661756c742047726f75700000000000000000000000000000000000000081525081600101908051906020019061208992919061268f565b506001600081819054906101000a900463ffffffff168092919060010191906101000a81548163ffffffff021916908363ffffffff160217905550506005600460009054906101000a900463ffffffff1690806001815401808255809150506001900390600052602060002090600891828204019190066004029091909190916101000a81548163ffffffff021916908363ffffffff160217905550505b60008060008363ffffffff16815260200190815260200160002090508381600001908051906020019061215b92919061268f565b508281600101908051906020019061217492919061268f565b506001600081819054906101000a900463ffffffff168092919060010191906101000a81548163ffffffff021916908363ffffffff1602179055505060058290806001815401808255809150506001900390600052602060002090600891828204019190066004029091909190916101000a81548163ffffffff021916908363ffffffff16021790555050505050565b6000816040516020018082805190602001908083835b6020831061223d578051825260208201915060208101905060208303925061221a565b6001836020036101000a03801982511681845116808217855250505050505090500191505060405160208183030381529060405280519060200120836040516020018082805190602001908083835b602083106122af578051825260208201915060208101905060208303925061228c565b6001836020036101000a0380198251168184511680821785525050505050509050019150506040516020818303038152906040528051906020012014905092915050565b6002818154811061230357600080fd5b906000526020600020016000915054906101000a900473ffffffffffffffffffffffffffffffffffffffff1681565b606060028054806020026020016040519081016040528092919081815260200182805480156123b657602002820191906000526020600020905b8160009054906101000a900473ffffffffffffffffffffffffffffffffffffffff1673ffffffffffffffffffffffffffffffffffffffff168152602001906001019080831161236c575b5050505050905090565b60606000600360003373ffffffffffffffffffffffffffffffffffffffff1673ffffffffffffffffffffffffffffffffffffffff16815260200190815260200160002090508060040180548060200260200160405190810160405280929190818152602001828054801561247f57602002820191906000526020600020906000905b82829054906101000a900463ffffffff1663ffffffff16815260200190600401906020826003010492830192600103820291508084116124425790505b505050505091505090565b6000600360003373ffffffffffffffffffffffffffffffffffffffff1673ffffffffffffffffffffffffffffffffffffffff1681526020019081526020016000209050838160010190805190602001906124e592919061268f565b50828160020190805190602001906124fe92919061268f565b508181600301908051906020019061251792919061268f565b50338160000160006101000a81548173ffffffffffffffffffffffffffffffffffffffff021916908373ffffffffffffffffffffffffffffffffffffffff16021790555060018160050160006101000a81548160ff0219169083151502179055506125826001611ee8565b15612592576125916001611413565b5b50505050565b600581815481106125a857600080fd5b9060005260206000209060089182820401919006600402915054906101000a900463ffffffff1681565b600033826040516125e29061271d565b808373ffffffffffffffffffffffffffffffffffffffff16815260200182815260200192505050604051809103906000f080158015612625573d6000803e3d6000fd5b5090506002819080600181540180825580915050600190039060005260206000200160009091909190916101000a81548173ffffffffffffffffffffffffffffffffffffffff021916908373ffffffffffffffffffffffffffffffffffffffff1602179055505050565b828054600181600116156101000203166002900490600052602060002090601f0160209004810192826126c5576000855561270c565b82601f106126de57805160ff191683800117855561270c565b8280016001018555821561270c579182015b8281111561270b5782518255916020019190600101906126f0565b5b509050612719919061272a565b5090565b611f8c8061274883390190565b5b8082111561274357600081600090555060010161272b565b509056fe608060405234801561001057600080fd5b50604051611f8c380380611f8c8339818101604052604081101561003357600080fd5b810190808051906020019092919080519060200190929190505050816000806101000a81548173ffffffffffffffffffffffffffffffffffffffff021916908373ffffffffffffffffffffffffffffffffffffffff160217905550806002819055505050611ee6806100a66000396000f3fe608060405234801561001057600080fd5b50600436106101005760003560e01c80637432e63a11610097578063953ef76d11610066578063953ef76d1461083c578063da3550ee1461096c578063dcfda00f146109b0578063fcae83a714610bad57610100565b80637432e63a146104a2578063869eae23146104fa5780638ab66a901461065657806395115447146107a357610100565b8063481c6a75116100d3578063481c6a75146101aa5780635aa82fbe146101de57806367127e4314610238578063691a675c1461039e57610100565b80632d35a8a21461010557806337cc0439146101235780633f8cab7f14610141578063407bba4a146101a0575b600080fd5b61010d610d1d565b6040518082815260200191505060405180910390f35b61012b610d23565b6040518082815260200191505060405180910390f35b610149610d29565b6040518080602001828103825283818151815260200191508051906020019060200280838360005b8381101561018c578082015181840152602081019050610171565b505050509050019250505060405180910390f35b6101a8610dc6565b005b6101b2610fee565b604051808273ffffffffffffffffffffffffffffffffffffffff16815260200191505060405180910390f35b610220600480360360208110156101f457600080fd5b81019080803573ffffffffffffffffffffffffffffffffffffffff169060200190929190505050611012565b60405180821515815260200191505060405180910390f35b61039c6004803603608081101561024e57600080fd5b810190808035906020019064010000000081111561026b57600080fd5b82018360208201111561027d57600080fd5b8035906020019184600183028401116401000000008311171561029f57600080fd5b91908080601f016020809104026020016040519081016040528093929190818152602001838380828437600081840152601f19601f82011690508083019250505050505050919291929080359060200190929190803590602001909291908035906020019064010000000081111561031657600080fd5b82018360208201111561032857600080fd5b8035906020019184600183028401116401000000008311171561034a57600080fd5b91908080601f016020809104026020016040519081016040528093929190818152602001838380828437600081840152601f19601f820116905080830192505050505050509192919290505050611068565b005b6103a6611120565b604051808060200186815260200185815260200180602001848152602001838103835288818151815260200191508051906020019080838360005b838110156103fc5780820151818401526020810190506103e1565b50505050905090810190601f1680156104295780820380516001836020036101000a031916815260200191505b50838103825285818151815260200191508051906020019080838360005b83811015610462578082015181840152602081019050610447565b50505050905090810190601f16801561048f5780820380516001836020036101000a031916815260200191505b5097505050505050505060405180910390f35b6104ce600480360360208110156104b857600080fd5b8101908080359060200190929190505050611274565b604051808273ffffffffffffffffffffffffffffffffffffffff16815260200191505060405180910390f35b6106546004803603606081101561051057600080fd5b810190808035906020019064010000000081111561052d57600080fd5b82018360208201111561053f57600080fd5b8035906020019184600183028401116401000000008311171561056157600080fd5b91908080601f016020809104026020016040519081016040528093929190818152602001838380828437600081840152601f19601f820116905080830192505050505050509192919290803590602001906401000000008111156105c457600080fd5b8201836020820111156105d657600080fd5b803590602001918460018302840111640100000000831117156105f857600080fd5b91908080601f016020809104026020016040519081016040528093929190818152602001838380828437600081840152601f19601f820116905080830192505050505050509192919290803590602001909291905050506112b3565b005b6106986004803603602081101561066c57600080fd5b81019080803573ffffffffffffffffffffffffffffffffffffffff1690602001909291905050506113f5565b604051808573ffffffffffffffffffffffffffffffffffffffff1681526020018481526020018060200180602001838103835285818151815260200191508051906020019080838360005b838110156106fe5780820151818401526020810190506106e3565b50505050905090810190601f16801561072b5780820380516001836020036101000a031916815260200191505b50838103825284818151815260200191508051906020019080838360005b83811015610764578082015181840152602081019050610749565b50505050905090810190601f1680156107915780820380516001836020036101000a031916815260200191505b50965050505050505060405180910390f35b6107e5600480360360208110156107b957600080fd5b81019080803573ffffffffffffffffffffffffffffffffffffffff169060200190929190505050611575565b6040518080602001828103825283818151815260200191508051906020019060200280838360005b8381101561082857808201518184015260208101905061080d565b505050509050019250505060405180910390f35b61087e6004803603602081101561085257600080fd5b81019080803573ffffffffffffffffffffffffffffffffffffffff169060200190929190505050611654565b604051808060200180602001848152602001838103835286818151815260200191508051906020019080838360005b838110156108c85780820151818401526020810190506108ad565b50505050905090810190601f1680156108f55780820380516001836020036101000a031916815260200191505b50838103825285818151815260200191508051906020019080838360005b8381101561092e578082015181840152602081019050610913565b50505050905090810190601f16801561095b5780820380516001836020036101000a031916815260200191505b509550505050505060405180910390f35b6109ae6004803603602081101561098257600080fd5b81019080803573ffffffffffffffffffffffffffffffffffffffff169060200190929190505050611873565b005b610bab600480360360a08110156109c657600080fd5b81019080803590602001906401000000008111156109e357600080fd5b8201836020820111156109f557600080fd5b80359060200191846001830284011164010000000083111715610a1757600080fd5b91908080601f016020809104026020016040519081016040528093929190818152602001838380828437600081840152601f19601f820116905080830192505050505050509192919290803590602001909291908035906020019092919080359060200190640100000000811115610a8e57600080fd5b820183602082011115610aa057600080fd5b80359060200191846001830284011164010000000083111715610ac257600080fd5b91908080601f016020809104026020016040519081016040528093929190818152602001838380828437600081840152601f19601f82011690508083019250505050505050919291929080359060200190640100000000811115610b2557600080fd5b820183602082011115610b3757600080fd5b80359060200191846001830284011164010000000083111715610b5957600080fd5b91908080601f016020809104026020016040519081016040528093929190818152602001838380828437600081840152601f19601f820116905080830192505050505050509192919290505050611ad8565b005b610bb5611baa565b6040518080602001878152602001868152602001806020018581526020018060200184810384528a818151815260200191508051906020019080838360005b83811015610c0f578082015181840152602081019050610bf4565b50505050905090810190601f168015610c3c5780820380516001836020036101000a031916815260200191505b50848103835287818151815260200191508051906020019080838360005b83811015610c75578082015181840152602081019050610c5a565b50505050905090810190601f168015610ca25780820380516001836020036101000a031916815260200191505b50848103825285818151815260200191508051906020019080838360005b83811015610cdb578082015181840152602081019050610cc0565b50505050905090810190601f168015610d085780820380516001836020036101000a031916815260200191505b50995050505050505050505060405180910390f35b60015481565b60025481565b6060600060025414610d3a57600080fd5b6005805480602002602001604051908101604052809291908181526020018280548015610dbc57602002820191906000526020600020905b8160009054906101000a900473ffffffffffffffffffffffffffffffffffffffff1673ffffffffffffffffffffffffffffffffffffffff1681526020019060010190808311610d72575b5050505050905090565b600060025414610dd557600080fd5b600460003373ffffffffffffffffffffffffffffffffffffffff1673ffffffffffffffffffffffffffffffffffffffff168152602001908152602001600020600080820160006101000a81549073ffffffffffffffffffffffffffffffffffffffff02191690556001820160009055600282016000610e549190611d9c565b600382016000610e649190611dbd565b600482016000610e749190611dbd565b505060005b600580549050811015610fd85760058181548110610e9357fe5b9060005260206000200160009054906101000a900473ffffffffffffffffffffffffffffffffffffffff1673ffffffffffffffffffffffffffffffffffffffff163373ffffffffffffffffffffffffffffffffffffffff161415610fcb57600560016005805490500381548110610f0657fe5b9060005260206000200160009054906101000a900473ffffffffffffffffffffffffffffffffffffffff1660058281548110610f3e57fe5b9060005260206000200160006101000a81548173ffffffffffffffffffffffffffffffffffffffff021916908373ffffffffffffffffffffffffffffffffffffffff1602179055506005805480610f9157fe5b6001900381819060005260206000200160006101000a81549073ffffffffffffffffffffffffffffffffffffffff02191690559055610fd8565b8080600101915050610e79565b5060016000815480929190600190039190505550565b60008054906101000a900473ffffffffffffffffffffffffffffffffffffffff1681565b6000600360008373ffffffffffffffffffffffffffffffffffffffff1673ffffffffffffffffffffffffffffffffffffffff16815260200190815260200160002060009054906101000a900460ff169050919050565b60008054906101000a900473ffffffffffffffffffffffffffffffffffffffff1673ffffffffffffffffffffffffffffffffffffffff163373ffffffffffffffffffffffffffffffffffffffff16146110c057600080fd5b6001600254146110cf57600080fd5b6000600c9050848160000190805190602001906110ed929190611e05565b5083816001018190555082816002018190555081816003019080519060200190611118929190611e05565b505050505050565b600c806000018054600181600116156101000203166002900480601f0160208091040260200160405190810160405280929190818152602001828054600181600116156101000203166002900480156111ba5780601f1061118f576101008083540402835291602001916111ba565b820191906000526020600020905b81548152906001019060200180831161119d57829003601f168201915b505050505090806001015490806002015490806003018054600181600116156101000203166002900480601f0160208091040260200160405190810160405280929190818152602001828054600181600116156101000203166002900480156112645780601f1061123957610100808354040283529160200191611264565b820191906000526020600020905b81548152906001019060200180831161124757829003601f168201915b5050505050908060040154905085565b6005818154811061128457600080fd5b906000526020600020016000915054906101000a900473ffffffffffffffffffffffffffffffffffffffff1681565b6000600254146112c257600080fd5b6000600460003373ffffffffffffffffffffffffffffffffffffffff1673ffffffffffffffffffffffffffffffffffffffff16815260200190815260200160002090508381600301908051906020019061131d929190611e05565b5082816004019080519060200190611336929190611e05565b50338160000160006101000a81548173ffffffffffffffffffffffffffffffffffffffff021916908373ffffffffffffffffffffffffffffffffffffffff1602179055506001600081548092919060010191905055506005339080600181540180825580915050600190039060005260206000200160009091909190916101000a81548173ffffffffffffffffffffffffffffffffffffffff021916908373ffffffffffffffffffffffffffffffffffffffff16021790555050505050565b60046020528060005260406000206000915090508060000160009054906101000a900473ffffffffffffffffffffffffffffffffffffffff1690806001015490806003018054600181600116156101000203166002900480601f0160208091040260200160405190810160405280929190818152602001828054600181600116156101000203166002900480156114cd5780601f106114a2576101008083540402835291602001916114cd565b820191906000526020600020905b8154815290600101906020018083116114b057829003601f168201915b505050505090806004018054600181600116156101000203166002900480601f01602080910402602001604051908101604052809291908181526020018280546001816001161561010002031660029004801561156b5780601f106115405761010080835404028352916020019161156b565b820191906000526020600020905b81548152906001019060200180831161154e57829003601f168201915b5050505050905084565b606060006002541461158657600080fd5b600460008373ffffffffffffffffffffffffffffffffffffffff1673ffffffffffffffffffffffffffffffffffffffff16815260200190815260200160002060020180548060200260200160405190810160405280929190818152602001828054801561164857602002820191906000526020600020905b8160009054906101000a900473ffffffffffffffffffffffffffffffffffffffff1673ffffffffffffffffffffffffffffffffffffffff16815260200190600101908083116115fe575b50505050509050919050565b6060806000806002541461166757600080fd5b600460008573ffffffffffffffffffffffffffffffffffffffff1673ffffffffffffffffffffffffffffffffffffffff168152602001908152602001600020600301600460008673ffffffffffffffffffffffffffffffffffffffff1673ffffffffffffffffffffffffffffffffffffffff168152602001908152602001600020600401600460008773ffffffffffffffffffffffffffffffffffffffff1673ffffffffffffffffffffffffffffffffffffffff16815260200190815260200160002060010154828054600181600116156101000203166002900480601f0160208091040260200160405190810160405280929190818152602001828054600181600116156101000203166002900480156117c35780601f10611798576101008083540402835291602001916117c3565b820191906000526020600020905b8154815290600101906020018083116117a657829003601f168201915b50505050509250818054600181600116156101000203166002900480601f01602080910402602001604051908101604052809291908181526020018280546001816001161561010002031660029004801561185f5780601f106118345761010080835404028352916020019161185f565b820191906000526020600020905b81548152906001019060200180831161184257829003601f168201915b505050505091509250925092509193909250565b60006002541461188257600080fd5b60001515600360003373ffffffffffffffffffffffffffffffffffffffff1673ffffffffffffffffffffffffffffffffffffffff16815260200190815260200160002060009054906101000a900460ff1615151415611ad557600073ffffffffffffffffffffffffffffffffffffffff16600460008373ffffffffffffffffffffffffffffffffffffffff1673ffffffffffffffffffffffffffffffffffffffff16815260200190815260200160002060000160009054906101000a900473ffffffffffffffffffffffffffffffffffffffff1673ffffffffffffffffffffffffffffffffffffffff1614611ad4576001600360003373ffffffffffffffffffffffffffffffffffffffff1673ffffffffffffffffffffffffffffffffffffffff16815260200190815260200160002060006101000a81548160ff021916908315150217905550600660040160008154809291906001019190505550600460008273ffffffffffffffffffffffffffffffffffffffff1673ffffffffffffffffffffffffffffffffffffffff16815260200190815260200160002060010160008154809291906001019190505550600460008273ffffffffffffffffffffffffffffffffffffffff1673ffffffffffffffffffffffffffffffffffffffff168152602001908152602001600020600201339080600181540180825580915050600190039060005260206000200160009091909190916101000a81548173ffffffffffffffffffffffffffffffffffffffff021916908373ffffffffffffffffffffffffffffffffffffffff1602179055505b5b50565b60008054906101000a900473ffffffffffffffffffffffffffffffffffffffff1673ffffffffffffffffffffffffffffffffffffffff163373ffffffffffffffffffffffffffffffffffffffff1614611b3057600080fd5b600060025414611b3f57600080fd5b60006006905085816000019080519060200190611b5d929190611e05565b5084816001018190555083816002018190555082816003019080519060200190611b88929190611e05565b5081816005019080519060200190611ba1929190611e05565b50505050505050565b6006806000018054600181600116156101000203166002900480601f016020809104026020016040519081016040528092919081815260200182805460018160011615610100020316600290048015611c445780601f10611c1957610100808354040283529160200191611c44565b820191906000526020600020905b815481529060010190602001808311611c2757829003601f168201915b505050505090806001015490806002015490806003018054600181600116156101000203166002900480601f016020809104026020016040519081016040528092919081815260200182805460018160011615610100020316600290048015611cee5780601f10611cc357610100808354040283529160200191611cee565b820191906000526020600020905b815481529060010190602001808311611cd157829003601f168201915b505050505090806004015490806005018054600181600116156101000203166002900480601f016020809104026020016040519081016040528092919081815260200182805460018160011615610100020316600290048015611d925780601f10611d6757610100808354040283529160200191611d92565b820191906000526020600020905b815481529060010190602001808311611d7557829003601f168201915b5050505050905086565b5080546000825590600052602060002090810190611dba9190611e93565b50565b50805460018160011615610100020316600290046000825580601f10611de35750611e02565b601f016020900490600052602060002090810190611e019190611e93565b5b50565b828054600181600116156101000203166002900490600052602060002090601f016020900481019282611e3b5760008555611e82565b82601f10611e5457805160ff1916838001178555611e82565b82800160010185558215611e82579182015b82811115611e81578251825591602001919060010190611e66565b5b509050611e8f9190611e93565b5090565b5b80821115611eac576000816000905550600101611e94565b509056fea2646970667358221220236d0e7f5c65e30829daddc1d43b6e92867f164427dda94881a1c9a40eea550a64736f6c63430007040033a2646970667358221220388fd85275c5e553f4daf8c9bc4dbf0170010dddc355b6e1b30060448b38111164736f6c63430007040033",
  "immutableReferences": {},
  "source": "pragma solidity ^0.7.4;\r\n\r\n//\"SPDX-License-Identifier: UNLICENSED\"\r\nimport \"./Vote.sol\";\r\n\r\ncontract VoteFactory{\r\n    \r\n    // Representation of an instance of Group\r\n    struct groupStruct {\r\n        string name;\r\n        string description;\r\n        address[] members; // NEW Assumption that members rarely quit      \r\n    }\r\n    \r\n    // Representation of an instance of User\r\n    struct userStruct {\r\n        address userAddress;\r\n        string name;\r\n        string email;\r\n        string password;\r\n        // address[] running;\r\n        // address[] createdElection;\r\n        // address[] createdPetition;\r\n        uint32[] groups; // NEW Assumption that users rarely quit\r\n        bool isAdmin;\r\n    }\r\n    \r\n    mapping(uint => groupStruct) public groupInfo; // KEY: groupID Value: group\r\n    uint32 groupCount;\r\n    address[] public deployedVotes;\r\n    mapping(address => userStruct) userInfo;\r\n    uint32 defaultGroupID = 1; // Use the getGroup(uint id) to access the default group\r\n    uint32[] public existingGroups; // NEW: Access all groups in the UI\r\n    \r\n    // Creates an instance of group and Updates the groupInfo mapping\r\n    // It also takes groupID as an input since the groupStruct(VALUE) is identified with a groupId(KEY)\r\n    function createGroup(string memory name, string memory description, uint32 groupID) public {\r\n        // IF statement to create a default group\r\n        if (!isGroup(1)) {\r\n            groupStruct storage studentGroup = groupInfo[1];\r\n            studentGroup.name = \"Student\";\r\n            studentGroup.description = \"Default Group\";\r\n            groupCount++;\r\n            existingGroups.push(defaultGroupID);\r\n        }\r\n        groupStruct storage g = groupInfo[groupID];\r\n        g.name = name;\r\n        g.description = description;\r\n        groupCount++;\r\n        existingGroups.push(groupID);\r\n    }\r\n\r\n    // Adds the groupID to the user's array of groups and Adds the user's address to the group's array of members\r\n    function registerGroup(uint32 groupID) public {\r\n        userStruct storage u = userInfo[msg.sender];\r\n        groupStruct storage g = groupInfo[groupID];\r\n        \r\n        require(groupID != 0);\r\n        require(!compareStrings(g.name, \"\")); // Validates the group's existence\r\n        require(!isUserGroup(groupID));\r\n        \r\n        //Update User\r\n        u.groups.push(groupID);\r\n        \r\n        // Update Group\r\n        g.members.push(u.userAddress);\r\n    }\r\n    \r\n    // Removes the groupID in the user's groups array and Removes the address in the group's member array\r\n    // using the Swap & Delete method (swaps the last element)\r\n    // Resources https://stackoverflow.com/questions/49051856/is-there-a-pop-functionality-for-solidity-arrays\r\n    // The inputs are very specific to prevent large computations (TO CHANGE DEPENDING ON PROJECT MANAGER'S CHOICE)\r\n    function leaveGroup(uint32 indexGroup, uint32 indexMember, uint32 groupID) public {\r\n        userStruct storage u = userInfo[msg.sender];\r\n        groupStruct storage g = groupInfo[groupID];\r\n        \r\n        // Remove the group from user\r\n        u.groups[indexGroup] = u.groups[u.groups.length - 1];\r\n        delete u.groups[u.groups.length - 1];\r\n        u.groups.pop();\r\n        \r\n        // Remove user from the group\r\n        g.members[indexMember] = g.members[g.members.length - 1];\r\n        delete g.members[g.members.length - 1];\r\n        g.members.pop();\r\n    }\r\n\r\n    // Verify if the user is part of the group\r\n    function isUserGroup(uint32 groupID) public view returns (bool) {\r\n        bool isStatus = false;\r\n        userStruct storage u = userInfo[msg.sender];\r\n        for (uint i = 0; i < u.groups.length; i++) {\r\n            isStatus = (u.groups[i] == groupID);\r\n        }\r\n        return isStatus;\r\n    }\r\n    \r\n    // Verify that the group exists in the mapping\r\n    function isGroup(uint32 groupID) public view returns (bool) {\r\n        groupStruct storage g = groupInfo[groupID];\r\n        bool isExist = !(compareStrings(g.name, \"\"));\r\n        return isExist;\r\n    }\r\n    \r\n    // Returns a specific group of the user\r\n    function getUserGroup(uint32 index) public view returns (uint32) {\r\n        userStruct storage u = userInfo[msg.sender];\r\n        return u.groups[index];\r\n    }\r\n    \r\n    // Returns the user's array of groups\r\n    function getUserAllGroups() public view returns (uint32[] memory) {\r\n        userStruct storage u = userInfo[msg.sender];\r\n        return u.groups;\r\n    }\r\n    \r\n    // Returns all members of the group\r\n    function getAllMembers(uint32 groupID) public view returns (address[] memory) {\r\n        groupStruct storage g = groupInfo[groupID];\r\n        return g.members;\r\n    }\r\n    \r\n    // Returns a specific group of the website\r\n    function getGroup(uint8 id) public view returns(string memory, string memory, address[] memory, uint) {\r\n        groupStruct storage g = groupInfo[id];\r\n        return (g.name, g.description, g.members, g.members.length);\r\n    }\r\n    \r\n    function getExistingGroups() public view returns(uint32[] memory) {\r\n        return existingGroups;\r\n    }\r\n    \r\n    function registerUser(string memory name, string memory email, string memory password) public {\r\n        userStruct storage u = userInfo[msg.sender]; //innitialize\r\n        u.name = name;\r\n        u.email = email;\r\n        u.password = password;\r\n        u.userAddress =  msg.sender;\r\n        u.isAdmin = true;\r\n        if (isGroup(1)) {\r\n            registerGroup(1);\r\n        }\r\n    }\r\n\r\n    function createVote(uint typeOf) public{\r\n        address newVote = address(new Vote(msg.sender, typeOf));\r\n        deployedVotes.push(newVote);\r\n    }\r\n    function loginUser(string memory password) public view returns (string memory, string memory, uint32[] memory, bool) {\r\n       userStruct storage u = userInfo[msg.sender];\r\n       require(compareStrings(password, u.password)); // NEW implemented the helper method\r\n       return(u.name, u.email, u.groups, u.isAdmin);\r\n    }\r\n\r\n    //NEED TO BE FIX (u.groups)\r\n    function getUser() public view returns (string memory, string memory, uint32[] memory, bool){\r\n        userStruct storage u = userInfo[msg.sender];\r\n        return(u.name, u.email, u.groups, u.isAdmin);\r\n    }\r\n    \r\n    function getDeployedVotes() public view returns (address[] memory) {\r\n        return deployedVotes;\r\n    }\r\n    \r\n    // Returns a boolean value of the comparison (HELPER METHOD)\r\n    // Based on https://ethereum.stackexchange.com/questions/30912/how-to-compare-strings-in-solidity/82739\r\n    function compareStrings(string memory a, string memory b) public pure returns (bool) {\r\n        return (keccak256(abi.encodePacked((a))) == keccak256(abi.encodePacked((b))));\r\n    }   \r\n}",
  "sourcePath": "C:/Users/foubroker/Desktop/BAM/voting-at-mcgill-2/contracts/VoteFactory.sol",
  "compiler": {
    "name": "solc",
    "version": "0.7.4+commit.3f05b770.Emscripten.clang"
  },
  "schemaVersion": "3.3.3",
  "updatedAt": "2021-04-01T21:42:06.854Z",
  "networkType": "ethereum",
  "devdoc": {
    "kind": "dev",
    "methods": {},
    "version": 1
  },
  "userdoc": {
    "kind": "user",
    "methods": {},
    "version": 1
  }
}