{
  "contractName": "Vote",
  "abi": [
    {
      "inputs": [
        {
          "internalType": "address",
          "name": "managerOfVote",
          "type": "address"
        },
        {
          "internalType": "uint256",
          "name": "typeOf",
          "type": "uint256"
        }
      ],
      "stateMutability": "nonpayable",
      "type": "constructor"
    },
    {
      "inputs": [
        {
          "internalType": "uint256",
          "name": "",
          "type": "uint256"
        }
      ],
      "name": "candidateArray",
      "outputs": [
        {
          "internalType": "string",
          "name": "name",
          "type": "string"
        },
        {
          "internalType": "string",
          "name": "description",
          "type": "string"
        },
        {
          "internalType": "uint256",
          "name": "votes",
          "type": "uint256"
        }
      ],
      "stateMutability": "view",
      "type": "function"
    },
    {
      "inputs": [
        {
          "internalType": "address",
          "name": "",
          "type": "address"
        }
      ],
      "name": "candidates",
      "outputs": [
        {
          "internalType": "string",
          "name": "name",
          "type": "string"
        },
        {
          "internalType": "string",
          "name": "description",
          "type": "string"
        },
        {
          "internalType": "uint256",
          "name": "votes",
          "type": "uint256"
        }
      ],
      "stateMutability": "view",
      "type": "function"
    },
    {
      "inputs": [],
      "name": "currentElection",
      "outputs": [
        {
          "internalType": "string",
          "name": "title",
          "type": "string"
        },
        {
          "internalType": "uint256",
          "name": "startDate",
          "type": "uint256"
        },
        {
          "internalType": "uint256",
          "name": "endDate",
          "type": "uint256"
        },
        {
          "internalType": "string",
          "name": "description",
          "type": "string"
        },
        {
          "internalType": "uint256",
          "name": "numVotes",
          "type": "uint256"
        }
      ],
      "stateMutability": "view",
      "type": "function"
    },
    {
      "inputs": [],
      "name": "currentPetition",
      "outputs": [
        {
          "internalType": "string",
          "name": "title",
          "type": "string"
        },
        {
          "internalType": "uint256",
          "name": "startDate",
          "type": "uint256"
        },
        {
          "internalType": "uint256",
          "name": "endDate",
          "type": "uint256"
        },
        {
          "internalType": "string",
          "name": "description",
          "type": "string"
        },
        {
          "internalType": "uint256",
          "name": "numSigned",
          "type": "uint256"
        }
      ],
      "stateMutability": "view",
      "type": "function"
    },
    {
      "inputs": [],
      "name": "manager",
      "outputs": [
        {
          "internalType": "address",
          "name": "",
          "type": "address"
        }
      ],
      "stateMutability": "view",
      "type": "function"
    },
    {
      "inputs": [
        {
          "internalType": "string",
          "name": "title",
          "type": "string"
        },
        {
          "internalType": "uint256",
          "name": "startDate",
          "type": "uint256"
        },
        {
          "internalType": "uint256",
          "name": "endDate",
          "type": "uint256"
        },
        {
          "internalType": "string",
          "name": "description",
          "type": "string"
        },
        {
          "internalType": "uint256[]",
          "name": "addedGroups",
          "type": "uint256[]"
        }
      ],
      "name": "editElection",
      "outputs": [],
      "stateMutability": "nonpayable",
      "type": "function"
    },
    {
      "inputs": [
        {
          "internalType": "string",
          "name": "title",
          "type": "string"
        },
        {
          "internalType": "uint256",
          "name": "startDate",
          "type": "uint256"
        },
        {
          "internalType": "uint256",
          "name": "endDate",
          "type": "uint256"
        },
        {
          "internalType": "string",
          "name": "description",
          "type": "string"
        },
        {
          "internalType": "uint256[]",
          "name": "addedGroups",
          "type": "uint256[]"
        }
      ],
      "name": "editPetition",
      "outputs": [],
      "stateMutability": "nonpayable",
      "type": "function"
    },
    {
      "inputs": [
        {
          "internalType": "string",
          "name": "name",
          "type": "string"
        },
        {
          "internalType": "string",
          "name": "description",
          "type": "string"
        },
        {
          "internalType": "uint256",
          "name": "current_date",
          "type": "uint256"
        }
      ],
      "name": "enter_election",
      "outputs": [],
      "stateMutability": "nonpayable",
      "type": "function"
    },
    {
      "inputs": [
        {
          "internalType": "uint256",
          "name": "current_date",
          "type": "uint256"
        }
      ],
      "name": "leave_election",
      "outputs": [],
      "stateMutability": "nonpayable",
      "type": "function"
    },
    {
      "inputs": [],
      "name": "get_election",
      "outputs": [
        {
          "internalType": "string",
          "name": "",
          "type": "string"
        },
        {
          "internalType": "uint256",
          "name": "",
          "type": "uint256"
        },
        {
          "internalType": "uint256",
          "name": "",
          "type": "uint256"
        },
        {
          "internalType": "string",
          "name": "",
          "type": "string"
        },
        {
          "internalType": "uint256",
          "name": "",
          "type": "uint256"
        }
      ],
      "stateMutability": "view",
      "type": "function"
    },
    {
      "inputs": [],
      "name": "get_petition",
      "outputs": [
        {
          "internalType": "string",
          "name": "",
          "type": "string"
        },
        {
          "internalType": "uint256",
          "name": "",
          "type": "uint256"
        },
        {
          "internalType": "uint256",
          "name": "",
          "type": "uint256"
        },
        {
          "internalType": "string",
          "name": "",
          "type": "string"
        },
        {
          "internalType": "uint256",
          "name": "",
          "type": "uint256"
        }
      ],
      "stateMutability": "view",
      "type": "function"
    }
  ],
  "bytecode": "0x608060405234801561001057600080fd5b50604051611d08380380611d088339818101604052604081101561003357600080fd5b810190808051906020019092919080519060200190929190505050816000806101000a81548173ffffffffffffffffffffffffffffffffffffffff021916908373ffffffffffffffffffffffffffffffffffffffff1602179055508060001461009d5760016100a0565b60005b60ff166001819055505050611c4e806100ba6000396000f3fe608060405234801561001057600080fd5b50600436106100a95760003560e01c80637014adf0116100715780637014adf01461043257806376bd56711461058e578063772a5750146107885780638ab66a90146109825780638e440c3214610ab2578063fcae83a714610bb6576100a9565b806304facd35146100ae57806335a893a1146101b2578063481c6a75146102cc5780634abb6d3614610300578063691a675c1461032e575b600080fd5b6100b6610cba565b604051808060200186815260200185815260200180602001848152602001838103835288818151815260200191508051906020019080838360005b8381101561010c5780820151818401526020810190506100f1565b50505050905090810190601f1680156101395780820380516001836020036101000a031916815260200191505b50838103825285818151815260200191508051906020019080838360005b83811015610172578082015181840152602081019050610157565b50505050905090810190601f16801561019f5780820380516001836020036101000a031916815260200191505b5097505050505050505060405180910390f35b6101de600480360360208110156101c857600080fd5b8101908080359060200190929190505050610e36565b604051808060200180602001848152602001838103835286818151815260200191508051906020019080838360005b8381101561022857808201518184015260208101905061020d565b50505050905090810190601f1680156102555780820380516001836020036101000a031916815260200191505b50838103825285818151815260200191508051906020019080838360005b8381101561028e578082015181840152602081019050610273565b50505050905090810190601f1680156102bb5780820380516001836020036101000a031916815260200191505b509550505050505060405180910390f35b6102d4610fa0565b604051808273ffffffffffffffffffffffffffffffffffffffff16815260200191505060405180910390f35b61032c6004803603602081101561031657600080fd5b8101908080359060200190929190505050610fc4565b005b610336611096565b604051808060200186815260200185815260200180602001848152602001838103835288818151815260200191508051906020019080838360005b8381101561038c578082015181840152602081019050610371565b50505050905090810190601f1680156103b95780820380516001836020036101000a031916815260200191505b50838103825285818151815260200191508051906020019080838360005b838110156103f25780820151818401526020810190506103d7565b50505050905090810190601f16801561041f5780820380516001836020036101000a031916815260200191505b5097505050505050505060405180910390f35b61058c6004803603606081101561044857600080fd5b810190808035906020019064010000000081111561046557600080fd5b82018360208201111561047757600080fd5b8035906020019184600183028401116401000000008311171561049957600080fd5b91908080601f016020809104026020016040519081016040528093929190818152602001838380828437600081840152601f19601f820116905080830192505050505050509192919290803590602001906401000000008111156104fc57600080fd5b82018360208201111561050e57600080fd5b8035906020019184600183028401116401000000008311171561053057600080fd5b91908080601f016020809104026020016040519081016040528093929190818152602001838380828437600081840152601f19601f820116905080830192505050505050509192919290803590602001909291905050506111ea565b005b610786600480360360a08110156105a457600080fd5b81019080803590602001906401000000008111156105c157600080fd5b8201836020820111156105d357600080fd5b803590602001918460018302840111640100000000831117156105f557600080fd5b91908080601f016020809104026020016040519081016040528093929190818152602001838380828437600081840152601f19601f82011690508083019250505050505050919291929080359060200190929190803590602001909291908035906020019064010000000081111561066c57600080fd5b82018360208201111561067e57600080fd5b803590602001918460018302840111640100000000831117156106a057600080fd5b91908080601f016020809104026020016040519081016040528093929190818152602001838380828437600081840152601f19601f8201169050808301925050505050505091929192908035906020019064010000000081111561070357600080fd5b82018360208201111561071557600080fd5b8035906020019184602083028401116401000000008311171561073757600080fd5b919080806020026020016040519081016040528093929190818152602001838360200280828437600081840152601f19601f82011690508083019250505050505050919291929050505061131d565b005b610980600480360360a081101561079e57600080fd5b81019080803590602001906401000000008111156107bb57600080fd5b8201836020820111156107cd57600080fd5b803590602001918460018302840111640100000000831117156107ef57600080fd5b91908080601f016020809104026020016040519081016040528093929190818152602001838380828437600081840152601f19601f82011690508083019250505050505050919291929080359060200190929190803590602001909291908035906020019064010000000081111561086657600080fd5b82018360208201111561087857600080fd5b8035906020019184600183028401116401000000008311171561089a57600080fd5b91908080601f016020809104026020016040519081016040528093929190818152602001838380828437600081840152601f19601f820116905080830192505050505050509192919290803590602001906401000000008111156108fd57600080fd5b82018360208201111561090f57600080fd5b8035906020019184602083028401116401000000008311171561093157600080fd5b919080806020026020016040519081016040528093929190818152602001838360200280828437600081840152601f19601f8201169050808301925050505050505091929192905050506114bd565b005b6109c46004803603602081101561099857600080fd5b81019080803573ffffffffffffffffffffffffffffffffffffffff16906020019092919050505061165c565b604051808060200180602001848152602001838103835286818151815260200191508051906020019080838360005b83811015610a0e5780820151818401526020810190506109f3565b50505050905090810190601f168015610a3b5780820380516001836020036101000a031916815260200191505b50838103825285818151815260200191508051906020019080838360005b83811015610a74578082015181840152602081019050610a59565b50505050905090810190601f168015610aa15780820380516001836020036101000a031916815260200191505b509550505050505060405180910390f35b610aba6117b6565b604051808060200186815260200185815260200180602001848152602001838103835288818151815260200191508051906020019080838360005b83811015610b10578082015181840152602081019050610af5565b50505050905090810190601f168015610b3d5780820380516001836020036101000a031916815260200191505b50838103825285818151815260200191508051906020019080838360005b83811015610b76578082015181840152602081019050610b5b565b50505050905090810190601f168015610ba35780820380516001836020036101000a031916815260200191505b5097505050505050505060405180910390f35b610bbe611932565b604051808060200186815260200185815260200180602001848152602001838103835288818151815260200191508051906020019080838360005b83811015610c14578082015181840152602081019050610bf9565b50505050905090810190601f168015610c415780820380516001836020036101000a031916815260200191505b50838103825285818151815260200191508051906020019080838360005b83811015610c7a578082015181840152602081019050610c5f565b50505050905090810190601f168015610ca75780820380516001836020036101000a031916815260200191505b5097505050505050505060405180910390f35b6060600080606060008060015414610cd157600080fd5b60066000016006600101546006600201546006600301600660040154848054600181600116156101000203166002900480601f016020809104026020016040519081016040528092919081815260200182805460018160011615610100020316600290048015610d825780601f10610d5757610100808354040283529160200191610d82565b820191906000526020600020905b815481529060010190602001808311610d6557829003601f168201915b50505050509450818054600181600116156101000203166002900480601f016020809104026020016040519081016040528092919081815260200182805460018160011615610100020316600290048015610e1e5780601f10610df357610100808354040283529160200191610e1e565b820191906000526020600020905b815481529060010190602001808311610e0157829003601f168201915b50505050509150945094509450945094509091929394565b60058181548110610e4657600080fd5b9060005260206000209060030201600091509050806000018054600181600116156101000203166002900480601f016020809104026020016040519081016040528092919081815260200182805460018160011615610100020316600290048015610ef25780601f10610ec757610100808354040283529160200191610ef2565b820191906000526020600020905b815481529060010190602001808311610ed557829003601f168201915b505050505090806001018054600181600116156101000203166002900480601f016020809104026020016040519081016040528092919081815260200182805460018160011615610100020316600290048015610f905780601f10610f6557610100808354040283529160200191610f90565b820191906000526020600020905b815481529060010190602001808311610f7357829003601f168201915b5050505050908060020154905083565b60008054906101000a900473ffffffffffffffffffffffffffffffffffffffff1681565b600060015414610fd357600080fd5b60066001015481118015610fec57506006600201548111155b610ff557600080fd5b6000600360003373ffffffffffffffffffffffffffffffffffffffff1673ffffffffffffffffffffffffffffffffffffffff16815260200190815260200160002090506040518060200160405280600081525081600001908051906020019061105f929190611a86565b5060405180602001604052806000815250816001019080519060200190611087929190611a86565b50600081600201819055505050565b600c806000018054600181600116156101000203166002900480601f0160208091040260200160405190810160405280929190818152602001828054600181600116156101000203166002900480156111305780601f1061110557610100808354040283529160200191611130565b820191906000526020600020905b81548152906001019060200180831161111357829003601f168201915b505050505090806001015490806002015490806003018054600181600116156101000203166002900480601f0160208091040260200160405190810160405280929190818152602001828054600181600116156101000203166002900480156111da5780601f106111af576101008083540402835291602001916111da565b820191906000526020600020905b8154815290600101906020018083116111bd57829003601f168201915b5050505050908060040154905085565b6000600154146111f957600080fd5b60066001015481118015611211575060066002015481105b61121a57600080fd5b6000600360003373ffffffffffffffffffffffffffffffffffffffff1673ffffffffffffffffffffffffffffffffffffffff168152602001908152602001600020905083816000019080519060200190611275929190611a86565b508281600101908051906020019061128e929190611a86565b506005819080600181540180825580915050600190039060005260206000209060030201600090919091909150600082018160000190805460018160011615610100020316600290046112e2929190611b14565b506001820181600101908054600181600116156101000203166002900461130a929190611b14565b5060028201548160020155505050505050565b60008054906101000a900473ffffffffffffffffffffffffffffffffffffffff1673ffffffffffffffffffffffffffffffffffffffff163373ffffffffffffffffffffffffffffffffffffffff161461137557600080fd5b60006001541461138457600080fd5b600060069050858160000190805190602001906113a2929190611a86565b50848160010181905550838160020181905550828160030190805190602001906113cd929190611a86565b5060005b82518110156114b457600260008483815181106113ea57fe5b602002602001015181526020019081526020016000206004600085848151811061141057fe5b602002602001015181526020019081526020016000206000820181600001908054600181600116156101000203166002900461144d929190611b14565b5060018201816001019080546001816001161561010002031660029004611475929190611b14565b50600282018160020190805461148c929190611ba9565b5060038201816003019080546114a3929190611ba9565b5090505080806001019150506113d1565b50505050505050565b60008054906101000a900473ffffffffffffffffffffffffffffffffffffffff1673ffffffffffffffffffffffffffffffffffffffff163373ffffffffffffffffffffffffffffffffffffffff161461151557600080fd5b600180541461152357600080fd5b6000600c905085816000019080519060200190611541929190611a86565b508481600101819055508381600201819055508281600301908051906020019061156c929190611a86565b5060005b8251811015611653576002600084838151811061158957fe5b60200260200101518152602001908152602001600020600460008584815181106115af57fe5b60200260200101518152602001908152602001600020600082018160000190805460018160011615610100020316600290046115ec929190611b14565b5060018201816001019080546001816001161561010002031660029004611614929190611b14565b50600282018160020190805461162b929190611ba9565b506003820181600301908054611642929190611ba9565b509050508080600101915050611570565b50505050505050565b6003602052806000526040600020600091509050806000018054600181600116156101000203166002900480601f0160208091040260200160405190810160405280929190818152602001828054600181600116156101000203166002900480156117085780601f106116dd57610100808354040283529160200191611708565b820191906000526020600020905b8154815290600101906020018083116116eb57829003601f168201915b505050505090806001018054600181600116156101000203166002900480601f0160208091040260200160405190810160405280929190818152602001828054600181600116156101000203166002900480156117a65780601f1061177b576101008083540402835291602001916117a6565b820191906000526020600020905b81548152906001019060200180831161178957829003601f168201915b5050505050908060020154905083565b60606000806060600060018054146117cd57600080fd5b600c600001600c60010154600c60020154600c600301600c60040154848054600181600116156101000203166002900480601f01602080910402602001604051908101604052809291908181526020018280546001816001161561010002031660029004801561187e5780601f106118535761010080835404028352916020019161187e565b820191906000526020600020905b81548152906001019060200180831161186157829003601f168201915b50505050509450818054600181600116156101000203166002900480601f01602080910402602001604051908101604052809291908181526020018280546001816001161561010002031660029004801561191a5780601f106118ef5761010080835404028352916020019161191a565b820191906000526020600020905b8154815290600101906020018083116118fd57829003601f168201915b50505050509150945094509450945094509091929394565b6006806000018054600181600116156101000203166002900480601f0160208091040260200160405190810160405280929190818152602001828054600181600116156101000203166002900480156119cc5780601f106119a1576101008083540402835291602001916119cc565b820191906000526020600020905b8154815290600101906020018083116119af57829003601f168201915b505050505090806001015490806002015490806003018054600181600116156101000203166002900480601f016020809104026020016040519081016040528092919081815260200182805460018160011615610100020316600290048015611a765780601f10611a4b57610100808354040283529160200191611a76565b820191906000526020600020905b815481529060010190602001808311611a5957829003601f168201915b5050505050908060040154905085565b828054600181600116156101000203166002900490600052602060002090601f016020900481019282611abc5760008555611b03565b82601f10611ad557805160ff1916838001178555611b03565b82800160010185558215611b03579182015b82811115611b02578251825591602001919060010190611ae7565b5b509050611b109190611bfb565b5090565b828054600181600116156101000203166002900490600052602060002090601f016020900481019282611b4a5760008555611b98565b82601f10611b5b5780548555611b98565b82800160010185558215611b9857600052602060002091601f016020900482015b82811115611b97578254825591600101919060010190611b7c565b5b509050611ba59190611bfb565b5090565b828054828255906000526020600020908101928215611bea5760005260206000209182015b82811115611be9578254825591600101919060010190611bce565b5b509050611bf79190611bfb565b5090565b5b80821115611c14576000816000905550600101611bfc565b509056fea264697066735822122078b1e64009245b405587b29c151208b2564bb9624852a6323516f2abd5b86e6064736f6c63430007040033",
  "immutableReferences": {},
  "source": "pragma solidity ^0.7.4;\r\n//\"SPDX-License-Identifier: UNLICENSED\"\r\n\r\ncontract Vote{\r\n    //admin address\r\n    address public manager;\r\n    \r\n    struct user{\r\n        string name;\r\n        string email;\r\n        string password;\r\n        address userAddress;\r\n        address[] running;\r\n        address[] createdElection;\r\n        address[] createdPetition;\r\n        string userType;\r\n    }\r\n\r\n    struct candidate {\r\n        string name;\r\n        string description;\r\n        uint votes;\r\n    }\r\n    \r\n    struct group {\r\n        string name;\r\n        string password;\r\n        address[] members;\r\n        address[] admins;\r\n    }\r\n\r\n    struct election {\r\n        string title;\r\n        uint startDate;\r\n        uint endDate;\r\n        string description;\r\n        //think about mapping?\r\n        uint numVotes;\r\n        mapping(address => bool) voters; //see if a voter has voted\r\n    }\r\n    struct petition{\r\n        string title;\r\n        uint startDate;\r\n        uint endDate;\r\n        string description;\r\n        uint numSigned;\r\n        mapping(address=>bool) signed; //see if a user has signed\r\n    }\r\n    uint typeOfVote; //0 for election and 1 for petition\r\n    // mapping(uint => election) public elections;\r\n    mapping(uint => group) allGroups; //contains all groups possible\r\n    mapping(address => candidate) public candidates; //number of current votes for each candidate\r\n    mapping(uint => group) includedGroups;\r\n    candidate[] public candidateArray;\r\n    election public currentElection;\r\n    petition public currentPetition;\r\n    \r\n    constructor (address managerOfVote, uint typeOf){   //how does one become an admin?\r\n        // constructor\r\n        manager = managerOfVote;\r\n        typeOfVote = (0 == typeOf) ? 0 : 1;\r\n    }\r\n    \r\n    function editElection (string memory title, uint256 startDate, uint256 endDate, string memory description, uint[] memory addedGroups)\r\n    public restricted typeElection {\r\n        election storage e = currentElection;\r\n        e.title = title;\r\n        e.startDate = startDate;\r\n        e.endDate = endDate;\r\n        e.description = description;\r\n        for(uint i = 0; i < addedGroups.length; i ++){\r\n            includedGroups[addedGroups[i]] = allGroups[addedGroups[i]];\r\n        }\r\n    }\r\n    \r\n    function editPetition (string memory title, uint256 startDate, uint256 endDate, string memory description, uint[] memory addedGroups)\r\n    public restricted typePetition {\r\n        petition storage p = currentPetition;\r\n        p.title = title;\r\n        p.startDate = startDate;\r\n        p.endDate = endDate;\r\n        p.description = description;\r\n        for(uint i = 0; i < addedGroups.length; i ++){\r\n            includedGroups[addedGroups[i]] = allGroups[addedGroups[i]];\r\n        }\r\n    }\r\n    \r\n    //enter as a candidate\r\n    function enter_election(string memory name, string memory description, uint256 current_date) \r\n    public typeElection {\r\n        //Check if the registration is before the required deadline\r\n        require(current_date > currentElection.startDate && current_date < currentElection.endDate);\r\n        //enter candidate\r\n        candidate storage currentCandidate = candidates[msg.sender];\r\n        currentCandidate.name = name;\r\n        currentCandidate.description = description;\r\n        candidateArray.push(currentCandidate);\r\n    }\r\n\r\n    //leave the election\r\n    function leave_election(uint256 current_date) \r\n    public typeElection {\r\n        //Check if the registration is before the required deadline\r\n        require(current_date > currentElection.startDate && current_date <= currentElection.endDate);\r\n        //remove candidate\r\n        candidate storage currentCandidate = candidates[msg.sender];\r\n        currentCandidate.name = \"\";\r\n        currentCandidate.description = \"\";\r\n        currentCandidate.votes = 0;\r\n        //need to implement remove from array\r\n    }\r\n    \r\n    //GETTERS\r\n    \r\n    //get election\r\n    function get_election() public view typeElection returns (string memory,uint,uint,string memory,uint) {\r\n        return (currentElection.title, currentElection.startDate, currentElection.endDate, currentElection.description, currentElection.numVotes);\r\n    }\r\n    //get petition\r\n    function get_petition() public view typePetition returns (string memory,uint,uint,string memory,uint){\r\n        return (currentPetition.title, currentPetition.startDate, currentPetition.endDate, currentPetition.description, currentPetition.numSigned);\r\n    }\r\n    \r\n    modifier restricted() {\r\n        require(msg.sender == manager);\r\n        _;\r\n    }\r\n    modifier typeElection() {\r\n        require(typeOfVote == 0);\r\n        _;\r\n    }\r\n    modifier typePetition() {\r\n        require(typeOfVote == 1);\r\n        _;\r\n    }\r\n\r\n}\r\n",
  "sourcePath": "C:\\Users\\foubroker\\voting-at-mcgill\\contracts\\Vote.sol",
  "compiler": {
    "name": "solc",
    "version": "0.7.4+commit.3f05b770.Emscripten.clang"
  },
  "schemaVersion": "3.3.3",
  "updatedAt": "2021-01-21T22:28:30.886Z",
  "devdoc": {
    "kind": "dev",
    "methods": {},
    "version": 1
  },
  "userdoc": {
    "kind": "user",
    "methods": {},
    "version": 1
  }
}